:040000006F20805B92
:100004000000000000000000900000202E070020E7
:10001400A9BDF9F5900000200000000000000000D8
:10002400900000209000002000000000000000006C
:10003400900000200000000090000020000000005C
:1000440090000020E20200203203002090000020F3
:1000540090000020900000209000002090000020DC
:100064009000002090000020920000202601002033
:100074002208002090000020900000209000002022
:1000840090000020BA0100204E02002090000020C1
:1000940001A0373700408347470099464111BD8B83
:1000A400638CD70231476384E7061147639EE702F6
:1000B400A3030100174600000346C67B3737004000
:1000C400834771006315F6022C001385017897E0CD
:1000D40000E0E780E0BD09A88347570093F7F70FD6
:1000E4002304F100834781004101730020308347DA
:1000F4007100834687000C08AE97238CD7FE834794
:100104007100850793F7F70FA303F10055BF28008B
:10011400976001E0E780208E1375F50FA303A1001B
:100124000346710055B73737004083474740994627
:100134004111BD8B638CD70231476384E7061147B5
:10014400639EE702A3030100174600000346A6725C
:1001540037370040834771006315F6022C0013857E
:10016400417997E000E0E780A0B409A883475740AD
:1001740093F7F70F2304F1008347810041017300D3
:10018400203083477100834687400C08AE97238C48
:10019400D7FE83477100850793F7F70FA303F10098
:1001A40055BF2800976001E0E780A0961375F50F0E
:1001B400A303A1000346710055B7374700408347A6
:1001C400478099464111BD8B638CD70231476384C4
:1001D400E7061147639EE702A303010017460000E8
:1001E4000346566937470040834771006315F6029A
:1001F4002C001385817A97E000E0E78060AB09A8C2
:100204008347578093F7F70F2304F1008347810056
:1002140041017300203083477100834687800C08B6
:10022400AE97238CD7FE83477100850793F7F70FAA
:10023400A303F10055BF2800976001E0E780209FE9
:100244001375F50FA303A1000346710055B7374793
:100254000040834747C099464111BD8B638CD70248
:1002640031476384E7061147639EE702A303010055
:10027400175600000346E680374700408347710065
:100284006315F6022C001385C17B97E000E0E7803C
:1002940020A209A8834757C093F7F70F2304F1005E
:1002A40083478100410173002030834771008346F6
:1002B40087C00C08AE97238CD7FE8347710085074F
:1002C40093F7F70FA303F10055BF2800976001E0EF
:1002D400E780A0A71375F50FA303A10003467100DF
:1002E40055B7411126C4B714004022C603D4C4092B
:1002F400420441809317140163DB0700BD450145A7
:10030400973001E0E780C0769167239EF408137468
:10031400041019C8973001E0E780E064B717004083
:1003240013070010239EE7083244A24441017300DE
:1003340020307300203073270080218B93874190F5
:1003440009CB7327008023A2E19098435D9B73102F
:100354000780010001003717004093067005230051
:10036400D704930680FA2300D704010001008346D2
:10037400B70493F6F60DA305D704230007047326E8
:1003840000809443A18AD18E7390068023A20190A9
:100394000100010093760502638406180347A70051
:1003A400118B25E773270080218B09CB73270080ED
:1003B40023A2E19098435D9B731007800100010024
:1003C40037170040930670052300D704930680FA7C
:1003D4002300D704010001008346A70093E64600EA
:1003E4002305D70023000704F32600809843218BBC
:1003F400558F7310078023A2019001000100130799
:10040400004B010001007D176DFF73270080218BD5
:1004140009CB7327008023A2E19098435D9B73105E
:100424000780010001003717004093067005230080
:10043400D704930680FA2300D704010001007D89C4
:100444002314A70001000100010001002300070498
:10045400F32600809843218B558F7310078023A2C5
:1004640001900100010073270080218B09CB7327C1
:10047400008023A2E19098435D9B731007800100E4
:10048400010037170040930670052300D704930634
:1004940080FA2300D7040100010001000100B726FF
:1004A400004013061005A383C68023000704F32627
:1004B40000809843218B558F7310078023A20190ED
:1004C4000100010073270080218B09CB7327008072
:1004D40023A2E19098435D9B731007800100010003
:1004E40037170040930670052300D704930680FA5B
:1004F4002300D704010001008346B70493E60608ED
:10050400A305D70423000704732700809C43A18B11
:10051400D98F7390078023A201900100010082808B
:1005240093760504638B06140347A700418B25E7E4
:1005340073270080218B09CB7327008023A2E190CD
:1005440098435D9B7310078001000100371700403A
:10055400930670052300D704930680FA2300D7047A
:10056400010001008346A70093E606012305D70096
:1005740023000704F32600809843218B558F7310C2
:10058400078023A20190010001001307007D0100F0
:1005940001007D176DFF73270080218B09CB732722
:1005A400008023A2E19098435D9B731007800100B3
:1005B400010037170040930670052300D704930603
:1005C40080FA2300D704010001009376F50193E635
:1005D40006042314D70001000100010001002300D8
:1005E4000704F32600809843218B558F73100780EE
:1005F40023A2019001000100130760046310E504C5
:1006040073270080218B09CB7327008023A2E190FC
:1006140098435D9B73100780010001003717004069
:10062400930670052300D704930680FA2300D704A9
:1006340001000100B72600400946B5B573270080C4
:10064400218B09CB7327008023A2E19098435D9B03
:1006540073100780010001003717004093067005EE
:100664002300D704930680FA2300D7040100010075
:10067400B7260040130620053DB573270080218B63
:1006840009CB7327008023A2E19098435D9B7310EC
:10069400078001000100371700409306700523000E
:1006A400D704930680FA2300D7040100010083567F
:1006B400870093E6060C2314D700C5BB411181467D
:1006C40001468145114506C68124F3270080A18B8C
:1006D4009386419089CBF327008023A2F1909C421A
:1006E400DD9B7390078001000100B71700401307DA
:1006F40070052380E704130780FA2380E7040100D0
:10070400010003C76704136717002383E7042380EA
:100714000704732700809C42A18BD98F73900780B4
:1007240023A2019001000100B24041018280814670
:10073400014681451145C92AF3270080A18B1387FF
:10074400419089CBF327008023A2F1901C43DD9BC9
:100754007390078001000100B717004093067005ED
:100764002380D704930680FA2380D7040100010074
:10077400FD562396D70223800704F32600801C43EA
:10078400A18BD58F7390078023A2019001000100F3
:10079400F3270080A18B89CBF327008023A2F1905B
:1007A4001C43DD9B7390078001000100B7170040D4
:1007B400930670052380D704930680FA2380D70418
:1007C4000100010083C6670493E616002383D7045F
:1007D40023800704F32600801C43A18BD58F7390DC
:1007E400078023A201900100010001A0BD47330549
:1007F400F50201007D1575FD8280411122C426C2D7
:1008040006C6AA84014463179400B2402244924469
:100814004101828005041305803E4204C13F4180AA
:10082400DDB7B7170040130700032388E7028547A5
:10083400174700002320F73E73002030411106C6FD
:10084400A52D97E000E0E780A04EDDBF23030480E0
:1008540015472303E48001002302A48082808307D8
:100864006480E3CE07FE23030480828083076480D0
:10087400E3CE07FE03454480828083076480E3CE91
:1008840007FE2302A4808280411126C44AC24EC0BE
:1008940006C61377F50BAD47AA892E8995446306DE
:1008A400F70019456537653F8D444E854537FD5939
:1008B400FD1463983401B240A244124982494101B3
:1008C4008280135509011375F50F453F2209CDB7F1
:1008D400011126CC06CEB704080051371545BD37A3
:1008E400713769372AC6A53F32459377150089EBDE
:1008F400136515001375F50FF240E244056182801B
:10090400FD14E9FC0145CDBF397126DC4ADA4ED825
:1009140052D656D45AD25ED006DE62CE66CCB7E743
:1009240000E07D5783AA070022C603AA470023A03C
:10093400E71823A2E718B7170040130770052380B0
:10094400E704130780FA2380E70483C74704930B63
:1009540075FFB684E20793FBFB0F8546AA892E8BAD
:10096400328937240040E187015763FA760163082E
:10097400D5008946130700026313D5000157D98FA8
:1009840093F7F70FB71C00402382FC04114723039D
:10099400E4801305F00F5D3D094CD135636D7C1186
:1009A400B7050700DA9537870700795563F2E50440
:1009B400B3879500636EF702370B0800A94733EB42
:1009C40065016399F90689E48144513D26850DA0AA
:1009D400DA850945553D05090345F9FFFD14050B65
:1009E400693D81C49377FB0FFDF7DD3569FD7D55C6
:1009F400B7170040130770052380E704130780FA34
:100A04002380E70403C74704418B2382E704F250A1
:100A1400B7E700E023A0571123A24711E254324460
:100A24005259C259325AA25A125B825B724CE24C3E
:100A340021618280A5476395F90685691309F00F42
:100A4400B3069900B3742B01B6941349F9FFB37438
:100A54009900856B33796901416B9387F9FFB3F78B
:100A6400270199E363FC340193D94900C147E3E6C4
:100A740037FF99BF0569C1697D19D9B71305800D81
:100A84006388690113050002638479011305100862
:100A9400CA85DD3B353D21DD4E99B3843441D9B758
:100AA400DA852D45D533CA94E30099F205097D3BD7
:100AB400A30FA9FED5BF9387F9FF93F7F70F6361DF
:100AC400FC0C83C71C0413073008631FF7043707A3
:100AD4000800636BEB04B3079B00B706100063F5D3
:100AE400D704334BEB0089476393F9068980D549D2
:100AF400E38C04ECDA850945413B11090327C9FF5E
:100B040091472320E48003076480E34E07FE230318
:100B14003481FD17EDFBFD14110B81C49377FB0F9A
:100B2400E9FF7D3371F5E1B5B717004003C75704FA
:100B3400B70708001377070219E3B7870700795549
:100B4400E378FBEA33079B00E3FFE7F855B58547F5
:100B5400E382F9F2DA852D45053B9389F4FFE385B9
:100B640004E6293393F7390091EB832604800327A5
:100B7400090093074900E39AE6E43E89CE84F1BF75
:100B8400B5476396F9001305900BC93135BDB147DC
:100B94001305B00AE38BF9FE99476391F904B7058D
:100BA4000800B365BB002D45C53181448D4BA14977
:100BB400753963967401832704802320F900850422
:100BC400E39834FF8327048013172B016355070030
:100BD4002312F900D5BB2322F900FDB39D47639985
:100BE400F90281451305B0044531BD4423200900B1
:100BF40023220900FD599D3993F77400CA9703C74E
:100C04000700FD14398D2380A700E39634FF6DBBE4
:100C1400A1476392F9046D398144630D0B008D473C
:100C24009304C0036308FB009304000563048B0171
:100C3400930440041375C507E30895D81945393161
:100C440039390545213126850D3909453D3149316B
:100C5400E31C05D669BB91476399F9001305600647
:100C6400F536F53E130590090DB7E38F09D4F15419
:100C7400A9BB19CD91CD09CE81473387F5008346B1
:100C840007003307F50085072300D700E317F6FEB6
:100C9400828019C991C909CA910583A7C5FF1105A5
:100CA4007D16232EF5FEC5BF828001C919C62A967A
:100CB4000505A30FB5FEE31DA6FE82808147330719
:100CC400F5000307070019E33E8582808507C5BF49
:100CD40001112E8626CAAA84131506019305F00471
:100CE400418122CC06CE32C6EF1080632A8401C52E
:100CF4003246A685BD3F2285F2406244D244056156
:100D04008280854715C18DC105C28147B306F500B0
:100D14003387F50083C60600034707006398E6009F
:100D24008507E315F6FE85473E8582808147EDBF42
:100D34009307F6FFBE952A966313C5008280FD15BE
:100D440083C715000505A30FF5FEFDB7AA87014566
:100D540081CF09CE3E96850703C7F7FF6317B70017
:100D6400E39BC7FE054582808280014582807971BC
:100D7400975700009387C77222D4804306D626D2A1
:100D84004AD04ECE52CC56CA5AC85EC662C45DCC56
:100D940037C9C901814B175A0000130AEA749754E2
:100DA4000000938424701309F937975A0000938A3A
:100DB400EA69B709C0A8370B40578357240095E365
:100DC4005C44639D0B0017570000232BF76C032C26
:100DD400C4002285EF10E061628499A823A6FB0079
:100DE400FDB783270A008297838664011C4463DB72
:100DF40006063307F5406367E9089757000023AFF9
:100E04000764835524000345040097A001E0E780AC
:100E1400E0365C405844A9CF1444B69783866401F5
:100E240063C5060063E33701DA971CC4A28B3A84D6
:100E340049F497570000938767619C4B094763788F
:100E4400F706F91717570000232AF760B250225407
:100E540092540259F249624AD24A424BB24B224C52
:100E640045618280E377F5F83387F9402A9761B7C3
:100E740063970B009757000023A4E76289BF23A65A
:100E8400EB00B1B7D85009CF63DF06003385A74024
:100E940083A70A016376F5009757000023A0A75C97
:100EA400A28B404471B7E3F3A7FECE97C5B797571B
:100EB400000023A5075A59BF411122C4175400004A
:100EC4001304C45B1C4006C626C24AC091C782975D
:100ED4009757000023A4075A5C4091C382971C4093
:100EE4006391071C9757000083C7D777858B9DC7ED
:100EF40097570000A3880776175700000347B77673
:100F0400954763FDE700EF0050419757000083C702
:100F14009775F5178A07A2979C4382971759000083
:100F2400130909788347C900918B99C3EF10A03244
:100F34001C4491C38297975400009384245698408C
:100F440017560000034696509757000083C7075072
:100F540093961700BA9683D60600D5CA9757000011
:100F640083C7C74E63EFC70A975700002380074E15
:100F74001C40639807129757000083C7F76E91CF00
:100F84009757000083C7376E89EB97570000A38DEE
:100F9400076C973003E0E780207897570000938729
:100FA400A7549C43638F070EB707C0A817570000C8
:100FB4002326F74A6D3B975700009387A74EDC53CF
:100FC400EDC31757000013076748184B97570000E5
:100FD40083C7974E6367F70C175700000347B7683A
:100FE400954763E0E70C8347C900918BDDEB9040A4
:100FF4009756000083C6964563CBD70A2244B24075
:1010040092440249410117A301E0670043F48507B4
:1010140093F7F70F97560000238AF642E3E6C7F2E8
:1010240035BF86073E97835507002310070097575F
:10103400000023930746975700009387E7439C4398
:10104400175500000345854013172500BA979C43A4
:1010540082979757000083D7274417570000034708
:10106400E73E93C7F7FF7D8D9317170098403E978F
:10107400835707005D8D2310A7009757000083C78F
:10108400E73C91C78507175700002301F73C175722
:1010940000000347A73B9757000083C7373BE3751E
:1010A400F7ECB240224492440249410182801397F2
:1010B40017003297035707006DF7850735BFAD67F3
:1010C40037C70040BD072326F7200F1000009757AD
:1010D40000009387A737C84F83278726BD66BD06C0
:1010E40093C7F7FF99836A052326D7205D8D8280F5
:1010F4004111B7170040985F3AC6945F3247E39CAA
:10110400E6FE324541018280828003278511630017
:101114000712411122C406C68347C5008345C5048E
:101124002A8493F7C70F2306F500834697000356D6
:10113400C70013958601618563F1C508635A0506E6
:101144000345870093F6F607A304D700054693E604
:1011540027006314C50093E617002306D4005C43FC
:1011640089075CC3A30AB400032504112E864C43EB
:10117400090501368327841103465401D44303D758
:10118400C700B296118FD4C32396E7008947A30DF5
:10119400F400034744039757000083C7C7316378BB
:1011A400F7048347C40093E707012306F40081A0F2
:1011B40093E717002306F40075B79376F60F635D83
:1011C400050203458700854513E627006314B5002F
:1011D40013E617002306C400A30AD400A3040700DF
:1011E4008547A30DF400832784119C43DDF3B240AB
:1011F400224401454101828093E717002306F4004D
:10120400A30AD400A3040700032504114C430905D1
:101214008D348327841103465401D44303D7C70074
:10122400B296118FD4C32396E7008D475DBF054561
:10123400828097570000938727419C43411122C421
:1012440006C6858B2A84C5EF4165130525F597B03D
:1012540002E0E78020C645C58347A5002315F500B5
:1012640083270412BDE72320A4122322A412854756
:101274002310F404232005008347640154412316FA
:10128400F5000347D4002304E5000547A304E50063
:10129400175700001307C73C184F13851702158111
:1012A4001C437D151375F50F9CC25C43DCC21C47BF
:1012B4009CC65C47DCC61C4B9CCA5C4BDCCA1C4FFE
:1012C4009CCE5C4FDCCE19CD938606021307070231
:1012D400C1BF8327441288C3835704042322A41262
:1012E400850779B79757000083D7C74485071757F1
:1012F40000002311F744B240224441018280834715
:10130400C40023090400054593C747002306F400DD
:10131400DDB78347850193F7E70FD5EF8347950141
:10132400DDEB034625018346C50009CA8345450311
:10133400175700000347371863E7E50013F7060162
:1013440041CF014709C6C18A0357651C81C683562C
:10135400A51C369751C31307C71217550000035530
:101364006511B335A70237460F0041111306062451
:10137400814622C426C206C67D543305A70297C0FF
:1013840003E0E78080329757000083C73713B384A4
:10139400A700975700009387673903A70709832796
:1013A400070963F387003E84184375FB97570000D1
:1013B400938787139C43829781476364A400B30790
:1013C400A440B2402244B3B7970093C71700924495
:1013D4003E854101828081473E858280797126D293
:1013E40006D622D44AD04ECE52CC56CA5AC85EC66D
:1013F4008347350303447513AA843E941374F40F8E
:101404009307400263F687001304B4FD1374F40FCA
:1014140003AA841383AAC413A38B8412228652853D
:10142400D68597C003E0E780C022058915E503CB84
:10143400D41201498149337B6403930B50024A86D9
:101444005285D68597C003E0E780A020058915C59D
:10145400639169031374F90F238B8412B2502254DD
:1014640092540259F249624AD24A424BB24B456104
:1014740082808509E20993D989410509E31179FD3F
:10148400E1BF832785090356E503797193D60701E4
:10149400BD8EC206C182358E13577640935756408F
:1014A400898B058B5D8F93573640918B5D8F935756
:1014B4001640A18B5D8F93171600C18B5D8F931718
:1014C400360093F707025D8F9317560093558600F5
:1014D40093F707041E065D8F1376F60F518F93D78B
:1014E400554013D63540118A898BD18F13D6754058
:1014F400D18F13D61540218AD18F13961500418AB6
:10150400D18F1396350013760602D18F13965500AA
:10151400137606049E05D18F93F5F50FCD8FA207A0
:1015240045465D8F3307C70222D42A8426D252CC83
:1015340056CA032A8413832AC4135AC806D6369774
:101544004207418393577740135557400989858B48
:10155400C98F135537401189C98F135517402189F5
:10156400C98F131517004189C98F131537001375D7
:101574000502C98F13155700935587001375050489
:101584001E07C98F1377F70FD98F13D5354013D79B
:1015940055401189098B498F13D57540498F13D54F
:1015A40015402189498F139515004189498F139559
:1015B400350013750502498F1395550013750504FD
:1015C4009E05498F93F5F50F4D8F2207D98FB38769
:1015D400C7024AD04ECE5EC662C4B697C207C18364
:1015E40013D7774013D557400989058B498F13D5F5
:1015F40037401189498F13D517402189498F139595
:1016040017004189498F1395370013750502498FD7
:101614001395570093D58700137505049E07498FCA
:1016240093F7F70FD98F13D5354013D75540118948
:10163400098B498F13D57540498F13D515402189DE
:10164400498F139515004189498F139535001375FA
:101654000502498F13955500137505049E05498F9E
:1016640093F5F50F4D8F2207D98FB387C702130661
:1016740050025285D685B697BD8E93940601C180DB
:1016840033F6C402137BF60F97C003E0E78060FCD7
:1016940005890DED8347D41201498149B38497022A
:1016A400130C5002C1804A865285D68597C003E048
:1016B400E78020FA0589937BF90F11C5638634030B
:1016C400850993F9F90F0509E31F89FD230B6413B9
:1016D400B250225492540259F249624AD24A424BBD
:1016E400B24B224C456182805E8BCDB7011122CC76
:1016F400604126CA4AC84EC652C406CEAA841D4AB0
:10170400130965058549BC446364F400054581A853
:1017140003C7D40083474400631B470503C78402FF
:101724006304F7000040C5B70347540083C754055A
:10173400E31AF7FE1946CA8513056400EFF06FDC5F
:10174400E31235FF0347C40083C79402E31CF7FC8C
:101754000357E40083D7A402E316F7FC0145F240E3
:101764006244D2444249B249224A05618280E31B61
:10177400F7FA0347540083C75405E315F7FA1946EB
:10178400CA8513056400EFF0CFD7E31D35F9F9B727
:10179400011197570000938767F922CC03A4470BE4
:1017A40026CA06CE2AC42EC6854419E40145F24051
:1017B4006244D24405618280834791000347140048
:1017C400858B6304F7000044CDB719469305A10047
:1017D40013052400EFF0EFD2E31795FE0545C1BFD2
:1017E400011122CC17540000130444E918402AC6FE
:1017F4002EC432C206CE3C4B93F7F7F73CCB97305E
:1018040003E0E78020EE184097560000938646E4F4
:101814003C4B93E707083CCB9C423245A24523A0AE
:101824000700034715000348250022074208429792
:10183400034805004297034835006208429798D749
:1018440003475500034865002207420842970348AE
:10185400450042970348750062084297D8D703476A
:1018640095000348A50022074208429703488500D3
:1018740042970348B5006208429798DB0347D500B6
:101884000348E5002207420842970348C500034580
:10189400F500429762052A97D8DB03C7150003C5F4
:1018A4002500220742052A9703C505002A9703C588
:1018B400350062052A9798CF03C7550003C5650014
:1018C400220742052A9703C545002A9703C57500D8
:1018D40062052A97D8CF03C7950003C5A500220740
:1018E40042052A9703C585002A9703C5B5006205FA
:1018F4002A9798D303C7D50003C5E50022074205FC
:101904002A9703C5C50083C5F5002A97E2052E97DB
:10191400D8D3D843759BD8C3D84313671700D8C30B
:1019240098431367170098C3124698425C43858B0B
:10193400D1E71C4F01452300F6009C429C4FA18334
:10194400A300F6009C429C4FC1832301F6009C42F5
:101954009C4FE183A301F6009C42D84F2302E6008A
:10196400D84F2183A302E600D84F41832303E60026
:10197400D84F6183A303E60098532304E6009853E9
:101984002183A304E600985341832305E60098537A
:101994006183A305E600D8532306E600D8532183C8
:1019A400A306E600D85341832307E600DC53E18312
:1019B400A307F600F2406244056182800100B5B7D6
:1019C40017570000130707C91443411122C49C5E32
:1019D4004AC006C6998326C2858B3A8417590000EB
:1019E400130909C7D1CB9C5E97540000938444C764
:1019F40093F7F7F99CDE175700000347C7C6930710
:101A04000008631BF700832709009C4393F707042E
:101A1400175700002309F7C483C7040093F707048A
:101A24009DC397570000938727AC9C438297975791
:101A3400000023AFA7C283C7040093F7F70B17571F
:101A44000000230FF7C083C7440093F707048DE712
:101A5400854717570000A307F7C0975700009387DF
:101A6400E7C19C43096798C7130700FC9756000019
:101A7400238AE6BED844F8D31C40985F1183058BB3
:101A840009CB985F3D9B98DF054797560000238B51
:101A9400E6BC985F1D83058B11CB985F1377F7F72E
:101AA40098DF854717570000230EF7BA83270900EC
:101AB400D8430583058B19C7D843759BD8C3D8432E
:101AC400799BD8C3B24022449244024941018280A6
:101AD400397106DE16DC1ADA1ED82AD62ED432D292
:101AE40036D03ACE3ECC42CA46C872C676C47AC212
:101AF4007EC0F935F250E2525253C2533255A255C8
:101B0400125682567247E2475248C248324EA24E9B
:101B1400124F824F21617300203097570000938742
:101B2400E7B5944397570000938787B303C707002B
:101B3400058B11CB97570000238607B297570000F7
:101B4400A38207B2828003C71700058B65F7F8529A
:101B540071FF83C75700DDB717580000130888AF1B
:101B6400032708001C5F9583858BD1E709C61C5B9E
:101B7400BD832300F60085CA83270800985B4607C7
:101B8400935767016356070093E707C0C207C183F1
:101B940003970600C207C18709C7BA970947B3C7A5
:101BA400E7022390F60085CD834715008DCB975629
:101BB400000083C646AB93F6060413879700894753
:101BC4008DCA3A9503470500854699471376F7066B
:101BD4006311D60262076187B947634C0700832704
:101BE40008009C5FED838D8B17570000A30FF7A6A9
:101BF40081473E8582808547EDBF411122C406C6D8
:101C040017540000130484A7184049E9AE8774539D
:101C1400FDFE3E85B28597570000238407A49730C4
:101C240003E0E7802082975700009387A7A29C4394
:101C3400B70680009843558F98C3D857719BD8D75F
:101C440097570000A38007A297570000A38A07A014
:101C54001C40094798C3B7F700E003A707D16D9B61
:101C640023A8E7D003A707D15D9B23A8E7D073007F
:101C740050101440175700001307879E834727000E
:101C8400858B89EB83473700858BD9C7975700002D
:101C9400238A079CB2402244410182808D4763100D
:101CA400F502975700009387E79A9C43B706800094
:101CB4009843558F98C3D857719BD8D75DBF854734
:101CC400E319F5FAB567BD075CC70F1000001C40A7
:101CD4000967094698C7130700F89756000023833D
:101CE400E698175700001307E79614439842318388
:101CF4000D8B6319C7001307E043F8D33D673D0715
:101D0400D8C785BF984231830D8B01E7130760194B
:101D1400EDB71307E01BD5B7FC52ADF3A5BF5D715A
:101D240052DC175A0000130AEA9203270A0086C6F7
:101D3400A2C4A6C2CAC04EDE1C43975900009389B0
:101D4400A998175900001309699393F7F7E793E7E4
:101D540007081CC383A609003707CEFF7D179C46DE
:101D6400130680022A84F98F9CC68327090013076F
:101D740000082800B8CBAE8493051008EFE0FFF20A
:101D8400973003E0E7800096973003E0E78000A3F4
:101D940083270A009376F41F370FFCFF23A4070060
:101DA400984B4E88CA881367F70398CBF84F1305EE
:101DB40010F8D285137707E0558FF8CF9843F5765E
:101DC400FD16758F98C39843B7063300B702040015
:101DD4001377F7E798C398439303401F7D1F137746
:101DE400F7E71367071098C303A70900930F80024E
:101DF40085491C47D58F1CC7832709001307900DFD
:101E04003400B8CB11490147135337002693834755
:101E1400030013767700B3D7C740858BDDCF9C4191
:101E2400832E0800239C07042390070603AECE02EA
:101E3400137EDEFF23A6CE0383AE0700137EF707CF
:101E440093FE0EF833EECE0123A0C70103AE470282
:101E5400336E5E0023A2C70383AE0800014E23A2A3
:101E64007E0603DA070663074E0303AE0703038AFD
:101E74000600135EFE00620E135E8E416358CA01B3
:101E840003AE0703135EFE002380C60103DE0706CC
:101E9400137EFE0F03AA4E0663060A0003DA8705C3
:101EA400E37F49FB03AE4702337EEE0123A2C7035F
:101EB40083870600635CF400034E03003396C90075
:101EC4001346F6FF3376C6012300C3003E8663D370
:101ED400A7002A8613158601618505071377F70F76
:101EE4008506E313F7F3B640264496440649F259AF
:101EF400625A6161828097460000938626789C42EC
:101F0400D84713161701635506029847131617018D
:101F1400635006027D57B8D71747000013070753CD
:101F2400584F0507174600002320E654116798C749
:101F340098470D83058B1DC317470000034767723D
:101F44001367170017460000230DE670130700F807
:101F5400174600002308E670214798C79847058B69
:101F640009CF174700000347B76F136717001746D9
:101F74000000A307E66E054798C798470983058BB9
:101F840009E798470583058B31CF9847174600002A
:101F94001306066D174500001305C56B0983058BF1
:101FA400630307101841184331830D8B75EBAC4B59
:101FB400184E93F5050203471700CDCD79EF1307AB
:101FC4007006D8CF034706001367170017460000B2
:101FD4002308E668114798C718415C57F19B93E7BB
:101FE40017005CD79C4298479316370163D60602C4
:101FF4009746000083C6C67AC18A174700001307B4
:10200400E772C5CE034747071367070297460000E8
:102014002388E678056798C798479316270163D104
:102024000602174700000347E763620761876357A7
:1020340007000547974600002386E662096798C7AC
:1020440098479316070163D606029746000083C695
:102054003675858A174700001307476DADCE0347D1
:1020640057071367270097460000A38BE672216782
:1020740098C7828029D785456315B7001307B00632
:1020840089B789456315B7001307F0061DBF8D4551
:102094006315B700130730072DB71307500715B79B
:1020A4001307600739BF0347360013671700174645
:1020B4000000A308E65A094739BF83464707094683
:1020C400BD8A6388C600034747078D463D8BE313EB
:1020D400D7F4114725BF83465707918AC9DA0347C6
:1020E40057071367870041B7397106DE16DC1ADA21
:1020F4001ED82AD62ED432D236D03ACE3ECC42CABC
:1021040046C872C676C47AC27EC0F533F250E25233
:102114005253C2533255A255125682567247E24761
:102124005248C248324EA24E124F824F2161730070
:102134002030174700001307A7548346B701974779
:10214400000083C7B7564C4BB697FD8B33D7F500C9
:1021540097460000A386F65297460000A388F654DB
:10216400058B15EF1747000003479754B3F7E702B1
:10217400814601471305000233D6E500058A13782A
:10218400F70F19CA6397D70097470000A38A074F30
:102194008280850693F6F60F0507E31FA7FC82806D
:1021A40097470000938747349C43011122CC4EC6C5
:1021B40006CE26CA4AC852C456C282979747000020
:1021C4009387074E804781496305A406BE849747D9
:1021D40000009387272D038767013E89635507060F
:1021E400018D135455009747000083C7074B93791B
:1021F400F501636DF402370AC0A8B70A4057153FCA
:102204009C449746000083C64649139756003E9760
:1022140083076901158C63C50700636347015697FB
:102224009747000023A2E748E37BD4FC1604B36974
:102234003401F24062444E85D2444249B249224AB2
:10224400924A05618280E37D85F8B707C0A833848C
:102254008740229579B7974700009387E7289C43E6
:10226400411122C406C626C282979747000093876D
:10227400274380476309A406BE84974700009387D9
:1022840067228387670163D80704018D13545500BF
:102294009747000083C767406367F404593D984437
:1022A4009747000083C7673F9396570036971D8C66
:1022B4009746000023AAE63EE372F4FE2244B240AD
:1022C4009244174500000345B53B8145410117334E
:1022D40003E06700C395E37A85FAB707C0A833849F
:1022E4008740229565B7B2402244924441018280DE
:1022F400974700009387473D9843B7570200938759
:10230400079F832607091396560063580600832601
:1023140007091396660063440600FD17FDF38280E7
:1023240071C5AA870145E9C58D07C207C183F19B21
:10233400C207C18313074003636FF7021747000006
:102344001307873E0843174700001307673D1443EC
:102354006398A602174700001307C714185B0145CA
:1023640041CB4111C20706C60545DD8D0297B24037
:10237400014541018280174700001307A73AD9B7E6
:102384000357650035E303574500636FF704B3064D
:10239400F7402146637CD602032805009386870014
:1023A4001D8FAA966117174600000356860A2392CA
:1023B400E60023A006012393060014C12312F500AE
:1023C400130786FF974600002395E6082313B500FC
:1023D4009745000083D5E507B387F540174700000C
:1023E4002319F7062105828008419DB701458280A3
:1023F40082800DC1974700009387073303A307002A
:10240400974700009387C73183A8070081469A87BE
:1024140063E31701828003A80700636DF50A636B09
:10242400A80A13878700E367E5FE03D667002167E0
:1024340005076317E60003C7C19A05072386E19AD7
:10244400974500009385850003D6470003D76500B0
:102454002393070032974207418317450000231A4C
:10246400E5FE638A6702174500001305A52B0841A2
:102474006303F50203D5660019ED83D7460023A054
:10248400060121073E9621062392C60097470000C5
:102494002391E7FCB6879843E30E17F797460000AD
:1024A400938646289442E307D7F683566700BDF225
:1024B40083D64700035647001843A106B2962392D9
:1024C400D70098C383D76500A107174700002312DC
:1024D400F7F88280BE86C28725BF011197470000A6
:1024E4009387C72422CC03A4C70B26CA4AC84EC666
:1024F40006CEAA8413092500854915C083C7140094
:1025040003473400858B6304F700405CFDB719462C
:10251400930544004A85EFE0CFFEE31835FF22859A
:10252400F2406244D2444249B24905618280411179
:10253400974700009387871F22C403A4C70B26C2B2
:102544004AC006C693042500054901E82285B24025
:1025540022449244024941018280A6851305A402C3
:1025640097B003E0E780E0C8E30225FF405CF1BFD9
:102574004111974700009387671B22C403A4C70B2C
:1025840026C24AC006C693042500054901E82285EF
:10259400B24022449244024941018280A685130537
:1025A400A40197B003E0E780C0C4E30225FF405CC8
:0425B400F1BF000073
:1025B80097110020938101B117610020130101A434
:1025C8001305400097E5FF1F938545A317060020D4
:1025D800130606FE63FAC5008322050023A05500F2
:1025E80011059105E3EAC5FE17A504001305C5A961
:1025F800970500209385C5FB1386818563FAC5007E
:102608008322050023A0550011059105E3EAC5FEC4
:1026180013858185974500209385C5226377B5008A
:10262800232005001105E36DB5FEFD42739002BC41
:102638008D42739042809302800873A0023097E223
:10264800FF1F9382A29B93E23200739052309752FD
:1026580001009382427773901234730020303D4317
:102668002A876373C3029377F700BDEFADE59376CE
:1026780006FF3D8ABA960CC34CC30CC74CC741072A
:10268800E36BD7FE11E28280B306C3408A06970245
:10269800000096966780A6002307B700A306B70038
:1026A8002306B700A305B7002305B700A304B700A6
:1026B8002304B700A303B7002303B700A302B7009E
:1026C8002302B700A301B7002301B700A300B70096
:1026D8002300B700828093F5F50F93968500D58D7A
:1026E80093960501D58D61B7939627009702000050
:1026F80096968682E78086FA9680C1171D8F3E9649
:10270800E374C3F8A5B73367B500FD530D8B79E7BC
:10271800B7877F7F9387F7F710419441B372F6002C
:102728003363F600BE92B3E262006397720C6318DB
:10273800D6065041D441B372F6003363F600BE9218
:10274800B3E262006398720A631BD604104594458D
:10275800B372F6003363F600BE92B3E2620063918F
:10276800720A631ED6025045D445B372F60033632D
:10277800F600BE92B3E26200639A72086311D60251
:1027880010499449B372F6003363F600BE92B3E27F
:102798006200639372085105D105E30FD6F613174B
:1027A800060193970601631CF7001357060193D798
:1027B80006013305F7409375F50F91E9828041834F
:1027C800C1833305F7409375F50F91E18280137744
:1027D800F70F93F7F70F3305F7408280034605009C
:1027E80083C60500050585056313D60065FA33051C
:1027F800D640828011059105E312D6FE01458280FC
:102808002105A105E31CD6FC014582803105B105EF
:10281800E316D6FC014582804105C105E310D6FCCC
:1028280001458280014711464148B386E50081474A
:10283800B308F50083C808008507C10623A816FF5A
:10284800E398C7FE11071105E31107FF828093572C
:1028580085019CC19357054193F7F70FDCC1935746
:10286800854093F7F70F1375F50F9CC5C8C582808F
:102878001C414111130705013EC05C413EC21C4585
:102888003EC45C453EC6939725001408B69783A7B7
:1028980007FF85051105232EF5FE8D89E315E5FE55
:1028A80041018280397122DC4166138441A206DE2F
:1028B80026DA4AD84ED652D456D25AD05ECE93058E
:1028C8000501A2863708FF007D1683070500034728
:1028D80035001105E207D98F0307D5FF9106420796
:1028E80033770701D98F0307E5FF2207718FD98F47
:1028F80023AEF6FEE39BA5FC81499144930A0101AE
:10290800173B0400130B0BD1973B0400938B0BCEA2
:10291800130AC00293F73400032904004844BDE7B2
:102928008A85353785450A85A1370A871C431107EB
:1029380093F6F70093F7070FDA97B69783C7070060
:10294800232EF7FEE394EAFE024592476205C2078A
:102958005D8DB2475D8DA247A2075D8D93972900D3
:10296800DE979C4385093D8D3345250108C88504BC
:102978001104E39144FBF2506254D2544259B259C3
:10298800225A925A025BF24B216182803345A90098
:1029980008C8F1BF797122D426D24AD04ECE52CC83
:1029A80056CA06D62A8A939945000144938A41A2B9
:1029B80013090101C144B3073401D69788438A85B6
:1029C800793533078A008A87144390439107410772
:1029D800B18E2328D7FEE39927FF1104E31D94FC49
:1029E800B250225492540259F249624AD24A45617D
:1029F8008280397122DC1304050106DE22878147B3
:102A0800C1460C433306F10011070CC24C471008AD
:102A18003E960CC24C4F10103E960CC29107E392A2
:102A2800D7FE85450A85A9358945080891358D451C
:102A380008103D3D81474147B306F1009442110417
:102A4800232ED4FE1408BE96944254C41410BE9685
:102A58009442910754CCE391E7FEF250625421610D
:102A6800828006059377051089C71375F50F1345FE
:102A7800B5018280411106C6ED37B2404101D5B794
:102A880081471148C1483386F500B306F500014770
:102A980003AE06003303E60005072300C301C106A1
:102AA800E31807FF9107E39017FF8280930605015B
:102AB80017360400130606B613050505138706FF27
:102AC8001C43110793F5F70093F7070FB297AE97DA
:102AD80083C70700232EF7FEE394E6FEC106E31F33
:102AE800D5FC8280411122C406C626C285472E84A1
:102AF8006301F50289476318F5002244B240924405
:102B08002E854101B9BF8D47631BF5002E85913F86
:102B1800298C2285B2402244924441018280A547F3
:102B28006315F5002E85B937DDB7AD47631AF50093
:102B38002E8589373D37AA8422852537258DC9BF3B
:102B4800B5476316F5002E853537AA84FDB7B94712
:102B5800E311F5FC2E85393FAA842137A98C2285FB
:102B680009373344950075B76382051493F7F50068
:102B7800639E07121571D6C3AA8A3285A2CDA6CB49
:102B880086CFCAC9CEC7D2C5DAC15EDF62DD66DBD1
:102B98006AD96ED73284AE84EFE0B308C147631EAA
:102BA800F500228501330149130A0106973B040009
:102BB800938B4BBA294C63419902FE406E44DE4424
:102BC8004E49BE492E4A9E4A0E4BFA5B6A5CDA5C55
:102BD8004A5DBA5D2D618280338B2A010C105A85BB
:102BE8009131814508107D3385490810C135081099
:102BF80009351C10D2863E8710434107C10623A819
:102C0800C6FE032647FF23AAC6FE032687FF23AC7A
:102C1800C6FE0326C7FF23AEC6FEE31FEAFC17372E
:102C28000400130727AF03280700832D4700032D4F
:102C38008700832CC7005284138607010C40428505
:102C48003ECE3ACC32CA42C8713D0C482AC66E857F
:102C5800513DB2460C501104A98E6A8536C65935C5
:102C6800B2464C54A98E668536C6AD3DB246F2478B
:102C78005246358D88C3910742486247E310F6FCF7
:102C88004107B287E391EBFACE850810850919331D
:102C9800E39D89F50810193D0810A13BA9450810C6
:102CA800D539DA850810E93B410931B782809307A5
:102CB800F00F6384F60A2D71232A9110232821111D
:102CC800B28423263111130600102E89AA89930590
:102CD80030020A85232E1110232C811036844132AC
:102CE800A2852685EFF0D005131785009357850038
:102CF8003365F7002310A100A6852286130531004D
:102D0800930434002301810093F4F40FEFD0A37CE3
:102D180093F6F40089C64D04158C9374F40F1C02C5
:102D2800A697A6850A85173604001306A6A223804F
:102D380007F01D3D26868A854E85EFD0C37923008E
:102D480099008320C111032481118324411103298F
:102D580001118329C110156182808280411106C644
:102D6800EFA0701BB240AA8617370400130747A5C7
:102D78001716002013064630973504009385C5A51D
:102D8800114541016FF05014130101D923229126F6
:102D9800232021272326112623248126232E31258B
:102DA800232C4125232A51252328612523267125F3
:102DB80003470500930710042A89AE84E31EF70031
:102DC8000347150093074005E318F700034725005C
:102DD8009307E005E312F7002E86AA852545EFF054
:102DE80050041306D003A6854A85EFF0301C2A84C8
:102DF800635A05003546A6854A85EFF0301B2A84BC
:102E0800634405089309D4FF9307100363CE37077B
:102E18004E86930539002810EFE083649C04BE9920
:102E2800173A0400130A8ACF238409DED28A81491B
:102E3800594B83254A002810EFF010110DC18E0957
:102E4800D69983D709005547636FF70017370400F1
:102E5800130787918A07BA979C43BA97828785098F
:102E6800210AE39869FD97350400938565CADDA8B2
:102E78009385F4FF818D13051400C2058146014630
:102E8800C1814A95EF40E0588320C126032481265A
:102E980083244126032901268329C125032A812564
:102EA800832A4125032B0125832BC12413010127E4
:102EB80082801386F4FF018E930514004206418236
:102EC800CA95E808EFF0D0361305D105EFE0635551
:102ED80093150501C1811305D105EFF0D04397354E
:102EE80004009385A5901305D105EFF0F00519CDE1
:102EF80097350400938505900545EFF02068172560
:102F08000020034575CCEF70D05FBDBF9735040036
:102F18009385858F1305D105EFF0100319CD9735EB
:102F280004009385E58E0545EFF0406517250020E0
:102F3800034595C9EF70B05F81BF9735040093854D
:102F4800258E1305D105EFF030000DC1371700406D
:102F58008327C70AA166973504009385E58CD58F2A
:102F68002326F70A2545EFF0606139BF973504003D
:102F78009385458C1305D105EFF0007D11CD3717EA
:102F880000408327870AA166973504009385058B3F
:102F9800D58F2324F70AF9B7973504009385858AD6
:102FA8001305D105EFF0407A05C1B716004083A795
:102FB800C60C056713070780D98F23A6F60C97352B
:102FC80004009385E58879BF973504009385458982
:102FD8001305D105EFF0407705C1B716004083A768
:102FE800860C056713070780D98F23A4F60C97353D
:102FF80004009385A587BDB7973504009385058898
:103008001305D105EFF0407411CD37170040832721
:10301800870C973504009385258793E70740232479
:10302800F70C89B7973504009385C5861305D10534
:10303800EFF0807111CD371700408327C70C973503
:1030480004009385E58593E707402326F70C19BF0D
:1030580097350400938585851305D105EFF0C06E7B
:1030680011C9371700408327870C8566D58F23241D
:10307800F70C19BD973504009385C5831305D10551
:10308800EFF0806C11C9371700408327C70C85669D
:10309800D58F2326F70CCDBB973504009385058281
:1030A8001305D105EFF0406A11C59727002023AD1D
:1030B80007B2D9BB97350400938505811305D1055F
:1030C800EFF0806801C5EF80D0107DBB9735040014
:1030D800938545801305D105EFF0006701C5EF80A2
:1030E800D0155DB3972504009385857F1305D10519
:1030F800EFF0806501C5EF80002D79B397250400B6
:103108009385C57E1305D105EFF0006401C5EF0076
:10311800411D9DBB972504009385C57D1305D105E9
:10312800EFF0806201C5EF00E123B9BB97250400E9
:103138009385C57C1305D105EFF0006101C5EFB09B
:10314800103B99B3972504009385C57B1305D105DA
:10315800EFF0805F01C5EFB0F0393DB3972504006B
:103168009385C57A1305D105EFF0005E01C5EFB070
:10317800D03819BB972504009385057A1305D10526
:10318800EFF0805C01C5EFE0A06CFDB99725040065
:10319800938505791305D105EFF0005B01C5EF3084
:1031A800E112DDB197250400938505781305D10553
:1031B800EFF080592DC513059109EFD0A32E2A846D
:1031C8001305510DAE84EFD0E32D2A891305111193
:1031D800AE89EFD0232D2A8A1305D114AE8AEFD0F9
:1031E800632C2A8BAE8B2A88AE885287D6874A866C
:1031F800CE862285A685EF2050142AC42EC65AC032
:103208005EC25288D6884A87CE872286A6869725A8
:1032180004009385A5712545EFF0004BB5B19725BE
:1032280004009385E5721305D105EFF0E05111C54F
:1032380081450145EF30011B81B90346D105A547FA
:10324800130606FD1376F60FE3E0C7C497270020A0
:10325800A384C7989725040093850570EFF0C046AE
:1032680025B11386F4FF018E13051400420641822E
:1032780097450400938505A94A95EFF080601724C7
:1032880000201304A49331C5972504009385056E87
:10329800E808EFE0E317E808EFE0A31813160501C4
:1032A8004182EC0813850178EFA0B07797250400D8
:1032B8009385856E1145EFF0602C835704004145D6
:1032C80093E7170017270020231AF78EEFF0706D89
:1032D80065BE972504009385E56C1145EFF0002A3B
:1032E8007D55EFF0F07583570400F99B17270020F0
:1032F8002316F78C51BE9D3441BE1386F4FF018E10
:103308001305140042064182974504009385859F62
:103318004A95EFF00057172400201304248A29C186
:10332800835704009725040093858568E80893E788
:103338001700172700202313F788EFE0630DE8082C
:10334800EFE0230E13160501EC084182138501787E
:10335800EFA0306D9725040093854567114521B18D
:103368009725040093854567E808EFE0630AE808B5
:10337800EFE0230B13160501EC0841821385017851
:10338800EFA0306A8357040097250400938585666B
:10339800F99B172700202313F782C9B7EF90B0686D
:1033A8009727002093878781A843EFC0F366AE86EE
:1033B8002A86972504009385A5641145EFF0C0304F
:1033C800E1B4EF70502CC9B41746040013060694F4
:1033D8009725040093858563114549B5EFA02037EB
:1033E800972504009385456335F99725040093854F
:1033F800A563ADB73545EFB0B004AA84EFC0D3617B
:103408002A86AE8625459725040093852563EFF027
:10341800A02B972704009387273D8843A685171478
:1034280000201304A4DCEFC023292324A426EFA042
:10343800403803258426EFC0335EAE862A8697255A
:1034480004009385656095BF81451545EF8060440C
:10345800EFA0A02B2A86972504009385A561ADBF10
:1034680081451145EF80E042814513059002EF80C8
:10347800404281450D45EF80C041EFA060292ACE2A
:10348800EFA0C029F2462A87171600201306C6BEE9
:10349800972504009385055F1145EFF0E022EDB212
:1034A80017170020035767FA97160020938626DE21
:1034B80017160020130646BC972504009385C55EA1
:1034C800E1BF854717170020230EF7F8EFA0602EFD
:1034D800972504009385855E51B51717002003478B
:1034E80067F88547972504009385C55DE318F7E6D7
:1034F800C5B7854717170020A301F7FCEFA0602B7D
:10350800972504009385C55C91BD9717002083C754
:10351800D7FA972504009385255CE38107E4CDB7A6
:103528009717002093878769C85FEFC0F34EAE8670
:103538002A86972504009385E55A41B5B9260504DE
:103548004A9431468145171500201305C5ED97D0DB
:10355800FF1FE78040758144930AA400695AB309A4
:1035680094400946CE85E80897D0FF1FE780207071
:1035780033899A000946CA854E8597D0FF1FE78090
:10358800006F0946EC084A85F91497D0FF1FE780B9
:10359800006EE39644FD1946A28517150020130511
:1035A80085E8EFF0E03B8145171500201305A5E7F6
:1035B800D922228697250400938505541145EFF0FA
:1035C800A0100146970500009385652C1305600936
:1035D800EF70804F6FF05F8B0146A6854A85EF80BC
:1035E800400E6FF07F8A7971B1472300F10093078D
:1035F800170022D4A300F10006D62301C1002A84B3
:103608008D4715C781471386370008101376F60FC4
:103618002A963385F6000345050085072300A6FE94
:1036280013F6F70FE311E6FE0D079377F70F8146C0
:103638000147850613F6F60F6368F6041410BE9664
:103648002380E6FE1387170014101377F70F3697B9
:10365800B5462300D7FE9386270093F6F60F0A8611
:103668002285EF20B150DD47631CF50015459735DD
:1036780004009385A5CFEFE070702285EF20114DEF
:10368800B2502254456182803306D10003460600B9
:1036980032971377F70F71BF85472A86AE8663E3A3
:1036A800A7029307C0033307F502938741AD154579
:1036B800BA9798474D8F98C7973504009385C5CB1F
:1036C8006FF080008280411122C406C683C7B1AD65
:1036D8002A8481C7AA850145C13783C771B199C7B3
:1036E800A2852244B240054541017DB7B24022443B
:1036F8004101828085472A86AE8663E5A702930743
:10370800C0033307F502938741AD93C5F5FF15450F
:10371800BA9798476D8F98C7972504009385C56118
:103728006FE0907A8280411122C426C206C683C700
:10373800B1AD2A84938441AD91CB98449347F5FF6A
:10374800AA85F98F014523AEF1AC6D3783C771B1F6
:1037580091CFFC401347F4FFA2852244B240924423
:10376800F98F23ACF1B00545410169B7B240224455
:1037780092444101828001114EC606CE22CC26CA4F
:103788004AC852C483C9B1AD6384090883C771B1FB
:103798007D54B5E78549054A1304C003B3078A0277
:1037A800138441AD2E89AA841306C00381453E9433
:1037B800228597D0FF1FE780004F8547A303F400B9
:1037C80022851946A68597D0FF1FE780404ACA85FB
:1037D800230324012685EF20F144971700209387BF
:1037E800E7A0D29703C7C72F930760062A84630808
:1037F800F700B74557009385F5814E85713D2285C1
:10380800F2406244D2444249B249224A0561828068
:10381800014A59B7011119468145280006CE97D0AB
:10382800FF1FE7804048130680078145138541AD97
:1038380097D0FF1FE78020471946971500209385EA
:1038480085BE280097D0FF1FE780604B8547630837
:10385800F5008145171500201305E5BC293F1946D9
:1038680097150020938585BC280097D0FF1FE78017
:10387800004985476308F5008145171500201305A1
:10388800E5BAD53DF24005618280411106C6EF20B8
:103898001143B240130680078145138541AD4101AC
:1038A80017D3FF1F67002340854763E2A7029307EA
:1038B800C003B307F502138741AD0145B306F7000E
:1038C80083C6760091C6B1073305F70082800145AB
:1038D8008280797122D426D24AD006D64ECE52CCD6
:1038E80056CA5AC801449714002093842490130997
:1038F8006006EF203164636CA400EFE0807829C192
:1039080085450145EF2011698545054519A8B38707
:10391800840083C7C72F63912703EF20D16A8545A9
:1039280022852254B25092540259F249624AD24A2C
:10393800424B45616F20116605041374F40F55BF9F
:10394800EFE020742A8415E197190020938909274C
:10395800314A972A0400938AEA37172B0400130B7D
:10396800EB35EF20315D636CA400B25022549254C1
:103978000259F249624AD24A424B45618280228505
:1039880025372A892285EF203159AA84630D090633
:103998003DC99717002083C7A7A8B5C7B3874703B2
:1039A80003A60903832609013307D640B377F70234
:1039B8008DE36300D6022286DA851545EFE0D05004
:1039C80085452285EF20115D930530022285EF2081
:1039D800716183D7440185EF81452285EF20915B92
:1039E80083D64401228536C6EF20116203A7090356
:1039F80083270901B2462286B307F740D6852A876E
:103A08001545EFE0704C05041374F40F99BFFD17CA
:103A1800C207C183239AF400E1D39717002083C714
:103A2800771EDDFB75BF397106DE22DC26DA4AD83F
:103A38004ED652D456D2EF20F14F45C51717002065
:103A4800034787AA93076006630DF7081717002036
:103A5800034797A96307F70883C791857547636B81
:103A6800F7088507A38CF1849717002083C7479B25
:103A7800ADCB138441AD1389C1B485449719002097
:103A88009389C913130AC003972A0400938A8A29C1
:103A980083477400B9C783470402638497045C4C66
:103AA80003A709031D8F9717002083C76797B3875C
:103AB80047036364F7021305002023009402EFF024
:103AC800B03619466C002285EFE010657000D68587
:103AD8001545230C0100EFE0303F1304C403E3193C
:103AE80024FBF2506254D2544259B259225A925A83
:103AF8002161828097250400938505201545A38CB4
:103B08000184EFE0703C370510000D056D3EA9BF3C
:103B18005D71CAC0138981858347090052DC56DA72
:103B2800858B416A856A4EDE5AD85ED686C6A2C49F
:103B3800A6C2238CF184054B938941AD930BC00336
:103B48007D1A938A0A8003C58185636AAB0C3305A5
:103B580075034E95044599CC8347750081CFEF20B6
:103B680091342A8411ED972504009385655B1545EA
:103B7800EFE0D020834709008507238CF184E1B763
:103B880083470500A18BFDD783568500E38446FF54
:103B980003C68185972504009385C5591545EFE02F
:103BA800B0329397C40063DF0708930671001306C9
:103BB8006100930791003800930551001305A10097
:103BC800EFA0B0618357A1001307400697250400B2
:103BD80093858558B3F7E70215452306F100834717
:103BE8005100A306F100834761002307F1008347D2
:103BF8007100A307F100834781002308F100834780
:103C08009100A308F100EFE070171947740013063C
:103C1800800A8355E40003558400EFF0DF9C83C7D6
:103C2800818509476385E7008507238CF184B640C1
:103C3800264496440649F259625AD25A425BB25B0C
:103C48006161828093F7140081CF972504009385E2
:103C5800E5511545EFE0901201477400254655BF20
:103C680093F7240081CF972504009385E5511545E6
:103C7800EFE0D01001477400194661BF9397B40074
:103C880063D80704EFE0E03F17260400130646E375
:103C980009E517260400130666489725040093854E
:103CA80025501545EFE05022EFE0A03D2306A10086
:103CB8008355E40003558400054774006146EFF01E
:103CC8009F92B705100003C58185EFF0BFA281BFA1
:103CD8009397840063DF070003C681859725040056
:103CE8009385054E1945EFE0301E0147740045469F
:103CF8000DB793F7041085CB972504009385854D60
:103D08001545EFE0B00703C581859307C003330568
:103D1800F50250006C004E95EF009071034741008A
:103D280074000946FDB593F7042085CB9725040058
:103D38009385854B1545EFE0700403C5818593078E
:103D4800C0033305F50250006C004E95EF00506E2D
:103D58000347410074000D466DBD9397940063DDE1
:103D68000700972504009385A5491545EFE0100144
:103D780001477400494671BD93F7044081CF9725E8
:103D88000400938525491545EFE0407F01477400FD
:103D9800054641B5B3F7540185C7972504009385B7
:103DA800A5481545EFE0807D9707002093870744D5
:103DB80083C75723054774002306F100114691BDB8
:103DC8009397340163D907029725040093858547A3
:103DD8001545EFE0A07A970700209387274183D7FE
:103DE800472674001D4613978700A183D98F231691
:103DF800F100094739BD9397240163D50702972538
:103E080004009385E5451545EFE0407797070020C6
:103E18009387C73D83C74723054774002306F100EE
:103E28003546C5BB9397140163DD07009725040049
:103E3800938545451545EFE060740547740039469C
:103E4800C9BB93F7440081CF972504009385C544E7
:103E58001545EFE0A0720147740015465DBB93F766
:103E6800840081CF97250400938585441545EFE0AC
:103E7800E07001477400214669BB9397040163DD34
:103E8800070097250400938565441545EFE0006F0A
:103E9800054774004146B5BB9397F40063DB0702FE
:103EA80097250400938505441545EFE0206D170715
:103EB80000201307A733035767239707002083C7FA
:103EC80067562307F1002316E10074000D474D469D
:103ED80089B39397E40063DD070097250400938571
:103EE80025421545EFE0806901477400514615B336
:103EF8009397D40063DD0700972504009385054256
:103F08001545EFE0A06701477400554619B393972C
:103F1800A40063DE0700972504009385E541154555
:103F2800EFE0C0650147740013060002DDB1C188E7
:103F3800E38204C497250400938505422545EFE0F4
:103F4800E063014774001306700AE1B1197186DE57
:103F5800A2DCA6DACAD8CED6D2D4D6D2DAD0DECE71
:103F6800E2CCE6CAEAC8EEC602D602D802DA02DC19
:103F780002DE954763FDC714328AAE89EF20217DA2
:103F8800AA84630605141946938541AD97D0FF1F8F
:103F9800E780E0D60544630B85141946938501B183
:103FA800268597D0FF1FE78080D5631285121309F5
:103FB800C00333092403938741AD970C0020938CE9
:103FC800EC2201473EC6930DC003171C0020130CBA
:103FD800ECBEA29C972A0400938ACAD7338D270186
:103FE800130959023E99EA843388E9008346080098
:103FF800B1476399F60C9306470063DA460D9308B8
:104008001700CE9883CB0800130B3700B3077B014A
:1040180063DA470BCE9703C60700B5476314F60A61
:1040280081470146B305F80083C51500850793F756
:10403800F70F2E961376F60FE3F6FBFEB30778011B
:1040480083C727006390C70883270C0303C60402AD
:10405800DCCC8547631DF6021305004036CE42CC02
:104068003ACA46C8EFF0405C19466C106A85EFE022
:10407800B00A701097250400938545CE1545230C8A
:104088000102EFE06064F24662485247C24823806A
:104098000402834738003946638CC73A6363F610D5
:1040A80019476385E72E6364F7080947638DE7209E
:1040B8006360F704638E071C05476389E71E5E9BF0
:1040C8001377FB0F05071377F70FE36F47F1F650E8
:1040D8006654D6544659B659265A965A065BF64B34
:1040E800664CD64C464DB64D096182800144C1B537
:1040F80011476382E7286373F72203454800EFB04E
:10410800034E03A60A0083A64A00EFA0C305EFC02A
:10411800631BC8C8EFC043102A86AE86154597258D
:1041280004009385A5D0EFE0205A914549AA254778
:104138006385E72A6366F7041D476387E7282147F5
:10414800E39FE7F68347480003455800A2075D8DC3
:10415800EFB0E34803A60A0083A64A00EFA0A30035
:10416800EFC0431688CCEFC0230B2A86AE861545D0
:1041780097250400938505D2EFE00055A14581A25B
:104188002D476381E72A63E8E7283547E399E7F293
:1041980097250400938545D91545EFE0203E8965AC
:1041A80039AA5546638BC72E6365F6084546638F63
:1041B800C73C6361F6023D476385E72A4147E390C0
:1041C800E7F097250400938565DD1545EFE0003B92
:1041D800A165F5A04D466389C72A637FF6301308A9
:1041E80057001907B388D9004E98B387E90003C769
:1041F80007008346080003C6080097250400938536
:1042080025DE15453ECC42CA46C8EFE0E04BC24821
:104218005248E24703C70800B7050200A380E4023A
:10422800034708002381E40283C70700A381F4023F
:1042380079A0130700026387E72A6367F7026147DB
:10424800638AE7286547E39CE7E685471707002068
:10425800A30AF71CEF90E055EFF0F00D1165EFF0B1
:10426800A03CB7052000CDA21307700A6386E7308B
:104278001307800A6386E72413071002E391E7E433
:1042880097250400938505E01545EFE0202F05BD2F
:10429800834748000346580097250400938545AD99
:1042A800A2075D8E1545EFE0204211BD9725040059
:1042B8009385C5AD1545EFE0602C93050040228538
:1042C800EFF04FC3EDBB034748008547631CF70277
:1042D80097250400938505AD1545EFE0202A09656B
:1042E800EFF0803417250400130545ACEF10707308
:1042F80083479C0493050010FD1717170020A3039C
:10430800F79075BF154597250400938525ABEFE019
:10431800E026172504001305E5AAC9BF034748008E
:104328008547631EF702972504009385A5AA1545BE
:10433800EFE0C024056513050580EFF0E02E172592
:1043480004001305A5A9EF10D06D83479C049305BD
:104358000020FD1717170020A306F78A8DB715450B
:10436800972504009385C5A8EFE040211725040090
:10437800130585A8C9BF972504009385E5A81545A9
:10438800EFE0C01F85659385058015BF834748000A
:1043980003455800A2075D8DEFB0632403A60A0009
:1043A80083A64A00EF90335CEFB0D37188C8EFB0B2
:1043B800B3662A86AE86154597250400938585A998
:1043C800EFE080308945E5BD97250400938585AAEF
:1043D8001545EFE0A01A8565DDB58347480003451C
:1043E8005800A2075D8DEFB0831F03A60A0083A6BD
:1043F8004A00EF905357EFB0F36CC8C4EFB0D361E5
:104408002A86AE86154597250400938525ABEFE0EF
:10441800A02B85456DB50346480097250400938574
:10442800E5AB49B5972504009385C5AC1545EFE084
:10443800E014972504009385A5AD1545EFE0001419
:104448001165EFF0601E91652285EFF0EFA485B944
:1044580097250400938585AF1545EFE020129165F7
:10446800B9BD97250400938525B01545EFE00011E7
:1044780097250400938545B11545EFE02010216587
:10448800EFF0801AA165C9B797250400938505B395
:104498001545EFE0A00EC1651DB5CE9603C6060012
:1044A800972504009385C5B6154536C8EFE0C021A9
:1044B800C246B705040083C706002382F40201B58B
:1044C800972504009385C5B61545EFE0200BB70581
:1044D8000800F5B397250400938545B71545EFE027
:1044E800A01EF1BE97250400938505B81545EFE099
:1044F800E008B7052000E1B303C708008D4763173C
:10450800F7048346480088489305000013D6460000
:10451800BD8A32CA36C8EFB04345C24652469725CF
:104528000400938565B809C597250400938585B867
:104538004A85EFC09367CA86238704022286972597
:1045480004009385E5B71545EFE00018EFD0C043A8
:1045580063410502EFD04043854763CCA700EFD005
:10456800A0423305B503B247130555023E95EFB097
:104578000052B7054000A1B3972504009385C5B53F
:1045880022861545EFE04014C14515BB9725040068
:10459800938505B722861945EFE00013EFF0EFAEDB
:1045A80093076006238EFC2EB705800009BB4111D6
:1045B80022C421649305048099460146254506C610
:1045C80097C0FF1FE7800034930504802244B2405F
:1045D80099461386C1852945410117C3FF1F670006
:1045E800633299E10145828075DD011152C403DA15
:1045F800018626CA93548A008504A204C204C18095
:1046080056C2B38A4441C20A22CC4AC82E862E8496
:104618002A89972504009385E5E5254593DA0A015B
:104628004EC606CE9389C185EFE0000A63ED8A087D
:1046380083D5018693F7F50FB1CF8D6783D50186B2
:1046480093870780A2864A86BE95294597C0FF1F93
:10465800E780402B1375F50F29ED83D749001566C0
:10466800A2972390F18603D7018683D7E185630952
:10467800F70063F3E700B297998F13960701418219
:10468800254597250400938565E0EFE0E003137561
:10469800F40F0DA08D6793870780930600100146DD
:1046A800BE95254597C0FF1FE780C0251375F50FF8
:1046B80049D50145F2406244D2444249B249224AAE
:1046C800924A05618280B3079440D297C207C1839A
:1046D800A18303C74900850793F7F70F93968700CF
:1046E80011EB9386170093740AF0A206C204C2065F
:1046F800C180C18283D7E18563F6F40033879600D1
:10470800E3C9E7FA0D6A130A0A800146B385440132
:10471800254597C0FF1FE780E01E1375F50F51F977
:1047280083D50186A2864A86D29505B7411122C44F
:104738001384C18522858145194606C697C0FF1F87
:10474800E78060569307B0FA2300F4008D352244C1
:10475800B24097250400938565CA254541016FD06D
:10476800F061A165411199461386C185938505803D
:104778002D4506C697C0FF1FE780C01803C7C1852F
:104788009307B00A6303F7005537B24083D6018612
:1047980003D6E18597250400938505C72545410182
:1047A8006FD0907283D7C1B40145638C071003D5CD
:1047B800E1B46366F50023A601B401458280338520
:1047C800A740D1473355F5021375F50F01E5239638
:1047D80001B48280130101BD2324814223261142A2
:1047E8002322914223202143232E3141232C41416E
:1047F800232A514195471374F50F63F3A700154415
:10480800228697250400938525CA2545EFD0D06BCD
:1048180001498144938901B5514AA14A9377F90F17
:1048280003D5E1B4170700200347E7B263E987041B
:10483800D1473304F4022A94239781B4A147631C17
:10484800F706A6850808EF50207C03D7E1B483D784
:10485800C1B405456364F70023A601B48320C142AF
:104868000324814283244142032901428329C1410F
:10487800032A8141832A4141130101438280B307FE
:1048880049031408AA97CE9733859600631E5701EB
:10489800BE85EF50F0162317A1008357E1000509E4
:1048A800BE94C204C1809DBFAA851306E1003E855F
:1048B800EFB0C021DDB726860C080145EF80300136
:1048C80069B78280011106CE22CC26CA4AC84EC6D4
:1048D80052C499E901442285F2406244D2444249D3
:1048E800B249224A05618280AA896DD583D701869B
:1048F80003D6E1852E849564638AC7006374F60045
:1049080015673A961D8E93140601C1802686972551
:1049180004009385A5AB2545EFD0105B938714F071
:104928006356F4009307F00F63EA97009725040095
:10493800938545AB2545EFD0305969BF83D40186AF
:10494800B3878400156A6349FA00A2854E85EFF0A3
:104958005FC9EFF0DFC541B71569330999404209CE
:1049680013590901CA854E85EFF0BFC709E583D7FA
:104978000186E39147F7ED75A695A295C2052390A8
:104988000186C18133852901D9B783D6C1B481EAAB
:1049980097250400938585AB25456FD0303E03D617
:1049A800E1B44111918E97250400938525AB2545E7
:1049B80006C6EFD070511387C1B48355070083D75B
:1049C800E1B4138501B59D8DC2053E95C181DD3DDC
:1049D800B24023A601B441018280411183D7C1B4FA
:1049E80022C426C206C6AE971307401FAA842E8487
:1049F800635AF700593F972504009385E5A225459A
:104A0800EFD0D03783D7C1B4138501B52286A685E8
:104A18003E95EFB0532C03D6C1B4229642062244E9
:104A2800B240924441822396C1B4972504009385ED
:104A380025A1254541016FD03049011126CA06CE6E
:104A480022CC4AC84EC652C456C2814459C1D1C1AB
:104A580083D7E18503D40186638D870663F58708CC
:104A68001D8C42044180AE892A892286972504003C
:104A7800938545920145EFD03045A28463F38900C0
:104A8800CE84C2040D6A83D7E18503D70186C1802D
:104A9800938AC185130A0A8063FAE704A6864A86C0
:104AA800B38547012D4597C0FF1FE780A0E583D751
:104AB8002A00A697239FF184EFF07FAF83D6018663
:104AC80003D6E185972504009385058E2545EFD00B
:104AD800B03FF240624426854249D244B249224A54
:104AE800924A0561828015673A949DBF15671D8FAC
:104AF800B385470163D5E400A6864A8665B79569FC
:104B0800B389F9406D743E94C20993D9090126947A
:104B1800CE864A8642042D4597C0FF1FE78080DE77
:104B28004180A28633063901D2852D45239F018411
:104B380097C0FF1FE78000DD83D72A003E94239F9C
:104B480081849DBF397106DE22DC26DA4AD84ED62A
:104B580052D456D25AD05ECE62CCE9C9328455CAF4
:104B6800368CE9C6BA8B79C32A89AE8A2300AC0091
:104B780085448149114B330634416353CB001146B8
:104B8800137AF60F5286B3853A01480002C2EFB095
:104B9800931403475100834761000346710083461D
:104BA80041004A97CA974A96050789070D06CA968B
:104BB8002307E100A306F100A307D1002306C100E3
:104BC8007800814703460700B306F9008507B18ED0
:104BD8002300D70093F7F70F0507E39567FF83577F
:104BE800C1000357E100D29933059C00B98F231601
:104BF800F100B24711462C00910493F9F90F3EC415
:104C080093F4F40FEFB0330DE3E789F623809B00AC
:104C180005442285F2506254D2544259B259225A5C
:104C2800925A025BF24B624C216182800144D5B7F3
:104C3800317122DD26DB4AD99307110118082A842D
:104C48002E89B2849306F1001306E1009305D10082
:104C58001305210106DFEF905058814719473306A5
:104C6800F40003460600B400BE962380C6008507FC
:104C7800E397E7FE8357210113074006B3F7E702DE
:104C88002307F1048347D100A307F1048347E10018
:104C98002308F1048347F100A308F10483470101C5
:104CA8002309F1049307A0FAA309F104EFC0435DB7
:104CB8007800F418AC0031461375F50F61354C08CF
:104CC80022851946EFD05045500897150400938562
:104CD800E57E254523000102EFD0101F0346C100E1
:104CE8004C08E818EFD050438346C1001819500803
:104CF80093971600BA97971504009385E57C254588
:104D0800238207F6EFD0501C034801018347F100C6
:104D18000347E1008346D1000356210195489715C2
:104D280004009385A57B2545EFD0101A0344C100E4
:104D3800EC184A852286EFB0037AFA502380840063
:104D48006A54DA544A592961828093878118054741
:104D5800238CE70018411045544598C30357450074
:104D680090C7D4C7104954492392E70090CBD4CBBD
:104D7800239DB700828018419387811A104598C3F4
:104D880003574500544590C72392E70058551049EA
:104D9800D4C7544998CF972504009385E5830547E0
:104DA800254590CBD4CB238EE7006FD0207D397179
:104DB80026DA4AD84ED652D456D25AD006DE22DC4B
:104DC80062CE66CC2A89EFC0C3659374F50F81491A
:104DD800254BE54A171A0400130A4A7691ECF2505B
:104DE80062544E85D2544259B259225A925A025BA1
:104DF800724CE24C2161828003470900930707FD4A
:104E080093F7F70F637CFB009307F7F993F7F70F16
:104E180063E2FA06930797FA93F7F70F139487015B
:104E28006184FD14230089002685EFA0437B2A8630
:104E3800AE8603250A0083254A0093F4F40F05097A
:104E4800EF30012B2AC422852EC6EFA043792246D3
:104E5800B246EF9073292A8C4E85AE8CEFA0437F23
:104E68002A86AE866285E685EF80F33CEFA0637103
:104E7800AA89ADB79306F7FB93F6F60F8147E3EFE0
:104E8800DAF8930797FC49BF411122C406C6830785
:104E980095022A8499C713059502EFB0036123810F
:104EA800A1148307D41291CB1305D412EFB0835FFA
:104EB800EFB0434193870111C8D3B2402244410166
:104EC8008280011126CA9304150022CC971504008C
:104ED800938585742A84268506CE4AC84EC6EFD0A7
:104EE800B00E631E0510971504009385257326855B
:104EF800EFD0900D6302050E85448307D4036386C3
:104F0800070C13059402EFB0435A85491379F50F3E
:104F18001305D4036387340F8947638CF418EFB003
:104F2800C358A382A114631A3901794681451385B0
:104F3800711623810186EFD08FF28307D40885C3C9
:104F48001305D408EFB0635603C7218693071700EB
:104F58002381F18693870111BA97A38BA70483074E
:104F6800D40D85C31305D40DEFB0235403C7218690
:104F7800930717002381F18693870111BA97A38BB2
:104F8800A7048307D41285C31305D412EFB0E351E5
:104F980003C72186930717002381F18693870111A0
:104FA800BA97A38BA7048307D41785C31305D4170F
:104FB800EFB0A34F03C72186930717002381F1861B
:104FC80093870111BA97A38BA704F2406244D24495
:104FD8004249B2490561828097150400938545646A
:104FE8002685EFD0607EE31905F026859715040025
:104FF80093854563EFD0407D8944E31005F08144F3
:10500800EDBDEFB0834A2383A114631A9900794652
:1050180081451385911423810186EFD04FE48307DE
:10502800D40885C31305D408EFB0234803C72186E5
:10503800930717002381F18693870111BA97A38CF0
:10504800A7028307D40D85C31305D40DEFB0E3453C
:1050580003C72186930717002381F18693870111DF
:10506800BA97A38CA7028307D41285C31305D41259
:10507800EFB0A34303C72186930717002381F18666
:1050880093870111BA97A38CA7028307D417E38EDD
:1050980007F21305D417EFB0434103C721869307DE
:1050A80017002381F18693870111BA97A38CA70271
:1050B80029BFEFB0833FA383A11401BF411122C4CC
:1050C80006C6830795072A8499C713059507EFB085
:1050D800C33DA381A1148307D40899C71305D40835
:1050E800EFB0A33C2382A1148307540B91CB130583
:1050F800540BEFB0233BEFB0E31C9387011188D723
:10510800B240224441018280411122C426C206C60F
:10511800830715058144014499C7034445051304D1
:1051280004FD1374F40F8307550699C71305550634
:10513800EFB0A3379374F50F2286A686971504005F
:105148009385454F2545EFD020581374B40F8D47EC
:10515800631FF4009D4763FC97009707002083C7EF
:1051680007A693E7470017070020230AF7A4B240D1
:105178002244924441018280011126CA8146B284A8
:10518800014652C456C206CE22CC4AC84EC62A8A06
:10519800AE8AEF90835841CD9307E0046386F4000C
:1051A800930730056395F408971904009389894497
:1051B80003A6090083A649005285D685EF90C372DD
:1051C80037949800EFA0E33B130404682A893375E9
:1051D8008502EFA0E34703A6090083A64900EF80F4
:1051E800937897170400938767419043D443EF80DF
:1051F80093772A8A33558902AE8AEFA063452A86B7
:10520800AE865285D685EF80130313073005AE8727
:105218006395E400B7070080AD8FF2406244D24442
:105228004249B249224A924ABE85056182800145B7
:105238008147E5B7011126CA8146B284014652C4A6
:1052480056C206CE22CC4AC84EC62A8AAE8AEF90EB
:10525800C34C41CD930750046386F400930770054F
:105268006395F408971904009389C93803A60900BF
:1052780083A649005285D685EF9003673794980036
:10528800EFA02330130404682A8933758502EFA040
:10529800233C03A6090083A64900EF80D36C971727
:1052A80004009387A7359043D443EF80D36B2A8AB1
:1052B80033558902AE8AEFA0A3392A86AE86528575
:1052C800D685EF80437713077005AE876395E400B2
:1052D800B7070080AD8FF2406244D2444249B249D8
:1052E800224A924ABE850561828001458147E5B719
:1052F800135785009357050113D885009376F50F4A
:1053080001111377F70F93F7F70F618593F5F50FF1
:105318001378F80F99C211C3B9E3230CD100A30C79
:10532800E100230DF100A30DA1000345910183477E
:1053380081010347A1012205A30E01014207C98F7C
:10534800230EB1000345B101D98F0347D10183452D
:10535800C101620522075D8DD98D05618280329574
:105368001375F50F13138501135383415D46635776
:10537800660861463363C30285071376D70F114564
:1053880093F7F70F6305A6002545631AA60079462B
:10539800637FF60205071377F70F85470DA80946BF
:1053A8006312C7041386067D93084006B368160384
:1053B8006385080013F5360011C513050019336617
:1053C800A60219EE75466374F60085470D47230C4F
:1053D800D100A30CE100230DF100A30D6100B1B7CA
:1053E8007146D5B77D46E374F6FEB147E314F7FA84
:1053F800850693F6F60F85470547D1BFE35903FCA9
:105408006105FD171313850193F7F70F13538341B4
:10541800DDFF7D171377F70F1146F947E309C7FA40
:105428001946E306C7FA2546E303C7FA2D46E30003
:10543800C7FA89476316F7021386067D9307400665
:10544800B367F60291C793F83600F547E38108F889
:1054580093070019B367F60293B71700F10785BFE2
:10546800FD4735F7FD1693F6F60F31478DB783479D
:105478001500034705000111A2075D8F834725002A
:105488008346350006CEC207D98F034755008345AA
:10549800450017F6FF1F130666D503068624E206A5
:1054A800220733E5F600D98DA13513588500135628
:1054B800050193D7850013F7F50F93F7F70F935668
:1054C80085011376F60F9375F80F1375F50FEF90A6
:1054D800E05697F7FF1F83C777D105476385E70035
:1054E80011476396E700F24005616F90A064F240AF
:1054F8000561828049712324811613840111830771
:10550800340083C8511103C8411103C7211183C650
:10551800111103C60111971504009385A5144810AD
:10552800232611162322911623202117232E311505
:10553800EFB0B3674810EFB0D36E18485C48030665
:1055480004033AC03EC2030814035C4418445410D0
:1055580097150400938505133695EFB01365481029
:10556800EFB0336C5C103E95830764001716040097
:105578001306C60E89C7171604001306A60D97252D
:105588000400938565EBEFB053624810EFB0736980
:10559800544C104C5C10971504009385A50F3E954C
:1055A800EFB0B3604810EFB0D367030634035C1064
:1055B8003E95971504009385A50EEFB0135F48102C
:1055C800EFB0336603072403AA8448503ACE138405
:1055D8000111EFA0734472475C10AE862A869715B6
:1055E80004009385E50C33859700EFB0135C4810F1
:1055F800EFB033635C1003C641149715040093851C
:10560800A50C3E95EFB0735A4810EFB093615C104B
:10561800971504009385450C3E95EFB0735F138989
:10562800E112A28497290400938989E003C67405CE
:1056380019CA481032CEEFB0D35E72465C10CE85E0
:105648003E95EFB093568504E39224FF4810EFB0DF
:10565800535D5C1097150400938585083E95EFB05F
:10566800335B972404009384A4DC0346940319CA8B
:10567800481032CEEFB0F35A72465C10A6853E95BC
:10568800EFB0B3520504E31224FF4C102545EFC0D8
:10569800F06E8320C1160324811683244116032942
:1056A80001168329C11575618280411122C406C67D
:1056B80026C2830755012A84B9C7A946938707FDDF
:1056C800B387D70203476501130707FDBA97A38974
:1056D800F1100307750183478501130707FD330799
:1056E800D702938707FD3E97238AE1108307950128
:1056F8000347A501938707FDB387D702130707FD63
:10570800BA97A38AF1108307940281CB1307100478
:105718006391E7148547238BF1108307D40393849F
:10572800011199C71305D403EFA0D35788C4CCC47B
:105738000306140509CA8844CC442380C114EFF039
:10574800BFA388C4CCC48307540699C7130554065D
:10575800EFA0535588C8CCC80306940709CA8848DF
:10576800CC48A380C114EFF0FFAC88C8CCC883072D
:10577800D40899CF1305D408EFA0D3529717040083
:105788009387C7EA9043D443EF90031688CCCCCCD8
:105798008307140A99C71305140AEFA01351239815
:1057A800A1128307540BB9C7A946938707FDB3878E
:1057B800D7020347640B130707FDBA972389F11033
:1057C8000307740B8347840B130707FD3307D702BE
:1057D800938707FD3E97A388E1108307940B03473F
:1057E800A40B938707FDB387D702130707FDBA9762
:1057F8002388F11083853400856703C64111938798
:1058080007E11307C0033307E60283C65111B387C4
:10581800F502BA97B69723AEF11217F7FF1F1307D1
:10582800E739835707003A8413F5870039E1038580
:1058380064000547631FE50203C7211111EF88447F
:10584800CC4401468146EF80536D05E9238B011056
:10585800B9A0238B0110D1B5FDD175D2EDD293E754
:1058680087001385011117F7FF1F2319F734EFF08D
:105878001FC083876400E1F7D1BF8848CC48014640
:105888008146EF80936979D183C72111E1D313064B
:1058980080079385011113858109EFA0D34303C5C0
:1058A80081D49D4705053365F50213068007938566
:1058B80001112384A1D4930780073305F502938748
:1058C80001D53E95EFA03341EFF0DFC21C582244CA
:1058D800B240924417F7FF1F232EF73013068007B4
:1058E80081451385011141016FC07FD70171232CB8
:1058F800811E232A911E1306101E2A84AE84680076
:105908008145232E111E2328211FEFC05FD5814515
:105918008147014701465148CD485D436341960898
:1059280099C12306F1001306A002A6852285EFC0BF
:10593800F0678347C10051473386A440B387E70225
:105948009305150078007D16A29585073305F700A5
:10595800EFA073381306A002A68522850349140018
:10596800EFC0D064894763C4A7080345C100D14785
:105978003305F5027C0005053E95EFF04FC3631D26
:10598800A9041946971504009385C5C71305D100C6
:10599800EFC0306F2DC56800EFF03FD135A8B306D2
:1059A800C40003C50600930665FD93F6D60F91EA79
:1059B800850793F7F70F6361F302854501470506ED
:1059C800B1BFB3860703130E011FF296BA96A38ED2
:1059D800A6E00507E3D5E8FE8320C11F0324811F45
:1059E8008324411F0329011F1301012082803307EB
:1059F800F4000347070085073349E900ADB71946A6
:105A080097150400938545C01305D100EFC0706752
:105A180039E9194697150400938545BF1305D10048
:105A2800EFC030660DED194697150400938545BE05
:105A38001305D100EFC0F06419ED1946971504005D
:105A4800938545BD1305D100EFC0B06351D56800FB
:105A5800EFF08FEB51B76800EFF0AFC6B5BF680045
:105A6800EFF0CFE595BF6800EFF00FC2B5B77571DD
:105A780022C526C34AC1CEDED2DCD6DADAD806C7BA
:105A8800AA892E89814401448147130A4002854A24
:105A9800354B139704014183636C2701BA402A44AC
:105AA8009A440A49F659665AD65A465B4961828031
:105AB800338799000347070063014703639D570134
:105AC800631E67019C18A297A2856800238E07F8B9
