:04C000006F2000525B
:10C0040000000000000000009000002096060020C0
:10C01400A9BDF9F590000020000000000000000018
:10C0240090000020900000200000000000000000AC
:10C03400900000200000000090000020000000009C
:10C04400900000204E02002090000020900000206C
:10C05400900000209000002090000020900000201C
:10C06400900000209000002092000020900000200A
:10C074008A070020900000209000002090000020FB
:10C084009000002026010020BA010020900000202A
:10C0940001A0373700408347470099464111BD8BC3
:10C0A400638CD70231476384E7061147639EE70236
:10C0B400A3030100174600000346C6783737004043
:10C0C400834771006315F6022C001385817997C0AC
:10C0D40001E0E780C0E609A88347570093F7F70F0C
:10C0E4002304F1008347810041017300203083471A
:10C0F4007100834687000C08AE97238CD7FE8347D4
:10C104007100850793F7F70FA303F10055BF2800CB
:10C11400974002E0E780A0C21375F50FA303A100C6
:10C124000346710055B73747004083474780994617
:10C134004111BD8B638CD70231476384E7061147F5
:10C14400639EE702A3030100174600000346966FAF
:10C1540037470040834771006315F6022C001385AE
:10C16400017C97C001E0E78080DD09A88347578000
:10C1740093F7F70F2304F100834781004101730013
:10C18400203083477100834687800C08AE97238C48
:10C19400D7FE83477100850793F7F70FA303F100D8
:10C1A40055BF2800974002E0E78020CB1375F50FB8
:10C1B400A303A1000346710055B7374700408347E6
:10C1C40047C099464111BD8B638CD70231476384C4
:10C1D400E7061147639EE702A30301001756000018
:10C1E4000346268737470040834771006315F602EC
:10C1F4002C001385417D97C001E0E78040D409A855
:10C20400834757C093F7F70F2304F1008347810056
:10C2140041017300203083477100834687C00C08B6
:10C22400AE97238CD7FE83477100850793F7F70FEA
:10C23400A303F10055BF2800974002E0E780A0D394
:10C244001375F50FA303A1000346710055B74111FF
:10C2540026C4B714004022C603D4C4094204418052
:10C264009317140163DB0700BD450145972002E0E5
:10C27400E78040989167239EF4081374041019C84A
:10C28400972002E0E780C082B71700401307001030
:10C29400239EE7083244A2444101730020307327EF
:10C2A4000080218B9387819309CB7327008023AC73
:10C2B400E19298435D9B73100780010001003717DA
:10C2C4000040930670052300D704930680FA2300E8
:10C2D400D704010001008346B70493F6F60DA305C5
:10C2E400D70423000704732600809443A18AD18EC7
:10C2F4007390068023AC019201000100937605023D
:10C30400638406180347A700118B25E77327008071
:10C31400218B09CB7327008023ACE19298435D9B6A
:10C324007310078001000100371700409306700561
:10C334002300D704930680FA2300D70401000100E8
:10C344008346A70093E646002305D700230007048D
:10C35400F32600809843218B558F7310078023ACFC
:10C364000192010001001307004B010001007D1739
:10C374006DFF73270080218B09CB7327008023ACCA
:10C38400E19298435D9B7310078001000100371709
:10C394000040930670052300D704930680FA230017
:10C3A400D704010001007D892314A70001000100C6
:10C3B4000100010023000704F32600809843218B29
:10C3C400558F7310078023AC01920100010073277D
:10C3D4000080218B09CB7327008023ACE192984322
:10C3E4005D9B73100780010001003717004093061E
:10C3F40070052300D704930680FA2300D7040100B4
:10C40400010001000100B726004013061005A383B4
:10C41400C68023000704F32600809843218B558FA0
:10C424007310078023AC0192010001007327008080
:10C43400218B09CB7327008023ACE19298435D9B49
:10C444007310078001000100371700409306700540
:10C454002300D704930680FA2300D70401000100C7
:10C464008346B70493E60608A305D704230007040C
:10C47400732700809C43A18BD98F7390078023ACD2
:10C48400019201000100828093760504638B0614F7
:10C494000347A700418B25E773270080218B09CB35
:10C4A4007327008023ACE19298435D9B731007804F
:10C4B4000100010037170040930670052300D704DC
:10C4C400930680FA2300D704010001008346A700E5
:10C4D40093E606012305D70023000704F326008012
:10C4E4009843218B558F7310078023AC0192010070
:10C4F40001001307007D010001007D176DFF732704
:10C504000080218B09CB7327008023ACE1929843F0
:10C514005D9B7310078001000100371700409306EC
:10C5240070052300D704930680FA2300D704010082
:10C5340001009376F50193E606042314D700010065
:10C5440001000100010023000704F3260080984342
:10C55400218B558F7310078023AC019201000100D9
:10C56400130760046310E50473270080218B09CB53
:10C574007327008023ACE19298435D9B731007807E
:10C584000100010037170040930670052300D7040B
:10C59400930680FA2300D70401000100B726004067
:10C5A4000946B5B573270080218B09CB732700801A
:10C5B40023ACE19298435D9B731007800100010056
:10C5C40037170040930670052300D704930680FABA
:10C5D4002300D70401000100B726004013062005FC
:10C5E4003DB573270080218B09CB7327008023ACD2
:10C5F400E19298435D9B7310078001000100371797
:10C604000040930670052300D704930680FA2300A4
:10C61400D704010001008356870093E6060C231417
:10C62400D700C5BB4111814601468145114506C667
:10C634008124F3270080A18B9386819389CBF327F0
:10C64400008023ACF1929C42DD9B73900780010033
:10C654000100B7170040130770052380E704130790
:10C6640080FA2380E7040100010003C7670413670D
:10C6740017002383E70423800704732700809C4268
:10C68400A18BD98F7390078023AC01920100010024
:10C69400B240410182808146014681451145C92A43
:10C6A400F3270080A18B1387819389CBF327008024
:10C6B40023ACF1921C43DD9B7390078001000100C1
:10C6C400B7170040930670052380D704930680FAB9
:10C6D4002380D70401000100FD562396D70223804E
:10C6E4000704F32600801C43A18BD58F7390078029
:10C6F40023AC019201000100F3270080A18B89CBB8
:10C70400F327008023ACF1921C43DD9B73900780D8
:10C7140001000100B7170040930670052380D70479
:10C72400930680FA2380D7040100010083C66704BE
:10C7340093E616002383D70423800704F32600809E
:10C744001C43A18BD58F7390078023AC0192010009
:10C75400010001A0BD473305F50201007D1575FDFB
:10C764008280411122C426C206C6AA8401446317EA
:10C774009400B2402244924441018280050413058E
:10C78400803E4204C13F4180DDB7B7170040130724
:10C7940000032388E7028547174700002326F74450
:10C7A40073002030411106C6A52D97C001E0E78033
:10C7B4006076DDBF2303048015472303E480010072
:10C7C4002302A480828083076480E3CE07FE2303D0
:10C7D4000480828083076480E3CE07FE034544809F
:10C7E400828083076480E3CE07FE2302A4808280D4
:10C7F400411126C44AC24EC006C61377F50BAD4795
:10C80400AA892E8995446306F70019456537653F63
:10C814008D444E854537FD59FD1463983401B2406B
:10C82400A2441249824941018280135509011375BA
:10C83400F50F453F2209CDB7011126CC06CEB7042A
:10C84400080051371545BD37713769372AC6A53FEA
:10C8540032459377150089EB136515001375F50FB1
:10C86400F240E24405618280FD14E9FC0145CDBF3C
:10C87400397126DC4ADA4ED852D656D45AD25ED012
:10C8840006DE62CE66CCB7E700E07D5783AA0700D8
:10C8940022C603AA470023A0E71823A2E718B71764
:10C8A4000040130770052380E704130780FA2380F0
:10C8B400E70483C74704930B75FFB684E20793FB31
:10C8C400FB0F8546AA892E8B328937240040E187E5
:10C8D400015763FA76016308D500894613070002FD
:10C8E4006313D5000157D98F93F7F70FB71C004096
:10C8F4002382FC0411472303E4801305F00F5D3DFC
:10C90400094CD135636D7C11B7050700DA9537877B
:10C914000700795563F2E504B3879500636EF70267
:10C92400370B0800A94733EB65016399F90689E4DD
:10C934008144513D26850DA0DA850945553D0509FB
:10C944000345F9FFFD14050B693D81C49377FB0F83
:10C95400FDF7DD3569FD7D55B717004013077005F8
:10C964002380E704130780FA2380E70403C74704FE
:10C97400418B2382E704F250B7E700E023A057116C
:10C9840023A24711E25432445259C259325AA25A8C
:10C99400125B825B724CE24C21618280A5476395F5
:10C9A400F90685691309F00FB3069900B3742B01D6
:10C9B400B6941349F9FFB3749900856B337969010F
:10C9C400416B9387F9FFB3F7270199E363FC3401C3
:10C9D40093D94900C147E3E637FF99BF0569C169A7
:10C9E4007D19D9B71305800D638869011305000209
:10C9F4006384790113051008CA85DD3B353D21DDCB
:10CA04004E99B3843441D9B7DA852D45D533CA94C8
:10CA1400E30099F205097D3BA30FA9FED5BF9387D7
:10CA2400F9FF93F7F70F6361FC0C83C71C0413072A
:10CA34003008631FF70437070800636BEB04B30780
:10CA44009B00B706100063F5D704334BEB0089470E
:10CA54006393F9068980D549E38C04ECDA850945AA
:10CA6400413B11090327C9FF91472320E4800307B1
:10CA74006480E34E07FE23033481FD17EDFBFD14B0
:10CA8400110B81C49377FB0FE9FF7D3371F5E1B599
:10CA9400B717004003C75704B70708001377070206
:10CAA40019E3B78707007955E378FBEA33079B005E
:10CAB400E3FFE7F855B58547E382F9F2DA852D45BA
:10CAC400053B9389F4FFE38504E6293393F73900A2
:10CAD40091EB832604800327090093074900E39A16
:10CAE400E6E43E89CE84F1BFB5476396F9001305A9
:10CAF400900BC93135BDB1471305B00AE38BF9FE7C
:10CB040099476391F904B7050800B365BB002D4547
:10CB1400C53181448D4BA1497539639674018327CE
:10CB240004802320F9008504E39834FF83270480DC
:10CB340013172B01635507002312F900D5BB2322D9
:10CB4400F900FDB39D476399F90281451305B004CB
:10CB54004531BD442320090023220900FD599D3994
:10CB640093F77400CA9703C70700FD14398D238017
:10CB7400A700E39634FF6DBBA1476392F9046D39B6
:10CB84008144630D0B008D479304C0036308FB00CD
:10CB94009304000563048B01930440041375C507D3
:10CBA400E30895D8194539313939054521312685A8
:10CBB4000D3909453D314931E31C05D669BB91471F
:10CBC4006399F90013056006F536F53E13059009DF
:10CBD4000DB7E38F09D4F154A9BB19CD91CD09CE7A
:10CBE40081473387F500834607003307F50085073F
:10CBF4002300D700E317F6FE828019C991C909CA38
:10CC0400910583A7C5FF11057D16232EF5FEC5BF2B
:10CC1400828001C919C62A960505A30FB5FEE31D36
:10CC2400A6FE828081473307F5000307070019E356
:10CC34003E8582808507C5BF01112E8626CAAA8437
:10CC4400131506019305F004418122CC06CE32C6A9
:10CC5400EF1080632A8401C53246A685BD3F228534
:10CC6400F2406244D24405618280854715C18DC17A
:10CC740005C28147B306F5003387F50083C6060075
:10CC8400034707006398E6008507E315F6FE85472A
:10CC94003E8582808147EDBF9307F6FFBE952A96B5
:10CCA4006313C5008280FD1583C715000505A30F16
:10CCB400F5FEFDB7AA87014581CF09CE3E968507CB
:10CCC40003C7F7FF6317B700E39BC7FE05458280E0
:10CCD400828001458280797197670000938787B9C4
:10CCE40022D4804306D626D24AD04ECE52CC56CA3F
:10CCF4005AC85EC662C45DCC37C9C901814B176A84
:10CD04000000130AAABB976400009384E4B61309D5
:10CD1400F937976A0000938AAAB0B709C0A8370BFD
:10CD240040578357240095E35C44639D0B001767C9
:10CD340000002321F7B4032CC4002285EF10E06126
:10CD4400628499A823A6FB00FDB783270A00829773
:10CD5400838664011C4463DB06063307F54063677E
:10CD6400E9089767000023A507AC83552400034511
:10CD7400040097A002E0E780C0995C405844A9CF22
:10CD84001444B6978386640163C5060063E33701E0
:10CD9400DA971CC4A28B3A8449F4976700009387FE
:10CDA40027A89C4B09476378F706F9171767000013
:10CDB4002320F7A8B250225492540259F249624AED
:10CDC400D24A424BB24B224C45618280E377F5F85C
:10CDD4003387F9402A9761B763970B009767000080
:10CDE40023AAE7A889BF23A6EB00B1B7D85009CF7F
:10CDF40063DF06003385A74083A70A016376F50045
:10CE04009767000023A6A7A2A28B404471B7E3F35F
:10CE1400A7FECE97C5B79767000023AB07A059BFFD
:10CE2400411122C417640000130484A21C4006C6E6
:10CE340026C24AC091C782979767000023AA07A019
:10CE44005C4091C382971C406391071C9767000064
:10CE540083C797BE858B9DC797670000A38E07BCC9
:10CE640017670000034777BD954763FDE700EF00B0
:10CE740050419767000083C757BCF5178A07A297EC
:10CE84009C438297176900001309C9BE8347C900F0
:10CE9400918B99C3EF10A0321C4491C3829797647D
:10CEA40000009384E49C984017660000034656975C
:10CEB4009767000083C7C79693961700BA9683D6E0
:10CEC4000600D5CA9767000083C7879563EFC70A32
:10CED40097670000238607941C406398071297679E
:10CEE400000083C7B7B591CF9767000083C7F7B435
:10CEF40089EB97670000A38307B4973004E0E780C9
:10CF04006071976700009387679B9C43638F070E4C
:10CF1400B707C0A817670000232CF7906D3B9767ED
:10CF2400000093876795DC53EDC317670000130770
:10CF3400278F184B9767000083C757956367F70CD3
:10CF440017670000034777AF954763E0E70C834713
:10CF5400C900918BDDEB90409766000083C6568C28
:10CF640063CBD70A2244B240924402494101179349
:10CF740002E067002357850793F7F70F97660000D1
:10CF84002380F68AE3E6C7F235BF86073E978355CA
:10CF9400070023100700976700002399078C976701
:10CFA40000009387A78A9C431765000003454587C3
:10CFB40013172500BA979C4382979767000083D77D
:10CFC400E78A176700000347A78593C7F7FF7D8D9E
:10CFD4009317170098403E97835707005D8D2310E1
:10CFE400A7009767000083C7A78391C785071767C2
:10CFF40000002307F78217670000034767829767DB
:10D00400000083C7F781E375F7ECB24022449244F1
:10D014000249410182801397170032970357070092
:10D024006DF7850735BFAD6737C70040BD072326B9
:10D03400F7200F100000975700009387677EC84FB2
:10D0440083278726BD66BD0693C7F7FF99836A05C4
:10D054002326D7205D8D82804111B7170040985F49
:10D064003AC6945F3247E39CE6FE32454101828032
:10D0740082800327851163000712411122C406C66A
:10D084008347C5008345C5042A8493F7C70F230645
:10D09400F500834697000356C70013958601618502
:10D0A40063F1C508635A05060345870093F6F6073E
:10D0B400A304D700054693E627006314C50093E64E
:10D0C40017002306D4005C4389075CC3A30AB40099
:10D0D400032504112E864C43090501368327841148
:10D0E40003465401D44303D7C700B296118FD4C367
:10D0F4002396E7008947A30DF40003474403975799
:10D10400000083C787786378F7048347C40093E7F4
:10D1140007012306F40081A093E717002306F40017
:10D1240075B79376F60F635D050203458700854561
:10D1340013E627006314B50013E617002306C400A2
:10D14400A30AD400A30407008547A30DF400832792
:10D1540084119C43DDF3B2402244014541018280A5
:10D1640093E717002306F400A30AD400A3040700DE
:10D17400032504114C4309058D3483278411034688
:10D184005401D44303D7C700B296118FD4C3239656
:10D19400E7008D475DBF0545828097670000938750
:10D1A400E7879C43411122C406C6858B2A84C5EFB8
:10D1B4004165130525F597A003E0E780A06C45C5FC
:10D1C4008347A5002315F50083270412BDE7232018
:10D1D400A4122322A41285472310F404232005005B
:10D1E4008347640154412316F5000347D400230404
:10D1F400E5000547A304E5001767000013078783CC
:10D20400184F1385170215811C437D151375F50FEF
:10D214009CC25C43DCC21C479CC65C47DCC61C4BFE
:10D224009CCA5C4BDCCA1C4F9CCE5C4FDCCE19CD37
:10D234009386060213070702C1BF8327441288C3DB
:10D24400835704042322A412850779B79767000043
:10D2540083D7C78B8507176700002319F78AB24065
:10D264002244410182808347C40023090400054508
:10D2740093C747002306F400DDB78347850193F77E
:10D28400E70FD5EF83479501DDEB03462501834680
:10D29400C50009CA83454503175700000347F75ED5
:10D2A40063E7E50013F7060141CF014709C6C18AC8
:10D2B4000357651C81C68356A51C369751C31307B3
:10D2C400C7121755000003552558B335A702374632
:10D2D4000F00411113060624814622C426C206C645
:10D2E4007D543305A702970005E0E780C093975764
:10D2F400000083C7F759B384A7009767000093879A
:10D30400678003A707098327070963F387003E841F
:10D31400184375FB975700009387475A9C4382979D
:10D3240081476364A400B307A440B2402244B3B766
:10D33400970093C7170092443E854101828081473C
:10D344003E858280797126D206D622D44AD04ECE2A
:10D3540052CC56CA5AC85EC6834735030344751374
:10D36400AA843E941374F40F9307400263F6870073
:10D374001304B4FD1374F40F03AA841383AAC4130F
:10D38400A38B841222865285D685970005E0E78018
:10D394000084058915E503CBD41201498149337B07
:10D3A4006403930B50024A865285D685970005E0A4
:10D3B400E780E081058915C5639169031374F90F4A
:10D3C400238B8412B250225492540259F249624A75
:10D3D400D24A424BB24B456182808509E20993D916
:10D3E40089410509E31179FDE1BF832785090356C6
:10D3F400E503797193D60701BD8EC206C182358ECD
:10D404001357764093575640898B058B5D8F9357FE
:10D414003640918B5D8F93571640A18B5D8F931788
:10D424001600C18B5D8F9317360093F707025D8F4B
:10D43400931756009355860093F707041E065D8FD5
:10D444001376F60F518F93D7554013D63540118A72
:10D45400898BD18F13D67540D18F13D61540218A6D
:10D46400D18F13961500418AD18F13963500137608
:10D474000602D18F13965500137606049E05D18FAC
:10D4840093F5F50FCD8FA20745465D8F3307C7028D
:10D4940022D42A8426D252CC56CA032A8413832A3D
:10D4A400C4135AC806D63697420741839357774028
:10D4B400135557400989858BC98F135537401189F6
:10D4C400C98F135517402189C98F13151700418936
:10D4D400C98F1315370013750502C98F131557002B
:10D4E40093558700137505041E07C98F1377F70F2B
:10D4F400D98F13D5354013D755401189098B498FDE
:10D5040013D57540498F13D515402189498F13953B
:10D5140015004189498F1395350013750502498F0C
:10D5240013955500137505049E05498F93F5F50F62
:10D534004D8F2207D98FB387C7024AD04ECE5EC61D
:10D5440062C4B697C207C18313D7774013D5574037
:10D554000989058B498F13D537401189498F13D514
:10D5640017402189498F139517004189498F1395D5
:10D57400370013750502498F1395570093D587001B
:10D58400137505049E07498F93F7F70FD98F13D5A9
:10D59400354013D755401189098B498F13D57540F0
:10D5A400498F13D515402189498F13951500418959
:10D5B400498F1395350013750502498F139555004E
:10D5C400137505049E05498F93F5F50F4D8F2207BA
:10D5D400D98FB387C702130650025285D685B697F2
:10D5E400BD8E93940601C18033F6C402137BF60FFB
:10D5F40097F004E0E780A05D05890DED8347D41220
:10D6040001498149B3849702130C5002C1804A86B0
:10D614005285D68597F004E0E780605B0589937BAB
:10D62400F90F11C563863403850993F9F90F0509C8
:10D63400E31F89FD230B6413B25022549254025900
:10D64400F249624AD24A424BB24B224C4561828033
:10D654005E8BCDB7011122CC604126CA4AC84EC6A2
:10D6640052C406CEAA841D4A130965058549BC44E3
:10D674006364F400054581A803C7D40083474400CC
:10D68400631B470503C784026304F7000040C5B762
:10D694000347540083C75405E31AF7FE1946CA85A5
:10D6A40013056400EFF06FDCE31235FF0347C40099
:10D6B40083C79402E31CF7FC0357E40083D7A40256
:10D6C400E316F7FC0145F2406244D2444249B249B0
:10D6D400224A05618280E31BF7FA0347540083C79B
:10D6E4005405E315F7FA1946CA8513056400EFF0EB
:10D6F400CFD7E31D35F9F9B7011197570000938788
:10D70400674022CC03A4470B26CA06CE2AC42EC6E1
:10D71400854419E40145F2406244D24405618280A3
:10D724008347910003471400858B6304F70000448A
:10D73400CDB719469305A10013052400EFF0EFD2ED
:10D74400E31795FE0545C1BF011122CC1754000013
:10D754001304043018402AC62EC432C206CE3C4BF1
:10D7640093F7F7F73CCB973004E0E78060E7184085
:10D77400975600009386062B3C4B93E707083CCB57
:10D784009C423245A24523A00700034715000348E5
:10D7940025002207420842970348050042970348A0
:10D7A40035006208429798D703475500034865003F
:10D7B40022074208429703484500429703487500F0
:10D7C40062084297D8D7034795000348A50022076B
:10D7D400420842970348850042970348B50062080F
:10D7E400429798DB0347D5000348E5002207420827
:10D7F40042970348C5000345F500429762052A97FE
:10D80400D8DB03C7150003C52500220742052A9764
:10D8140003C505002A9703C5350062052A9798CFEA
:10D8240003C7550003C56500220742052A9703C5AF
:10D8340045002A9703C5750062052A97D8CF03C708
:10D84400950003C5A500220742052A9703C5850054
:10D854002A9703C5B50062052A9798D303C7D50054
:10D8640003C5E500220742052A9703C5C50083C501
:10D87400F5002A97E2052E97D8D3D843759BD8C3D1
:10D88400D84313671700D8C398431367170098C386
:10D89400124698425C43858BD1E71C4F0145230017
:10D8A400F6009C429C4FA183A300F6009C429C4F2F
:10D8B400C1832301F6009C429C4FE183A301F6003F
:10D8C4009C42D84F2302E600D84F2183A302E600EE
:10D8D400D84F41832303E600D84F6183A303E600B6
:10D8E40098532304E60098532183A304E600985335
:10D8F40041832305E60098536183A305E600D853CA
:10D904002306E600D8532183A306E600D8534183B7
:10D914002307E600DC53E183A307F600F2406244E8
:10D92400056182800100B5B7175700001307C70FC0
:10D934001443411122C49C5E4AC006C6998326C280
:10D94400858B3A84175900001309C90DD1CB9C5E0D
:10D95400975400009384040E93F7F7F99CDE17574D
:10D9640000000347870D93070008631BF700832714
:10D9740009009C4393F7070417570000230FF70A85
:10D9840083C7040093F707049DC397570000938748
:10D99400E7F29C4382979757000023A5A70A83C701
:10D9A400040093F7F70B175700002305F70883C704
:10D9B400440093F707048DE7854717570000A30D2C
:10D9C400F706975700009387A7089C43096798C7F1
:10D9D400130700FC975600002380E606D844F8D3CA
:10D9E4001C40985F1183058B09CB985F3D9B98DFA2
:10D9F4000547975600002381E604985F1D83058B35
:10DA040011CB985F1377F7F798DF85471757000016
:10DA14002304F70283270900D8430583058B19C71C
:10DA2400D843759BD8C3D843799BD8C3B24022440A
:10DA34009244024941018280397106DE16DC1ADA09
:10DA44001ED82AD62ED432D236D03ACE3ECC42CAB2
:10DA540046C872C676C47AC27EC0F935F250E25224
:10DA64005253C2533255A255125682567247E24758
:10DA74005248C248324EA24E124F824F2161730067
:10DA84002030975700009387A7FC944397570000D2
:10DA9400938747FA03C70700058B11CB97570000FC
:10DAA400238C07F897570000A38807F8828003C7E0
:10DAB4001700058B65F7F85271FF83C75700DDB770
:10DAC40017580000130848F6032708001C5F9583C5
:10DAD400858BD1E709C61C5BBD832300F60085CA8C
:10DAE40083270800985B460793576701635607002E
:10DAF40093E707C0C207C18303970600C207C18723
:10DB040009C7BA970947B3C7E7022390F60085CD42
:10DB1400834715008DCB9756000083C606F293F613
:10DB240006041387970089478DCA3A950347050071
:10DB3400854699471376F7066311D6026207618713
:10DB4400B947634C0700832708009C5FED838D8BE6
:10DB540017570000A305F7EE81473E85828085476D
:10DB6400EDBF411122C406C617540000130444EE4D
:10DB7400184049E9AE877453FDFE3E85B285975738
:10DB84000000238A07EA972004E0E780607B975728
:10DB94000000938767E99C43B70680009843558F3C
:10DBA40098C3D857719BD8D797570000A38607E826
:10DBB40097570000A38007E81C40094798C3B7F7AC
:10DBC40000E003A707D16D9B23A8E7D003A707D1E3
:10DBD4005D9B23A8E7D07300501014401757000032
:10DBE400130747E583472700858B89EB8347370075
:10DBF400858BD9C797570000238007E4B24022449D
:10DC0400410182808D476310F50297570000938786
:10DC1400A7E19C43B70680009843558F98C3D85713
:10DC2400719BD8D75DBF8547E319F5FAB567BD0782
:10DC34005CC70F1000001C400967094698C713070A
:10DC440000F8975600002389E6DE175700001307F3
:10DC5400A7DD1443984231830D8B6319C700130762
:10DC6400E043F8D33D673D07D8C785BF9842318369
:10DC74000D8B01E713076019EDB71307E01BD5B748
:10DC8400FC52ADF3A5BF5D7152DC175A0000130AB4
:10DC9400AAD903270A0086C6A2C4A6C2CAC04EDEF9
:10DCA4001C4397590000938969DF17590000130931
:10DCB40029DA93F7F7E793E707081CC383A609005B
:10DCC4003707CEFF7D179C46130680022A84F98FFE
:10DCD4009CC683270900130700082800B8CBAE842C
:10DCE40093051008EFE0FFF2973004E0E780408FDF
:10DCF400973004E0E780409C83270A009376F41F62
:10DD0400370FFCFF23A40700984B4E88CA8813677B
:10DD1400F70398CBF84F130510F8D285137707E073
:10DD2400558FF8CF9843F576FD16758F98C39843B1
:10DD3400B7063300B70204001377F7E798C3984394
:10DD44009303401F7D1F1377F7E71367071098C3EA
:10DD540003A70900930F800285491C47D58F1CC770
:10DD6400832709001307900D3400B8CB11490147EC
:10DD74001353370026938347030013767700B3D7F2
:10DD8400C740858BDDCF9C41832E0800239C07046C
:10DD94002390070603AECE02137EDEFF23A6CE0336
:10DDA40083AE0700137EF70793FE0EF833EECE0121
:10DDB40023A0C70103AE4702336E5E0023A2C7034C
:10DDC40083AE0800014E23A27E0603DA070663072A
:10DDD4004E0303AE0703038A0600135EFE00620EC1
:10DDE400135E8E416358CA0103AE0703135EFE003F
:10DDF4002380C60103DE0706137EFE0F03AA4E0628
:10DE040063060A0003DA8705E37F49FB03AE470292
:10DE1400337EEE0123A2C70383870600635CF4000C
:10DE2400034E03003396C9001346F6FF3376C6014A
:10DE34002300C3003E8663D3A7002A8613158601F8
:10DE4400618505071377F70F8506E313F7F3B640EB
:10DE5400264496440649F259625A61618280975673
:10DE640000009386E6BE9C42D847131617016355FB
:10DE74000602984713161701635006027D57B8D758
:10DE8400175700001307C799584F05071756000086
:10DE94002326E69A116798C798470D83058B1DC3FF
:10DEA40017570000034727B91367170017560000D8
:10DEB4002303E6B8130700F817560000230EE6B64E
:10DEC400214798C79847058B09CF17570000034788
:10DED40077B61367170017560000A30DE6B405477D
:10DEE40098C798470983058B09E798470583058BED
:10DEF40031CF9847175600001306C6B317550000D4
:10DF0400130585B20983058B630307101841184371
:10DF140031830D8B75EBAC4B184E93F5050203471B
:10DF24001700CDCD79EF13077006D8CF034706004D
:10DF34001367170017560000230EE6AE114798C763
:10DF440018415C57F19B93E717005CD79C429847B4
:10DF54009316370163D606029756000083C6C6C1DE
:10DF6400C18A175700001307E7B9C5CE034747070F
:10DF740013670702975600002380E6C0056798C719
:10DF840098479316270163D10602175700000347E9
:10DF9400A7AA6207618763570700054797560000E1
:10DFA400238CE6A8096798C798479316070163D698
:10DFB40006029756000083C636BC858A17570000B0
:10DFC400130747B4ADCE0347570713672700975687
:10DFD4000000A383E6BA216798C7828029D78545C4
:10DFE4006315B7001307B00689B789456315B700F1
:10DFF4001307F0061DBF8D456315B70013073007DF
:10E004002DB71307500715B71307600739BF034728
:10E0140036001367170017560000A30EE6A0094741
:10E0240039BF834647070946BD8A6388C60003474C
:10E0340047078D463D8BE313D7F4114725BF83462D
:10E044005707918AC9DA034757071367870041B70F
:10E05400397106DE16DC1ADA1ED82AD62ED432D24C
:10E0640036D03ACE3ECC42CA46C872C676C47AC2CC
:10E074007EC0F533F250E2525253C2533255A25588
:10E08400125682567247E2475248C248324EA24E56
:10E09400124F824F2161730020301757000013077D
:10E0A400679B8346B7019757000083C7779D4C4B06
:10E0B400B697FD8B33D7F50097560000A38CF698DE
:10E0C40097560000A38EF69A058B15EF175700009C
:10E0D4000347579BB3F7E702814601471305000244
:10E0E40033D6E500058A1378F70F19CA6397D7006A
:10E0F40097570000A38007978280850693F6F60F52
:10E104000507E31FA7FC8280974700009387077BDE
:10E114009C43011122CC4EC606CE26CA4AC852C41C
:10E1240056C28297975700009387C79480478149C6
:10E134006305A406BE84974700009387E7730387AB
:10E1440067013E8963550706018D1354550097579F
:10E15400000083C7C7919379F501636DF402370A10
:10E16400C0A8B70A4057153F9C449756000083C681
:10E174000690139756003E9783076901158C63C573
:10E1840007006363470156979757000023A8E78E5B
:10E19400E37BD4FC1604B3693401F24062444E8537
:10E1A400D2444249B249224A924A05618280E37DBF
:10E1B40085F8B707C0A833848740229579B7974775
:10E1C40000009387A76F9C43411122C406C626C250
:10E1D4008297975700009387E78980476309A406CD
:10E1E400BE8497470000938727698387670163D8B4
:10E1F4000704018D135455009757000083C72787E0
:10E204006367F404593D98449757000083C72786F1
:10E214009396570036971D8C9756000023A0E686E8
:10E22400E372F4FE2244B2409244175500000345C1
:10E23400758281454101173304E06700038FE37A57
:10E2440085FAB707C0A833848740229565B7B240E2
:10E2540022449244410182809757000093870784A7
:10E264009843B75702009387079F8326070913969D
:10E274005600635806008326070913966600634414
:10E284000600FD17FDF3828071C5AA870145E9C523
:10E294008D07C207C183F19BC207C18313074003E3
:10E2A400636FF70217570000130747850843175792
:10E2B40000001307278414436398A602174700003D
:10E2C4001307875B185B014541CB4111C20706C6A2
:10E2D4000545DD8D0297B240014541018280175703
:10E2E400000013076781D9B70357650035E3035767
:10E2F4004500636FF704B306F7402146637CD602FA
:10E3040003280500938687001D8FAA966117174678
:10E314000000035646512392E60023A006012393EE
:10E32400060014C12312F500130786FF9746000068
:10E33400239BE64E2313B5009745000083D5A54ED5
:10E34400B387F54017470000231FF74C210582804F
:10E3540008419DB70145828082800DC19747000026
:10E364009387C77903A307009747000093878778AB
:10E3740083A8070081469A8763E31701828003A874
:10E384000700636DF50A636BA80A13878700E367C8
:10E39400E5FE03D66700216705076317E60003C798
:10E3A400819E05072384E19E974500009385454798
:10E3B40003D6470003D7650023930700329742072B
:10E3C4004183174500002310E546638A6702174519
:10E3D40000001305657208416303F50203D5660066
:10E3E40019ED83D7460023A0060121073E96210696
:10E3F4002392C600974700002397E742B6879843C5
:10E40400E30E17F7974600009386066F9442E307DE
:10E41400D7F683566700BDF283D6470003564700FC
:10E424001843A106B2962392D70098C383D76500F8
:10E43400A107174700002318F73E8280BE86C287D3
:10E4440025BF0111974700009387C76B22CC03A413
:10E45400C70B26CA4AC84EC606CEAA84130925008D
:10E46400854915C083C7140003473400858B6304B2
:10E47400F700405CFDB71946930544004A85EFE078
:10E48400CFFEE31835FF2285F2406244D24442496C
:10E49400B2490561828041119747000093878766DE
:10E4A40022C403A4C70B26C24AC006C6930425008F
:10E4B400054901E82285B2402244924402494101BF
:10E4C4008280A6851305A40297E004E0E780602516
:10E4D400E30225FF405CF1BF411197470000938799
:10E4E400676222C403A4C70B26C24AC006C69304AB
:10E4F4002500054901E82285B2402244924402499C
:10E5040041018280A6851305A40197E004E0E78019
:0CE514004021E30225FF405CF1BF000045
:10E520009751FF1F938181B717A1FF1F130181AD81
:10E5300017E5FFFF130545AD9725FF1F938585ACB4
:10E540001746FF1F1306C6FD63FAC50083220500A8
:10E5500023A0550011059105E3EAC5FE1725050026
:10E56000130505719745FF1F938585FB138601876A
:10E5700063FAC5008322050023A05500110591050B
:10E58000E3EAC5FE138501879785FF1F938585699B
:10E590006377B500232005001105E36DB5FEFD424C
:10E5A000739002BC8D42739042809302800873A0E6
:10E5B00002309722FF1F9382E2A493E2320073900D
:10E5C0005230978201009382222F7390123473008D
:10E5D00020303D432A876373C3029377F700BDEF72
:10E5E000ADE5937606FF3D8ABA960CC34CC30CC7C3
:10E5F0004CC74107E36BD7FE11E28280B306C340EC
:10E600008A069702000096966780A6002307B70047
:10E61000A306B7002306B700A305B7002305B7007C
:10E62000A304B7002304B700A303B7002303B70074
:10E63000A302B7002302B700A301B7002301B7006C
:10E64000A300B7002300B700828093F5F50F9396DF
:10E650008500D58D93960501D58D61B793962700DA
:10E660009702000096968682E78086FA9680C11708
:10E670001D8F3E96E374C3F8A5B73367B500FD530D
:10E680000D8B79E7B7877F7F9387F7F71041944128
:10E69000B372F6003363F600BE92B3E26200639792
:10E6A000720C6318D6065041D441B372F60033633E
:10E6B000F600BE92B3E262006398720A631BD6044E
:10E6C00010459445B372F6003363F600BE92B3E290
:10E6D00062006391720A631ED6025045D445B3723C
:10E6E000F6003363F600BE92B3E26200639A7208EA
:10E6F0006311D60210499449B372F6003363F600F1
:10E70000BE92B3E26200639372085105D105E30F34
:10E71000D6F61317060193970601631CF7001357EB
:10E72000060193D706013305F7409375F50F91E97C
:10E7300082804183C1833305F7409375F50F91E1E2
:10E7400082801377F70F93F7F70F3305F740828036
:10E750000346050083C60500050585056313D6003D
:10E7600065FA3305D640828011059105E312D6FE85
:10E77000014582802105A105E31CD6FC014582806C
:10E780003105B105E316D6FC014582804105C1057E
:10E79000E310D6FC01458280014711464148B3860B
:10E7A000E5008147B308F50083C808008507C10666
:10E7B00023A816FFE398C7FE11071105E31107FF11
:10E7C0008280935785019CC19357054193F7F70FBA
:10E7D000DCC19357854093F7F70F1375F50F9CC570
:10E7E000C8C582801C414111130705013EC05C4130
:10E7F0003EC21C453EC45C453EC6939725001408A6
:10E80000B69783A707FF85051105232EF5FE8D8991
:10E81000E315E5FE41018280397122DC41661384F3
:10E8200041A606DE26DA4AD84ED652D456D25AD05F
:10E830005ECE93050501A2863708FF007D1683078B
:10E840000500034735001105E207D98F0307D5FFFF
:10E850009106420733770701D98F0307E5FF2207A7
:10E86000718FD98F23AEF6FEE39BA5FC81499144BD
:10E87000930A010117AB0400130B8B3897AB04000C
:10E88000938B8B35130AC00293F7340003290400DD
:10E890004844BDE78A85353785450A85A1370A870B
:10E8A0001C43110793F6F70093F7070FDA97B69713
:10E8B00083C70700232EF7FEE394EAFE0245924742
:10E8C0006205C2075D8DB2475D8DA247A2075D8DCF
:10E8D00093972900DE979C4385093D8D334525019B
:10E8E00008C885041104E39144FBF2506254D254E9
:10E8F0004259B259225A925A025BF24B21618280EC
:10E900003345A90008C8F1BF797122D426D24AD074
:10E910004ECE52CC56CA06D62A8A93994500014457
:10E92000938A41A613090101C144B3073401D69764
:10E9300088438A85793533078A008A871443904350
:10E9400091074107B18E2328D7FEE39927FF1104D1
:10E95000E31D94FCB250225492540259F249624A87
:10E96000D24A45618280397122DC1304050106DE3A
:10E9700022878147C1460C433306F10011070CC2C0
:10E980004C4710083E960CC24C4F10103E960CC2DD
:10E990009107E392D7FE85450A85A9358945080880
:10E9A00091358D4508103D3D81474147B306F10043
:10E9B00094421104232ED4FE1408BE96944254C4EB
:10E9C0001410BE969442910754CCE391E7FEF250A6
:10E9D00062542161828006059377051089C71375FB
:10E9E000F50F1345B5018280411106C6ED37B240DF
:10E9F0004101D5B781471148C1483386F500B306B8
:10EA0000F500014703AE06003303E60005072300C7
:10EA1000C301C106E31807FF9107E39017FF828047
:10EA20009306050117A604001306862D1305050598
:10EA3000138706FF1C43110793F5F70093F7070FA1
:10EA4000B297AE9783C70700232EF7FEE394E6FE46
:10EA5000C106E31FD5FC82801C414111FD563EC01A
:10EA60005C413EC21C453EC45C453EC68D47B385F5
:10EA7000B7409307C5001397250010083297032766
:10EA800007FFFD1598C36393D5008D451387C7FF16
:10EA90006314F50041018280BA87F1BF397122DC2D
:10EAA0001304050106DE22878147C1460C43330665
:10EAB000F10011070CC24C4710083E960CC24C4F97
:10EAC00010103E960CC29107E392D7FE85450A8549
:10EAD00061378945080849378D450810B53F81479A
:10EAE0004147B306F10094421104232ED4FE1408CA
:10EAF000BE96944254C41410BE969442910754CCCE
:10EB0000E391E7FEF2506254216182809306050191
:10EB100017A604001306C60E13050505138706FF86
:10EB20001C43110793F5F70093F7070FB297AE97C1
:10EB300083C70700232EF7FEE394E6FEC106E31F1A
:10EB4000D5FC8280411122C406C626C285472E8488
:10EB50006301F50289476318F5002244B2409244EC
:10EB60002E8541018DBD8D47631BF5002E85A53592
:10EB7000298C2285B2402244924441018280A547DB
:10EB80006315F5002E858D35DDB7AD47631AF500A9
:10EB90002E85993D8935AA842285353D258DC9BFAD
:10EBA000B5476316F5002E858135AA84FDB7B947B0
:10EBB000E311F5FC2E850D3DAA84313DA98C2285FB
:10EBC000193D3344950075B7597186D6A2D4A6D2A3
:10EBD000CAD0CECED2CCD6CADAC8DEC6E2C4E6C22D
:10EBE000930605040A87AA879043C1074107232893
:10EBF000C7FE03A647FF232AC7FE03A687FF232CD1
:10EC0000C7FE03A6C7FF232EC7FEE39FD7FC17A9A5
:10EC100004001309E922130A050193090505832C51
:10EC20000900032C4900832B8900032BC900930A98
:10EC30000AFF8A848C406685910A29378C482A8489
:10EC4000628509378C50298C5E85ED3D8C58298C66
:10EC50005A85CD3D218D23AEAAFE9104E31C5AFDB9
:10EC6000410A4109E39D49FBB65026549654065982
:10EC7000F649664AD64A464BB64B264C964C6561D9
:10EC800082806382051493F7F500639E0712157165
:10EC9000D6C3AA8A3285A2CDA6CB86CFCAC9CEC793
:10ECA000D2C5DAC15EDF62DD66DB6AD96ED7328437
:10ECB000AE84EF50544FC147631EF5002285A93E34
:10ECC0000149130A010697AB0400938B6B17294C7B
:10ECD00063419902FE406E44DE444E49BE492E4ACD
:10ECE0009E4A0E4BFA5B6A5CDA5C4A5DBA5D2D6146
:10ECF0008280338B2A010C105A85793C814508109B
:10ED000021318549081019350810B1391C10D286F7
:10ED10003E8710434107C10623A8C6FE032647FFCE
:10ED200023AAC6FE032687FF23ACC6FE0326C7FF21
:10ED300023AEC6FEE31FEAFC17A704001307470C27
:10ED400003280700832D4700032D8700832CC7006D
:10ED50005284138607010C4042853ECE3ACC32CA1B
:10ED600042C8CD330C482AC66E85E93BB2460C50EA
:10ED70001104A98E6A8536C6F133B2464C54A98E69
:10ED8000668536C6C133B246F2475246358D88C3D2
:10ED9000910742486247E310F6FC4107B287E391CE
:10EDA000EBFACE85081085098536E39D89F50810B4
:10EDB000B13B08104D3EA9450810B936DA85081058
:10EDC0001539410931B78280638D051093F7F5003D
:10EDD000639907105171CECFAA893285A2D5A6D3E7
:10EDE00086D7CAD1D2CDD6CBDAC9DEC73284AE84BB
:10EDF000EF50743BC1476319F5002285313C01494E
:10EE0000138B41A6634D9900BE502E549E540E594B
:10EE1000FE496E4ADE4A4E4BBE4B6D618280338A9C
:10EE200029018C0052858D3AA9458800F13C138454
:10EE300041AFC14A930B00048800DD368800B93920
:10EE40008800593308408A85AD3A48400C08953A05
:10EE500008440C10BD3248440C18A53218018147F3
:10EE6000B306F100944241072328D7FE1408BE964A
:10EE70009442232AD7FE1410BE969442232CD7FE28
:10EE80001418BE9694429107232ED7FEE39A57FD9D
:10EE900008011D3B01479C003385E7001C01B305B9
:10EEA000F70081473306F5003388F5001442032844
:10EEB00008009107B3C6060114C2E39557FF410746
:10EEC000E31B77FD4114E31964F78800913E880045
:10EED000F136814588000D3CD2858800213E4109EC
:10EEE00015B782809307F00F6385F60A2D71232AE8
:10EEF000911023282111B28423263111130600100A
:10EF00002E89AA89930530020A85232E1110232CFD
:10EF100081103684EFF0EFEBA2852685EF10616952
:10EF200013178500935785003365F7002310A10060
:10EF3000A685228613053100930434002301810045
:10EF400093F4F40FEF40743193F6F40089C64D0446
:10EF5000158C9374F40F1C02A697A6850A8517A634
:10EF600004001306A6F3238007F0213B26868A853A
:10EF70004E85EF40942E230099008320C111032475
:10EF8000811183244111032901118329C1101561C5
:10EF900082808280797122D432844AD04ECE2A89EE
:10EFA000AE892285B68517A60400130626EF26D261
:10EFB00052CC06D636C6093DB246130A34005285F5
:10EFC000A2962380060083440400834714008345EF
:10EFD0002400A204DD8CEF10C15D639AA4020346F5
:10EFE0002400D2854A852380C900EF50B41F2545EF
:10EFF00097A504009385C5E8EF10615F0545B25001
:10F00000225492540259F249624A45618280238017
:10F01000090025452300090097A50400938505E70D
:10F02000EF10E15C0145E1BF411106C6EFC0D00E13
:10F03000B240AA8617A70400130707ED1756FF1F53
:10F04000130606FF97A50400938585ED1145410140
:10F050006F10A16E130101D92322912623202127AD
:10F060002326112623248126232E3125232C4125D6
:10F07000232A5125232861252326712503470500CE
:10F08000930710042A89AE84E31AF7020347150098
:10F0900093074005E314F702034725009307E005B3
:10F0A000E31EF7002E86AA852545EF10A15E130604
:10F0B000D003A6854A85EF1081762A84635A05001D
:10F0C0003546A6854A85EF1081752A846344050874
:10F0D0009309D4FF9307100363CE37074E86930539
:10F0E00039002810EF5014109C04BE9917AA040090
:10F0F000130A4A17238409DED28A8149594B832592
:10F100004A002810EF10616B0DC18E09D69983D784
:10F1100009005547636FF70017A70400130747D985
:10F120008A07BA979C43BA9782878509210AE39890
:10F1300069FD97A5040093852512DDA89385F4FF4A
:10F14000818D13051400C20581460146C1814A958F
:10F15000EF5050218320C126032481268324412699
:10F16000032901268329C125032A8125832A4125D4
:10F17000032B0125832BC1241301012782801386D1
:10F18000F4FF018E9305140042064182CA95E808F7
:10F19000EF1031111305D105EF50F400931505015F
:10F1A000C1811305D105EF10311E97A50400938589
:10F1B00065D81305D105EF10416019CD97A504005E
:10F1C0009385C5D70545EF1081421765FF1F03459D
:10F1D000359DEF90D024BDBF97A50400938545D7FA
:10F1E0001305D105EF10615D19CD97A50400938536
:10F1F000A5D60545EF10A13F1765FF1F0345559A9A
:10F20000EF90B02481BF97A504009385E5D5130541
:10F21000D105EF10815A0DC1371700408327C70A67
:10F22000A16697A504009385A5D4D58F2326F70A58
:10F230002545EF10C13B39BF97A50400938505D440
:10F240001305D105EF10615711CD37170040832703
:10F25000870AA16697A504009385C5D2D58F23247C
:10F26000F70AF9B797A50400938545D21305D10590
:10F27000EF10A15405C1B716004083A7C60C05675F
:10F2800013070780D98F23A6F60C97A50400938552
:10F29000A5D079BF97A50400938505D11305D105A5
:10F2A000EF10A15105C1B716004083A7860C056772
:10F2B00013070780D98F23A4F60C97A50400938524
:10F2C00065CFBDB797A504009385C5CF1305D105BC
:10F2D000EF10A14E11CD371700408327870C97A55B
:10F2E00004009385E5CE93E707402324F70C89B704
:10F2F00097A50400938585CE1305D105EF10E14B4A
:10F3000011CD371700408327C70C97A504009385BC
:10F31000A5CD93E707402326F70C19BF97A5040056
:10F32000938545CD1305D105EF10214911C9371734
:10F3300000408327870C8566D58F2324F70C19BDE1
:10F3400097A50400938585CB1305D105EF10E14601
:10F3500011C9371700408327C70C8566D58F232630
:10F36000F70CCDBB97A504009385C5C91305D1053E
:10F37000EF10A14411C59767FF1F23A50784D9BBD0
:10F3800097A504009385C5C81305D105EF10E14288
:10F3900001C5EFA040297DBB97A50400938505C852
:10F3A0001305D105EF10614101C5EF9010725DB3F7
:10F3B00097A50400938545C71305D105EF10E13FDC
:10F3C00001C5EF90506879B397A50400938585C671
:10F3D0001305D105EF10613E01C5EF1011719DBB02
:10F3E00097A50400938585C51305D105EF10E13C71
:10F3F00001C5EF10B177B9BB97A50400938585C40B
:10F400001305D105EF10613B01C5EFD0102D99B365
:10F4100097A50400938585C31305D105EF10E13945
:10F4200001C5EFD0F02B3DB397A50400938585C2AD
:10F430001305D105EF10613801C5EFD0D02A19BBF3
:10F4400097A504009385C5C11305D105EF10E136DA
:10F4500001C5EF008161FDB997A504009385C5C082
:10F460001305D105EF10613501C5EF50C109DDB1BC
:10F4700097A504009385C5BF1305D105EF10E133AF
:10F480002DC513059109EF40245A2A841305510D07
:10F49000AE84EF4064592A8913051111AE89EF40FB
:10F4A000A4582A8A1305D114AE8AEF40E4572A8B58
:10F4B000AE8B2A88AE885287D6874A86CE8622852A
:10F4C000A685EF3060272AC42EC65AC05EC2528875
:10F4D000D6884A87CE872286A68697A5040093857C
:10F4E00065B92545EF106125B5B197A50400938551
:10F4F000A5BA1305D105EF10412C11C58145014571
:10F50000EF50211281B90346D105A547130606FD28
:10F510001376F60FE3E0C7C49757FF1FA38AC768A7
:10F5200097A504009385C5B7EF10212125B1138657
:10F53000F4FF018E130514004206418297B50400C2
:10F54000938545654A95EF10E13A1754FF1F130460
:10F55000646431C597A504009385C5B5E808EF50EC
:10F560006443E808EF502444131605014182EC0877
:10F5700013858179EFC0106997A50400938545B67E
:10F580001145EF10C10683570400414593E717006A
:10F590001757FF1F2310F760EF10F13965BE97A5CD
:10F5A00004009385A5B41145EF1061047D55EF105B
:10F5B000F14283570400F99B1757FF1F231CF75C88
:10F5C00051BE9D3441BE1386F4FF018E1305140015
:10F5D0004206418297B504009385C55B4A95EF10BA
:10F5E00061311754FF1F1304E45A29C183570400E3
:10F5F00097A50400938545B0E80893E717001757CF
:10F60000FF1F2319F758EF50E438E808EF50A439EA
:10F6100013160501EC08418213858179EFC0905ED5
:10F6200097A50400938505AF114521B197A5040066
:10F63000938505AFE808EF50E435E808EF50A436AD
:10F6400013160501EC08418213858179EFC0905BA8
:10F650008357040097A50400938545AEF99B17577F
:10F66000FF1F2319F752C9B7EFB0105B9757FF1F61
:10F6700093874752E843EF406412AE862A8697A5E7
:10F680000400938565AC1145EF10210BE1B4EF90B8
:10F690004071C9B4B717004083A7470C17B60400E0
:10F6A0001306464F139797006356070017B60400DA
:10F6B0001306C64E97A504009385C5A91145ADB59F
:10F6C000EFC0402997A50400938585A931FD97A532
:10F6D00004009385E5A989BF3545EFD02075AA843C
:10F6E000EF40C40B2A86AE86254597A50400938576
:10F6F00065A9EF10810497A7040093876783884367
:10F70000A6851754FF1F1304E4A9EF3024532324C4
:10F71000A426EFC0602A03258426EF402408AE8685
:10F720002A8697A504009385A5A6B1BF81451545F6
:10F73000EF90105EEFC0801D2A8697A50400938588
:10F74000E5A7ADBF81451145EF90905C814513055C
:10F750009002EF90F05B81450D45EF90705BEFC03C
:10F76000401B2ACEEFC0A01BF2462A871756FF1F68
:10F770001306068C97A50400938545A51145EF0057
:10F78000D17BC9BA1757FF1F0357A7C79756FF1F4B
:10F79000938666AB1756FF1F1306868997A504004C
:10F7A000938505A5E1BF85471757FF1F2308F7C6B7
:10F7B000EFC0802097A504009385C5A4B5B5175761
:10F7C000FF1F0347A7C5854797A50400938505A498
:10F7D000E31CF7E4C5B785471757FF1FA30BF7C80E
:10F7E000EFC0801D97A50400938505A335BD9757ED
:10F7F000FF1F83C717C897A50400938565A2E385FB
:10F8000007E2CDB79757FF1F9387C738A843EF305C
:10F81000F478AE862A8697A50400938525A1A5B520
:10F82000792105044A94314681451755FF1F130578
:10F8300005BB9710FF1FE780003E8144930AA40098
:10F84000695AB30994400946CE85E8089710FF1F0E
:10F85000E780E03833899A000946CA854E859710BB
:10F86000FF1FE780C0370946EC084A85F914971056
:10F87000FF1FE780C036E39644FD1946A285175561
:10F88000FF1F1305C5B5EF10C11481451755FF1FA4
:10F890001305E5B4A52C228697A504009385459A07
:10F8A0001145EF0091690146970500009385654079
:10F8B00013056009EF9000136FF0DF890146A685FC
:10F8C0004A85EF90F0276FF0FF887971B1472300E8
:10F8D000F1009307170022D4A300F10006D62301FC
:10F8E000C1002A848D4715C7814713863700081049
:10F8F0001376F60F2A963385F60003450500850733
:10F900002300A6FE13F6F70FE311E6FE0D0793772B
:10F91000F70F81460147850613F6F60F6368F60474
:10F920001410BE962380E6FE138717001410137779
:10F93000F70F3697B5462300D7FE9386270093F638
:10F94000F60F0A862285EF403146DD47631CF5003D
:10F95000154597A504009385A549EF0051492285D7
:10F96000EF409142B2502254456182803306D1006B
:10F970000346060032971377F70F71BF85472A8633
:10F98000AE8663E3A702930740043307F50293872B
:10F9900041B11545BA9798474D8F98C797A5040070
:10F9A0009385C5456F0071598280411122C406C6F6
:10F9B00083C7B1B12A8481C7AA850145C13783C7EE
:10F9C000F1B599C7A2852244B240054541017DB7F2
:10F9D000B240224441018280411122C406C69737B9
:10F9E000FF1F9387A7EB038507007D54630F8502F4
:10F9F0001375F50FEF90600F9737FF1F238087EA8D
:10FA0000138401870306040097A504009385C5406D
:10FA10001545EF009152830704006355F000FD1770
:10FA20002388F186370510004937B24022448547C4
:10FA3000A388F186410182804111FD5706C6173720
:10FA4000FF1F230DF7E4938701870386070097A51F
:10FA500004009385E53D1545EF00314E3705100054
:10FA6000A937B240A38801864101828085472A8652
:10FA7000AE8663E5A702930740043307F502938738
:10FA800041B193C5F5FF1545BA9798476D8F98C753
:10FA900097A50400938505A56F00314A8280411126
:10FAA00022C426C206C683C7B1B12A84938441B159
:10FAB00091CB98449347F5FFAA85F98F014523AE72
:10FAC000F1B06D3783C7F1B591CFFC441347F4FF14
:10FAD000A2852244B2409244F98F23A0F1B6054595
:10FAE000410169B7B24022449244410182809307A8
:10FAF00040043305F502938741B13E958347750075
:10FB000081C708456D8D82800145828001114EC6F6
:10FB100006CE22CC26CA4AC852C483C9B1B1638A70
:10FB2000090883C7F1B57D54A5EF8549054A13043B
:10FB30004004B3078A02138441B12E89AA841306B4
:10FB4000400481453E9422859710FF1FE780A00C5A
:10FB50008547A303F40022851946A6859710FF1F49
:10FB6000E780E0079757FF1F9387C702DC5B2303FB
:10FB70002401CA855CCC2685EF4071319747FF1F71
:10FB800093874762D29703C7D72F930760062A84CB
:10FB90006308F700B7455F1E9385F5804E85F93BF6
:10FBA0002285F2406244D2444249B249224A056168
:10FBB0008280014AADBF011122CC13044004B30777
:10FBC0008502138441B126CA06CE4AC84EC6AA840D
:10FBD0003E948347740095C32A8697A504009385B5
:10FBE000A5931545EF0071357D542285F24062449E
:10FBF000D2444249B249056182802E89B28997A5D3
:10FC000004009385A5932A861545EF0011332285BC
:10FC10001306400481459710FF1FE780C0FF85470A
:10FC2000A303F40022851946CA859710FF1FE780B9
:10FC300000FB9757FF1F9387E7F5DC5B2303340135
:10FC40004E865CCCCA852685EF40F1309747FF1F72
:10FC500093874755A69703C7D72F930760062A8433
:10FC6000E305F7F8B7455F1E9385F58026853933A0
:10FC7000ADBF011119468145280006CE9710FF1F20
:10FC8000E78060F9130680088145138541B197101C
:10FC9000FF1FE78040F81757FF1F0347378285474C
:10FCA0006314F700EF20E101F24005618280411109
:10FCB00006C6EF4011368145138541B11306800811
:10FCC0009710FF1FE78020F5B24097A504009385A9
:10FCD0002583154541016F005126854763E2A70240
:10FCE00093074004B307F502138741B10145B306FA
:10FCF000F70083C6760091C6B1073305F70082800E
:10FD000001458280797122D426D24AD006D64ECEC1
:10FD100052CC56CA5AC801449744FF1F9384844862
:10FD200013096006EF401174636CA402EF00813C7C
:10FD3000014459C5979404009384C46C1759FF1F5C
:10FD4000130949E5EF4011726365A404B2502254CF
:10FD500092540259F249624AD24A424B456182802A
:10FD6000B387840083C7D72F63912703EF40B17710
:10FD700022852254B25092540259F249624AD24A20
:10FD8000424B854545616F40F17205041374F40FD1
:10FD900051BF2285EF40117705E122858545EF406F
:10FDA000717122851D3F01C5832749031CC9228625
:10FDB000A6851545EF00711805041374F40F59B7A3
:10FDC000EF0041332A8459F19759FF1F938989DC49
:10FDD000314A979A0400938AEA65179B0400130B33
:10FDE000EB63EF403168E373A4F62285FD352A8981
:10FDF0002285EF407165AA84630E090625CD174759
:10FE0000FF1F0347675DB305470303A64903832626
:10FE10000901B307D640B3F7B70291EF630DD600DF
:10FE200019CBDA8515452286EF0031119305300292
:10FE30002285EF40B16E83D78401A9E39757FF1F56
:10FE400083C717DAB1E381452285EF40B16683D6D7
:10FE50008401228536C6EF40B16E03A7490383278C
:10FE60000901B2462286B307F740D6852A87154591
:10FE7000EF00B10C05041374F40FA5B7FD17C2070A
:10FE8000C183239CF400DDDB85457DBF397122DC15
:10FE90001754FF1F130404D08347240006DE26DA1C
:10FEA0004AD84ED652D456D25AD0C18B6399070E37
:10FEB0008144938941B1130A4004930AB012179BFD
:10FEC0000400130BAB59EF40F15963ECA400F2505E
:10FED0006254D2544259B259225A925A025B216159
:10FEE0008280338944034E9983477900A9C72685C8
:10FEF000EF40915583477501858B95CF5C5803275B
:10FF0000C901998F63F9FA0283472400056593E7D5
:10FF100007011757FF1F2300F7C8EF10A1711946FB
:10FF20006C004A85EF0071267000DA851545230CB8
:10FF30000100EF009100850493F4F40F69B7B389D1
:10FF40005403D29983C779008DC32685EF40D14FE2
:10FF500083477501858B91CB5C5803A7C901998FA5
:10FF60006365FB0005091379F90F850493F4F40F19
:10FF7000EF40514FE3E5A4FCEF40D14EE31925F5E6
:10FF800083472400979504009385854E1545BD9BB6
:10FF90001757FF1F2301F7C0EF00217A0DBF01495A
:10FFA0008144138A41B1930A4004794BD1B7397126
:10FFB00006DE22DC26DA4AD84ED652D456D2EF409C
:10FFC000714A55C11747FF1F0347974D93076006B6
:10FFD000630BF7081747FF1F0347A74C6305F70894
:10FFE00083C731874D476369F7088507A389F18681
:10FFF0009747FF1F83C7473ED9EF493D13840187C9
:020000021000EC
:10000000830704006351F006EF00C10E630E050E76
:100010009737FF1F9387878803870700FD5763146F
:10002000F704014697050000938545A11305A00F2D
:10003000EF80501B030604009737FF1F2380A7861D
:1000400097950400938585481545EF00016FEFB043
:10005000202F014689450145EFE0E0368347040043
:10006000FD172388F186F2506254D2544259B25996
:10007000225A925A21618280979504009385054106
:100080001545A3890186EF00416B370510000D056A
:10009000EFF0BF91B1BF138441B11389C1B9854459
:1000A0009759FF1F938909AF130AC003979A040059
:1000B000938A8A4083477400B9C3834704026380EC
:1000C00097045C4C03A749031D8F9747FF1F83C705
:1000D000A730B38747036364F702130500202300AA
:1000E0009402EF10215519466C002285EF00F109AA
:1000F0007000D6851545230C0100EF000164130440
:100100004404E31924FBD5BD37051000EFF0FF8947
:10011000A388018623880186B9B75D71CAC086C6E7
:10012000A2C4A6C24EDE52DC56DA5AD85ED61747B3
:10013000FF1F0347C73689471749FF1F1309890661
:1001400063F8E7001747FF1F230BF734EFB0D00623
:1001500083C721871747FF1F03476734B3F7E702B9
:10016000416A856A938B2187938941B1130B4004BF
:100170007D1A938A0A802389F18603C521879747D0
:10018000FF1F83C7C7316371F508330565034E95BB
:10019000044599CC8347750081CFEF40D1232A8451
:1001A00011ED97A504009385E5961545EF002144D0
:1001B00083C70B0085072389F186C1B783470500F4
:1001C000A18BFDD78356C500E38446FF03C6218774
:1001D00097A50400938545951545EF000156939723
:1001E000740063D9070497A50400938525962545D7
:1001F000EF00E13F014774001306300283552401EC
:100200000355C400EFF06FEC83C721871747FF1F2A
:100210000347E7286305F70085072389F186B64081
:10022000264496440649F259625AD25A425BB25B5E
:10023000616182809397C40063D7070693067100BB
:1002400013066100930791003800930551001305D0
:10025000A100EFC050178357A1001307400697A5D0
:1002600004009385A590B3F7E70215452306F10036
:1002700083475100A306F100834761002307F10083
:1002800083477100A307F100834781002308F10031
:1002900083479100A308F100EF006135194774000E
:1002A0001306800AA1BF93F7041095C797A5040011
:1002B0009385058D1545EF00813303C521873305EF
:1002C000650350006C004E95EF10C0450347410098
:1002D0007400094625B793F7042085CB97A5040041
:1002E0009385458B1545EF00813003C52187930722
:1002F00040043305F50250006C004E95EF1080422B
:100300000347410074000D46D5BD9397B40063DCEC
:100310000704EFF0305E01E92306010017960400A0
:100320001306067F11A883C711872306F1001796CD
:100330000400130666EDFDD397A504009385058799
:100340001545EF00813F835524010355C40005473F
:1003500074006146EFF06FD7B705100003C5218721
:10036000EFF0CFF055B593F7140081CF97A50400B7
:100370009385C5851545EF00812701477400254603
:10038000B5BD93F7240081CF97A504009385C5855B
:100390001545EF00C12501477400194685B59397AF
:1003A000A40063DE070097A50400938565851545C5
:1003B000EF00E123014774001306000281B5939713
:1003C000840063DF070003C6218797A50400938597
:1003D00025851945EF00613601477400454639BD52
:1003E0009397940063DD070097A5040093858584A7
:1003F0001545EF00C11F01477400494601B593F749
:10040000044081CF97A50400938505841545EF002E
:10041000011E014774000546D5B3B3F7540185C3E7
:1004200097A50400938585831545EF00411C8347FC
:100430005923054774002306F1001146C1B3939771
:10044000340163D5070297A504009385E58215451D
:10045000EF00E1198357492674001D461397870062
:10046000A183D98F2316F100094749BB9397240133
:1004700063D1070297A504009385C5811545EF0058
:10048000011783474923054774002306F1003546C9
:10049000B5B39397140163DD070097A50400938516
:1004A000A5811545EF00A114054774003946B9B37D
:1004B00093F7440081CF97A50400938525811545C6
:1004C000EF00E1120147740015460DBB93F784005D
:1004D00081CF97A504009385E5801545EF00211194
:1004E00001477400214619BB9397040163DD07009F
:1004F00097A504009385C5801545EF00410F05477A
:1005000074004146E5B99397240063DE070097A580
:100510000400938565801545EF00610D0147740067
:1005200013069002E1B99397F40063D707029795F9
:1005300004009385E57F1545EF00610B03576923A0
:100540009747FF1F83C787E92307F1002316E100C0
:1005500074000D474D465DB19397E40063DD0700DD
:10056000979504009385857E1545EF004108014766
:100570007400514661B19397D40063DD07009795ED
:1005800004009385657E1545EF0061060147740000
:100590005546ADB193F7040189CF97950400938533
:1005A000657E2545EF00A104014774001306700A1B
:1005B000B1B19397640063DE0702979504009385B9
:1005C000A57D1545EF00A1029747FF1F938787BDC3
:1005D00083D7A731835524010355C400094774000C
:1005E000130640022316F100EFF02FAEB70500020C
:1005F000B5B39397540063D607029795040093858B
:10060000257B1545EFF0B07E835524010355C400CA
:100610000147740013065002EFF02FABB70500043A
:1006200035BB9397440063D20704979504009385E4
:10063000A5791545EFF0B07B9747FF1F938787B6E5
:1006400003C7D73183C7E73174002306E100A3064F
:10065000F100835524010355C400094713066002C5
:10066000EFF0AFA6B7050008D5B993973400E3D1F2
:1006700007B497950400938565761545EFF03077BC
:10068000835524010355C40001477400130670020A
:10069000EFF0AFA3B7050010D1B1597186D6A2D43F
:1006A000A6D2CAD0CECED2CCD6CADAC8DEC6E2C472
:1006B000E6C2EAC06EDE02CE02D002D202D402D678
:1006C000954763F5C71E328A2E89EF40415AAA84A6
:1006D000630E051C1946938541B19700FF1FE78003
:1006E00000590544630E85181946938581B5268502
:1006F0009700FF1FE780A057631A851A93074004ED
:10070000B307F402938941B1814C179B0400130B8A
:10071000EBE43387F90093878702BE999747FF1F61
:10072000938747A8A2973AC0BA843EC2B30D9901F5
:1007300003C60D00B1476315F616138D4C006357C1
:100740004D17138C1C004A9C834B0C00938A3C0071
:10075000B3877A0163D64715CA9703C60700B54722
:100760006310F61481470146B385FD0083C515006B
:10077000850793F7F70F2E961376F60FE3F6FBFE39
:10078000B3877D0183C72700639CC710B307590156
:1007900003C60700979504009385C5DC25453EC434
:1007A000EFF0B0799747FF1F9387C73EDC5B03C626
:1007B0000402DCCC85476315F60213050040EF0008
:1007C0007167024519466C08EF00211C7008979567
:1007D00004009385E5D9154523040102EFF0F07577
:1007E00023800402B307590183C707004946638B7E
:1007F000C7606365F6162147638CE7406367F70CB3
:100800000D476388E730636FF70605476388E72C79
:100810006378F72A83C74D00639FE72C15459795AA
:100820000400938565D9EFF0905C096519C0370520
:100830004000EF00316017950400130565D8EF30D4
:10084000C0039747FF1F83C777C791CF9747FF1F05
:10085000A38607C6EFB0401697950400938545D749
:100860002545EFF0906D9747FF1F83C7773791C7F6
:10087000FD171747FF1FA305F7369305001085AC3A
:100880000144ADBD15476384E73063E7E72E1947A0
:100890006389E7321D476384E736DE9A93FCFA0FDB
:1008A00013871C00937CF70FE3E24CE9B650265403
:1008B00096540659F649664AD64A464BB64B264CDC
:1008C000964C064DF25D656182803547638DE73C4D
:1008D0006367F70429476389E73A63E9E7362D47F9
:1008E000E39DE7FA97950400938585E31545EFF0BE
:1008F000105097950400938565E41545EFF0304F4F
:1009000091652285EFF0AF9E63170538370520000B
:10091000EF00515291652285EFF04F86BDBF3D47F4
:100920006385E73A63EAE73841476383E73C454735
:10093000E395E7F6979504009385C50A2286194545
:10094000EFF0B05FEFF0AFB6124793076006A30E6B
:10095000F72EEFB06006B705800051AA930630026B
:10096000638CD75263E0F610E1466382D74463EBB1
:10097000F602D1466386D73E63E5D7385547E39EF6
:10098000E7F04A9D03460D0097950400938545F1D5
:100990001545EFF0905A83470D00B7050400A38377
:1009A000F402B1A213070002638CE7426369F70601
:1009B0006547E394E7EEB70520002285EFF02F931B
:1009C0006318054097950400938505F31545EFF0EE
:1009D000104297950400938525F41545EFF03041BA
:1009E000371700408327870A93E707402324F70A35
:1009F00085471747FF1FA303F79EEFA0F07BEF107B
:100A0000C12F13050010EFE05FFA13050020EFF08F
:100A10000F891165EF001142B7052000EDBD1307E6
:100A200010026389E73C13072002E398E7E6228679
:100A3000979504009385C5FC1545EFF01050974736
:100A4000FF1F83C7E7A781EFB70500012285EFF0FD
:100A50000F8A631B054237051000EF00B13DB70553
:100A6000000155BD930670026383D74463E2F6022A
:100A700093065002638AD72A63FEF62897950400EE
:100A8000938585FE1545EFF09036B705000885A0E3
:100A9000130790026386E74863E7E7441307700A89
:100AA000638AE73C1307800AE399E7DE9795040021
:100AB000938505E11545EFF09033B705080005A8CB
:100AC00083C74D0003C65D0097950400938585ABF1
:100AD000A2075D8E1545EFF05046C1B3979504000F
:100AE000938505AC1545EFF09030930500402285C5
:100AF000EFE0DFF75DB3979504009385E5AE15450C
:100B0000EFF0F02E17950400130585AEEF20F05698
:100B100099BB03C74D0085476314F70415459795A6
:100B200004009385E5ADEFF0902C3705800001E4DB
:100B3000056513050580EF00F12F179504001305D7
:100B4000A5ACEF2090539747FF1F83C7770991C744
:100B5000FD171747FF1FA305F7089305002041BFA6
:100B6000154597950400938565ABEFF050281795D0
:100B70000400130525ABF1B797950400938585AB69
:100B80001545EFF0D0268565938505808DB703C5A3
:100B90004D00EF10147D03260B0083264B00EF0061
:100BA000D434EF20744AC8C8EF20543F2A86AE865A
:100BB000154597950400938525AAEFF010389145C7
:100BC0003DB783C74D0003C55D00A2075D8DEF10E3
:100BD000547903260B0083264B00EF001431EF20DD
:100BE000B44688C8EF20943B2A86AE861545979573
:100BF00004009385E5A8EFF050348945CDBD979565
:100C000004009385E5A91545EFF0701E8565C5B50F
:100C100083C74D0003C55D00A2075D8DEF1074749E
:100C200003260B0083264B00EF00342CEF20D44129
:100C300088CCEF20B4362A86AE86154597950400F9
:100C4000938505A8EFF0702FA14555B583C74D00DA
:100C500003C55D00A2075D8DEF10B47003260B0085
:100C600083264B00EF007428EF20143EC8C4EF2009
:100C7000F4322A86AE861545979504009385C5A65D
:100C8000EFF0B02B8545A5B503C64D009795040040
:100C9000938585A781B5979504009385A5AB1545E8
:100CA000EFF0F01485B9979504009385E5AB1545F1
:100CB000EFF0F013896525BD97950400938505AD88
:100CC0001545EFF0D01291651DB5979504009385F9
:100CD000A5AD1545EFF0B011979504009385C5AE0D
:100CE0001545EFF0D0102165EF00D114A16525B1B5
:100CF00097950400938585AE1545EFF0500FA165DB
:100D0000FDB397950400938565AF1545EFF0300E60
:100D1000C165F1BB97950400938585B01545EFF04B
:100D2000100DB7050002E1B313875C00330CA90175
:100D3000330DE90083460D0003460C00979504002F
:100D4000938545B01545EFF0501F83470C00B7055C
:100D50000004A382F40283470D002383F40241BB05
:100D600013876C00138C5C003308A9014A9C330D77
:100D7000E9000346080003470D0083460C009795E1
:100D800004009385E5AE154542C4EFF0101B2248E0
:100D9000B705020083470800A380F40283470C00D4
:100DA0002381F40283470D00A381F40289B3979550
:100DB00004009385A5B21545EFF03018938701879D
:100DC00083870700E34BF0AC85472388F186F1B4B5
:100DD00097950400938505B61545EFF050012DB9A0
:100DE00097950400938585B61545EFF05000B7053B
:100DF0002000F5B997950400938505B71545EFF0E8
:100E0000007F61BC03460C008547B305A901791634
:100E10001376F60F631AF60483C605008848930517
:100E2000000013D64600BD8A32C636C4EF20240C1B
:100E3000A246324697950400938545B509C5979516
:100E40000400938565B54E85EF30742EA3880402A7
:100E500097950400938505B5CE8622861545EFF05B
:100E6000D00DB705400061B14E859700FF1FE780A8
:100E700000D7F9BF97950400938545B422861545A0
:100E8000EFF0B00BC145A5B197950400938585B9E6
:100E90001545EFF0C075E1B6979504009385C5B987
:100EA00022861545EFF07009B705000189B1138757
:100EB0005C00330CA901330DE90083460D000346A5
:100EC0000C0097950400938565BC1545EFF0F0067E
:100ED00083470C00B70500102381F40483470D00FD
:100EE000A381F40429B1979504009385E5BC1545C9
:100EF0002286EFF09004B70500202285EFE03FBF87
:100F000001E937050002EF00E172B705002021B4C6
:100F100097950400938505BC1545EFF0406DF5B736
:100F200097950400938545BC22861545EFF0F000A7
:100F3000B70500206DBE411122C4216493050480D1
:100F400099460146254506C69700FF1FE780809217
:100F5000930504802244B24099461386418729456F
:100F600041011703FF1F6700E39099E1014582806B
:100F700075DD011152C403DA818726CA93548A00B1
:100F80008504A204C204C18056C2B38A4441C20A85
:100F900022CC4AC82E862E842A89979504009385F0
:100FA000A5F8254593DA0A014EC606CE93894187F6
:100FB000EFF0A07863ED8A0883D5818793F7F50F6A
:100FC000B1CF8D6783D5818793870780A2864A86B4
:100FD000BE9529459700FF1FE780C0891375F50F5F
:100FE00029ED83D749001566A297239CF18603D784
:100FF000818783D761876309F70063F3E700B297BE
:10100000998F139607014182254597950400938592
:1010100025F3EFF080721375F40F0DA08D679387A1
:101020000780930600100146BE9525459700FF1FD7
:10103000E78040841375F50F49D50145F2406244BD
:10104000D2444249B249224A924A05618280B3079A
:101050009440D297C207C183A18303C74900850783
:1010600093F7F70F9396870011EB9386170093740D
:101070000AF0A206C204C206C180C18283D761877A
:1010800063F6F40033879600E3C9E7FA0D6A130AA2
:101090000A800146B3854401254597F0FE1FE7808D
:1010A000607D1375F50F51F983D58187A2864A8635
:1010B000D29505B7411122C4138441872285814509
:1010C000194606C69700FF1FE780E0B49307B0FA01
:1010D0002300F400EFF03FE62244B240979504006D
:1010E000938505DD254541016FF06050A1654111F3
:1010F000994613864187938505802D4506C697F04E
:10110000FE1FE780207703C741879307B00A630378
:10111000F7004D37B24083D6818703D66187979514
:1011200004009385A5D9254541016FF0006183D75F
:10113000C1B90145638C071003D5E1B96366F500B9
:1011400023AE01B8014582803385A740D14733558E
:10115000F5021375F50F01E5239E01B88280130196
:1011600001BD2324814223261142232291422320C0
:101170002143232E3141232C4141232A51419547BC
:101180001374F50F63F3A7001544228697950400A6
:101190009385C5DC2545EFF0405A01498144938988
:1011A00001BA514AA14A9377F90F03D5E1B917372C
:1011B000FF1F0347C71563E98704D1473304F402CF
:1011C0002A94239F81B8A147631CF706A6850808C7
:1011D000EF60105503D7E1B983D7C1B90545636402
:1011E000F70023AE01B88320C14203248142832447
:1011F0004142032901428329C141032A8141832AB3
:101200004141130101438280B30749031408AA979F
:10121000CE9733859600631E5701BE85EF60D06F71
:101220002317A1008357E1000509BE94C204C180C1
:101230009DBFAA851306E1003E85EFC03025DDB7CE
:1012400026860C080145EFA0800669B7828001114F
:1012500006CE22CC26CA4AC84EC652C499E90144D9
:101260002285F2406244D2444249B249224A056191
:101270008280AA896DD583D7818703D661872E8422
:101280009564638AC7006374F60015673A961D8EED
:1012900093140601C180268697950400938545BE68
:1012A0002545EFF08049938714F06356F4009307C7
:1012B000F00F63EA9700979504009385E5BD2545F7
:1012C000EFF0A04769BF83D48187B3878400156A94
:1012D0006349FA00A2854E85EFF03FC9EFF0BFC524
:1012E00041B7156933099940420913590901CA8563
:1012F0004E85EFF09FC709E583D78187E39147F7D4
:10130000ED75A695A295C205239C0186C181338502
:101310002901D9B783D6C1B981EA9795040093858D
:1013200025BE25456FF0A02C03D6E1B94111918E61
:10133000979504009385C5BD254506C6EFF0E03FAF
:101340001387C1B98355070083D7E1B9138501BA63
:101350009D8DC2053E95C181DD3DB24023AE01B8F1
:1013600041018280411183D7C1B922C426C206C679
:10137000AE9713070020AA842E84635AF700593FC2
:1013800097950400938585B52545EFF0402683D7D2
:10139000C1B9138501BA2286A6853E95EF20E46B7C
:1013A00003D6C1B9229642062244B24092444182F9
:1013B000239EC1B8979504009385C5B32545410187
:1013C0006FF0A037011126CA06CE22CC4AC84EC6FD
:1013D00052C456C2814459C1D1C183D7618703D455
:1013E0008187638D870663F587081D8C42044180E1
:1013F000AE892A892286979504009385E5A4014544
:10140000EFF0A033A28463F38900CE84C2040D6A96
:1014100083D7618703D78187C180938A4187130A65
:101420000A8063FAE704A6864A86B38547012D45FC
:1014300097F0FE1FE780004483D72A00A697239BDE
:10144000F186EFF05FAF83D6818703D661879795EA
:1014500004009385A5A02545EFF0202EF2406244BC
:1014600026854249D244B249224A924A0561828085
:1014700015673A949DBF15671D8FB385470163D5E6
:10148000E400A6864A8665B79569B389F9406D740C
:101490003E94C20993D909012694CE864A86420415
:1014A0002D4597F0FE1FE780E03C4180A286330681
:1014B0003901D2852D45239B018697F0FE1FE780D9
:1014C000603B83D72A003E94239B81869DBF397160
:1014D00006DE22DC26DA4AD84ED652D456D25AD06C
:1014E0005ECE62CCE9C9328455CA368CE9C6BA8B65
:1014F00079C32A89AE8A2300AC0085448149114B07
:10150000330634416353CB001146137AF60F5286EB
:10151000B3853A01480002C2EF202454034751002A
:101520008347610003467100834641004A97CA978A
:101530004A96050789070D06CA962307E100A30608
:10154000F100A307D1002306C100780081470346BC
:101550000700B306F9008507B18E2300D70093F783
:10156000F70F0507E39567FF8357C1000357E100B5
:10157000D29933059C00B98F2316F100B24711466A
:101580002C00910493F9F90F3EC493F4F40FEF206B
:10159000C44CE3E789F623809B0005442285F25082
:1015A0006254D2544259B259225A925A025BF24BB7
:1015B000624C216182800144D5B71D7186CEA2CCD8
:1015C000A6CACAC8CEC6D2C4D6C2DAC05EDE62DC43
:1015D00066DA6AD86ED67DC52E84E9C532897DC2A9
:1015E000368CEDC2834D0500AA84814C054D91498E
:1015F000138A3D00938A1D00138B2D00930B00105E
:101600003306A44163D3C90011469377F60F3E8693
:10161000B385A40148083EC602CAEF2004448346AD
:101620006101034741010346710183475101358F31
:10163000230AE100B18F33C7ED00B346DB00A30AF4
:10164000F1003346CA00B3C7FA00A30FE100A30EAE
:10165000D100230EC100230FF1007408014783C796
:1016600006003386ED00050793870710918FB3E7D7
:1016700077038506A38FF6FEE31337FFF2473305A2
:10168000990111462C083ECCEF20243DB247910C25
:1016900093FCFC0F3E9D137DFD0FE3638DF623004D
:1016A0009C0105442285F6406644D6444649B64925
:1016B000264A964A064BF25B625CD25C425DB25DA2
:1016C000256182800144F9BF39719307400622DC0D
:1016D00033F4F50226DA13077100B684740806DEC7
:1016E000B377F6023304F402B387C5003E949397B0
:1016F0008500A181DD8D9317860021825D8E2314E4
:10170000B1002315C1002C001146EFF05FDC89C445
:1017100083457100680882942285F2506254D25445
:1017200021618280317122DD26DB4AD993071101C4
:1017300018082A842E89B2849306F1001306E1006A
:101740009305D1001305210106DFEFB0C0478147A3
:1017500019473306F40003460600B400BE96238002
:10176000C6008507E397E7FE83572101130740066C
:10177000B3F7E7022307F1048347D100A307F1047D
:101780008347E1002308F1048347F100A308F10433
:10179000834701012309F1049307A0FAA309F10487
:1017A000EF3044067800F418AC0031461375F50F9D
:1017B000EFF0FFD14C0822851946EFF0001D5008CC
:1017C000978504009385C57A254523000102EFE043
:1017D000D0760346C1004C08E818EFF0001B8346A2
:1017E000C1001819500893971600BA9797850400FE
:1017F0009385C5782545238207F6EFE010740348EA
:1018000001018347F1000347E1008346D1000356FD
:101810002101954897850400938585772545EFE05C
:10182000D0710344C100EC184A852286EF20E422DF
:10183000FA50238084006A54DA544A59296182801C
:101840009785040093854578130510026F70504CFE
:101850007971AA85680006D602C602C802CA02CCFF
:1018600002CEEF3024136C0013058004EF70504A51
:10187000B250456182807971AA85680006D602C699
:1018800002C802CA02CC02CEEF30C4106C001305AD
:101890004002EF70F047B250456182801D71A2CCCA
:1018A000A6CACAC83284AA842E8913062003814599
:1018B000680886CE36C6EFC0DFD1B24622872686BC
:1018C00097850400938585746808EF3044066C089A
:1018D00013052002EF70D043A285130620024A852B
:1018E000EF701026A28626869785040093850573DF
:1018F0001945EFE09064F6406644D64446492561B8
:1019000082805D71A2C4A6C2CAC02A842E89B28414
:10191000814513062003680086C6EFC09FCB26874B
:10192000CA862286978504009385456A6800EF3051
:1019300004006C0013053002EF70903D4A87A686C4
:10194000228697850400938565691945EFE0F05E6E
:10195000B640264496440649616182809387011E01
:101960000547238CE70018411045544598C3035799
:10197000450090C7D4C7104954492392E70090CB43
:10198000D4CB239DB7008280184193870120104556
:1019900098C303574500544590C72392E700585514
:1019A0001049D4C7544998CF97850400938545754D
:1019B0000547254590CBD4CB238EE7006FE030431D
:1019C000397126DA4AD84ED652D456D25AD006DECB
:1019D00022DC62CE66CC2A89EF20F47C9374F50F6A
:1019E0008149254BE54A178A0400130AAA6791EC3E
:1019F000F25062544E85D2544259B259225A925AE8
:101A0000025B724CE24C216182800347090093071C
:101A100007FD93F7F70F637CFB009307F7F993F744
:101A2000F70F63E2FA06930797FA93F7F70F139409
:101A300087016184FD14230089002685EF1064125C
:101A40002A86AE8603250A0083254A0093F4F40F04
:101A50000509EF50D1432AC422852EC6EF10641029
:101A60002246B246EF0084402A8C4E85AE8CEF10A1
:101A700064162A86AE866285E685EFF00354EF1081
:101A80008408AA89ADB79306F7FB93F6F60F814752
:101A9000E3EFDAF8930797FC49BF411122C406C669
:101AA000830795022A8499C713059502EF103478AD
:101AB000238DA1188307D41291CB1305D412EF10F4
:101AC000B476EF10745893878116C8D3B24022447D
