:04C000006F2000525B
:10C0040000000000000000009000002096060020C0
:10C01400A9BDF9F590000020000000000000000018
:10C0240090000020900000200000000000000000AC
:10C03400900000200000000090000020000000009C
:10C04400900000204E02002090000020900000206C
:10C05400900000209000002090000020900000201C
:10C06400900000209000002092000020900000200A
:10C074008A070020900000209000002090000020FB
:10C084009000002026010020BA010020900000202A
:10C0940001A0373700408347470099464111BD8BC3
:10C0A400638CD70231476384E7061147639EE70236
:10C0B400A3030100174600000346C66E373700404D
:10C0C400834771006315F6022C001385017897B03D
:10C0D40001E0E780202E09A88347570093F7F70F64
:10C0E4002304F1008347810041017300203083471A
:10C0F4007100834687000C08AE97238CD7FE8347D4
:10C104007100850793F7F70FA303F10055BF2800CB
:10C11400973002E0E78020B61375F50FA303A10062
:10C124000346710055B73747004083474780994617
:10C134004111BD8B638CD70231476384E7061147F5
:10C14400639EE702A30301001746000003469665B9
:10C1540037470040834771006315F6022C001385AE
:10C16400817A97B001E0E780E02409A883475780EB
:10C1740093F7F70F2304F100834781004101730013
:10C18400203083477100834687800C08AE97238C48
:10C19400D7FE83477100850793F7F70FA303F100D8
:10C1A40055BF2800973002E0E780A0BE1375F50F55
:10C1B400A303A1000346710055B7374700408347E6
:10C1C40047C099464111BD8B638CD70231476384C4
:10C1D400E7061147639EE702A30301001746000028
:10C1E4000346267D37470040834771006315F602F6
:10C1F4002C001385C17B97B001E0E780A01B09A840
:10C20400834757C093F7F70F2304F1008347810056
:10C2140041017300203083477100834687C00C08B6
:10C22400AE97238CD7FE83477100850793F7F70FEA
:10C23400A303F10055BF2800973002E0E78020C730
:10C244001375F50FA303A1000346710055B74111FF
:10C2540026C4B714004022C603D4C4094204418052
:10C264009317140163DB0700BD450145971002E0F5
:10C27400E780C0BD9167239EF4081374041019C8A5
:10C28400971002E0E78040A8B7170040130700109A
:10C29400239EE7083244A2444101730020307327EF
:10C2A4000080218B9387019209CB7327008023A000
:10C2B400E19298435D9B73100780010001003717DA
:10C2C4000040930670052300D704930680FA2300E8
:10C2D400D704010001008346B70493F6F60DA305C5
:10C2E400D70423000704732600809443A18AD18EC7
:10C2F4007390068023A00192010001009376050249
:10C30400638406180347A700118B25E77327008071
:10C31400218B09CB7327008023A0E19298435D9B76
:10C324007310078001000100371700409306700561
:10C334002300D704930680FA2300D70401000100E8
:10C344008346A70093E646002305D700230007048D
:10C35400F32600809843218B558F7310078023A008
:10C364000192010001001307004B010001007D1739
:10C374006DFF73270080218B09CB7327008023A0D6
:10C38400E19298435D9B7310078001000100371709
:10C394000040930670052300D704930680FA230017
:10C3A400D704010001007D892314A70001000100C6
:10C3B4000100010023000704F32600809843218B29
:10C3C400558F7310078023A0019201000100732789
:10C3D4000080218B09CB7327008023A0E19298432E
:10C3E4005D9B73100780010001003717004093061E
:10C3F40070052300D704930680FA2300D7040100B4
:10C40400010001000100B726004013061005A383B4
:10C41400C68023000704F32600809843218B558FA0
:10C424007310078023A0019201000100732700808C
:10C43400218B09CB7327008023A0E19298435D9B55
:10C444007310078001000100371700409306700540
:10C454002300D704930680FA2300D70401000100C7
:10C464008346B70493E60608A305D704230007040C
:10C47400732700809C43A18BD98F7390078023A0DE
:10C48400019201000100828093760504638B0614F7
:10C494000347A700418B25E773270080218B09CB35
:10C4A4007327008023A0E19298435D9B731007805B
:10C4B4000100010037170040930670052300D704DC
:10C4C400930680FA2300D704010001008346A700E5
:10C4D40093E606012305D70023000704F326008012
:10C4E4009843218B558F7310078023A0019201007C
:10C4F40001001307007D010001007D176DFF732704
:10C504000080218B09CB7327008023A0E1929843FC
:10C514005D9B7310078001000100371700409306EC
:10C5240070052300D704930680FA2300D704010082
:10C5340001009376F50193E606042314D700010065
:10C5440001000100010023000704F3260080984342
:10C55400218B558F7310078023A0019201000100E5
:10C56400130760046310E50473270080218B09CB53
:10C574007327008023A0E19298435D9B731007808A
:10C584000100010037170040930670052300D7040B
:10C59400930680FA2300D70401000100B726004067
:10C5A4000946B5B573270080218B09CB732700801A
:10C5B40023A0E19298435D9B731007800100010062
:10C5C40037170040930670052300D704930680FABA
:10C5D4002300D70401000100B726004013062005FC
:10C5E4003DB573270080218B09CB7327008023A0DE
:10C5F400E19298435D9B7310078001000100371797
:10C604000040930670052300D704930680FA2300A4
:10C61400D704010001008356870093E6060C231417
:10C62400D700C5BB4111814601468145114506C667
:10C634008124F3270080A18B9386019289CBF32771
:10C64400008023A0F1929C42DD9B7390078001003F
:10C654000100B7170040130770052380E704130790
:10C6640080FA2380E7040100010003C7670413670D
:10C6740017002383E70423800704732700809C4268
:10C68400A18BD98F7390078023A001920100010030
:10C69400B240410182808146014681451145C92A43
:10C6A400F3270080A18B1387019289CBF3270080A5
:10C6B40023A0F1921C43DD9B7390078001000100CD
:10C6C400B7170040930670052380D704930680FAB9
:10C6D4002380D70401000100FD562396D70223804E
:10C6E4000704F32600801C43A18BD58F7390078029
:10C6F40023A0019201000100F3270080A18B89CBC4
:10C70400F327008023A0F1921C43DD9B73900780E4
:10C7140001000100B7170040930670052380D70479
:10C72400930680FA2380D7040100010083C66704BE
:10C7340093E616002383D70423800704F32600809E
:10C744001C43A18BD58F7390078023A00192010015
:10C75400010001A0BD473305F50201007D1575FDFB
:10C764008280411122C426C206C6AA8401446317EA
:10C774009400B2402244924441018280050413058E
:10C78400803E4204C13F4180DDB7B7170040130724
:10C7940000032388E7028547174700002326F73A5A
:10C7A40073002030411106C6A52D97C001E0E78033
:10C7B400C0BDDDBF2303048015472303E4800100CB
:10C7C4002302A480828083076480E3CE07FE2303D0
:10C7D4000480828083076480E3CE07FE034544809F
:10C7E400828083076480E3CE07FE2302A4808280D4
:10C7F400411126C44AC24EC006C61377F50BAD4795
:10C80400AA892E8995446306F70019456537653F63
:10C814008D444E854537FD59FD1463983401B2406B
:10C82400A2441249824941018280135509011375BA
:10C83400F50F453F2209CDB7011126CC06CEB7042A
:10C84400080051371545BD37713769372AC6A53FEA
:10C8540032459377150089EB136515001375F50FB1
:10C86400F240E24405618280FD14E9FC0145CDBF3C
:10C87400397126DC4ADA4ED852D656D45AD25ED012
:10C8840006DE62CE66CCB7E700E07D5783AA0700D8
:10C8940022C603AA470023A0E71823A2E718B71764
:10C8A4000040130770052380E704130780FA2380F0
:10C8B400E70483C74704930B75FFB684E20793FB31
:10C8C400FB0F8546AA892E8B328937240040E187E5
:10C8D400015763FA76016308D500894613070002FD
:10C8E4006313D5000157D98F93F7F70FB71C004096
:10C8F4002382FC0411472303E4801305F00F5D3DFC
:10C90400094CD135636D7C11B7050700DA9537877B
:10C914000700795563F2E504B3879500636EF70267
:10C92400370B0800A94733EB65016399F90689E4DD
:10C934008144513D26850DA0DA850945553D0509FB
:10C944000345F9FFFD14050B693D81C49377FB0F83
:10C95400FDF7DD3569FD7D55B717004013077005F8
:10C964002380E704130780FA2380E70403C74704FE
:10C97400418B2382E704F250B7E700E023A057116C
:10C9840023A24711E25432445259C259325AA25A8C
:10C99400125B825B724CE24C21618280A5476395F5
:10C9A400F90685691309F00FB3069900B3742B01D6
:10C9B400B6941349F9FFB3749900856B337969010F
:10C9C400416B9387F9FFB3F7270199E363FC3401C3
:10C9D40093D94900C147E3E637FF99BF0569C169A7
:10C9E4007D19D9B71305800D638869011305000209
:10C9F4006384790113051008CA85DD3B353D21DDCB
:10CA04004E99B3843441D9B7DA852D45D533CA94C8
:10CA1400E30099F205097D3BA30FA9FED5BF9387D7
:10CA2400F9FF93F7F70F6361FC0C83C71C0413072A
:10CA34003008631FF70437070800636BEB04B30780
:10CA44009B00B706100063F5D704334BEB0089470E
:10CA54006393F9068980D549E38C04ECDA850945AA
:10CA6400413B11090327C9FF91472320E4800307B1
:10CA74006480E34E07FE23033481FD17EDFBFD14B0
:10CA8400110B81C49377FB0FE9FF7D3371F5E1B599
:10CA9400B717004003C75704B70708001377070206
:10CAA40019E3B78707007955E378FBEA33079B005E
:10CAB400E3FFE7F855B58547E382F9F2DA852D45BA
:10CAC400053B9389F4FFE38504E6293393F73900A2
:10CAD40091EB832604800327090093074900E39A16
:10CAE400E6E43E89CE84F1BFB5476396F9001305A9
:10CAF400900BC93135BDB1471305B00AE38BF9FE7C
:10CB040099476391F904B7050800B365BB002D4547
:10CB1400C53181448D4BA1497539639674018327CE
:10CB240004802320F9008504E39834FF83270480DC
:10CB340013172B01635507002312F900D5BB2322D9
:10CB4400F900FDB39D476399F90281451305B004CB
:10CB54004531BD442320090023220900FD599D3994
:10CB640093F77400CA9703C70700FD14398D238017
:10CB7400A700E39634FF6DBBA1476392F9046D39B6
:10CB84008144630D0B008D479304C0036308FB00CD
:10CB94009304000563048B01930440041375C507D3
:10CBA400E30895D8194539313939054521312685A8
:10CBB4000D3909453D314931E31C05D669BB91471F
:10CBC4006399F90013056006F536F53E13059009DF
:10CBD4000DB7E38F09D4F154A9BB19CD91CD09CE7A
:10CBE40081473387F500834607003307F50085073F
:10CBF4002300D700E317F6FE828019C991C909CA38
:10CC0400910583A7C5FF11057D16232EF5FEC5BF2B
:10CC1400828001C919C62A960505A30FB5FEE31D36
:10CC2400A6FE828081473307F5000307070019E356
:10CC34003E8582808507C5BF01112E8626CAAA8437
:10CC4400131506019305F004418122CC06CE32C6A9
:10CC5400EF1080632A8401C53246A685BD3F228534
:10CC6400F2406244D24405618280854715C18DC17A
:10CC740005C28147B306F5003387F50083C6060075
:10CC8400034707006398E6008507E315F6FE85472A
:10CC94003E8582808147EDBF9307F6FFBE952A96B5
:10CCA4006313C5008280FD1583C715000505A30F16
:10CCB400F5FEFDB7AA87014581CF09CE3E968507CB
:10CCC40003C7F7FF6317B700E39BC7FE05458280E0
:10CCD400828001458280797197670000938787AFCE
:10CCE40022D4804306D626D24AD04ECE52CC56CA3F
:10CCF4005AC85EC662C45DCC37C9C901814B176A84
:10CD04000000130AAAB1976400009384E4AC1309E9
:10CD1400F937976A0000938AAAA6B709C0A8370B07
:10CD240040578357240095E35C44639D0B001767C9
:10CD340000002321F7AA032CC4002285EF10E06130
:10CD4400628499A823A6FB00FDB783270A00829773
:10CD5400838664011C4463DB06063307F54063677E
:10CD6400E9089767000023A507A28355240003451B
:10CD74000400979002E0E780C08B5C405844A9CF40
:10CD84001444B6978386640163C5060063E33701E0
:10CD9400DA971CC4A28B3A8449F4976700009387FE
:10CDA400279E9C4B09476378F706F917176700001D
:10CDB4002320F79EB250225492540259F249624AF7
:10CDC400D24A424BB24B224C45618280E377F5F85C
:10CDD4003387F9402A9761B763970B009767000080
:10CDE40023AAE79E89BF23A6EB00B1B7D85009CF89
:10CDF40063DF06003385A74083A70A016376F50045
:10CE04009767000023A6A798A28B404471B7E3F369
:10CE1400A7FECE97C5B79767000023AB079659BF07
:10CE2400411122C417640000130484981C4006C6F0
:10CE340026C24AC091C782979767000023AA079623
:10CE44005C4091C382971C406391071C9767000064
:10CE540083C797B4858B9DC797670000A38E07B2DD
:10CE640017670000034777B3954763FDE700EF00BA
:10CE740050419767000083C757B2F5178A07A297F6
:10CE84009C438297176900001309C9B48347C900FA
:10CE9400918B99C3EF10A0321C4491C3829797647D
:10CEA40000009384E4929840176600000346568D70
:10CEB4009767000083C7C78C93961700BA9683D6EA
:10CEC4000600D5CA9767000083C7878B63EFC70A3C
:10CED400976700002386078A1C40639807129767A8
:10CEE400000083C7B7AB91CF9767000083C7F7AA49
:10CEF40089EB97670000A38307AA972004E0E780E3
:10CF0400606397670000938767919C43638F070E64
:10CF1400B707C0A817670000232CF7866D3B9767F7
:10CF240000009387678BDC53EDC31767000013077A
:10CF34002785184B9767000083C7578B6367F70CE7
:10CF440017670000034777A5954763E0E70C83471D
:10CF5400C900918BDDEB90409766000083C6568232
:10CF640063CBD70A2244B240924402494101178359
:10CF740002E067002349850793F7F70F97660000DF
:10CF84002380F680E3E6C7F235BF86073E978355D4
:10CF9400070023100700976700002399078297670B
:10CFA40000009387A7809C43175500000345457DE7
:10CFB40013172500BA979C4382979767000083D77D
:10CFC400E780175700000347A77B93C7F7FF7D8DC2
:10CFD4009317170098403E97835707005D8D2310E1
:10CFE400A7009757000083C7A77991C785071757EC
:10CFF40000002307F778175700000347677897570F
:10D00400000083C7F777E375F7ECB24022449244FB
:10D014000249410182801397170032970357070092
:10D024006DF7850735BFAD6737C70040BD072326B9
:10D03400F7200F1000009757000093876774C84FBC
:10D0440083278726BD66BD0693C7F7FF99836A05C4
:10D054002326D7205D8D82804111B7170040985F49
:10D064003AC6945F3247E39CE6FE32454101828032
:10D0740082800327851163000712411122C406C66A
:10D084008347C5008345C5042A8493F7C70F230645
:10D09400F500834697000356C70013958601618502
:10D0A40063F1C508635A05060345870093F6F6073E
:10D0B400A304D700054693E627006314C50093E64E
:10D0C40017002306D4005C4389075CC3A30AB40099
:10D0D400032504112E864C43090501368327841148
:10D0E40003465401D44303D7C700B296118FD4C367
:10D0F4002396E7008947A30DF40003474403975799
:10D10400000083C7876E6378F7048347C40093E7FE
:10D1140007012306F40081A093E717002306F40017
:10D1240075B79376F60F635D050203458700854561
:10D1340013E627006314B50013E617002306C400A2
:10D14400A30AD400A30407008547A30DF400832792
:10D1540084119C43DDF3B2402244014541018280A5
:10D1640093E717002306F400A30AD400A3040700DE
:10D17400032504114C4309058D3483278411034688
:10D184005401D44303D7C700B296118FD4C3239656
:10D19400E7008D475DBF0545828097570000938760
:10D1A400E77D9C43411122C406C6858B2A84C5EFC2
:10D1B4004165130525F5979003E0E780A05E45C51A
:10D1C4008347A5002315F50083270412BDE7232018
:10D1D400A4122322A41285472310F404232005005B
:10D1E4008347640154412316F5000347D400230404
:10D1F400E5000547A304E5001757000013078779E6
:10D20400184F1385170215811C437D151375F50FEF
:10D214009CC25C43DCC21C479CC65C47DCC61C4BFE
:10D224009CCA5C4BDCCA1C4F9CCE5C4FDCCE19CD37
:10D234009386060213070702C1BF8327441288C3DB
:10D24400835704042322A412850779B79767000043
:10D2540083D7C7818507176700002319F780B24079
:10D264002244410182808347C40023090400054508
:10D2740093C747002306F400DDB78347850193F77E
:10D28400E70FD5EF83479501DDEB03462501834680
:10D29400C50009CA83454503175700000347F754DF
:10D2A40063E7E50013F7060141CF014709C6C18AC8
:10D2B4000357651C81C68356A51C369751C31307B3
:10D2C400C712175500000355254EB335A70237463C
:10D2D4000F00411113060624814622C426C206C645
:10D2E4007D543305A70297F004E0E780C085975783
:10D2F400000083C7F74FB384A700975700009387B4
:10D30400677603A707098327070963F387003E8429
:10D31400184375FB97570000938747509C438297A7
:10D3240081476364A400B307A440B2402244B3B766
:10D33400970093C7170092443E854101828081473C
:10D344003E858280797126D206D622D44AD04ECE2A
:10D3540052CC56CA5AC85EC6834735030344751374
:10D36400AA843E941374F40F9307400263F6870073
:10D374001304B4FD1374F40F03AA841383AAC4130F
:10D38400A38B841222865285D68597E004E0E78039
:10D394000076058915E503CBD41201498149337B15
:10D3A4006403930B50024A865285D68597E004E0C5
:10D3B400E780E073058915C5639169031374F90F58
:10D3C400238B8412B250225492540259F249624A75
:10D3D400D24A424BB24B456182808509E20993D916
:10D3E40089410509E31179FDE1BF832785090356C6
:10D3F400E503797193D60701BD8EC206C182358ECD
:10D404001357764093575640898B058B5D8F9357FE
:10D414003640918B5D8F93571640A18B5D8F931788
:10D424001600C18B5D8F9317360093F707025D8F4B
:10D43400931756009355860093F707041E065D8FD5
:10D444001376F60F518F93D7554013D63540118A72
:10D45400898BD18F13D67540D18F13D61540218A6D
:10D46400D18F13961500418AD18F13963500137608
:10D474000602D18F13965500137606049E05D18FAC
:10D4840093F5F50FCD8FA20745465D8F3307C7028D
:10D4940022D42A8426D252CC56CA032A8413832A3D
:10D4A400C4135AC806D63697420741839357774028
:10D4B400135557400989858BC98F135537401189F6
:10D4C400C98F135517402189C98F13151700418936
:10D4D400C98F1315370013750502C98F131557002B
:10D4E40093558700137505041E07C98F1377F70F2B
:10D4F400D98F13D5354013D755401189098B498FDE
:10D5040013D57540498F13D515402189498F13953B
:10D5140015004189498F1395350013750502498F0C
:10D5240013955500137505049E05498F93F5F50F62
:10D534004D8F2207D98FB387C7024AD04ECE5EC61D
:10D5440062C4B697C207C18313D7774013D5574037
:10D554000989058B498F13D537401189498F13D514
:10D5640017402189498F139517004189498F1395D5
:10D57400370013750502498F1395570093D587001B
:10D58400137505049E07498F93F7F70FD98F13D5A9
:10D59400354013D755401189098B498F13D57540F0
:10D5A400498F13D515402189498F13951500418959
:10D5B400498F1395350013750502498F139555004E
:10D5C400137505049E05498F93F5F50F4D8F2207BA
:10D5D400D98FB387C702130650025285D685B697F2
:10D5E400BD8E93940601C18033F6C402137BF60FFB
:10D5F40097E004E0E780A04F05890DED8347D4123E
:10D6040001498149B3849702130C5002C1804A86B0
:10D614005285D68597E004E0E780604D0589937BC9
:10D62400F90F11C563863403850993F9F90F0509C8
:10D63400E31F89FD230B6413B25022549254025900
:10D64400F249624AD24A424BB24B224C4561828033
:10D654005E8BCDB7011122CC604126CA4AC84EC6A2
:10D6640052C406CEAA841D4A130965058549BC44E3
:10D674006364F400054581A803C7D40083474400CC
:10D68400631B470503C784026304F7000040C5B762
:10D694000347540083C75405E31AF7FE1946CA85A5
:10D6A40013056400EFF06FDCE31235FF0347C40099
:10D6B40083C79402E31CF7FC0357E40083D7A40256
:10D6C400E316F7FC0145F2406244D2444249B249B0
:10D6D400224A05618280E31BF7FA0347540083C79B
:10D6E4005405E315F7FA1946CA8513056400EFF0EB
:10D6F400CFD7E31D35F9F9B7011197570000938788
:10D70400673622CC03A4470B26CA06CE2AC42EC6EB
:10D71400854419E40145F2406244D24405618280A3
:10D724008347910003471400858B6304F70000448A
:10D73400CDB719469305A10013052400EFF0EFD2ED
:10D74400E31795FE0545C1BF011122CC1754000013
:10D754001304042618402AC62EC432C206CE3C4BFB
:10D7640093F7F7F73CCB972004E0E78060D91840A3
:10D7740097560000938606213C4B93E707083CCB61
:10D784009C423245A24523A00700034715000348E5
:10D7940025002207420842970348050042970348A0
:10D7A40035006208429798D703475500034865003F
:10D7B40022074208429703484500429703487500F0
:10D7C40062084297D8D7034795000348A50022076B
:10D7D400420842970348850042970348B50062080F
:10D7E400429798DB0347D5000348E5002207420827
:10D7F40042970348C5000345F500429762052A97FE
:10D80400D8DB03C7150003C52500220742052A9764
:10D8140003C505002A9703C5350062052A9798CFEA
:10D8240003C7550003C56500220742052A9703C5AF
:10D8340045002A9703C5750062052A97D8CF03C708
:10D84400950003C5A500220742052A9703C5850054
:10D854002A9703C5B50062052A9798D303C7D50054
:10D8640003C5E500220742052A9703C5C50083C501
:10D87400F5002A97E2052E97D8D3D843759BD8C3D1
:10D88400D84313671700D8C398431367170098C386
:10D89400124698425C43858BD1E71C4F0145230017
:10D8A400F6009C429C4FA183A300F6009C429C4F2F
:10D8B400C1832301F6009C429C4FE183A301F6003F
:10D8C4009C42D84F2302E600D84F2183A302E600EE
:10D8D400D84F41832303E600D84F6183A303E600B6
:10D8E40098532304E60098532183A304E600985335
:10D8F40041832305E60098536183A305E600D853CA
:10D904002306E600D8532183A306E600D8534183B7
:10D914002307E600DC53E183A307F600F2406244E8
:10D92400056182800100B5B7175700001307C705CA
:10D934001443411122C49C5E4AC006C6998326C280
:10D94400858B3A84175900001309C903D1CB9C5E17
:10D95400975400009384040493F7F7F99CDE175757
:10D9640000000347870393070008631BF70083271E
:10D9740009009C4393F7070417570000230FF7008F
:10D9840083C7040093F707049DC397570000938748
:10D99400E7E89C4382979757000023A5A70083C715
:10D9A400040093F7F70B175700002305F7FE83C70E
:10D9B400440093F707048DE7854717570000A30D2C
:10D9C400F7FC975700009387A7FE9C43096798C705
:10D9D400130700FC975600002380E6FCD844F8D3D4
:10D9E4001C40985F1183058B09CB985F3D9B98DFA2
:10D9F4000547975600002381E6FA985F1D83058B3F
:10DA040011CB985F1377F7F798DF85471757000016
:10DA14002304F7F883270900D8430583058B19C726
:10DA2400D843759BD8C3D843799BD8C3B24022440A
:10DA34009244024941018280397106DE16DC1ADA09
:10DA44001ED82AD62ED432D236D03ACE3ECC42CAB2
:10DA540046C872C676C47AC27EC0F935F250E25224
:10DA64005253C2533255A255125682567247E24758
:10DA74005248C248324EA24E124F824F2161730067
:10DA84002030975700009387A7F2944397570000DC
:10DA9400938747F003C70700058B11CB9757000006
:10DAA400238C07EE97570000A38807EE828003C7F4
:10DAB4001700058B65F7F85271FF83C75700DDB770
:10DAC40017580000130848EC032708001C5F9583CF
:10DAD400858BD1E709C61C5BBD832300F60085CA8C
:10DAE40083270800985B460793576701635607002E
:10DAF40093E707C0C207C18303970600C207C18723
:10DB040009C7BA970947B3C7E7022390F60085CD42
:10DB1400834715008DCB9756000083C606E893F61D
:10DB240006041387970089478DCA3A950347050071
:10DB3400854699471376F7066311D6026207618713
:10DB4400B947634C0700832708009C5FED838D8BE6
:10DB540017570000A305F7E481473E858280854777
:10DB6400EDBF411122C406C617540000130444E457
:10DB7400184049E9AE877453FDFE3E85B285975738
:10DB84000000238A07E0971004E0E780606D975750
:10DB94000000938767DF9C43B70680009843558F46
:10DBA40098C3D857719BD8D797570000A38607DE30
:10DBB40097570000A38007DE1C40094798C3B7F7B6
:10DBC40000E003A707D16D9B23A8E7D003A707D1E3
:10DBD4005D9B23A8E7D07300501014401757000032
:10DBE400130747DB83472700858B89EB834737007F
:10DBF400858BD9C797570000238007DAB2402244A7
:10DC0400410182808D476310F50297570000938786
:10DC1400A7D79C43B70680009843558F98C3D8571D
:10DC2400719BD8D75DBF8547E319F5FAB567BD0782
:10DC34005CC70F1000001C400967094698C713070A
:10DC440000F8975600002389E6D4175700001307FD
:10DC5400A7D31443984231830D8B6319C70013076C
:10DC6400E043F8D33D673D07D8C785BF9842318369
:10DC74000D8B01E713076019EDB71307E01BD5B748
:10DC8400FC52ADF3A5BF5D7152DC175A0000130AB4
:10DC9400AACF03270A0086C6A2C4A6C2CAC04EDE03
:10DCA4001C4397590000938969D51759000013093B
:10DCB40029D093F7F7E793E707081CC383A6090065
:10DCC4003707CEFF7D179C46130680022A84F98FFE
:10DCD4009CC683270900130700082800B8CBAE842C
:10DCE40093051008EFE0FFF2972004E0E7804081FD
:10DCF400972004E0E780408E83270A009376F41F80
:10DD0400370FFCFF23A40700984B4E88CA8813677B
:10DD1400F70398CBF84F130510F8D285137707E073
:10DD2400558FF8CF9843F576FD16758F98C39843B1
:10DD3400B7063300B70204001377F7E798C3984394
:10DD44009303401F7D1F1377F7E71367071098C3EA
:10DD540003A70900930F800285491C47D58F1CC770
:10DD6400832709001307900D3400B8CB11490147EC
:10DD74001353370026938347030013767700B3D7F2
:10DD8400C740858BDDCF9C41832E0800239C07046C
:10DD94002390070603AECE02137EDEFF23A6CE0336
:10DDA40083AE0700137EF70793FE0EF833EECE0121
:10DDB40023A0C70103AE4702336E5E0023A2C7034C
:10DDC40083AE0800014E23A27E0603DA070663072A
:10DDD4004E0303AE0703038A0600135EFE00620EC1
:10DDE400135E8E416358CA0103AE0703135EFE003F
:10DDF4002380C60103DE0706137EFE0F03AA4E0628
:10DE040063060A0003DA8705E37F49FB03AE470292
:10DE1400337EEE0123A2C70383870600635CF4000C
:10DE2400034E03003396C9001346F6FF3376C6014A
:10DE34002300C3003E8663D3A7002A8613158601F8
:10DE4400618505071377F70F8506E313F7F3B640EB
:10DE5400264496440649F259625A61618280975673
:10DE640000009386E6B49C42D84713161701635505
:10DE74000602984713161701635006027D57B8D758
:10DE8400175700001307C78F584F05071756000090
:10DE94002326E690116798C798470D83058B1DC309
:10DEA40017570000034727AF1367170017560000E2
:10DEB4002303E6AE130700F817560000230EE6AC62
:10DEC400214798C79847058B09CF17570000034788
:10DED40077AC1367170017560000A30DE6AA054791
:10DEE40098C798470983058B09E798470583058BED
:10DEF40031CF9847175600001306C6A917550000DE
:10DF0400130585A80983058B63030710184118437B
:10DF140031830D8B75EBAC4B184E93F5050203471B
:10DF24001700CDCD79EF13077006D8CF034706004D
:10DF34001367170017560000230EE6A4114798C76D
:10DF440018415C57F19B93E717005CD79C429847B4
:10DF54009316370163D606029756000083C6C6B7E8
:10DF6400C18A175700001307E7AFC5CE0347470719
:10DF740013670702975600002380E6B6056798C723
:10DF840098479316270163D10602175700000347E9
:10DF9400A7A06207618763570700054797560000EB
:10DFA400238CE69E096798C798479316070163D6A2
:10DFB40006029756000083C636B2858A17570000BA
:10DFC400130747AAADCE0347570713672700975691
:10DFD4000000A383E6B0216798C7828029D78545CE
:10DFE4006315B7001307B00689B789456315B700F1
:10DFF4001307F0061DBF8D456315B70013073007DF
:10E004002DB71307500715B71307600739BF034728
:10E0140036001367170017560000A30EE69609474B
:10E0240039BF834647070946BD8A6388C60003474C
:10E0340047078D463D8BE313D7F4114725BF83462D
:10E044005707918AC9DA034757071367870041B70F
:10E05400397106DE16DC1ADA1ED82AD62ED432D24C
:10E0640036D03ACE3ECC42CA46C872C676C47AC2CC
:10E074007EC0F533F250E2525253C2533255A25588
:10E08400125682567247E2475248C248324EA24E56
:10E09400124F824F2161730020301757000013077D
:10E0A40067918346B7019757000083C777934C4B1A
:10E0B400B697FD8B33D7F50097560000A38CF68EE8
:10E0C40097560000A38EF690058B15EF17570000A6
:10E0D40003475791B3F7E70281460147130500024E
:10E0E40033D6E500058A1378F70F19CA6397D7006A
:10E0F40097570000A380078D8280850693F6F60F5C
:10E104000507E31FA7FC82809747000093870771E8
:10E114009C43011122CC4EC606CE26CA4AC852C41C
:10E1240056C28297975700009387C78A80478149D0
:10E134006305A406BE84974700009387E7690387B5
:10E1440067013E8963550706018D1354550097579F
:10E15400000083C7C7879379F501636DF402370A1A
:10E16400C0A8B70A4057153F9C449756000083C681
:10E174000686139756003E9783076901158C63C57D
:10E1840007006363470156979757000023A8E78465
:10E19400E37BD4FC1604B3693401F24062444E8537
:10E1A400D2444249B249224A924A05618280E37DBF
:10E1B40085F8B707C0A833848740229579B7974775
:10E1C40000009387A7659C43411122C406C626C25A
:10E1D4008297974700009387E77F80476309A406E7
:10E1E400BE84974700009387275F8387670163D8BE
:10E1F4000704018D135455009747000083C7277DFA
:10E204006367F404593D98449747000083C7277C0B
:10E214009396570036971D8C9746000023A0E67C02
:10E22400E372F4FE2244B2409244174500000345D1
:10E23400757881454101172304E067000381E37A7F
:10E2440085FAB707C0A833848740229565B7B240E2
:10E254002244924441018280974700009387077AC1
:10E264009843B75702009387079F8326070913969D
:10E274005600635806008326070913966600634414
:10E284000600FD17FDF3828071C5AA870145E9C523
:10E294008D07C207C183F19BC207C18313074003E3
:10E2A400636FF702174700001307477B08431747BC
:10E2B40000001307277A14436398A6021747000047
:10E2C40013078751185B014541CB4111C20706C6AC
:10E2D4000545DD8D0297B240014541018280174713
:10E2E400000013076777D9B70357650035E3035771
:10E2F4004500636FF704B306F7402146637CD602FA
:10E3040003280500938687001D8FAA966117174678
:10E314000000035646472392E60023A006012393F8
:10E32400060014C12312F500130786FF9746000068
:10E33400239BE6442313B5009745000083D5A544E9
:10E34400B387F54017470000231FF7422105828059
:10E3540008419DB70145828082800DC19747000026
:10E364009387C76F03A30700974700009387876EBF
:10E3740083A8070081469A8763E31701828003A874
:10E384000700636DF50A636BA80A13878700E367C8
:10E39400E5FE03D66700216705076317E60003C798
:10E3A400019D05072388E19C974500009385453D21
:10E3B40003D6470003D7650023930700329742072B
:10E3C4004183174500002310E53C638A6702174523
:10E3D40000001305656808416303F50203D5660070
:10E3E40019ED83D7460023A0060121073E96210696
:10E3F4002392C600974700002397E738B6879843CF
:10E40400E30E17F797460000938606659442E307E8
:10E41400D7F683566700BDF283D6470003564700FC
:10E424001843A106B2962392D70098C383D76500F8
:10E43400A107174700002318F7348280BE86C287DD
:10E4440025BF0111974700009387C76122CC03A41D
:10E45400C70B26CA4AC84EC606CEAA84130925008D
:10E46400854915C083C7140003473400858B6304B2
:10E47400F700405CFDB71946930544004A85EFE078
:10E48400CFFEE31835FF2285F2406244D24442496C
:10E49400B249056182804111974700009387875CE8
:10E4A40022C403A4C70B26C24AC006C6930425008F
:10E4B400054901E82285B2402244924402494101BF
:10E4C4008280A6851305A40297D004E0E780601734
:10E4D400E30225FF405CF1BF411197470000938799
:10E4E400675822C403A4C70B26C24AC006C69304B5
:10E4F4002500054901E82285B2402244924402499C
:10E5040041018280A6851305A40197D004E0E78029
:0CE514004013E30225FF405CF1BF000053
:10E520009751FF1F938181B717A1FF1F130181AD81
:10E5300017E5FFFF130545AD9725FF1F938585ACB4
:10E540001746FF1F1306C6FD63FAC50083220500A8
:10E5500023A0550011059105E3EAC5FE1715050036
:10E56000130505FA9745FF1F938585FB1386818662
:10E5700063FAC5008322050023A05500110591050B
:10E58000E3EAC5FE138581869785FF1F9385855F26
:10E590006377B500232005001105E36DB5FEFD424C
:10E5A000739002BC8D42739042809302800873A0E6
:10E5B00002309722FF1F9382E2A493E2320073900D
:10E5C00052309772010093822221739012347300AB
:10E5D00020303D432A876373C3029377F700BDEF72
:10E5E000ADE5937606FF3D8ABA960CC34CC30CC7C3
:10E5F0004CC74107E36BD7FE11E28280B306C340EC
:10E600008A069702000096966780A6002307B70047
:10E61000A306B7002306B700A305B7002305B7007C
:10E62000A304B7002304B700A303B7002303B70074
:10E63000A302B7002302B700A301B7002301B7006C
:10E64000A300B7002300B700828093F5F50F9396DF
:10E650008500D58D93960501D58D61B793962700DA
:10E660009702000096968682E78086FA9680C11708
:10E670001D8F3E96E374C3F8A5B73367B500FD530D
:10E680000D8B79E7B7877F7F9387F7F71041944128
:10E69000B372F6003363F600BE92B3E26200639792
:10E6A000720C6318D6065041D441B372F60033633E
:10E6B000F600BE92B3E262006398720A631BD6044E
:10E6C00010459445B372F6003363F600BE92B3E290
:10E6D00062006391720A631ED6025045D445B3723C
:10E6E000F6003363F600BE92B3E26200639A7208EA
:10E6F0006311D60210499449B372F6003363F600F1
:10E70000BE92B3E26200639372085105D105E30F34
:10E71000D6F61317060193970601631CF7001357EB
:10E72000060193D706013305F7409375F50F91E97C
:10E7300082804183C1833305F7409375F50F91E1E2
:10E7400082801377F70F93F7F70F3305F740828036
:10E750000346050083C60500050585056313D6003D
:10E7600065FA3305D640828011059105E312D6FE85
:10E77000014582802105A105E31CD6FC014582806C
:10E780003105B105E316D6FC014582804105C1057E
:10E79000E310D6FC01458280014711464148B3860B
:10E7A000E5008147B308F50083C808008507C10666
:10E7B00023A816FFE398C7FE11071105E31107FF11
:10E7C0008280935785019CC19357054193F7F70FBA
:10E7D000DCC19357854093F7F70F1375F50F9CC570
:10E7E000C8C582801C414111130705013EC05C4130
:10E7F0003EC21C453EC45C453EC6939725001408A6
:10E80000B69783A707FF85051105232EF5FE8D8991
:10E81000E315E5FE41018280397122DC41661384F3
:10E82000C1A406DE26DA4AD84ED652D456D25AD0E1
:10E830005ECE93050501A2863708FF007D1683078B
:10E840000500034735001105E207D98F0307D5FFFF
:10E850009106420733770701D98F0307E5FF2207A7
:10E86000718FD98F23AEF6FEE39BA5FC81499144BD
:10E87000930A0101179B0400130B0B24979B0400C0
:10E88000938B0B21130AC00293F734000329040071
:10E890004844BDE78A85353785450A85A1370A870B
:10E8A0001C43110793F6F70093F7070FDA97B69713
:10E8B00083C70700232EF7FEE394EAFE0245924742
:10E8C0006205C2075D8DB2475D8DA247A2075D8DCF
:10E8D00093972900DE979C4385093D8D334525019B
:10E8E00008C885041104E39144FBF2506254D254E9
:10E8F0004259B259225A925A025BF24B21618280EC
:10E900003345A90008C8F1BF797122D426D24AD074
:10E910004ECE52CC56CA06D62A8A93994500014457
:10E92000938AC1A413090101C144B3073401D697E6
:10E9300088438A85793533078A008A871443904350
:10E9400091074107B18E2328D7FEE39927FF1104D1
:10E95000E31D94FCB250225492540259F249624A87
:10E96000D24A45618280397122DC1304050106DE3A
:10E9700022878147C1460C433306F10011070CC2C0
:10E980004C4710083E960CC24C4F10103E960CC2DD
:10E990009107E392D7FE85450A85A9358945080880
:10E9A00091358D4508103D3D81474147B306F10043
:10E9B00094421104232ED4FE1408BE96944254C4EB
:10E9C0001410BE969442910754CCE391E7FEF250A6
:10E9D00062542161828006059377051089C71375FB
:10E9E000F50F1345B5018280411106C6ED37B240DF
:10E9F0004101D5B781471148C1483386F500B306B8
:10EA0000F500014703AE06003303E60005072300C7
:10EA1000C301C106E31807FF9107E39017FF828047
:10EA2000930605011796040013060619130505053C
:10EA3000138706FF1C43110793F5F70093F7070FA1
:10EA4000B297AE9783C70700232EF7FEE394E6FE46
:10EA5000C106E31FD5FC82801C414111FD563EC01A
:10EA60005C413EC21C453EC45C453EC68D47B385F5
:10EA7000B7409307C5001397250010083297032766
:10EA800007FFFD1598C36393D5008D451387C7FF16
:10EA90006314F50041018280BA87F1BF397122DC2D
:10EAA0001304050106DE22878147C1460C43330665
:10EAB000F10011070CC24C4710083E960CC24C4F97
:10EAC00010103E960CC29107E392D7FE85450A8549
:10EAD00061378945080849378D450810B53F81479A
:10EAE0004147B306F10094421104232ED4FE1408CA
:10EAF000BE96944254C41410BE969442910754CCCE
:10EB0000E391E7FEF2506254216182809306050191
:10EB100017960400130646FA13050505138706FF2A
:10EB20001C43110793F5F70093F7070FB297AE97C1
:10EB300083C70700232EF7FEE394E6FEC106E31F1A
:10EB4000D5FC8280411122C406C626C285472E8488
:10EB50006301F50289476318F5002244B2409244EC
:10EB60002E8541018DBD8D47631BF5002E85A53592
:10EB7000298C2285B2402244924441018280A547DB
:10EB80006315F5002E858D35DDB7AD47631AF500A9
:10EB90002E85993D8935AA842285353D258DC9BFAD
:10EBA000B5476316F5002E858135AA84FDB7B947B0
:10EBB000E311F5FC2E850D3DAA84313DA98C2285FB
:10EBC000193D3344950075B7597186D6A2D4A6D2A3
:10EBD000CAD0CECED2CCD6CADAC8DEC6E2C4E6C22D
:10EBE000930605040A87AA879043C1074107232893
:10EBF000C7FE03A647FF232AC7FE03A687FF232CD1
:10EC0000C7FE03A6C7FF232EC7FEE39FD7FC1799B5
:10EC100004001309690E130A050193090505832CE5
:10EC20000900032C4900832B8900032BC900930A98
:10EC30000AFF8A848C406685910A29378C482A8489
:10EC4000628509378C50298C5E85ED3D8C58298C66
:10EC50005A85CD3D218D23AEAAFE9104E31C5AFDB9
:10EC6000410A4109E39D49FBB65026549654065982
:10EC7000F649664AD64A464BB64B264C964C6561D9
:10EC800082806382051493F7F500639E0712157165
:10EC9000D6C3AA8A3285A2CDA6CB86CFCAC9CEC793
:10ECA000D2C5DAC15EDF62DD66DB6AD96ED7328437
:10ECB000AE84EF405441C147631EF5002285A93E52
:10ECC0000149130A0106979B0400938BEB02294C20
:10ECD00063419902FE406E44DE444E49BE492E4ACD
:10ECE0009E4A0E4BFA5B6A5CDA5C4A5DBA5D2D6146
:10ECF0008280338B2A010C105A85793C814508109B
:10ED000021318549081019350810B1391C10D286F7
:10ED10003E8710434107C10623A8C6FE032647FFCE
:10ED200023AAC6FE032687FF23ACC6FE0326C7FF21
:10ED300023AEC6FEE31FEAFC179704001307C7F7CC
:10ED400003280700832D4700032D8700832CC7006D
:10ED50005284138607010C4042853ECE3ACC32CA1B
:10ED600042C8CD330C482AC66E85E93BB2460C50EA
:10ED70001104A98E6A8536C6F133B2464C54A98E69
:10ED8000668536C6C133B246F2475246358D88C3D2
:10ED9000910742486247E310F6FC4107B287E391CE
:10EDA000EBFACE85081085098536E39D89F50810B4
:10EDB000B13B08104D3EA9450810B936DA85081058
:10EDC0001539410931B78280638D051093F7F5003D
:10EDD000639907105171CECFAA893285A2D5A6D3E7
:10EDE00086D7CAD1D2CDD6CBDAC9DEC73284AE84BB
:10EDF000EF40742DC1476319F5002285313C01496C
:10EE0000138BC1A4634D9900BE502E549E540E59CD
:10EE1000FE496E4ADE4A4E4BBE4B6D618280338A9C
:10EE200029018C0052858D3AA9458800F13C138454
:10EE3000C1ADC14A930B00048800DD368800B939A2
:10EE40008800593308408A85AD3A48400C08953A05
:10EE500008440C10BD3248440C18A53218018147F3
:10EE6000B306F100944241072328D7FE1408BE964A
:10EE70009442232AD7FE1410BE969442232CD7FE28
:10EE80001418BE9694429107232ED7FEE39A57FD9D
:10EE900008011D3B01479C003385E7001C01B305B9
:10EEA000F70081473306F5003388F5001442032844
:10EEB00008009107B3C6060114C2E39557FF410746
:10EEC000E31B77FD4114E31964F78800913E880045
:10EED000F136814588000D3CD2858800213E4109EC
:10EEE00015B782809307F00F6385F60A2D71232AE8
:10EEF000911023282111B28423263111130600100A
:10EF00002E89AA89930530020A85232E1110232CFD
:10EF100081103684EFF0EFEBA2852685EF00B11962
:10EF200013178500935785003365F7002310A10060
:10EF3000A685228613053100930434002301810045
:10EF400093F4F40FEF30742393F6F40089C64D0464
:10EF5000158C9374F40F1C02A697A6850A85179644
:10EF60000400130626DF238007F0213B26868A85CE
:10EF70004E85EF309420230099008320C111032493
:10EF8000811183244111032901118329C1101561C5
:10EF900082808280797122D432844AD04ECE2A89EE
:10EFA000AE892285B685179604001306A6DA26D206
:10EFB00052CC06D636C6093DB246130A34005285F5
:10EFC000A2962380060083440400834714008345EF
:10EFD0002400A204DD8CEF00110E639AA402034604
:10EFE0002400D2854A852380C900EF40B41125450D
:10EFF00097950400938545D4EF00B10F0545B250B5
:10F00000225492540259F249624A45618280238017
:10F01000090025452300090097950400938585D2B2
:10F02000EF00310D0145E1BF411106C6EFB0305D83
:10F03000B240AA8617970400130787D81756FF1FF8
:10F04000130606F597950400938505D911454101EE
:10F050006F00F11E130101D92322912623202127BD
:10F060002326112623248126232E3125232C4125D6
:10F07000232A5125232861252326712503470500CE
:10F08000930710042A89AE84E31AF7020347150098
:10F0900093074005E314F702034725009307E005B3
:10F0A000E31EF7002E86AA852545EF00F10E130614
:10F0B000D003A6854A85EF00D1262A84635A05002D
:10F0C0003546A6854A85EF00D1252A846344050884
:10F0D0009309D4FF9307100363CE37074E86930539
:10F0E00039002810EF4014029C04BE99179A0400BE
:10F0F000130ACA02238409DED28A8149594B832527
:10F100004A002810EF00B11B0DC18E09D69983D794
:10F1100009005547636FF700179704001307C7C42A
:10F120008A07BA979C43BA9782878509210AE39890
:10F1300069FD979504009385A5FDDDA89385F4FFEF
:10F14000818D13051400C20581460146C1814A958F
:10F15000EF40506D8320C12603248126832441265D
:10F16000032901268329C125032A8125832A4125D4
:10F17000032B0125832BC1241301012782801386D1
:10F18000F4FF018E9305140042064182CA95E808F7
:10F19000EF0071411305D105EF40E47293150501AD
:10F1A000C1811305D105EF00714E97950400938539
:10F1B000E5C31305D105EF00911019CD9795040013
:10F1C000938545C30545EF00C1721765FF1F0345D1
:10F1D0003593EF80F075BDBF979504009385C5C248
:10F1E0001305D105EF00B10D19CD97950400938556
:10F1F00025C20545EF00E16F1765FF1F03455590D8
:10F20000EF80D07581BF97950400938565C1130584
:10F21000D105EF00D10A0DC1371700408327C70A77
:10F22000A16697950400938525C0D58F2326F70AFC
:10F230002545EF00016C39BF97950400938585BF84
:10F240001305D105EF00B10711CD37170040832713
:10F25000870AA16697950400938545BED58F232420
:10F26000F70AF9B7979504009385C5BD1305D10535
:10F27000EF00F10405C1B716004083A7C60C05676F
:10F2800013070780D98F23A6F60C97950400938562
:10F2900025BC79BF97950400938585BC1305D105DE
:10F2A000EF00F10105C1B716004083A7860C056782
:10F2B00013070780D98F23A4F60C97950400938534
:10F2C000E5BABDB797950400938545BB1305D105F5
:10F2D000EF00E17E11CD371700408327870C97950B
:10F2E0000400938565BA93E707402324F70C89B798
:10F2F00097950400938505BA1305D105EF00217C8D
:10F3000011CD371700408327C70C979504009385CC
:10F3100025B993E707402326F70C19BF97950400FA
:10F320009385C5B81305D105EF00617911C9371769
:10F3300000408327870C8566D58F2324F70C19BDE1
:10F3400097950400938505B71305D105EF00217744
:10F3500011C9371700408327C70C8566D58F232630
:10F36000F70CCDBB97950400938545B51305D105E2
:10F37000EF00E17411C59757FF1F23A5077AD9BB8A
:10F3800097950400938545B41305D105EF002173CB
:10F3900001C5EF90607A7DBB97950400938585B396
:10F3A0001305D105EF00A17101C5EF9020435DB3B6
:10F3B000979504009385C5B21305D105EF00217020
:10F3C00001C5EF90603979B397950400938505B234
:10F3D0001305D105EF00A16E01C5EF1081399DBB6A
:10F3E00097950400938505B11305D105EF00216DB4
:10F3F00001C5EF102140B9BB97950400938505B076
:10F400001305D105EF00A16B01C5EFC0707499B36E
:10F4100097950400938505AF1305D105EF00216A88
:10F4200001C5EFC050733DB397950400938505AEB9
:10F430001305D105EF00A16801C5EFC0307219BBFB
:10F4400097950400938545AD1305D105EF0021671D
:10F4500001C5EFF01012FDB997950400938545ACF6
:10F460001305D105EF00A16501C5EF30517DDDB178
:10F4700097950400938545AB1305D105EF002164F2
:10F480002DC513059109EF30244C2A841305510D25
:10F49000AE84EF30644B2A8913051111AE89EF3029
:10F4A000A44A2A8A1305D114AE8AEF30E4492A8B84
:10F4B000AE8B2A88AE885287D6874A86CE8622852A
:10F4C000A685EF2030622AC42EC65AC05EC252887A
:10F4D000D6884A87CE872286A6869795040093858C
:10F4E000E5A42545EF00A155B5B197950400938596
:10F4F00025A61305D105EF00815C11C581450145A5
:10F50000EF40A10581B90346D105A547130606FDC5
:10F510001376F60FE3E0C7C49757FF1FA38AC75EB1
:10F5200097950400938545A3EF00615125B113869B
:10F53000F4FF018E130514004206418297A50400D2
:10F540009385C5114A95EF00216B1754FF1F1304D3
:10F55000645A31C597950400938545A1E808EF40AA
:10F560006435E808EF402436131605014182EC08A3
:10F5700013850178EFC06030979504009385C5A18D
:10F580001145EF00013783570400414593E7170009
:10F590001757FF1F2310F756EF00D17A65BE9795D6
:10F5A0000400938525A01145EF00A1347D55EF009F
:10F5B000717E83570400F99B1757FF1F231CF752D6
:10F5C00051BE9D3441BE1386F4FF018E1305140015
:10F5D0004206418297A50400938545084A95EF00AD
:10F5E000A1611754FF1F1304E45029C1835704007D
:10F5F000979504009385C59BE80893E71700175774
:10F60000FF1F2319F74EEF40E42AE808EF40A42B30
:10F6100013160501EC08418213850178EFC0E0253F
:10F62000979504009385859A114521B1979504001B
:10F630009385859AE808EF40E427E808EF40A4287E
:10F6400013160501EC08418213850178EFC0E02212
:10F6500083570400979504009385C599F99B175724
:10F66000FF1F2319F748C9B7EFB080299757FF1F2D
:10F6700093874748E843EF306404AE862A8697951F
:10F6800004009385E5971145EF00613BE1B4EF80FD
:10F690007042C9B4B717004083A7470C17A60400EF
:10F6A0001306C6FB139797006356070017A60400BE
:10F6B000130646FB97950400938545951145ADB516
:10F6C000EFB0A077979504009385059531FD979548
:10F6D00004009385659589BF3545EFC0903CAA84A9
:10F6E000EF20D47D2A86AE86254597950400938524
:10F6F000E594EF00C134978704009387E76E884351
:10F70000A6851754FF1F1304E49FEF2024452324EC
:10F71000A426EFB0C07803258426EF20347AAE8685
:10F720002A869795040093852592B1BF814515459A
:10F73000EF90202FEFB0E06B2A8697950400938519
:10F740006593ADBF81451145EF90A02D814513050F
:10F750009002EF90002D81450D45EF90802CEFB089
:10F76000A0692ACEEFB0006AF2462A871756FF1F1B
:10F7700013060682979504009385C5901145EF0006
:10F78000012CC9BA1757FF1F0357A7BD9756FF1F74
:10F79000938666A11746FF1F1306867F9795040080
:10F7A00093858590E1BF85471757FF1F2308F7BC56
:10F7B000EFB0E06E9795040093854590B5B5175767
:10F7C000FF1F0347A7BB8547979504009385858F47
:10F7D000E31CF7E4C5B785471757FF1FA30BF7BE18
:10F7E000EFB0E06B979504009385858E35BD9757F4
:10F7F000FF1F83C717BE979504009385E58DE385AA
:10F8000007E2CDB79757FF1F9387C72EA843EF2076
:10F81000F46AAE862A86979504009385A58CA5B5D3
:10F82000F12E05044A94314681451755FF1F1305F3
:10F8300005B19710FF1FE780003E8144930AA400A2
:10F84000695AB30994400946CE85E8089710FF1F0E
:10F85000E780E03833899A000946CA854E859710BB
:10F86000FF1FE780C0370946EC084A85F914971056
:10F87000FF1FE780C036E39644FD1946A285175561
:10F88000FF1F1305C5ABEF00014581451755FF1F4D
:10F890001305E5AAD9222286979504009385C5858C
:10F8A0001145EF00C11901469705000093854535C4
:10F8B00013056009EF8020646FF0DF890146A6859B
:10F8C0004A85EF8010796FF0FF887971B147230086
:10F8D000F1009307170022D4A300F10006D62301FC
:10F8E000C1002A848D4715C7814713863700081049
:10F8F0001376F60F2A963385F60003450500850733
:10F900002300A6FE13F6F70FE311E6FE0D0793772B
:10F91000F70F81460147850613F6F60F6368F60474
:10F920001410BE962380E6FE138717001410137779
:10F93000F70F3697B5462300D7FE9386270093F638
:10F94000F60F0A862285EF30B139DD47631CF500DA
:10F9500015459795040093856514EFF090792285FD
:10F96000EF301136B2502254456182803306D10007
:10F970000346060032971377F70F71BF85472A8633
:10F98000AE8663E3A702930740043307F50293872B
:10F99000C1AF1545BA9798474D8F98C79795040002
:10F9A000938585106F00A1098280411122C406C68B
:10F9B00083C731B02A8481C7AA850145C13783C76F
:10F9C00071B499C7A2852244B240054541017DB773
:10F9D000B24022444101828085472A86AE8663E593
:10F9E000A702930740043307F5029387C1AF93C57D
:10F9F000F5FF1545BA9798476D8F98C797950400FE
:10FA0000938505956F00A1038280411122C426C20F
:10FA100006C683C731B02A849384C1AF91CB984482
:10FA20009347F5FFAA85F98F014523A2F1B06D3701
:10FA300083C771B491CFFC441347F4FFA2852244DD
:10FA4000B2409244F98F23A4F1B40545410169B74E
:10FA5000B240224492444101828001114EC606CE3A
:10FA600022CC26CA4AC852C483C931B0638A090865
:10FA700083C771B47D54A5EF8549054A130440043A
:10FA8000B3078A021384C1AF2E89AA8413064004E7
:10FA900081453E9422859710FF1FE780C017854758
:10FAA000A303F40022851946A6859710FF1FE7805F
:10FAB00000139757FF1F9387E703DC5B23032401A1
:10FAC000CA855CCC2685EF3011309747FF1F93879E
:10FAD0006763D29703C7D72F930760062A8463080A
:10FAE000F700B74557009385F5814E85413D228546
:10FAF000F2406244D2444249B249224A05618280BE
:10FB0000014AADBF011122CC13044004B3078502A2
:10FB10001384C1AF26CA06CE4AC84EC6AA843E94F4
:10FB20008347740095C32A8697950400938585853D
:10FB30001545EFF0D0707D542285F2406244D244E6
:10FB40004249B249056182802E89B28997950400A5
:10FB5000938585852A861545EFF0706E22851306FC
:10FB6000400481459710FF1FE780E00A8547A30303
:10FB7000F40022851946CA859710FF1FE7802006EA
:10FB80009757FF1F938707F7DC5B230334014E86EB
:10FB90005CCCCA852685EF30912F9747FF1F93874E
:10FBA0006756A69703C7D72F930760062A84E305F5
:10FBB000F7F8B7455F009385F5802685C133ADBF63
:10FBC000011119468145280006CE9710FF1FE780D6
:10FBD00080041306800881451385C1AF9710FF1F6D
:10FBE000E78060031757FF1F034757838547631458
:10FBF000F700EF108132F24005618280411106C6A4
:10FC0000EF30B13481451385C1AF130680089710DA
:10FC1000FF1FE7804000B24097850400938505757B
:10FC2000154541016FF0B061854763E2A702930774
:10FC30004004B307F5021387C1AF0145B306F700CF
:10FC400083C6760091C6B1073305F700828001456F
:10FC50008280797122D426D24AD006D64ECE52CC9A
:10FC600056CA5AC801449744FF1F9384A4491309F4
:10FC70006006EF30B172636CA400EFF0E07729C149
:10FC800085450145EF3091768545054519A8B3872F
:10FC9000840083C7D72F63912703EF3051788545C0
:10FCA00022852254B25092540259F249624AD24AF1
:10FCB000424B45616F30917305041374F40F55BFC7
:10FCC000EFF080732A8415E19759FF1F938989E229
:10FCD000314A978A0400938AEA5F178B0400130B5A
:10FCE000EB5DEF30B16B636CA400B25022549254C0
:10FCF0000259F249624AD24A424B456182802285CA
:10FD000025372A892285EF30B167AA84630E090658
:10FD100025CD1747FF1F03472762B305470303A6F7
:10FD2000490383260901B307D640B3F7B70291EF21
:10FD3000630DD60019CBDA8515452286EFF03050D9
:10FD4000930530022285EF30716F83D78401A9E3D8
:10FD50009757FF1F83C7D7DEB1E381452285EF3078
:10FD6000F16883D68401228536C6EF30716F03A710
:10FD7000490383270901B2462286B307F740D68597
:10FD80002A871545EFF0B04B05041374F40F91BFAB
:10FD9000FD17C207C183239CF400DDDB85457DBFD1
:10FDA000797122D41384C1AF3C4006D6858BD5E34C
:10FDB00083274408858BD1EF83C731B0A1C79757FC
:10FDC000FF1F938727D3584CDC5B998F1307B01222
:10FDD000637AF70283470404056593E71700238ECF
:10FDE000F1B2EF00913019466C002285EFF0306AD5
:10FDF000700097850400938565501545230C01001C
:10FE0000EFF0F04383C771B4A9C79757FF1F9387DB
:10FE100067CE3850DC5B998F1307B012637BF70213
:10FE200083474408056593E717002380F1B8EF0086
:10FE3000D12B19466C00138501B4EFF050657000AA
:10FE4000978504009385854B1545230C0100EFF041
:10FE5000103FB250225445618280397106DE22DCA7
:10FE600026DA4AD84ED652D456D2EF3031530DCD81
:10FE70001747FF1F0347D758930760066306F7022B
:10FE80001747FF1F0347E7576300F70283C79186B1
:10FE900075476364F7028507A384F1869747FF1FC0
:10FEA00083C7874995EBED3DF2506254D2544259D5
:10FEB000B259225A925A2161828097850400938513
:10FEC00025451545A3840186EFF0703737051000EE
:10FED0000D05EFF09FADD9B71384C1AF138941B8B9
:10FEE00085449759FF1F9389E9C0130AC003978A75
:10FEF0000400938AAA4483477400B9C38347040269
:10FF0000638097045C4C03A749031D8F9747FF1F2D
:10FF100083C78742B38747036364F7021305002052
:10FF200023009402EF00711C19466C002285EFF04B
:10FF300010567000D6851545230C0100EFF03030C7
:10FF400013044404E31924FBB9BF5D71CAC086C61B
:10FF5000A2C4A6C24EDE52DC56DA5AD85ED6174785
:10FF6000FF1F0347C74989471749FF1F130989190D
:10FF700063F8E7001747FF1F2303F748EFA030722D
:10FF800083C781861747FF1F03476747B3F7E70219
:10FF9000416A856A138B81869389C1AF930B4004B4
:10FFA0007D1A938A0A802384F18603C58186974748
:10FFB000FF1F83C7C7446371F508330575034E956A
:10FFC000044599CC8347750081CFEF3051342A84A2
:10FFD00011ED979504009385A5851545EFF07011F7
:10FFE00083470B0085072384F186C1B7834705004B
:10FFF000A18BFDD78356C500E38446FF03C68186E7
:020000021000EC
:1000000097950400938505841545EFF05023939749
:10001000740063D90704979504009385E58425450A
:10002000EFF0300D014774001306300283552401B0
:100030000355C400EFF07F8983C781861747FF1FF0
:100040000347E73B6305F70085072384F186B64045
:10005000264496440649F259625AD25A425BB25B30
:10006000616182809397C40063D70706930671008D
:1000700013066100930791003800930551001305A2
:10008000A100EFB0B07B8357A1001307400697850E
:1000900004009385657FB3F7E70215452306F10059
:1000A00083475100A306F100834761002307F10055
:1000B00083477100A307F100834781002308F10003
:1000C00083479100A308F100EFF0B00219477400D4
:1000D0001306800AA1BF9397A40063DE07009785EB
:1000E00004009385A57B1545EFF0B000014774002F
:1000F0001306000225BF93F7041085CB97850400F3
:100100009385C57B1545EFF0C07E03C581869307B7
:1001100040043305F50250006C004E95EF10E019D5
:10012000034741007400094611B793F7042085CBBB
:10013000978504009385C5791545EFF0807B03C54D
:100140008186930740043305F50250006C004E95FC
:10015000EF10A0160347410074000D46C1BD93F790
:10016000140081CF97850400938505781545EFF03D
:10017000407801477400254655BD93F7240081CF90
:1001800097850400938505781545EFF08076014743
:100190007400194661BD9397B40063D80704EFF06B
:1001A000A025178604001306A6F109E517860400AA
:1001B0001306C66797850400938545761545EFF0CD
:1001C0001008EFF060232306A10083552401035596
:1001D000C400054774006146EFF02FEFB70510002B
:1001E00003C58186EFF04FFF81BD9397840063DFE5
:1001F000070003C6818697850400938525741945F9
:10020000EFF0F0030147740045460DB59397940055
:1002100063DD070097850400938585731545EFF02E
:10022000406D01477400494611B593F7044081CFF2
:1002300097850400938505731545EFF0806B0147A2
:1002400074000546E5B3B3F7540185C397850400F0
:10025000938585721545EFF0C0698347592305479B
:1002600074002306F1001146D1B39397340163D58E
:100270000702978504009385E5711545EFF06067E7
:100280008357492674001D4613978700A183D98F91
:100290002316F100094759BB9397240163D1070244
:1002A000978504009385C5701545EFF080648347FA
:1002B0004923054774002306F100354685BB939713
:1002C000140163DD0700978504009385A57015452B
:1002D000EFF0206205477400394689BB93F744006C
:1002E00081CF97850400938525701545EFF06060F8
:1002F0000147740015461DBB93F7840081CF978595
:1003000004009385E56F1545EFF0A05E014774008A
:10031000214629BB9397040163DD070097850400FC
:100320009385C56F1545EFF0C05C054774004146E5
:10033000F5B99397F40063DB070297850400938572
:10034000656F1545EFF0E05A9747FF1F83C707FF1A
:10035000035769232307F100834769312316E1001E
:100360007400A307F10011474D46C9B19397E4000B
:1003700063DD0700978504009385856D1545EFF0D3
:10038000405701477400514655B19397D40063DD3F
:100390000700978504009385656D1545EFF060555E
:1003A00001477400554659B1C188E38B04C2978553
:1003B00004009385656D2545EFF0A0530147740057
:1003C0001306700AA5B1197186DEA2DCA6DACAD8B6
:1003D000CED6D2D4D6D2DAD0DECEE2CCE6CAEAC8C5
:1003E000EEC602D602D802DA02DC02DE954763F9D5
:1003F000C71832C8AE89EF30017BAA8463020518A2
:1004000019469385C1AF9710FF1FE78040860544CA
:10041000630785181946938501B426859710FF1F39
:10042000E780E084631E851493074004B307F40259
:10043000138AC1AF814A978B0400938B2BF9330742
:10044000FA00938767023E9A9747FF1F938787CBEF
:10045000A2973AC6BA843ECA338D590183460D002D
:10046000B1476398F610C24713894A00635AF910DE
:10047000938C1A00CE9C03CC0C004247138B3A009D
:10048000B3078B0163D7E70ECE9783C60700B54746
:100490006391F60E814781463306FD000346160040
:1004A000850793F7F70FB29693F6F60FE376FCFE07
:1004B000B3078D0183C72700639DD70AB38D6901F8
:1004C00003C60D00978504009385C5F02545EFF020
:1004D00000579747FF1F9387E761DC5B83C60402E1
:1004E000DCCC85476395F60213050040EF00E13F41
:1004F000324519466C10EFF0807970109785040032
:10050000938505EE1545230C0102EFF04053BC40E6
:10051000858B8DC783C7040432451946F99B6C103F
:100520002380F404EFF0A076701097850400938583
:1005300065EC1545230C0102EFF0605023800402A6
:1005400083C70D00BD466382D74063E2F6121947A8
:10055000638FE7326366F70809476387E7226362C0
:10056000F7046388071E05476383E720629B937A3D
:10057000FB0FC24713871A00937AF70FE3EEFAECEA
:10058000F6506654D6544659B659265A965A065BC2
:10059000F64B664CD64C464DB64D096182800144FF
:1005A00061B51147638AE72C6375F72603454D0053
:1005B000EF10244D03A60B0083A64B00EF00E404CC
:1005C000EF20841AC8C8EF20640F2A86AE8615452E
:1005D00097850400938545F1EFF0604691454DA263
:1005E0002947638BE7326365F70421476388E72E69
:1005F000637DF72C83474D0003455D00A2075D8DA9
:10060000EF10244803A60B0083A64B00EFF0F37F06
:10061000EF208415C8C4EF20640A2A86AE861545EB
:1006200097850400938545F5EFF06041854589AADB
:100630003547638AE72E6361F7302D47E398E7F289
:10064000978504009385C5F61545EFF0802A9785B8
:1006500004009385A5F71545EFF0A0293705200084
:10066000EF00A12891652285EFF04FB101B7E14677
:100670006384D73863EAF606C9466389D73A63ECE0
:10068000F60241476386E72E4547E391E7EE9785FB
:1006900004009385A51222861945EFF0403AEFF049
:1006A000EFD5524793076006A30EF72EEFA0207FE9
:1006B000B7058000F1A0D146638ED72C63E3D72C19
:1006C0005547E395E7EA4E990346090097850400EC
:1006D0009385C5FF1545EFF0803683470900B705C0
:1006E0000400A382F40269A8130720026382E73C96
:1006F000636AF702130700026388E7306360F7322A
:100700006547E395E7E685471747FF1FA308F7C24C
:10071000EFA0E078EF0071001165EF00011DB70553
:10072000200091B71307700A638AE7361307800A1F
:10073000638AE72A13073002E39AE7E29785040009
:100740009385C50B22861545EFF0602FB705000194
:1007500005A883474D0003465D00978504009385F7
:1007600065CBA2075D8E1545EFF0602D01B597852D
:1007700004009385E5CB1545EFF0A01793050040E5
:100780002285EFF06FA5DDB303474D008547631465
:10079000F706154597850400938505CBEFF06015A6
:1007A000096519C037054000EF00211417850400C2
:1007B000130505CAEF20E0649747FF1F83C717C6DC
:1007C00091CF9747FF1FA38B07C4EFA0406D97857C
:1007D00004009385E5C82545EFF060269747FF1F85
:1007E00083C7173691C7FD171747FF1FA30AF734B2
:1007F0009305001071B7978504009385E5C71545EB
:10080000EFF0200F17850400130585C7EF20605F08
:10081000F1B703474D0085476314F70415459785E5
:1008200004009385E5C6EFF0C00C3705800001E4B5
:10083000056513050580EF00410B178504001305BE
:10084000A5C5EF20005C9747FF1F83C7772F91C78F
:10085000FD171747FF1FA305F72E930500200DB7BF
:10086000154597850400938565C4EFF080081785CA
:100870000400130525C4F1B797850400938585C44A
:100880001545EFF00007856593850580D5BD834745
:100890004D0003455D00A2075D8DEF10841E03A689
:1008A0000B0083A64B00EFF05356EF10F46B88C893
:1008B000EF10D4602A86AE8615459785040093858F
:1008C00025C5EFF0C017894565BD97850400938560
:1008D00025C61545EFF0E00185655DB583474D0000
:1008E00003455D00A2075D8DEF10A41903A60B0060
:1008F00083A64B00EFF07351EF10146788CCEF1014
:10090000F45B2A86AE86154597850400938545C419
:10091000EFF0E012A145ADB503464D009785040008
:10092000938585C789B5978504009385A5CB154523
:10093000EFE0307C8965A9B5978504009385C5CC27
:100940001545EFE0107B916525BD978504009385E3
:1009500065CD1545EFE0F07997850400938585CE48
:100960001545EFE010792165EFF03078A165E5B924
:1009700097850400938545CE1545EFE09077A165F6
:1009800001B597850400938525CF1545EFE0707676
:10099000C165FDB313876A00938D5A004E99CE9DB1
:1009A000B38CE90003C70C0083C60D0003460900A1
:1009B00097850400938585CE1545EFF04008834761
:1009C0000900B7050200A380F40283C70D0023814C
:1009D000F40283C70C00A381F40283477D002382C5
:1009E000F40279BB97850400938545D01545EFE067
:1009F0005070B705080069B3978504009385C5D08A
:100A00001545EFF0C0039DB697850400938585D109
:100A10001545EFE0106EB70520009DB397850400E3
:100A2000938505D21545EFE0D06C89B603C60C005E
:100A30008547B385290179161376F60F631AF604F4
:100A400083C6050088489305000013D64600BD8A7A
:100A500032CE36CCEF10A43BE246724697850400B6
:100A6000938545D009C597850400938565D0528547
:100A7000EF20F45DA387040297850400938505D0D9
:100A8000D28622861545EFE0907BB7054000CDB9B0
:100A900052859700FF1FE7808014F9BF97850400F7
:100AA000938545CF22861545EFE07079C145C9B9D8
:100AB00097850400938545D222861545EFE030786E
:100AC00037051000EFF07062B705000169BE4111F3
:100AD00022C421649305048099460146254506C633
:100AE0009700FF1FE78000D9930504802244B2409D
:100AF00099461386C186294541011703FF1F6700E8
:100B000063D799E10145828075DD011152C403DA92
:100B1000018726CA93548A008504A204C204C180B6
:100B200056C2B38A4441C20A22CC4AC82E862E84B9
:100B30002A89978504009385E506254593DA0A01FD
:100B40004EC606CE9389C186EFE0706F63ED8A08CA
:100B500083D5018793F7F50FB1CF8D6783D50187D3
:100B600093870780A2864A86BE9529459700FF1F76
:100B7000E78040D01375F50F29ED83D7490015663E
:100B8000A2972398F18603D7018783D7E18663096B
:100B9000F70063F3E700B297998F1396070141823C
:100BA00025459785040093856501EFE0506913752D
:100BB000F40F0DA08D679387078093060010014600
:100BC000BE9525459700FF1FE780C0CA1375F50F36
:100BD00049D50145F2406244D2444249B249224AD1
:100BE000924A05618280B3079440D297C207C183BD
:100BF000A18303C74900850793F7F70F93968700F2
:100C000011EB9386170093740AF0A206C204C20681
:100C1000C180C18283D7E18663F6F40033879600F2
:100C2000E3C9E7FA0D6A130A0A800146B385440155
:100C300025459700FF1FE780E0C31375F50F51F9B5
:100C400083D50187A2864A86D29505B7411122C471
:100C50001384C18622858145194606C69700FF1F69
:100C6000E78060FB9307B0FA2300F4008D3522443F
:100C7000B24097850400938565EB254541016FE0FF
:100C80005047A165411199461386C1869385058019
:100C90002D4506C69700FF1FE780C0BD03C7C1866C
:100CA0009307B00A6303F7005537B24083D6018734
:100CB00003D6E18697850400938505E82545410123
:100CC0006FE0F05783D741B80145638C071003D517
:100CD00061B86366F50023A201B8014582803385BF
:100CE000A740D1473355F5021375F50F01E523925F
:100CF00001B88280130101BD2324814223261142C1
:100D00002322914223202143232E3141232C414190
:100D1000232A514195471374F50F63F3A700154437
:100D2000228697850400938525EB2545EFE0305119
:100D300001498144938981B8514AA14A9377F90FB7
:100D400003D561B81737FF1F0347675263E987046C
:100D5000D1473304F4022A94239381B8A147631C3A
:100D6000F706A6850808EF60006D03D761B883D742
:100D700041B805456364F70023A201B88320C1424E
:100D80000324814283244142032901428329C14132
:100D9000032A8141832A4141130101438280B30721
:100DA00049031408AA97CE9733859600631E57010E
:100DB000BE85EF60D0072317A1008357E100050926
:100DC000BE94C204C1809DBFAA851306E1003E8582
:100DD000EFC06032DDB726860C080145EF90901C0D
:100DE00069B78280011106CE22CC26CA4AC84EC6F7
:100DF00052C499E901442285F2406244D2444249F6
:100E0000B249224A05618280AA896DD583D70187BC
:100E100003D6E1862E849564638AC7006374F60066
:100E200015673A961D8E93140601C1802686978514
:100E300004009385A5CC2545EFE07040938714F01E
:100E40006356F4009307F00F63EA97009785040058
:100E5000938545CC2545EFE0903E69BF83D401875B
:100E6000B3878400156A6349FA00A2854E85EFF0C6
:100E70005FC9EFF0DFC541B71569330999404209F1
:100E800013590901CA854E85EFF0BFC709E583D71D
:100E90000187E39147F7ED75A695A295C2052398C2
:100EA0000186C18133852901D9B783D641B881EA4A
:100EB00097850400938585CC25456FE0902303D664
:100EC00061B84111918E97850400938525CC254505
:100ED00006C6EFE0D036138741B88355070083D7A5
:100EE00061B8138581B89D8DC2053E95C181DD3DF8
:100EF000B24023A201B841018280411183D741B899
:100F000022C426C206C6AE9713070020AA842E84E8
:100F1000635AF700593F978504009385E5C325453B
:100F2000EFE0301D83D741B8138581B82286A685AE
:100F30003E95EF10942403D641B8229642062244EF
:100F4000B240924441822392C1B8978504009385B0
:100F500025C2254541016FE0902E011126CA06CE1B
:100F600022CC4AC84EC652C456C2814459C1D1C1CE
:100F700083D7E18603D40187638D870663F58708ED
:100F80001D8C42044180AE892A89228697850400FF
:100F9000938545B30145EFE0902AA28463F389006D
:100FA000CE84C2040D6A83D7E18603D70187C1804E
:100FB000938AC186130A0A8063FAE704A6864A86E2
:100FC000B38547012D459700FF1FE780A08A83D78F
:100FD0002A00A6972397F186EFF07FAF83D601878B
:100FE00003D6E18697850400938505AF2545EFE09C
:100FF0001025F240624426854249D244B249224A31
:10100000924A0561828015673A949DBF15671D8FCE
:10101000B385470163D5E400A6864A8665B795691E
:10102000B389F9406D743E94C20993D9090126949D
:10103000CE864A8642042D459700FF1FE7808083B5
:101040004180A28633063901D2852D45239701863A
:101050009700FF1FE780008283D72A003E942397E2
:1010600081869DBF397106DE22DC26DA4AD84ED64B
:1010700052D456D25AD05ECE62CCE9C9328455CA17
:10108000368CE9C6BA8B79C32A89AE8A2300AC00B4
:1010900085448149114B330634416353CB001146DB
:1010A000137AF60F5286B3853A01480002C2EF1058
:1010B000D40C034751008347610003467100834607
:1010C00041004A97CA974A96050789070D06CA96AE
:1010D0002307E100A306F100A307D1002306C10006
:1010E0007800814703460700B306F9008507B18EF3
:1010F0002300D70093F7F70F0507E39567FF8357A2
:10110000C1000357E100D29933059C00B98F231623
:10111000F100B24711462C00910493F9F90F3EC437
:1011200093F4F40FEF107405E3E789F623809B0036
:1011300005442285F2506254D2544259B259225A7F
:10114000925A025BF24B624C216182800144D5B716
:101150001D7186CEA2CCA6CACAC8CEC6D2C4D6C27B
:10116000DAC05EDE62DC66DA6AD86ED67DC52E84B1
:10117000E9C532897DC2368CEDC2834D0500AA8453
:10118000814C054D9149138A3D00938A1D00138BB4
:101190002D00930B00103306A44163D3C900114600
:1011A0009377F60F3E86B385A40148083EC602CA6F
:1011B000EF10A47C8346610103474101034671019E
:1011C00083475101358F230AE100B18F33C7ED000A
:1011D000B346DB00A30AF1003346CA00B3C7FA00E6
:1011E000A30FE100A30ED100230EC100230FF100D5
:1011F0007408014783C706003386ED00050793870F
:101200000710918FB3E777038506A38FF6FEE313EC
:1012100037FFF2473305990111462C083ECCEF10F9
:10122000C475B247910C93FCFC0F3E9D137DFD0FDE
:10123000E3638DF623009C0105442285F640664455
:10124000D6444649B649264A964A064BF25B625C4A
:10125000D25C425DB25D256182800144F9BF397183
:101260009307400622DC33F4F50226DA13077100F7
:10127000B684740806DEB377F6023304F402B3874B
:10128000C5003E9493978500A181DD8D931786005C
:1012900021825D8E2314B1002315C1002C0011465C
:1012A000EFF05FDC89C48345710068088294228571
:1012B000F2506254D25421618280317122DD26DBEA
:1012C0004AD99307110118082A842E89B2849306FB
:1012D000F1001306E1009305D1001305210106DF9B
:1012E000EFA0D055814719473306F40003460600A6
:1012F000B400BE962380C6008507E397E7FE8357B8
:10130000210113074006B3F7E7022307F1048347DF
:10131000D100A307F1048347E1002308F1048347C8
:10132000F100A308F104834701012309F1049307A5
:10133000A0FAA309F104EF20E43E7800F418AC0011
:1013400031461375F50FEFF0FFD14C082285194691
:10135000EFE0F01350089785040093852589254513
:1013600023000102EFE0A06D0346C1004C08E8181D
:10137000EFE0F0118346C10018195008939716004A
:10138000BA9797850400938525872545238207F61C
:10139000EFE0E06A034801018347F1000347E10001
:1013A0008346D10003562101954897850400938513
:1013B000E5852545EFE0A0680344C100EC184A85A7
:1013C0002286EF10845BFA50238084006A54DA543A
:1013D0004A5929618280978504009385A586130563
:1013E00010026F7000647971AA85680006D602C683
:1013F00002C802CA02CC02CEEF20C44B6C00130517
:101400008004EF700062B250456182807971AA85D4
:10141000680006D602C602C802CA02CC02CEEF207D
:1014200064496C0013054002EF70A05FB250456143
:1014300082801D71A2CCA6CACAC83284AA842E8911
:10144000130620038145680886CE36C6EFD06F9814
:10145000B24622872686978504009385E582680830
:10146000EF20E43E6C0813052002EF70805BA2853C
:10147000130620024A85EF70C03DA2862686978516
:101480000400938565811945EFE0605BF640664492
:10149000D6444649256182805D71A2C4A6C2CAC0F5
:1014A0002A842E89B284814513062003680086C6EB
:1014B000EFD02F922687CA862286977504009385DF
:1014C000A5786800EF20A4386C0013053002EF7097
:1014D00040554A87A6862286977504009385C5776E
:1014E0001945EFE0C055B64026449644064961616F
:1014F00082809387811C0547238CE70018411045A3
:10150000544598C30357450090C7D4C71049544960
:101510002392E70090CBD4CB239DB7008280184163
:101520009387811E104598C303574500544590C7C3
:101530002392E70058551049D4C7544998CF97854E
:1015400004009385E5830547254590CBD4CB238EB6
:10155000E7006FE0003A397126DA4AD84ED652D405
:1015600056D25AD006DE22DC62CE66CC2A89EF2023
:1015700084359374F50F8149254BE54A177A0400A9
:10158000130A4A7691ECF25062544E85D254425975
:10159000B259225A925A025B724CE24C216182800B
:1015A00003470900930707FD93F7F70F637CFB00E0
:1015B0009307F7F993F7F70F63E2FA06930797FAA1
:1015C00093F7F70F139487016184FD1423008900BA
:1015D0002685EF00044B2A86AE8603250A00832564
:1015E0004A0093F4F40F0509EF40717C2AC4228568
:1015F0002EC6EF0004492246B246EFF023792A8C2A
:101600004E85AE8CEF00044F2A86AE866285E68555
:10161000EFE0B30CEF002441AA89ADB79306F7FBC6
:1016200093F6F60F8147E3EFDAF8930797FC49BF8B
:10163000411122C406C6830795022A8499C713055F
:101640009502EF10C4302381A1188307D41291CBE7
:101650001305D412EF10442FEF10041193870115D6
:10166000C8D3B240224441018280011126CA9304AA
:10167000150022CC97750400938585742A842685ED
:1016800006CE4AC84EC6EFE0804B631E0510977524
:101690000400938525732685EFE0604A6302050EFA
:1016A00085448307D4036386070C13059402EF1067
:1016B000042A85491379F50F1305D4036387340F82
:1016C0008947638CF418EF108428A382A118631A49
:1016D0003901794681451385711A23890186EFC046
:1016E0005FEF8307D40885C31305D408EF102426C1
:1016F00003C72187930717002389F1869387011574
:10170000BA97A38BA7048307D40D85C31305D40D03
:10171000EF10E42303C72187930717002389F1867D
:1017200093870115BA97A38BA7048307D41285C3A7
:101730001305D412EF10A42103C7218793071700C4
:101740002389F18693870115BA97A38BA704830792
:10175000D41785C31305D417EF10641F03C721875F
:10176000930717002389F18693870115BA97A38BF6
:10177000A704F2406244D2444249B24905618280E2
:1017800097750400938545642685EFE0403BE31997
:1017900005F026859775040093854563EFE0203AB0
:1017A0008944E31005F08144EDBDEF10441A238312
:1017B000A118631A990079468145138591182389E8
:1017C0000186EFC01FE18307D40885C31305D40841
:1017D000EF10E41703C72187930717002389F186C9
:1017E00093870115BA97A38CA7028307D40D85C3ED
:1017F0001305D40DEF10A41503C721879307170015
:101800002389F18693870115BA97A38CA7028307D2
:10181000D41285C31305D412EF10641303C72187B4
:10182000930717002389F18693870115BA97A38C34
:10183000A7028307D417E38E07F21305D417EF101E
:10184000041103C72187930717002389F186938723
:101850000115BA97A38CA70229BFEF10440FA383E9
:10186000A11801BF411122C406C6830795072A8427
:1018700099C713059507EF10840DA381A11883075D
:10188000D40899C71305D408EF10640C2382A1185B
:101890008307540B91CB1305540BEF10E40AEF00B0
:1018A000B46C9387011588D7B240224441018280ED
:1018B000411122C426C206C683071505814401448E
:1018C00099C703444505130404FD1374F40F8307FB
:1018D000550699C713055506EF1064079374F50F65
:1018E0002286A686977504009385454F2545EFE02F
:1018F00000151374B40F8D47631FF4009D4763FCFC
:1019000097009737FF1F83C7071F93E727001737F5
:10191000FF1F2302F71EB2402244924441018280FD
:10192000011126CA8146B284014652C456C206CE6F
:1019300022CC4AC84EC62A8AAE8AEFF0432841CD4F
:101940009307E0046386F400930730056395F40879
:10195000977904009389894403A6090083A6490066
:101960005285D685EFF0834237949800EF00A40BA0
:10197000130404682A8933758502EF00A41703A6AF
:10198000090083A64900EFE0534897770400938746
:1019900067419043D443EFE053472A8A3355890285
:1019A000AE8AEF0024152A86AE865285D685EFE0F2
:1019B000C35213073005AE876395E400B707008074
:1019C000AD8FF2406244D2444249B249224A924A1F
:1019D000BE850561828001458147E5B7011126CAB0
:1019E0008146B284014652C456C206CE22CC4AC8B1
:1019F0004EC62A8AAE8AEFF0831C41CD930750046D
:101A00006386F400930770056395F40897790400E2
:101A10009389C93803A6090083A649005285D68553
:101A2000EFF0C33637949800EFF0F37F13040468A7
:101A30002A8933758502EF00E40B03A6090083A60B
:101A40004900EFE0933C977704009387A7359043D4
:101A5000D443EFE0933B2A8A33558902AE8AEF00E4
:101A600064092A86AE865285D685EFE003471307C0
:101A70007005AE876395E400B7070080AD8FF24034
:101A80006244D2444249B249224A924ABE85056123
:101A9000828001458147E5B71357850093570501BB
:101AA00013D885009376F50F01111377F70F93F78D
:101AB000F70F618593F5F50F1378F80F99C211C3ED
:101AC000B9E3230CD100A30CE100230DF100A30D19
