:040000006F20805C91
:100004000000000000000000900000203E070020D7
:10001400A9BDF9F5900000200000000000000000D8
:10002400900000209000002000000000000000006C
:10003400900000200000000090000020000000005C
:1000440090000020F20200204203002090000020D3
:1000540090000020900000209000002090000020DC
:100064009000002090000020920000202A0100202F
:100074003208002090000020900000209000002012
:1000840090000020C20100205A02002090000020AD
:1000940001A0373700408347470099464111BD8B83
:1000A400638ED70231476386E70611476390E704FE
:1000B400A303010017560000034646943737004057
:1000C400834771006317F6022C00174500001305DF
:1000D400A58997F000E0E78040F009A8834757001E
:1000E40093F7F70F2304F100834781004101730064
:1000F400203083477100834687000C08AE97238C19
:10010400D7FE83477100850793F7F70FA303F10028
:1001140045BF2800977001E0E780C0BC1375F50F58
:10012400A303A1000346710045B737370040834756
:10013400474099464111BD8B638ED7023147638690
:10014400E70611476390E704A30301001756000074
:100154000346E68A37370040834771006317F60287
:100164002C00174500001305658197F000E0E78037
:10017400C0E609A88347574093F7F70F2304F1001B
:100184008347810041017300203083477100834617
:1001940087400C08AE97238CD7FE834771008507F0
:1001A40093F7F70FA303F10045BF2800977001E010
:1001B400E78000C51375F50FA303A1000346710082
:1001C40045B7374700408347478099464111BD8B67
:1001D400638ED70231476386E70611476390E704CD
:1001E400A303010017560000034656813747004019
:1001F400834771006317F6022C00173500001305BE
:10020400257997F000E0E78040DD09A8834757800F
:1002140093F7F70F2304F100834781004101730032
:10022400203083477100834687800C08AE97238C67
:10023400D7FE83477100850793F7F70FA303F100F7
:1002440045BF2800977001E0E78040CD1375F50F96
:10025400A303A1000346710045B737470040834715
:1002640047C099464111BD8B638ED70231476386DF
:10027400E70611476390E704A30301001756000043
:100284000346A69837470040834771006317F60278
:100294002C00173500001305E57097F000E0E780A7
:1002A400C0D309A8834757C093F7F70F2304F1007D
:1002B40083478100410173002030834771008346E6
:1002C40087C00C08AE97238CD7FE8347710085073F
:1002D40093F7F70FA303F10045BF2800977001E0DF
:1002E400E78080D51375F50FA303A10003467100C1
:1002F40045B7411126C4B714004022C603D4C4092B
:10030400420441809317140163DB0700BD45014596
:10031400975001E0E780A09D9167239EF408137431
:10032400041019C8975001E0E780C08BB71700404C
:1003340013070010239EE7083244A24441017300CE
:1003440020307300203073270080218B93878191A4
:1003540009CB7327008023ACE19098435D9B731015
:100364000780010001003717004093067005230041
:10037400D704930680FA2300D704010001008346C2
:10038400B70493F6F60DA305D704230007047326D8
:1003940000809443A18AD18E7390068023AC01908F
:1003A4000100010093760502638406180347A70041
:1003B400118B25E773270080218B09CB73270080DD
:1003C40023ACE19098435D9B73100780010001000A
:1003D40037170040930670052300D704930680FA6C
:1003E4002300D704010001008346A70093E64600DA
:1003F4002305D70023000704F32600809843218BAC
:10040400558F7310078023AC01900100010013077E
:10041400004B010001007D176DFF73270080218BC5
:1004240009CB7327008023ACE19098435D9B731044
:100434000780010001003717004093067005230070
:10044400D704930680FA2300D704010001007D89B4
:100454002314A70001000100010001002300070488
:10046400F32600809843218B558F7310078023ACAB
:1004740001900100010073270080218B09CB7327B1
:10048400008023ACE19098435D9B731007800100CA
:10049400010037170040930670052300D704930624
:1004A40080FA2300D7040100010001000100B726EF
:1004B400004013061005A383C68023000704F32617
:1004C40000809843218B558F7310078023AC0190D3
:1004D4000100010073270080218B09CB7327008062
:1004E40023ACE19098435D9B7310078001000100E9
:1004F40037170040930670052300D704930680FA4B
:100504002300D704010001008346B70493E60608DC
:10051400A305D70423000704732700809C43A18B01
:10052400D98F7390078023AC019001000100828071
:1005340093760504638B06140347A700418B25E7D4
:1005440073270080218B09CB7327008023ACE190B3
:1005540098435D9B7310078001000100371700402A
:10056400930670052300D704930680FA2300D7046A
:10057400010001008346A70093E606012305D70086
:1005840023000704F32600809843218B558F7310B2
:10059400078023AC0190010001001307007D0100D6
:1005A40001007D176DFF73270080218B09CB732712
:1005B400008023ACE19098435D9B73100780010099
:1005C400010037170040930670052300D7049306F3
:1005D40080FA2300D704010001009376F50193E625
:1005E40006042314D70001000100010001002300C8
:1005F4000704F32600809843218B558F73100780DE
:1006040023AC019001000100130760046310E504AA
:1006140073270080218B09CB7327008023ACE190E2
:1006240098435D9B73100780010001003717004059
:10063400930670052300D704930680FA2300D70499
:1006440001000100B72600400946B5B573270080B4
:10065400218B09CB7327008023ACE19098435D9BE9
:1006640073100780010001003717004093067005DE
:100674002300D704930680FA2300D7040100010065
:10068400B7260040130620053DB573270080218B53
:1006940009CB7327008023ACE19098435D9B7310D2
:1006A40007800100010037170040930670052300FE
:1006B400D704930680FA2300D7040100010083566F
:1006C400870093E6060C2314D700C5BB411181466D
:1006D40001468145114506C68124F3270080A18B7C
:1006E4009386819189CBF327008023ACF1909C42BF
:1006F400DD9B7390078001000100B71700401307CA
:1007040070052380E704130780FA2380E7040100BF
:10071400010003C76704136717002383E7042380DA
:100724000704732700809C42A18BD98F73900780A4
:1007340023AC019001000100B24041018280814656
:10074400014681451145C92AF3270080A18B1387EF
:10075400819189CBF327008023ACF1901C43DD9B6E
:100764007390078001000100B717004093067005DD
:100774002380D704930680FA2380D7040100010064
:10078400FD562396D70223800704F32600801C43DA
:10079400A18BD58F7390078023AC019001000100D9
:1007A400F3270080A18B89CBF327008023ACF19041
:1007B4001C43DD9B7390078001000100B7170040C4
:1007C400930670052380D704930680FA2380D70408
:1007D4000100010083C6670493E616002383D7044F
:1007E40023800704F32600801C43A18BD58F7390CC
:1007F400078023AC01900100010001A0BD4733052F
:10080400F50201007D1575FD8280411122C426C2C6
:1008140006C6AA84014463179400B2402244924459
:100824004101828005041305803E4204C13F41809A
:10083400DDB7B7170040130700032388E702854795
:1008440017470000232CF75473002030411106C6CB
:10085400A52D970001E0E780008ADDBF2303048013
:1008640015472303E48001002302A48082808307C8
:100874006480E3CE07FE23030480828083076480C0
:10088400E3CE07FE03454480828083076480E3CE81
:1008940007FE2302A4808280411126C44AC24EC0AE
:1008A40006C61377F50BAD47AA892E8995446306CE
:1008B400F70019456537653F8D444E854537FD5929
:1008C400FD1463983401B240A244124982494101A3
:1008D4008280135509011375F50F453F2209CDB7E1
:1008E400011126CC06CEB704080051371545BD3793
:1008F400713769372AC6A53F32459377150089EBCE
:10090400136515001375F50FF240E244056182800A
:10091400FD14E9FC0145CDBF397126DC4ADA4ED815
:1009240052D656D45AD25ED006DE62CE66CCB7E733
:1009340000E07D5783AA070022C603AA470023A02C
:10094400E71823A2E718B7170040130770052380A0
:10095400E704130780FA2380E70483C74704930B53
:1009640075FFB684E20793FBFB0F8546AA892E8B9D
:10097400328937240040E187015763FA760163081E
:10098400D5008946130700026313D5000157D98F98
:1009940093F7F70FB71C00402382FC04114723038D
:1009A400E4801305F00F5D3D094CD135636D7C1176
:1009B400B7050700DA9537870700795563F2E50430
:1009C400B3879500636EF702370B0800A94733EB32
:1009D40065016399F90689E48144513D26850DA09A
:1009E400DA850945553D05090345F9FFFD14050B55
:1009F400693D81C49377FB0FFDF7DD3569FD7D55B6
:100A0400B7170040130770052380E704130780FA23
:100A14002380E70403C74704418B2382E704F25091
:100A2400B7E700E023A0571123A24711E254324450
:100A34005259C259325AA25A125B825B724CE24C2E
:100A440021618280A5476395F90685691309F00F32
:100A5400B3069900B3742B01B6941349F9FFB37428
:100A64009900856B33796901416B9387F9FFB3F77B
:100A7400270199E363FC340193D94900C147E3E6B4
:100A840037FF99BF0569C1697D19D9B71305800D71
:100A94006388690113050002638479011305100852
:100AA400CA85DD3B353D21DD4E99B3843441D9B748
:100AB400DA852D45D533CA94E30099F205097D3BC7
:100AC400A30FA9FED5BF9387F9FF93F7F70F6361CF
:100AD400FC0C83C71C0413073008631FF704370793
:100AE4000800636BEB04B3079B00B706100063F5C3
:100AF400D704334BEB0089476393F9068980D549C2
:100B0400E38C04ECDA850945413B11090327C9FF4D
:100B140091472320E48003076480E34E07FE230308
:100B24003481FD17EDFBFD14110B81C49377FB0F8A
:100B3400E9FF7D3371F5E1B5B717004003C75704EA
:100B4400B70708001377070219E3B7870700795539
:100B5400E378FBEA33079B00E3FFE7F855B58547E5
:100B6400E382F9F2DA852D45053B9389F4FFE385A9
:100B740004E6293393F7390091EB83260480032795
:100B8400090093074900E39AE6E43E89CE84F1BF65
:100B9400B5476396F9001305900BC93135BDB147CC
:100BA4001305B00AE38BF9FE99476391F904B7057D
:100BB4000800B365BB002D45C53181448D4BA14967
:100BC400753963967401832704802320F900850412
:100BD400E39834FF8327048013172B016355070020
:100BE4002312F900D5BB2322F900FDB39D47639975
:100BF400F90281451305B0044531BD4423200900A1
:100C040023220900FD599D3993F77400CA9703C73D
:100C14000700FD14398D2380A700E39634FF6DBBD4
:100C2400A1476392F9046D398144630D0B008D472C
:100C34009304C0036308FB009304000563048B0161
:100C4400930440041375C507E30895D81945393151
:100C540039390545213126850D3909453D3149315B
:100C6400E31C05D669BB91476399F9001305600637
:100C7400F536F53E130590090DB7E38F09D4F15409
:100C8400A9BB19CD91CD09CE81473387F5008346A1
:100C940007003307F50085072300D700E317F6FEA6
:100CA400828019C991C909CA910583A7C5FF110595
:100CB4007D16232EF5FEC5BF828001C919C62A966A
:100CC4000505A30FB5FEE31DA6FE82808147330709
:100CD400F5000307070019E33E8582808507C5BF39
:100CE40001112E8626CAAA84131506019305F00461
:100CF400418122CC06CE32C6EF1080632A8401C51E
:100D04003246A685BD3F2285F2406244D244056145
:100D14008280854715C18DC105C28147B306F500A0
:100D24003387F50083C60600034707006398E6008F
:100D34008507E315F6FE85473E8582808147EDBF32
:100D44009307F6FFBE952A966313C5008280FD15AE
:100D540083C715000505A30FF5FEFDB7AA87014556
:100D640081CF09CE3E96850703C7F7FF6317B70007
:100D7400E39BC7FE054582808280014582807971AC
:100D8400976700009387478A22D4804306D626D2E9
:100D94004AD04ECE52CC56CA5AC85EC662C45DCC46
:100DA40037C9C901814B176A0000130A6A8C97641A
:100DB40000009384A4871309F937976A0000938A83
:100DC4006A81B709C0A8370B40578357240095E3BD
:100DD4005C44639D0B00176700002327F784032CF2
:100DE400C4002285EF10E061628499A823A6FB0069
:100DF400FDB783270A008297838664011C4463DB62
:100E040006063307F5406367E9089757000023ABEC
:100E1400077C835524000345040097D001E0E78054
:100E2400C08F5C405844A9CF1444B69783866401AC
:100E340063C5060063E33701DA971CC4A28B3A84C6
:100E440049F4975700009387E7789C4B09476378E8
:100E5400F706F917175700002326F778B2502254E3
:100E640092540259F249624AD24A424BB24B224C42
:100E740045618280E377F5F83387F9402A9761B7B3
:100E840063970B009757000023A0E77A89BF23A636
:100E9400EB00B1B7D85009CF63DF06003385A74014
:100EA40083A70A016376F5009757000023ACA77265
:100EB400A28B404471B7E3F3A7FECE97C5B797570B
:100EC400000023A1077259BF411122C41754000026
:100ED400130444731C4006C626C24AC091C78297B5
:100EE4009757000023A007725C4091C382971C406F
:100EF4006391071C9767000083C7578F858B9DC735
:100F040097670000A384078E176700000347378E96
:100F1400954763FDE700EF0050419767000083C7E2
:100F2400178DF5178A07A2979C43829717690000CB
:100F34001309898F8347C900918B99C3EF10A0329D
:100F44001C4491C38297975400009384A46D9840E5
:100F540017560000034616689757000083C7876733
:100F640093961700BA9683D60600D5CA9757000001
:100F740083C7476663EFC70A97570000238C07644B
:100F84001C40639807129767000083C7778691CF48
:100F94009767000083C7B78589EB97670000A3892B
:100FA4000784976003E0E7806067975700009387A2
:100FB400276C9C43638F070EB707C0A81757000020
:100FC4002322F7626D3B9757000093872766DC5313
:100FD400EDC3175700001307E75F184B975700003E
:100FE40083C717666367F70C1767000003473780EA
:100FF400954763E0E70C8347C900918BDDEB904094
:101004009756000083C6165D63CBD70A2244B240CC
:1010140092440249410117C301E06700234D85074B
:1010240093F7F70F975600002386F65AE3E6C7F2C4
:1010340035BF86073E97835507002310070097574F
:101044000000239F075C975700009387675B9C43CE
:10105400175500000345055813172500BA979C43FC
:1010640082979757000083D7A75B17570000034761
:10107400675693C7F7FF7D8D9317170098403E97E7
:10108400835707005D8D2310A7009757000083C77F
:10109400675491C7850717570000230DF752175758
:1010A4000000034727539757000083C7B752E375DF
:1010B400F7ECB240224492440249410182801397E2
:1010C40017003297035707006DF7850735BFAD67E3
:1010D40037C70040BD072326F7200F10000097579D
:1010E40000009387274FC84F83278726BD66BD0618
:1010F40093C7F7FF99836A052326D7205D8D8280E5
:101104004111B7170040985F3AC6945F3247E39C99
:10111400E6FE324541018280828003278511630007
:101124000712411122C406C68347C5008345C5047E
:101134002A8493F7C70F2306F500834697000356C6
:10114400C70013958601618563F1C508635A0506D6
:101154000345870093F6F607A304D700054693E6F4
:1011640027006314C50093E617002306D4005C43EC
:1011740089075CC3A30AB400032504112E864C43DB
:10118400090501368327841103465401D44303D748
:10119400C700B296118FD4C32396E7008947A30DE5
:1011A400F400034744039757000083C74749637813
:1011B400F7048347C40093E707012306F40081A0E2
:1011C40093E717002306F40075B79376F60F635D73
:1011D400050203458700854513E627006314B5001F
:1011E40013E617002306C400A30AD400A3040700CF
:1011F4008547A30DF400832784119C43DDF3B2409B
:10120400224401454101828093E717002306F4003C
:10121400A30AD400A3040700032504114C430905C1
:101224008D348327841103465401D44303D7C70064
:10123400B296118FD4C32396E7008D475DBF054551
:101244008280975700009387A7589C43411122C47A
:1012540006C6858B2A84C5EF4165130525F597D00D
:1012640002E0E780A06245C58347A5002315F50089
:1012740083270412BDE72320A4122322A412854746
:101284002310F404232005008347640154412316EA
:10129400F5000347D4002304E5000547A304E50053
:1012A4001757000013074754184F13851702158169
:1012B4001C437D151375F50F9CC25C43DCC21C47AF
:1012C4009CC65C47DCC61C4B9CCA5C4BDCCA1C4FEE
:1012D4009CCE5C4FDCCE19CD938606021307070221
:1012E400C1BF8327441288C3835704042322A41252
:1012F400850779B79757000083D7475C8507175749
:101304000000231DF75AB2402244410182808347E2
:10131400C40023090400054593C747002306F400CD
:10132400DDB78347850193F7E70FD5EF8347950131
:10133400DDEB034625018346C50009CA8345450301
:10134400175700000347B72F63E7E50013F70601BB
:1013540041CF014709C6C18A0357651C81C683561C
:10136400A51C369751C31307C71217550000035520
:10137400E528B335A70237460F00411113060624AA
:10138400814622C426C206C67D543305A70297307F
:1013940004E0E780C0899757000083C7B72AB38465
:1013A400A700975700009387E75003A707098327EF
:1013B400070963F387003E84184375FB97570000C1
:1013C4009387072B9C43829781476364A400B307E8
:1013D400A440B2402244B3B7970093C71700924485
:1013E4003E854101828081473E858280797126D283
:1013F40006D622D44AD04ECE52CC56CA5AC85EC65D
:101404008347350303447513AA843E941374F40F7D
:101414009307400263F687001304B4FD1374F40FBA
:1014240003AA841383AAC413A38B8412228652852D
:10143400D685972004E0E780007A058915E503CB7B
:10144400D41201498149337B6403930B50024A86C9
:101454005285D685972004E0E780E077058915C595
:10146400639169031374F90F238B8412B2502254CD
:1014740092540259F249624AD24A424BB24B4561F4
:1014840082808509E20993D989410509E31179FD2F
:10149400E1BF832785090356E503797193D60701D4
:1014A400BD8EC206C182358E13577640935756407F
:1014B400898B058B5D8F93573640918B5D8F935746
:1014C4001640A18B5D8F93171600C18B5D8F931708
:1014D400360093F707025D8F9317560093558600E5
:1014E40093F707041E065D8F1376F60F518F93D77B
:1014F400554013D63540118A898BD18F13D6754048
:10150400D18F13D61540218AD18F13961500418AA5
:10151400D18F1396350013760602D18F139655009A
:10152400137606049E05D18F93F5F50FCD8FA20790
:1015340045465D8F3307C70222D42A8426D252CC73
:1015440056CA032A8413832AC4135AC806D6369764
:101554004207418393577740135557400989858B38
:10156400C98F135537401189C98F135517402189E5
:10157400C98F131517004189C98F131537001375C7
:101584000502C98F13155700935587001375050479
:101594001E07C98F1377F70FD98F13D5354013D78B
:1015A40055401189098B498F13D57540498F13D53F
:1015B40015402189498F139515004189498F139549
:1015C400350013750502498F1395550013750504ED
:1015D4009E05498F93F5F50F4D8F2207D98FB38759
:1015E400C7024AD04ECE5EC662C4B697C207C18354
:1015F40013D7774013D557400989058B498F13D5E5
:1016040037401189498F13D517402189498F139584
:1016140017004189498F1395370013750502498FC7
:101624001395570093D58700137505049E07498FBA
:1016340093F7F70FD98F13D5354013D75540118938
:10164400098B498F13D57540498F13D515402189CE
:10165400498F139515004189498F139535001375EA
:101664000502498F13955500137505049E05498F8E
:1016740093F5F50F4D8F2207D98FB387C702130651
:1016840050025285D685B697BD8E93940601C180CB
:1016940033F6C402137BF60F972004E0E780A053CF
:1016A40005890DED8347D41201498149B38497021A
:1016B400130C5002C1804A865285D685972004E0D7
:1016C400E78060510589937BF90F11C56386340364
:1016D400850993F9F90F0509E31F89FD230B6413A9
:1016E400B250225492540259F249624AD24A424BAD
:1016F400B24B224C456182805E8BCDB7011122CC66
:10170400604126CA4AC84EC652C406CEAA841D4A9F
:10171400130965058549BC446364F400054581A843
:1017240003C7D40083474400631B470503C78402EF
:101734006304F7000040C5B70347540083C754054A
:10174400E31AF7FE1946CA8513056400EFF06FDC4F
:10175400E31235FF0347C40083C79402E31CF7FC7C
:101764000357E40083D7A402E316F7FC0145F240D3
:101774006244D2444249B249224A05618280E31B51
:10178400F7FA0347540083C75405E315F7FA1946DB
:10179400CA8513056400EFF0CFD7E31D35F9F9B717
:1017A4000111975700009387E71022CC03A4470B3D
:1017B40026CA06CE2AC42EC6854419E40145F24041
:1017C4006244D24405618280834791000347140038
:1017D400858B6304F7000044CDB719469305A10037
:1017E40013052400EFF0EFD2E31795FE0545C1BFC2
:1017F400011122CC175400001304C40018402AC657
:101804002EC432C206CE3C4B93F7F7F73CCB97601D
:1018140003E0E78060DD1840975600009386C6FB1E
:101824003C4B93E707083CCB9C423245A24523A09E
:101834000700034715000348250022074208429782
:10184400034805004297034835006208429798D739
:10185400034755000348650022074208429703489E
:10186400450042970348750062084297D8D703475A
:1018740095000348A50022074208429703488500C3
:1018840042970348B5006208429798DB0347D500A6
:101894000348E5002207420842970348C500034570
:1018A400F500429762052A97D8DB03C7150003C5E4
:1018B4002500220742052A9703C505002A9703C578
:1018C400350062052A9798CF03C7550003C5650004
:1018D400220742052A9703C545002A9703C57500C8
:1018E40062052A97D8CF03C7950003C5A500220730
:1018F40042052A9703C585002A9703C5B5006205EA
:101904002A9798D303C7D50003C5E50022074205EB
:101914002A9703C5C50083C5F5002A97E2052E97CB
:10192400D8D3D843759BD8C3D84313671700D8C3FB
:1019340098431367170098C3124698425C43858BFB
:10194400D1E71C4F01452300F6009C429C4FA18324
:10195400A300F6009C429C4FC1832301F6009C42E5
:101964009C4FE183A301F6009C42D84F2302E6007A
:10197400D84F2183A302E600D84F41832303E60016
:10198400D84F6183A303E60098532304E6009853D9
:101994002183A304E600985341832305E60098536A
:1019A4006183A305E600D8532306E600D8532183B8
:1019B400A306E600D85341832307E600DC53E18302
:1019C400A307F600F2406244056182800100B5B7C6
:1019D40017570000130787E01443411122C49C5E8B
:1019E4004AC006C6998326C2858B3A8417590000DB
:1019F400130989DED1CB9C5E975400009384C4DE26
:101A040093F7F7F99CDE17570000034747DE930767
:101A14000008631BF700832709009C4393F707041E
:101A2400175700002305F7DC83C7040093F7070466
:101A34009DC3975700009387A7C39C4382979757EA
:101A4400000023ABA7DA83C7040093F7F70B1757FB
:101A54000000230BF7D883C7440093F707048DE7EE
:101A6400854717570000A303F7D8975700009387BB
:101A740067D99C43096798C7130700FC9756000071
:101A84002386E6D6D844F8D31C40985F1183058B8F
:101A940009CB985F3D9B98DF054797560000238745
:101AA400E6D4985F1D83058B11CB985F1377F7F706
:101AB40098DF854717570000230AF7D283270900C8
:101AC400D8430583058B19C7D843759BD8C3D8431E
:101AD400799BD8C3B2402244924402494101828096
:101AE400397106DE16DC1ADA1ED82AD62ED432D282
:101AF40036D03ACE3ECC42CA46C872C676C47AC202
:101B04007EC0F935F250E2525253C2533255A255B7
:101B1400125682567247E2475248C248324EA24E8B
:101B2400124F824F21617300203097570000938732
:101B340067CD944397570000938707CB03C70700EB
:101B4400058B11CB97570000238207CA97570000D3
:101B5400A38E07C8828003C71700058B65F7F85268
:101B640071FF83C75700DDB717580000130808C773
:101B7400032708001C5F9583858BD1E709C61C5B8E
:101B8400BD832300F60085CA83270800985B4607B7
:101B9400935767016356070093E707C0C207C183E1
:101BA40003970600C207C18709C7BA970947B3C795
:101BB400E7022390F60085CD834715008DCB975619
:101BC400000083C6C6C293F60604138797008947AC
:101BD4008DCA3A9503470500854699471376F7065B
:101BE4006311D60262076187B947634C07008327F4
:101BF40008009C5FED838D8B17570000A30BF7BE85
:101C040081473E8582808547EDBF411122C406C6C7
:101C140017540000130404BF184049E9AE877453F5
:101C2400FDFE3E85B28597570000238007BC975080
:101C340003E0E780607197570000938727BA9C43BD
:101C4400B70680009843558F98C3D857719BD8D74F
:101C540097570000A38C07B897570000A38607B8CE
:101C64001C40094798C3B7F700E003A707D16D9B51
:101C740023A8E7D003A707D15D9B23A8E7D073006F
:101C84005010144017570000130707B68347270066
:101C9400858B89EB83473700858BD9C7975700001D
:101CA400238607B4B2402244410182808D476310E9
:101CB400F50297570000938767B29C43B7068000EC
:101CC4009843558F98C3D857719BD8D75DBF854724
:101CD400E319F5FAB567BD075CC70F1000001C4097
:101CE4000967094698C7130700F897560000238F21
:101CF400E6AE17570000130767AE144398423183CA
:101D04000D8B6319C7001307E043F8D33D673D0704
:101D1400D8C785BF984231830D8B01E7130760193B
:101D2400EDB71307E01BD5B7FC52ADF3A5BF5D714A
:101D340052DC175A0000130A6AAA03270A0086C64F
:101D4400A2C4A6C2CAC04EDE1C43975900009389A0
:101D540029B0175900001309E9AA93F7F7E793E7A5
:101D640007081CC383A609003707CEFF7D179C46CE
:101D7400130680022A84F98F9CC68327090013075F
:101D840000082800B8CBAE8493051008EFE0FFF2FA
:101D9400976003E0E7804085976003E0E780409226
:101DA40083270A009376F41F370FFCFF23A4070050
:101DB400984B4E88CA881367F70398CBF84F1305DE
:101DC40010F8D285137707E0558FF8CF9843F5764E
:101DD400FD16758F98C39843B7063300B702040005
:101DE4001377F7E798C398439303401F7D1F137736
:101DF400F7E71367071098C303A70900930F80023E
:101E040085491C47D58F1CC7832709001307900DEC
:101E14003400B8CB11490147135337002693834745
:101E2400030013767700B3D7C740858BDDCF9C4181
:101E3400832E0800239C07042390070603AECE02DA
:101E4400137EDEFF23A6CE0383AE0700137EF707BF
:101E540093FE0EF833EECE0123A0C70103AE470272
:101E6400336E5E0023A2C70383AE0800014E23A293
:101E74007E0603DA070663074E0303AE0703038AED
:101E84000600135EFE00620E135E8E416358CA01A3
:101E940003AE0703135EFE002380C60103DE0706BC
:101EA400137EFE0F03AA4E0663060A0003DA8705B3
:101EB400E37F49FB03AE4702337EEE0123A2C7034F
:101EC40083870600635CF400034E03003396C90065
:101ED4001346F6FF3376C6012300C3003E8663D360
:101EE400A7002A8613158601618505071377F70F66
:101EF4008506E313F7F3B640264496440649F2599F
:101F0400625A61618280975600009386A68F9C4234
:101F1400D84713161701635506029847131617017D
:101F2400635006027D57B8D7174700001307876A26
:101F3400584F050717460000232CE66A116798C717
:101F440098470D83058B1DC3175700000347E78986
:101F540013671700175600002309E688130700F8D3
:101F6400175600002304E688214798C79847058B35
:101F740009CF175700000347378713671700175611
:101F84000000A303E686054798C798470983058B95
:101F940009E798470583058B31CF9847175600000A
:101FA4001306868417550000130545830983058BA2
:101FB400630307101841184331830D8B75EBAC4B49
:101FC400184E93F5050203471700CDCD79EF13079B
:101FD4007006D8CF03470600136717001756000092
:101FE4002304E680114798C718415C57F19B93E797
:101FF40017005CD79C4298479316370163D60602B4
:102004009756000083C64692C18A175700001307EB
:10201400678AC5CE03474707136707029756000030
:102024002384E690056798C798479316270163D1E0
:102034000602174700000347677B620761876357FF
:1020440007000547974600002382E67A096798C788
:1020540098479316070163D606029756000083C675
:10206400B68C858A175700001307C784ADCE034783
:1020740057071367270097560000A387E68A21674E
:1020840098C7828029D785456315B7001307B00622
:1020940089B789456315B7001307F0061DBF8D4541
:1020A4006315B700130730072DB71307500715B78B
:1020B4001307600739BF0347360013671700174635
:1020C4000000A304E672094739BF8346470709465F
:1020D400BD8A6388C600034747078D463D8BE313DB
:1020E400D7F4114725BF83465707918AC9DA0347B6
:1020F40057071367870041B7397106DE16DC1ADA11
:102104001ED82AD62ED432D236D03ACE3ECC42CAAB
:1021140046C872C676C47AC27EC0F533F250E25223
:102124005253C2533255A255125682567247E24751
:102134005248C248324EA24E124F824F2161730060
:102144002030174700001307276C8346B7019747D1
:10215400000083C7376E4C4BB697FD8B33D7F50021
:1021640097460000A382F66A97460000A384F66CA3
:10217400058B15EF174700000347176CB3F7E70209
:10218400814601471305000233D6E500058A13781A
:10219400F70F19CA6397D70097470000A38607670C
:1021A4008280850693F6F60F0507E31FA7FC82805D
:1021B400974700009387C74B9C43011122CC4EC61E
:1021C40006CE26CA4AC852C456C282979747000010
:1021D40093878765804781496305A406BE84974732
:1021E40000009387A744038767013E896355070668
:1021F400018D135455009747000083C78762937974
:10220400F501636DF402370AC0A8B70A4057153FB9
:102214009C449746000083C6C660139756003E97B9
:1022240083076901158C63C50700636347015697EB
:102234009747000023AEE75EE37BD4FC1604B36942
:102244003401F24062444E85D2444249B249224AA2
:10225400924A05618280E37D85F8B707C0A833847C
:102264008740229579B797470000938767409C433E
:10227400411122C406C626C282979747000093875D
:10228400A75A80476309A406BE8497470000938732
:10229400E7398387670163D80704018D1354550018
:1022A4009747000083C7E7576367F404593D984490
:1022B4009747000083C7E7569396570036971D8CBF
:1022C4009746000023A6E656E372F4FE2244B24089
:1022D4009244174500000345355381454101176376
:1022E40003E067000385E37A85FAB707C0A833845F
:1022F4008740229565B7B2402244924441018280CE
:10230400974700009387C7549843B75702009387B1
:10231400079F8326070913965600635806008326F1
:1023240007091396660063440600FD17FDF38280D7
:1023340071C5AA870145E9C58D07C207C183F19B11
:10234400C207C18313074003636FF70217470000F6
:10235400130707560843174700001307E7541443AD
:102364006398A602174700001307472C185B014522
:1023740041CB4111C20706C60545DD8D0297B24027
:102384000145410182801747000013072752D9B73E
:102394000357650035E303574500636FF704B3063D
:1023A400F7402146637CD602032805009386870004
:1023B4001D8FAA9661171746000003560622239222
:1023C400E60023A006012393060014C12312F5009E
:1023D400130786FF974600002391E6202313B500D8
:1023E4009745000083D5651FB387F5401747000064
:1023F4002315F71E2105828008419DB7014582807F
:1024040082800DC1974700009387874A03A3070082
:10241400974700009387474983A8070081469A8716
:1024240063E31701828003A80700636DF50A636BF9
:10243400A80A13878700E367E5FE03D667002167D0
:1024440005076317E60003C7419C05072382E19C47
:10245400974500009385051803D6470003D7650008
:102464002393070032974207418317450000231640
:10247400E516638A670217450000130525430841E2
:102484006303F50203D5660019ED83D7460023A044
:10249400060121073E9621062392C60097470000B5
:1024A400239DE712B6879843E30E17F7974600007B
:1024B4009386C63F9442E307D7F683566700BDF27E
:1024C40083D64700035647001843A106B2962392C9
:1024D400D70098C383D76500A10717470000231EC0
:1024E400F70E8280BE86C28725BF01119747000080
:1024F4009387473C22CC03A4C70B26CA4AC84EC6BE
:1025040006CEAA8413092500854915C083C7140083
:1025140003473400858B6304F700405CFDB719461C
:10252400930544004A85EFE0CFFEE31835FF22858A
:10253400F2406244D2444249B24905618280411169
:10254400974700009387073722C403A4C70B26C20A
:102554004AC006C693042500054901E82285B24015
:1025640022449244024941018280A6851305A402B3
:10257400971004E0E780601BE30225FF405CF1BF95
:102584004111974700009387E73222C403A4C70B85
:1025940026C24AC006C693042500054901E82285DF
:1025A400B24022449244024941018280A685130527
:1025B400A401971004E0E7804017E30225FF405C84
:0425C400F1BF000063
:1025C80097110020938181B717610020130101A39F
:1025D8001305400097E5FF1F938545A217060020C5
:1025E800130606FE63FAC5008322050023A05500E2
:1025F80011059105E3EAC5FE171505001305C5CBBE
:10260800970500209385C5FB1386818663FAC5006C
:102618008322050023A0550011059105E3EAC5FEB4
:1026280013858186974500209385453A6377B500E1
:10263800232005001105E36DB5FEFD42739002BC31
:102648008D42739042809302800873A0023097E213
:10265800FF1F9382A29A93E23200739052309772CE
:1026680001009382622473901234730020303D433A
:102678002A876373C3029377F700BDEFADE59376BE
:1026880006FF3D8ABA960CC34CC30CC74CC741071A
:10269800E36BD7FE11E28280B306C3408A06970235
:1026A800000096966780A6002307B700A306B70028
:1026B8002306B700A305B7002305B700A304B70096
:1026C8002304B700A303B7002303B700A302B7008E
:1026D8002302B700A301B7002301B700A300B70086
:1026E8002300B700828093F5F50F93968500D58D6A
:1026F80093960501D58D61B7939627009702000040
:1027080096968682E78086FA9680C1171D8F3E9638
:10271800E374C3F8A5B73367B500FD530D8B79E7AC
:10272800B7877F7F9387F7F710419441B372F6001C
:102738003363F600BE92B3E262006397720C6318CB
:10274800D6065041D441B372F6003363F600BE9208
:10275800B3E262006398720A631BD604104594457D
:10276800B372F6003363F600BE92B3E2620063917F
:10277800720A631ED6025045D445B372F60033631D
:10278800F600BE92B3E26200639A72086311D60241
:1027980010499449B372F6003363F600BE92B3E26F
:1027A8006200639372085105D105E30FD6F613173B
:1027B800060193970601631CF7001357060193D788
:1027C80006013305F7409375F50F91E9828041833F
:1027D800C1833305F7409375F50F91E18280137734
:1027E800F70F93F7F70F3305F7408280034605008C
:1027F80083C60500050585056313D60065FA33050C
:10280800D640828011059105E312D6FE01458280EB
:102818002105A105E31CD6FC014582803105B105DF
:10282800E316D6FC014582804105C105E310D6FCBC
:1028380001458280014711464148B386E50081473A
:10284800B308F50083C808008507C10623A816FF4A
:10285800E398C7FE11071105E31107FF828093571C
:1028680085019CC19357054193F7F70FDCC1935736
:10287800854093F7F70F1375F50F9CC5C8C582807F
:102888001C414111130705013EC05C413EC21C4575
:102898003EC45C453EC6939725001408B69783A7A7
:1028A80007FF85051105232EF5FE8D89E315E5FE45
:1028B80041018280397122DC4166138401A406DE5D
:1028C80026DA4AD84ED652D456D25AD05ECE93057E
:1028D8000501A2863708FF007D1683070500034718
:1028E80035001105E207D98F0307D5FF9106420786
:1028F80033770701D98F0307E5FF2207718FD98F37
:1029080023AEF6FEE39BA5FC81499144930A01019D
:10291800179B0400130B4B28979B0400938B4B25A4
:10292800130AC00293F73400032904004844BDE7A2
:102938008A85353785450A85A1370A871C431107DB
:1029480093F6F70093F7070FDA97B69783C7070050
:10295800232EF7FEE394EAFE024592476205C2077A
:102968005D8DB2475D8DA247A2075D8D93972900C3
:10297800DE979C4385093D8D3345250108C88504AC
:102988001104E39144FBF2506254D2544259B259B3
:10299800225A925A025BF24B216182803345A90088
:1029A80008C8F1BF797122D426D24AD04ECE52CC73
:1029B80056CA06D62A8A939945000144938A01A4E7
:1029C80013090101C144B3073401D69788438A85A6
:1029D800793533078A008A87144390439107410762
:1029E800B18E2328D7FEE39927FF1104E31D94FC39
:1029F800B250225492540259F249624AD24A45616D
:102A08008280397122DC1304050106DE22878147A2
:102A1800C1460C433306F10011070CC24C4710089D
:102A28003E960CC24C4F10103E960CC29107E39292
:102A3800D7FE85450A85A9358945080891358D450C
:102A480008103D3D81474147B306F1009442110407
:102A5800232ED4FE1408BE96944254C41410BE9675
:102A68009442910754CCE391E7FEF25062542161FD
:102A7800828006059377051089C71375F50F1345EE
:102A8800B5018280411106C6ED37B2404101D5B784
:102A980081471148C1483386F500B306F500014760
:102AA80003AE06003303E60005072300C301C10691
:102AB800E31807FF9107E39017FF8280930605014B
:102AC800179604001306461D13050505138706FF10
:102AD8001C43110793F5F70093F7070FB297AE97CA
:102AE80083C70700232EF7FEE394E6FEC106E31F23
:102AF800D5FC82801C414111FD563EC05C413EC25E
:102B08001C453EC45C453EC68D47B385B740930718
:102B1800C5001397250010083297032707FFFD15F6
:102B280098C36393D5008D451387C7FF6314F500D9
:102B380041018280BA87F1BF397122DC1304050193
:102B480006DE22878147C1460C433306F100110790
:102B58000CC24C4710083E960CC24C4F10103E96C3
:102B68000CC29107E392D7FE85450A8561378945EE
:102B7800080849378D450810B53F81474147B306D6
:102B8800F10094421104232ED4FE1408BE969442F8
:102B980054C41410BE969442910754CCE391E7FEB6
:102BA800F250625421618280930605011796040051
:102BB800130686FE13050505138706FF1C43110738
:102BC80093F5F70093F7070FB297AE9783C70700FF
:102BD800232EF7FEE394E6FEC106E31FD5FC8280B0
:102BE800411122C406C626C285472E846301F50218
:102BF80089476318F5002244B24092442E8541016A
:102C08008DBD8D47631BF5002E85A535298C228542
:102C1800B2402244924441018280A5476315F500E1
:102C28002E858D35DDB7AD47631AF5002E85993DA4
:102C38008935AA842285353D258DC9BFB5476316D8
:102C4800F5002E858135AA84FDB7B947E311F5FC57
:102C58002E850D3DAA84313DA98C2285193D33442A
:102C6800950075B7597186D6A2D4A6D2CAD0CECE51
:102C7800D2CCD6CADAC8DEC6E2C4E6C293060504D8
:102C88000A87AA879043C10741072328C7FE03A6DE
:102C980047FF232AC7FE03A687FF232CC7FE03A6E8
:102CA800C7FF232EC7FEE39FD7FC1799040013091B
:102CB800A912130A050193090505832C0900032CA1
:102CC8004900832B8900032BC900930A0AFF8A84D1
:102CD8008C406685910A29378C482A846285093791
:102CE8008C50298C5E85ED3D8C58298C5A85CD3DBC
:102CF800218D23AEAAFE9104E31C5AFD410A410925
:102D0800E39D49FBB650265496540659F649664A3F
:102D1800D64A464BB64B264C964C656182806382F8
:102D2800051493F7F500639E07121571D6C3AA8A96
:102D38003285A2CDA6CB86CFCAC9CEC7D2C5DAC145
:102D48005EDF62DD66DB6AD96ED73284AE84EF401F
:102D58009445C147631EF5002285A93E0149130A1F
:102D68000106979B0400938B2B07294C634199021A
:102D7800FE406E44DE444E49BE492E4A9E4A0E4BE2
:102D8800FA5B6A5CDA5C4A5DBA5D2D618280338BDE
:102D98002A010C105A85793C814508102131854952
:102DA800081019350810B1391C10D2863E87104317
:102DB8004107C10623A8C6FE032647FF23AAC6FE6D
:102DC800032687FF23ACC6FE0326C7FF23AEC6FE35
:102DD800E31FEAFC17970400130707FC0328070002
:102DE800832D4700032D8700832CC7005284138648
:102DF80007010C4042853ECE3ACC32CA42C8CD3398
:102E08000C482AC66E85E93BB2460C501104A98EBF
:102E18006A8536C6F133B2464C54A98E668536C6E5
:102E2800C133B246F2475246358D88C391074248AE
:102E38006247E310F6FC4107B287E391EBFACE85CF
:102E4800081085098536E39D89F50810B13B0810FF
:102E58004D3EA9450810B936DA85081015394109DB
:102E680031B78280638D051093F7F50063990710D9
:102E78005171CECFAA893285A2D5A6D386D7CAD119
:102E8800D2CDD6CBDAC9DEC73284AE84EF40B431B6
:102E9800C1476319F5002285313C0149138B01A410
:102EA800634D9900BE502E549E540E59FE496E4AE9
:102EB800DE4A4E4BBE4B6D618280338A29018C00FD
:102EC80052858D3AA9458800F13C138401ADC14A69
:102ED800930B00048800DD368800B939880059331F
:102EE80008408A85AD3A48400C08953A08440C10C9
:102EF800BD3248440C18A53218018147B306F100C9
:102F0800944241072328D7FE1408BE969442232AE8
:102F1800D7FE1410BE969442232CD7FE1418BE96E2
:102F280094429107232ED7FEE39A57FD08011D3BD3
:102F380001479C003385E7001C01B305F700814772
:102F48003306F5003388F50014420328080091077A
:102F5800B3C6060114C2E39557FF4107E31B77FD8B
:102F68004114E31964F78800913E8800F1368145E1
:102F780088000D3CD2858800213E410915B7828022
:102F88009307F00F6385F60A2D71232A91102328E1
:102F98002111B28423263111130600102E89AA8923
:102FA800930530020A85232E1110232C81103684B4
:102FB800EFF0EFEBA2852685EF00817A13178500E5
:102FC800935785003365F7002310A100A685228654
:102FD80013053100930434002301810093F4F40FA6
:102FE800EF30B42793F6F40089C64D04158C93741A
:102FF800F40F1C02A697A6850A85179604001306E7
:1030080066E3238007F0213B26868A854E85EF30CC
:10301800D424230099008320C1110324811183241F
:103028004111032901118329C11015618280828011
:10303800797122D432844AD04ECE2A89AE8922852B
:10304800B685179604001306E6DE26D252CC06D6BD
:1030580036C6093DB246130A34005285A29623802B
:103068000600834404008347140083452400A20417
:10307800DD8CEF00E16E639AA40203462400D2853A
:103088004A852380C900EF40F4152545979504002B
:10309800938585D8EF0081700545B250225492542B
:1030A8000259F249624A4561828023800900254518
:1030B80023000900979504009385C5D6EF00016E9B
:1030C8000145E1BF411106C6EFB01017B240AA860C
:1030D800179704001307C7DC171600201306C6103D
:1030E80097950400938545DD114541016F00510115
:1030F800130101D9232291262320212723261126D3
:1031080023248126232E3125232C4125232A5125AA
:1031180023286125232671250347050093071004FA
:103128002A89AE84E310F704034715009307400586
:10313800E31AF702034725009307E005E314F702B3
:103148002E86AA852545EF0081701306D003A68533
:103158004A85EF0071092A84635A05003546A68519
:103168004A85EF0071082A84634405089309D4FF4F
:103178009307100363CE37074E869305390028104E
:10318800EF4054069C04BE99179A0400130A0A07D4
:10319800238409DED28A8149594B83254A002810A5
:1031A800EF00417E0DC18E09D69983D70900554796
:1031B800636FF70017970400130707C98A07BA97C0
:1031C8009C43BA9782878509210AE39869FD9795F8
:1031D80004009385E501DDA89385F4FF818D13052F
:1031E8001400C20581460146C1814A95EF4050123C
:1031F8008320C1260324812683244126032901260E
:103208008329C125032A8125832A4125032B0125EA
:10321800832BC1241301012782801386F4FF018EBA
:103228009305140042064182CA95E808EF0011246C
:103238001305D105EF40247793150501C1811305C6
:10324800D105EF00113197950400938525C8130522
:10325800D105EF00217319CD97950400938585C793
:103268000545EF00A15317250020034575AEEF80F3
:10327800F022BDBF97950400938505C71305D105B6
:10328800EF00417019CD97950400938565C60545F3
:10329800EF00C15017250020034595ABEF80D022E1
:1032A80081BF979504009385A5C51305D105EF0047
:1032B800616D0DC1371700408327C70AA16697952E
:1032C8000400938565C4D58F2326F70A2545EF00AA
:1032D800E14C39BF979504009385C5C31305D10503
:1032E800EF00416A11CD371700408327870AA1668E
:1032F80097950400938585C2D58F2324F70AF9B7DB
:1033080097950400938505C21305D105EF008167E1
:1033180005C1B716004083A7C60C056713070780C9
:10332800D98F23A6F60C97950400938565C079BFBD
:10333800979504009385C5C01305D105EF008164F6
:1033480005C1B716004083A7860C056713070780D9
:10335800D98F23A4F60C97950400938525BFBDB794
:1033680097950400938585BF1305D105EF0081610A
:1033780011CD371700408327870C97950400938554
:10338800A5BE93E707402324F70C89B79795040057
:10339800938545BE1305D105EF00C15E11CD3717E2
:1033A80000408327C70C97950400938565BD93E774
:1033B80007402326F70C19BF97950400938505BD90
:1033C8001305D105EF00015C11C9371700408327A9
:1033D800870C8566D58F2324F70C19BD97950400B3
:1033E800938545BB1305D105EF00C15911C937179E
:1033F80000408327C70C8566D58F2326F70CCDBBE5
:1034080097950400938585B91305D105EF00815779
:1034180011C59727002023AD0794D9BB97950400C1
:10342800938585B81305D105EF00C15501C5EF9007
:10343800404F7DBB979504009385C5B71305D1050B
:10344800EF00415401C5EF9040545DB397950400D7
:10345800938505B71305D105EF00C15201C5EF806B
:10346800F06D79B397950400938545B61305D1059A
:10347800EF00415101C5EF10010B9DBB979504006A
:10348800938545B51305D105EF00C14F01C5EF1070
:10349800A111B9BB97950400938545B41305D105CF
:1034A800EF00414E01C5EFC0F04099B39795040075
:1034B800938545B31305D105EF00C14C01C5EFC095
:1034C800D03F3DB397950400938545B21305D105C8
:1034D800EF00414B01C5EFC0B03E19BB9795040002
:1034E800938585B11305D105EF00C14901C5EFF0FA
:1034F800A073FDB997950400938585B01305D10590
:10350800EF00414801C5EF40A10EDDB197950400D9
:10351800938585AF1305D105EF00C1462DC5130569
:103528009109EF3064502A841305510DAE84EF30B1
:10353800A44F2A8913051111AE89EF30E44E2A8A67
:103548001305D114AE8AEF30244E2A8BAE8B2A880D
:10355800AE885287D6874A86CE862285A685EF20F2
:10356800B04D2AC42EC65AC05EC25288D6884A8731
:10357800CE872286A68697950400938525A925459A
:10358800EF000138B5B197950400938565AA130536
:10359800D105EF00213F11C581450145EF40C11616
:1035A80081B90346D105A547130606FD1376F60F24
:1035B800E3E0C7C497170020A384C77A979504004F
:1035C800938585A7EF00C13325B11386F4FF018EDB
:1035D800130514004206418297A504009385C5F699
:1035E8004A95EF00C14D171400201304A47521C992
:1035F80097950400938585A5E808EF40A439E80865
:10360800EF40643A131605014182EC0817050020C3
:1036180013050535EFB0507D979504009385C5A532
:103628001145EF00A11783570400414593E71700A0
:10363800171700202318F770EF00F15A55BE979519
:103648000400938525A41145EF0041157D55EF0031
:10365800716383570400F99B171700202314F76E32
:1036680041BE8D3471B61386F4FF018E1305140024
:103678004206418297A50400938505ED4A95EF001F
:103688000144171400201304E46B39C18357040064
:10369800979504009385C59FE80893E717001717C7
:1036A80000202311F76AEF40E42EE808EF40A42F2A
:1036B80013160501EC084182170500201305452A59
:1036C800EFB09072979504009385459E114501B11E
:1036D800979504009385459EE808EF40A42BE808D9
:1036E800EF40642C13160501EC08418217050020F1
:1036F80013050527EFB0506F835704009795040012
:103708009385459DF99B17170020231DF7627DBF00
:10371800EFA07060971700209387C762A843EF3027
:10372800E407AE862A86979504009385659B114524
:10373800EF00011D75BCEF80A06E5DBCB71700409F
:1037480083A7470C17A60400130606E013979700F3
:103758006356070017A60400130686DF9795040032
:103768009385C5981145B9BDEFB000319795040010
:103778009385859821FD979504009385E598B9B7B9
:103788003545EFC05008AA84EF3044012A86AE863A
:1037980025459795040093856598EF0061169787EE
:1037A8000400938767728843A685171400201304C2
:1037B800E4BAEF20A4482324A426EFB0203203253E
:1037C8008426EF20B47DAE862A86979504009385DB
:1037D800A595B1BF81451545EF904003EFB0002591
:1037E8002A86979504009385E596ADBF81451145D6
:1037F800EF90C001814513059002EF9020018145AB
:103808000D45EF90A000EFB0C0222ACEEFB02023E4
:10381800F2462A87171600201306069D979504007E
:10382800938545941145EF00A10DD9B217170020D3
:103838000357A7D897160020938666BC1716002052
:103848001306869A9795040093850594E1BF8547EA
:10385800171700202300F7D8EFB0402897950400E9
:103868009385C593A5B5171700200347A7D68547A5
:103878009795040093850593E31AF7E4C5B7854740
:1038880017170020A303F7DAEFB040259795040037
:103898009385059225BD9717002083C717D997955B
:1038A800040093856591E38307E2CDB7971700205D
:1038B80093874749C85FEF20746EAE862A8697952E
:1038C800040093852590A5B56D2E05044A943146CC
:1038D800814517150020130505CC97D0FF1FE780F9
:1038E800803D8144930AA400695AB309944009466B
:1038F800CE85E80897D0FF1FE780603833899A00A3
:103908000946CA854E8597D0FF1FE780403709468C
:10391800EC084A85F91497D0FF1FE7804036E396F4
:1039280044FD1946A285171500201305C5C6EF00EA
:10393800E1268145171500201305E5C57D2A228655
:1039480097950400938545891145EFF0707B0146F2
:10395800970500009385253313056009EF806010F3
:103968006FF01F890146A6854A85EF80F04C6FF0FD
:103978003F887971B1472300F1009307170022D4DB
:10398800A300F10006D62301C1002A848D4715C77C
:1039980081471386370008101376F60F2A96338569
:1039A800F6000345050085072300A6FE13F6F70F6A
:1039B800E311E6FE0D079377F70F81460147850669
:1039C80013F6F60F6368F6041410BE962380E6FE1D
:1039D8001387170014101377F70F3697B54623008F
:1039E800D7FE9386270093F6F60F0A862285EF30D6
:1039F800314ADD47631CF50015459795040093850A
:103A0800E512EFF0B0592285EF309146B2502254BA
:103A1800456182803306D10003460600329713774A
:103A2800F70F71BF85472A86AE8663E1A702131791
:103A38006500938701AFBA97984715454D8F98C78A
:103A4800979504009385450F6FF0906B8280411124
:103A580022C406C683C771AF2A8481C7AA850145D7
:103A6800D13783C771B399C7A2852244B2400545AF
:103A780041014DBFB24022444101828085472A86D8
:103A8800AE8663E3A70213176500938701AFBA9761
:103A9800984793C5F5FF15456D8F98C7979504000E
:103AA800938585976FF0D0658280411122C426C224
:103AB80006C683C771AF2A84938401AF91CB98441B
:103AC8009347F5FFAA85F98F014523ACF1AE7D3701
:103AD80083C771B391CFBC441347F4FFA285224436
:103AE800B2409244F98F23ACF1B20545410179B750
:103AF800B240224492444101828001114EC606CE52
:103B080022CC26CA4AC852C483C971AF638809083F
:103B180083C771B37D54B5EB8549054A93176A008D
:103B2800138401AF3E942E89AA84130600042285CB
:103B3800814597D0FF1FE78000188547A303F4004D
:103B480022851946A68597D0FF1FE780401397174F
:103B580000209387271F9C5B23032401CA855CCC24
:103B68002685EF30B140970700209387277FD297AB
:103B780003C7D72F930760062A846308F700B74561
:103B880057009385F5814E85713D2285F240624448
:103B9800D2444249B249224A05618280014ABDBFE6
:103BA800011122CC93176500138401AF26CA06CEF3
:103BB8004AC84EC63E9483477400AA8495C32A8691
:103BC80097950400938585881545EFF070537D54CB
:103BD8002285F2406244D2444249B249056182805A
:103BE8002E89B28997950400938585882A8615457C
:103BF800EFF01051228513060004814597D0FF1F6E
:103C0800E780600B8547A303F40022851946CA851F
:103C180097D0FF1FE780A006971700209387871289
:103C28009C5B230334014E865CCCCA852685EF3025
:103C380071409707002093876772A69703C7D72F0D
:103C4800930760062A84E305F7F8B7455F00938574
:103C5800F5802685C13BADBF011128001946814575
:103C680006CE97D0FF1FE7800005130600088145A0
:103C7800138501AF97D0FF1FE780E003F24005618D
:103C88008280411106C6EF30B1468145138501AFE8
:103C98001306000897D0FF1FE780E001B240978520
:103CA800040093852579154541016FF070458547D6
:103CB80063E0A70293176500138701AFB306F70007
:103CC80083C67600014591C6B1073305F7008280A7
:103CD80001458280797122D426D24AD006D64ECEAA
:103CE80052CC56CA5AC801449704002093840467EA
:103CF80013096006EF402103636CA400EFF0605ADB
:103D080029C185450145EF4001088545054519A8A4
:103D1800B387840083C7D72F63912703EF40C10976
:103D2800854522852254B25092540259F249624A7A
:103D3800D24A424B45616F40010505041374F40FE4
:103D480055BFEFF000562A8415E197190020938992
:103D580069FF314A978A0400938ACA65178B040061
:103D6800130BCB63EF30317C636CA400B250225448
:103D780092540259F249624AD24A424B45618280C2
:103D8800228535372A892285EF303178AA84630D58
:103D980009063DC99707002083C7877FB5C7B38742
:103DA800470303A60903832609013307D640B377DF
:103DB800F7028DE36300D6022286DA851545EFF017
:103DC800303485452285EF30117C930530022285F9
:103DD800EF40610083D7840185EF81452285EF306C
:103DE800917A83D68401228536C6EF40010103A764
:103DF800090383270901B2462286B307F740D6850F
:103E08002A871545EFF0D02F05041374F40F99BFD6
:103E1800FD17C207C183239CF400E1D39717002044
:103E280083C7D7F6DDFB75BF397106DE22DC26DADB
:103E38004AD84ED652D456D2EF30F16E45C5171730
:103E480000200347778193076006630DF70817176B
:103E58000020034787806307F70883C79186754763
:103E6800636BF7088507A384F1869707002083C74B
:103E78002772ADCB138401AF138901B78544971915
:103E88000020938929EC130AC003978A0400938AB7
:103E98006A5783477400B9C7834704026384970449
:103EA8005C4C03A709031D8F9707002083C7476E43
:103EB800B38747036364F7021305002023009402C5
:103EC800EF00D11A19466C002285EFF0B048700057
:103ED800D6851545230C0100EFF090221304040445
:103EE800E31924FBF2506254D2544259B259225A6F
:103EF800925A21618280978504009385E54D154586
:103F0800A3840186EFF0D01F370510000D05EFF0F0
:103F18001FB4A1BF5D71CAC086C6A2C4A6C24EDEC8
:103F280052DC56DA5AD85ED6170700200347A77224
:103F38008947170900201309694263F8E700170742
:103F48000020230AF770EFA0703983C7818617070E
:103F5800002003474770B3F7E702416A856A138B6D
:103F68008186938901AF7D1A979B0400938B8B966A
:103F7800938A0A802384F18603C5818697070020E7
:103F880083C7676D637DF5061A054E95044599CC80
:103F98008347750081CFEF3031502A8411ED979512
:103FA80004009385E5911545EFF0407F83470B00AA
:103FB80085072384F186C9B783470500A18BFDD700
:103FC8008356C500E38446FF03C68186DE85154512
:103FD800EFF010139397740063D9070497950400C2
:103FE800938585912545EFF0607B014774001306A2
:103FF8003002835524010355C400EFF09F9783C70F
:10400800818617070020034707656305F7008507C2
:104018002384F186B640264496440649F259625AEA
:10402800D25A425BB25B616182809397C40063D7C6
:104038000706930671001306610093079100380084
:10404800930551001305A100EFB090558357A100C7
:1040580013074006979504009385058CB3F7E7028C
:1040680015452306F10083475100A306F100834755
:1040780061002307F10083477100A307F10083471C
:1040880081002308F10083479100A308F100EFF0B5
:10409800E070194774001306800AA1BF93F7140053
:1040A80081CF97950400938565881545EFF0006FDB
:1040B80001477400254635BF93F7240081CF9795B3
:1040C8000400938565881545EFF0406D014774003D
:1040D800194605B79397B40063D80704EFF0601C3E
:1040E800178604001306C60B09E517860400130695
:1040F800E67C979504009385A5861545EFF050005A
:10410800EFF0201A2306A100835524010355C400AB
:10411800054774006146EFF0DF85B705100003C559
:104128008186EFF0BF95E1BD9397840063DF0700B8
:1041380003C6818697950400938585841945EFF019
:10414800207C0147740045466DB593F704108DC770
:1041580097950400938505841545EFF0206403C501
:1041680081861A0550006C004E95EF10400A0347EF
:10417800410074000946B5BD93F704208DC7979593
:104188000400938565821545EFF0406103C581867B
:104198001A0550006C004E95EF1060070347410068
:1041A80074000D46B9B59397940063DD07009795A1
:1041B80004009385E5801545EFF0405E01477400E3
:1041C800494605BD93F7044081CF97950400938530
:1041D80065801545EFF0805C01477400054611BD08
:1041E800B3F7540185C3978504009385E57F15458A
:1041F800EFF0C05A83475923054774002306F1009E
:104208001146C5BB9397340163D50702978504000F
:104218009385457F1545EFF060588357492674000C
:104228001D4613978700A183D98F2316F1000947EC
:10423800C9B39397240163D1070297850400938536
:10424800257E1545EFF080558347492305477400BF
:104258002306F100354671BB9397140163DD07000F
:10426800978504009385057E1545EFF02053054793
:1042780074003946BDBB93F7440081CF978504008D
:104288009385857D1545EFF060510147740015460B
:104298008DB393F7840081CF978504009385457D7E
:1042A8001545EFF0A04F01477400214699B3939745
:1042B800040163DD0700978504009385257D154576
:1042C800EFF0C04D05477400414625B39397F400BD
:1042D80063DB0702978504009385C57C1545EFF0DD
:1042E800E04B9707002083C7E72A03576923230772
:1042F800F100834769312316E1007400A307F10038
:1043080011474D46FDB19397E40063DD070097859B
:1043180004009385E57A1545EFF04048014774009D
:104328005146C1B99397D40063DD0700978504000F
:104338009385C57A1545EFF06046014774005546E8
:104348004DB99397A40063DE070097850400938511
:10435800A57A1545EFF08044014774001306000262
:1043680049B9C188E38404C4978504009385C57A54
:104378002545EFF0A042014774001306700A95B96D
:10438800197186DEA2DCA6DACAD8CED6D2D4D6D2A5
:10439800DAD0DECEE2CCE6CAEAC8EEC602D602D849
:1043A80002DA02DC02DE954763F6C71632C62E89AA
:1043B800EF301119AA84630F05141946938501AFCC
:1043C80097D0FF1FE780A09405446304851619461B
:1043D800938501B3268597D0FF1FE7804093631B21
:1043E800851293176400938901AF3387F9003AC89F
:1043F80093876702BE99C24497070020938707F600
:10440800A2970147B54C171D0020130DAD933ECA66
:10441800178B0400130B0B08330AE90083470A00C3
:10442800B1466393D70EB247930D470063D4FD0E90
:10443800130C17004A9C834B0C00B246930A3700B2
:10444800B3877A0163D2D70CCA9783C70700639DE5
:10445800970B814781463306FA0003461600850705
:1044680093F7F70FB29693F6F60FE3F6FBFEB30752
:104478007A0183C727006399D708B307590103C690
:104488000700978504009385650125453ACC3ECE03
:10449800EFF0004783270D0383C604026247DCCC94
:1044A80085476396F60213050040EF00213C42451C
:1044B80019466C10EFF0006A701097850400938518
:1044C800A5FE1545230C0102EFF0804362472380C7
:1044D8000402B307590183C70700BD46638FD73A63
:1044E80063EFF6101947638CE72E6365F7080947F1
:1044F8006384E7226361F7046385071E05476380C9
:10450800E720DE9A13F7FA0FB24705071377F70F7C
:10451800E364F7F0F6506654D6544659B659265A0D
:10452800965A065BF64B664CD64C464DB64D09611D
:10453800828001447DB511476388E7286379F722B3
:1045480003454A00EF10E46103260B0083264B0065
:10455800EF00A419EF20442FC8C8EF2024242A868E
:10456800AE8615459785040093850501EFF040391F
:10457800914579AA29476389E72E6365F70421479E
:104588006386E72A637BF72883474A0003455A0076
:10459800A2075D8DEF10E45C03260B0083264B0019
:1045A800EF00A414EF20442AC8C4EF20241F2A8651
:1045B800AE8615459785040093850505EFF04034D0
:1045C8008545B9A26389972B63E0FC2C2D47E39AB4
:1045D800E7F2978504009385A5061545EFF0001CC2
:1045E80097850400938585071545EFF0201B116515
:1045F800EF00C12791652285EFF0CFC219B7E146D8
:104608006386D73463EAF606C946638BD73663EC0C
:10461800F60241476386E72A4547E394E7EE978524
:1046280004009385A52222861945EFF0602DEFF04E
:104638004FE5524793076006A30EF72EEFA0004AF6
:10464800B7058000F1A0D146638ED72863E3D72849
:104658005547E398E7EACA9D03C60D00978504000D
:104668009385C50F1545EFF0A02983C70D00B70541
:104678000400A382F40269A8130720026384E738C0
:10468800636AF70213070002638AE72C6362F72E56
:104698006547E398E7E6854717070020A30CF7EE80
:1046A800EFA0C043EF0001711165EF00211CB705B1
:1046B800200091B71307700A638CE7321307800A4A
:1046C800638CE72613073002E39DE7E29785040031
:1046D8009385C51B22861545EFF08022B70500019A
:1046E80005A883474A0003465A0097850400938526
:1046F800E5DCA2075D8E1545EFF0802019B597859A
:104708000400938565DD1545EFF0400993050040E9
:104718002285EFF0AFB6F5B303474A008547631C1F
:10472800F702978504009385A5DC1545EFF000078F
:104738000965EF00A113178504001305E5DBEF20D9
:10474800201E83479D0493050010FD1717070020BE
:10475800A30EF76275BF1545978504009385C5DAE2
:10476800EFF0C00317850400130585DAC9BF0347B6
:104778004A008547631EF70297850400938545DA4A
:104788001545EFF0A001056513050580EF00010E42
:1047980017850400130545D9EF20801883479D0429
:1047A80093050020FD1717070020A301F75E8DB7BA
:1047B800154597850400938565D8EFE0307E178509
:1047C8000400130525D8C9BF97850400938585D8AB
:1047D8001545EFE0B07C85659385058015BF834757
:1047E8004A0003455A00A2075D8DEF10843703265F
:1047F8000B0083264B00EFF0536FEF20E40488C8CA
:10480800EF10D4792A86AE861545978504009385DE
:1048180025D9EFF0E00E8945E5BD9785040093851D
:1048280025DA1545EFE090778565DDB583474A00C1
:1048380003455A00A2075D8DEF10A43203260B0032
:1048480083264B00EFF0736AEF20040088CCEF104A
:10485800F4742A86AE86154597850400938545D855
:10486800EFF0000AA1456DB503464A00978504009C
:10487800938585DB49B5978504009385A5DF1545A4
:10488800EFE0D071896569B5978504009385C5E027
:104898001545EFE0B0709165A5BD97850400938537
:1048A80065E11545EFE0906F97850400938585E2F3
:1048B8001545EFE0B06E2165EFF0507BA16525BB93
:1048C80097850400938545E21545EFE0306DA165B5
:1048D80081B597850400938525E31545EFE0106CB5
:1048E800C1653DB5B308B901930D57001907CA9DB5
:1048F800330CE90003C6080003470C0083C60D000B
:1049080097850400938585E2154546CCEFE0507FF6
:10491800E248B705020083C70800A380F40283C7F2
:104928000D002381F40283470C00A381F40283471E
:104938007A002382F402E9BB97850400938505E495
:104948001545EFE0B065B7050800D9B397850400B1
:10495800938585E41545EFE0B07A65B69785040040
:10496800938545E51545EFE07063B70520004DB325
:10497800978504009385C5E51545EFE0306251B68B
:1049880003460C008547B305B90179161376F60F6F
:10499800631AF60483C6050088489305000013D6F9
:1049A8004600BD8A32CE36CCEF106454E2467246D9
:1049B80097850400938505E409C5978504009385C8
:1049C80025E44E85EF20B476A3870402978504007A
:1049D8009385C5E3CE8622861545EFE07072B7054C
:1049E80040003DB34E8597C0FF1FE7804029F9BFBF
:1049F80097850400938505E322861545EFE05070FE
:104A0800C14539B397850400938505E62286154587
:104A1800EFE0106F37051000EFF05065B7050001A3
:104A2800D9BE411122C421649305048099460146E8
:104A3800254506C697C0FF1FE780C0ED9305048093
:104A48002244B24099461386C1862945410117C3BD
:104A5800FF1F670023EC99E10145828075DD011194
:104A680052C403DA018726CA93548A008504A20433
:104A7800C204C18056C2B38A4441C20A22CC4AC881
:104A88002E862E842A89978504009385A51A2545A4
:104A980093DA0A014EC606CE9389C186EFE05066C6
:104AA80063ED8A0883D5018793F7F50FB1CF8D673A
:104AB80083D5018793870780A2864A86BE952945B4
:104AC80097C0FF1FE78000E51375F50F29ED83D721
:104AD80049001566A2972398F18603D7018783D7E3
:104AE800E1866309F70063F3E700B297998F13969D
:104AF8000701418225459785040093852515EFE038
:104B080030601375F40F0DA08D67938707809306A7
:104B180000100146BE95254597C0FF1FE78080DF3E
:104B28001375F50F49D50145F2406244D244424914
:104B3800B249224A924A05618280B3079440D297CB
:104B4800C207C183A18303C74900850793F7F70FFD
:104B58009396870011EB9386170093740AF0A206C8
:104B6800C204C206C180C18283D7E18663F6F4001D
:104B780033879600E3C9E7FA0D6A130A0A800146EB
:104B8800B3854401254597C0FF1FE780A0D813755A
:104B9800F50F51F983D50187A2864A86D29505B7C4
:104BA800411122C41384C18622858145194606C64F
:104BB80097C0FF1FE78020109307B0FA2300F40086
:104BC8008D352244B24097850400938525FF2545FD
:104BD80041016FE0B03CA165411199461386C18639
:104BE800938505802D4506C697C0FF1FE78080D2B4
:104BF80003C7C1869307B00A6303F7005537B2406D
:104C080083D6018703D6E186978504009385C5FB83
:104C1800254541016FE0D04E83D701B70145638C2C
:104C2800071003D521B76366F50023A801B601452F
:104C380082803385A740D1473355F5021375F50FA8
:104C480001E5239801B68280130101BD2324814226
:104C5800232611422322914223202143232E31412E
:104C6800232C4141232A514195471374F50F63F3CF
:104C7800A70015442286978504009385E5FE2545FF
:104C8800EFE0104801498144938941B7514AA14A4C
:104C98009377F90F03D521B7170700200347A78299
:104CA80063E98704D1473304F4022A94239981B62F
:104CB800A147631CF706A6850808EF60802E03D776
:104CC80021B783D701B705456364F70023A801B668
:104CD8008320C142032481428324414203290142A3
:104CE8008329C141032A8141832A41411301014398
:104CF8008280B30749031408AA97CE973385960094
:104D0800631E5701BE85EF6040492317A1008357F2
:104D1800E1000509BE94C204C1809DBFAA8513069F
:104D2800E1003E85EFC0A017DDB726860C080145D7
:104D3800EF90A06869B78280011106CE22CC26CAFE
:104D48004AC84EC652C499E901442285F2406244D9
:104D5800D2444249B249224A05618280AA896DD566
:104D680083D7018703D6E1862E849564638AC700BA
:104D78006374F60015673A961D8E93140601C18078
:104D8800268697850400938565E02545EFE0503732
:104D9800938714F06356F4009307F00F63EA9700C3
:104DA80097850400938505E02545EFE0703569BFD8
:104DB80083D40187B3878400156A6349FA00A28502
:104DC8004E85EFF05FC9EFF0DFC541B715693309CC
:104DD8009940420913590901CA854E85EFF0BFC7AA
:104DE80009E583D70187E39147F7ED75A695A29565
:104DF800C20523980186C18133852901D9B783D695
:104E080001B781EA97850400938545E025456FE061
:104E1800F01803D621B74111918E97850400938528
:104E2800E5DF254506C6EFE0B02D138701B78355AA
:104E3800070083D721B7138541B79D8DC2053E95DD
:104E4800C181DD3DB24023A801B6410182804111F4
:104E580083D701B722C426C206C6AE971307401FE0
:104E6800AA842E84635AF700593F978504009385D6
:104E7800A5D72545EFE0901283D701B7138541B731
:104E88002286A6853E95EF10543D03D601B722969B
:104E980042062244B240924441822398C1B6978583
:104EA80004009385E5D5254541016FE07025011182
:104EB80026CA06CE22CC4AC84EC652C456C281441F
:104EC80059C1D1C183D7E18603D40187638D870691
:104ED80063F587081D8C42044180AE892A892286A1
:104EE80097850400938505C70145EFE07021A284EA
:104EF80063F38900CE84C2040D6A83D7E18603D7A1
:104F08000187C180938AC186130A0A8063FAE7047D
:104F1800A6864A86B38547012D4597C0FF1FE780BF
:104F2800609F83D72A00A6972397F186EFF07FAF7B
:104F380083D6018703D6E186978504009385C5C289
:104F48002545EFE0F01BF240624426854249D244F1
:104F5800B249224A924A0561828015673A949DBFF8
:104F680015671D8FB385470163D5E400A6864A8679
:104F780065B79569B389F9406D743E94C20993D9B0
:104F880009012694CE864A8642042D4597C0FF1F04
:104F9800E78040984180A28633063901D2852D45A5
:104FA8002397018697C0FF1FE780C09683D72A0002
:104FB8003E94239781869DBF397106DE22DC26DA6E
:104FC8004AD84ED652D456D25AD05ECE62CCE9C90F
:104FD800328455CA368CE9C6BA8B79C32A89AE8A17
:104FE8002300AC0085448149114B33063441635397
:104FF800CB001146137AF60F5286B3853A01480062
:1050080002C2EF109425034751008347610003460D
:105018007100834641004A97CA974A96050789074F
:105028000D06CA962307E100A306F100A307D100E5
:105038002306C1007800814703460700B306F9003C
:105048008507B18E2300D70093F7F70F0507E3957F
:1050580067FF8357C1000357E100D29933059C00CD
:10506800B98F2316F100B24711462C00910493F929
:10507800F90F3EC493F4F40FEF10341EE3E789F6FA
:1050880023809B0005442285F2506254D254425931
:10509800B259225A925A025BF24B624C21618280C9
:1050A8000144D5B71D7186CEA2CCA6CACAC8CEC641
:1050B800D2C4D6C2DAC05EDE62DC66DA6AD86ED6E0
:1050C8007DC52E84E9C532897DC2368CEDC2834DFB
:1050D8000500AA84814C054D9149138A3D00938AA5
:1050E8001D00138B2D00930B00103306A44163D3CE
:1050F800C90011469377F60F3E86B385A401480888
:105108003EC602CAEF107415834661010347410188
:105118000346710183475101358F230AE100B18F9E
:1051280033C7ED00B346DB00A30AF1003346CA00DB
:10513800B3C7FA00A30FE100A30ED100230EC100EC
:10514800230FF1007408014783C706003386ED007A
:10515800050793870710918FB3E777038506A38F19
:10516800F6FEE31337FFF2473305990111462C0881
:105178003ECCEF10940EB247910C93FCFC0F3E9D71
:10518800137DFD0FE3638DF623009C010544228502
:10519800F6406644D6444649B649264A964A064BDE
:1051A800F25B625CD25C425DB25D25618280014443
:1051B800F9BF39719307400622DC33F4F50226DA89
:1051C80013077100B684740806DEB377F602330459
:1051D800F402B387C5003E9493978500A181DD8DC5
:1051E8009317860021825D8E2314B1002315C10018
:1051F8002C001146EFF05FDC89C483457100680814
:1052080082942285F2506254D25421618280317195
:1052180022DD26DB4AD99307110118082A842E8932
:10522800B2849306F1001306E1009305D10013053B
:10523800210106DFEFA0D036814719473306F40075
:1052480003460600B400BE962380C6008507E39790
:10525800E7FE8357210113074006B3F7E702230748
:10526800F1048347D100A307F1048347E100230831
:10527800F1048347F100A308F104834701012309DE
:10528800F1049307A0FAA309F104EF20A4577800CA
:10529800F418AC0031461375F50FEFF0FFD14C0848
:1052A80022851946EFE0100B500897850400938576
:1052B800E59C254523000102EFE080640346C10018
:1052C8004C08E818EFE010098346C1001819500887
:1052D80093971600BA97978504009385E59A254514
:1052E800238207F6EFE0C061034801018347F1001C
:1052F8000347E1008346D10003562101954897856D
:1053080004009385A5992545EFE0805F0344C1001B
:10531800EC184A852286EF104474FA5023808400E2
:105328006A54DA544A592961828097850400938522
:10533800659A130510026F70604D7971AA8568002F
:1053480006D602C602C802CA02CC02CEEF20846486
:105358006C0013058004EF70604BB2504561828089
:105368007971AA85680006D602C602C802CA02CCAC
:1053780002CEEF2024626C0013054002EF70004952
:10538800B250456182801D71A2CCA6CACAC83284B7
:10539800AA842E89130620038145680886CE36C65E
:1053A800EFD0EFACB2462287268697850400938516
:1053B800A5966808EF20A4576C0813052002EF7023
:1053C800E044A285130620024A85EF70E026A286F3
:1053D800268697850400938525951945EFE0405268
:1053E800F6406644D6444649256182805D71A2C470
:1053F800A6C2CAC02A842E89B28481451306200316
:10540800680086C6EFD0AFA62687CA86228697850B
:1054180004009385658C6800EF2064516C001305C7
:105428003002EF70A03E4A87A68622869785040040
:105438009385858B1945EFE0A04CB64026449644E9
:105448000649616182809387811A0547238CE700AA
:1054580018411045544598C30357450090C7D4C711
:10546800104954492392E70090CBD4CB239DB70031
:10547800828018419387811C104598C303574500C3
:10548800544590C72392E70058551049D4C754494A
:1054980098CF978504009385A5970547254590CB18
:1054A800D4CB238EE7006FE0602F397126DA4AD813
:1054B8004ED652D456D25AD006DE22DC62CE66CC04
:1054C8002A89EF20444E9374F50F8149254BE54A0C
:1054D800178A0400130A0A8A91ECF25062544E8526
:1054E800D2544259B259225A925A025B724CE24C37
:1054F8002161828003470900930707FD93F7F70F9F
:10550800637CFB009307F7F993F7F70F63E2FA065A
:10551800930797FA93F7F70F139487016184FD14A3
:10552800230089002685EF00C4632A86AE860325FA
:105538000A0083254A0093F4F40F0509EF5021155A
:105548002AC422852EC6EF00C4612246B246EFF077
:10555800F3112A8C4E85AE8CEF00C4672A86AE867E
:105568006285E685EFE07325EF00E459AA89ADB7B7
:105578009306F7FB93F6F60F8147E3EFDAF8930704
:1055880097FC49BF411122C406C6830795022A84A5
:1055980099C713059502EF1084492381A116830743
:1055A800D41291CB1305D412EF100448EF10C4297C
:1055B80093870113C8D3B24022444101828001116C
:1055C80026CA9304150022CC978504009385458844
:1055D8002A84268506CE4AC84EC6EFE0A042631E3E
:1055E8000510978504009385E5862685EFE08041C0
:1055F8006302050E85448307D4036386070C1305ED
:105608009402EF10C44285491379F50F1305D403AA
:105618006387340F8947638CF418EF104441A382E1
:10562800A116631A390179468145138571182389B2
:105638000186EFD0CF838307D40885C31305D40828
:10564800EF10E43E03C72187930717002389F186EB
:1056580093870113BA97A38BA7048307D40D85C337
:105668001305D40DEF10A43C03C721879307170037
:105678002389F18693870113BA97A38BA70483071D
:10568800D41285C31305D412EF10643A03C72187D7
:10569800930717002389F18693870113BA97A38B81
:1056A800A7048307D41785C31305D417EF1024382C
:1056B80003C72187930717002389F186938701136E
:1056C800BA97A38BA704F2406244D2444249B24934
:1056D8000561828097750400938505782685EFE03B
:1056E8006032E31905F026859775040093850577E0
:1056F800EFE040318944E31005F08144EDBDEF103F
:1057080004332383A116631A9900794681451385CA
:10571800911623890186EFC09FF58307D40885C3B6
:105728001305D408EF10A43003C721879307170087
:105738002389F18693870113BA97A38CA70283075D
:10574800D40D85C31305D40DEF10642E03C721872C
:10575800930717002389F18693870113BA97A38CBF
:10576800A7028307D41285C31305D412EF10242C83
:1057780003C72187930717002389F18693870113AD
:10578800BA97A38CA7028307D417E38E07F21305F1
:10579800D417EF10C42903C721879307170023895B
:1057A800F18693870113BA97A38CA70229BFEF103C
:1057B8000428A383A11601BF411122C406C683078A
:1057C80095072A8499C713059507EF104426A381E6
:1057D800A1168307D40899C71305D408EF10242508
:1057E8002382A1168307540B91CB1305540BEF109A
:1057F800A423EF1064059387011388D7B24022448D
:1058080041018280411122C426C206C683071505BC
:105818008144014499C703444505130404FD1374E6
:10582800F40F8307550699C713055506EF10242072
:105838009374F50F2286A6869775040093850563F1
:105848002545EFE0E00B1374B40F8D47631FF40098
:105858009D4763FC970097F7FF1F83C7C74E93E7E1
:10586800470017F7FF1F2300F74EB2402244924427
:1058780041018280011126CA8146B284014652C480
:1058880056C206CE22CC4AC84EC62A8AAE8AEFF045
:10589800034141CD9307E0046386F4009307300584
:1058A8006395F408977904009389495803A6090079
:1058B80083A649005285D685EFF0435B379498005C
:1058C800EF006424130404682A8933758502EF0005
:1058D800643003A6090083A64900EFE013619777B7
:1058E8000400938727559043D443EFE013602A8A36
:1058F80033558902AE8AEF00E42D2A86AE8652859A
:10590800D685EFE0836B13073005AE876395E40017
:10591800B7070080AD8FF2406244D2444249B24991
:10592800224A924ABE850561828001458147E5B7D2
:10593800011126CA8146B284014652C456C206CE17
:1059480022CC4AC84EC62A8AAE8AEFF0433541CDEA
:10595800930750046386F400930770056395F40871
:10596800977904009389894C03A6090083A6490006
:105978005285D685EFF0834F37949800EF00A4182E
:10598800130404682A8933758502EF00A42403A64A
:10599800090083A64900EFE05355977704009387E1
:1059A80067499043D443EFE053542A8A3355890218
:1059B800AE8AEF0024222A86AE865285D685EFE08D
:1059C800C35F13077005AE876395E400B7070080CF
:1059D800AD8FF2406244D2444249B249224A924AC7
:1059E800BE850561828001458147E5B7135785006B
:1059F8009357050113D885009376F50F0111137796
:105A0800F70F93F7F70F618593F5F50F1378F80FF4
:105A180099C211C3B9E3230CD100A30CE100230DF3
:105A2800F100A30DA10003459101834781010347BC
:105A3800A1012205A30E01014207C98F230EB1005F
:105A48000345B101D98F0347D1018345C1016205DF
:105A580022075D8DD98D0561828032951375F50F0A
:105A680013138501135383415D46635766086146E6
:105A78003363C30285071376D70F114593F7F70FE2
:105A88006305A6002545631AA6007946637FF602DA
:105A980005071377F70F85470DA809466312C70452
:105AA8001386067D93084006B368160363850800CD
:105AB80013F5360011C5130500193366A60219EE51
:105AC80075466374F60085470D47230CD100A30C77
