:040000006F2000333A
:100004000000000000000000900000201E050020F9
:10001400A9BDF9F5940000200000000000000000D4
:10002400960000209800002000000000000000005E
:100034009A000020000000009C0000200000000046
:100044009E0000201A0300206A030020A400002060
:10005400A6000020A8000020AA000020AC00002078
:10006400AE000020B0000020C60000205A0100208D
:100074009A050020B8000020BA000020BC0000202F
:10008400BE000020EE01002082020020C4000020F7
:1000940001A001A001A001A001A001A001A001A054
:1000A40001A001A001A001A001A001A001A001A044
:1000B40001A001A001A001A001A001A001A001A034
:1000C40001A001A001A037370040834747009946AB
:1000D4004111BD8B638CD70231476384E706114716
:1000E400639EE702A3030100174600000346864D02
:1000F40037370040834771006315F6022C001385DF
:10010400817C97E000E0E78000D809A88347570086
:1001140093F7F70F2304F100834781004101730033
:10012400203083477100834687000C08AE97238CE8
:10013400D7FE83477100850793F7F70FA303F100F8
:1001440055BF2800975001E0E780C0C11375F50F33
:10015400A303A1000346710055B737370040834716
:10016400474099464111BD8B638CD7023147638464
:10017400E7061147639EE702A30301001746000048
:100184000346664437370040834771006315F6021F
:100194002C001385C17D97E000E0E780C0CE09A85C
:1001A4008347574093F7F70F2304F10083478100F7
:1001B40041017300203083477100834687400C0857
:1001C400AE97238CD7FE83477100850793F7F70F0B
:1001D400A303F10055BF2800975001E0E78040CA0F
:1001E4001375F50FA303A1000346710055B73747F4
:1001F40000408347478099464111BD8B638CD702E9
:1002040031476384E7061147639EE702A3030100B5
:10021400174600000346163B3747004083477100EA
:100224006315F6022C001385017F97E000E0E78058
:1002340080C509A88347578093F7F70F2304F1007B
:100244008347810041017300203083477100834656
:1002540087800C08AE97238CD7FE834771008507EF
:1002640093F7F70FA303F10055BF2800975001E05F
:10027400E780C0D21375F50FA303A10003467100F4
:1002840055B737470040834747C099464111BD8B56
:10029400638ED70231476386E70611476390E7040C
:1002A400A3030100174600000346A6523747004047
:1002B400834771006317F6022C00173500001305FD
:1002C400253F97E000E0E78000BC09A8834757C0BA
:1002D40093F7F70F2304F100834781004101730072
:1002E400203083477100834687C00C08AE97238C67
:1002F400D7FE83477100850793F7F70FA303F10037
:1003040045BF2800975001E0E78000DB1375F50F27
:10031400A303A1000346710045B7411126C4B714D5
:10032400004022C603D4C409420441809317140137
:1003340063DB0700BD450145973001E0E780C0015C
:100344009167239EF4081374041019C8973001E0D0
:10035400E780E0EFB717004013070010239EE7087B
:100364003244A24441017300203073002030B71797
:100374000040930670052380D704130780FA238076
:10038400E7040100010003C6B7041376F60DA38544
:10039400C70423800704137605024DC203C6A700D1
:1003A400118A1DE22380D7042380E70401000100A1
:1003B40003C7A700136747002385E7009307004B93
:1003C40001000100FD17EDFFB7170040930670050B
:1003D4002380D704130780FA2380E7040100010077
:1003E4007D892394A70001000100010001002380FE
:1003F40007042380D7042380E704010001000100DF
:1004040001003727004093061005A303D7802380FB
:100414000704B7170040130770052380E704130788
:1004240080FA2380E7040100010003C7B7041367BF
:100434000708A385E7042380070482801376050454
:1004440041C603C6A700418A1DE22380D704238046
:10045400E7040100010003C7A70013670701238510
:10046400E7009307007D01000100FD17EDFFB717BA
:100474000040930670052380D704130780FA238075
:10048400E704010001001376F501136606042394C2
:10049400C70001000100010001002380070423803C
:1004A400D704130660042380E7046318C500010021
:1004B400010037270040894689BF01000100372722
:1004C40000409306200591B72380D7042380E704D6
:1004D4000100010003D787001367070C2394E7008A
:1004E4000DBF4111814601468145114506C6492A81
:1004F400B7170040130770052380E704130780FA39
:100504002380E7040100010003C767041367170091
:100514002383E70423800704B2404101828081469B
:10052400014681451145A92AB71700409306700575
:100534002380D704130780FA2380E7040100010015
:100544007D562396C7022380D7042380E704010045
:10055400010003C76704136717002383E70423809C
:10056400070401A0BD473305F50201007D1575FDA3
:100574008280411122C426C206C6AA84014463179C
:100584009400B24022449244410182800504130540
:10059400803E4204C13F4180DDB7B71700401307D6
:1005A40000032388E7028547174700002322F73812
:1005B40073002030411106C6A52D97F000E0E780B6
:1005C4000098DDBF2303048015472303E480010062
:1005D4002302A480828083076480E3CE07FE230382
:1005E4000480828083076480E3CE07FE0345448051
:1005F400828083076480E3CE07FE2302A480828086
:10060400411126C44AC24EC006C61377F50BAD4746
:10061400AA892E8995446306F70019456537653F15
:100624008D444E854537FD59FD1463983401B2401D
:10063400A24412498249410182801355090113756C
:10064400F50F453F2209CDB7011126CC06CEB704DC
:10065400080051371545BD37713769372AC6A53F9C
:1006640032459377150089EB136515001375F50F63
:10067400F240E24405618280FD14E9FC0145CDBFEE
:10068400397126DC4ADA4ED852D656D45AD25ED0C4
:1006940006DE62CE66CCB7E700E07D5783AA07008A
:1006A40022C603AA470023A0E71823A2E718B71716
:1006B4000040130770052380E704130780FA2380A2
:1006C400E70483C74704930B75FFB684E20793FBE3
:1006D400FB0F8546AA892E8B328937240040E18797
:1006E400015763FA76016308D500894613070002AF
:1006F4006313D5000157D98F93F7F70FB71C004048
:100704002382FC0411472303E4801305F00F5D3DAD
:10071400094CD135636D7C11B7050700DA9537872D
:100724000700795563F2E504B3879500636EF70219
:10073400370B0800A94733EB65016399F90689E48F
:100744008144513D26850DA0DA850945553D0509AD
:100754000345F9FFFD14050B693D81C49377FB0F35
:10076400FDF7DD3569FD7D55B717004013077005AA
:100774002380E704130780FA2380E70403C74704B0
:10078400418B2382E704F250B7E700E023A057111E
:1007940023A24711E25432445259C259325AA25A3E
:1007A400125B825B724CE24C21618280A5476395A7
:1007B400F90685691309F00FB3069900B3742B0188
:1007C400B6941349F9FFB3749900856B33796901C1
:1007D400416B9387F9FFB3F7270199E363FC340175
:1007E40093D94900C147E3E637FF99BF0569C16959
:1007F4007D19D9B71305800D6388690113050002BB
:100804006384790113051008CA85DD3B353D21DD7C
:100814004E99B3843441D9B7DA852D45D533CA947A
:10082400E30099F205097D3BA30FA9FED5BF938789
:10083400F9FF93F7F70F6361FC0C83C71C041307DC
:100844003008631FF70437070800636BEB04B30732
:100854009B00B706100063F5D704334BEB008947C0
:100864006393F9068980D549E38C04ECDA8509455C
:10087400413B11090327C9FF91472320E480030763
:100884006480E34E07FE23033481FD17EDFBFD1462
:10089400110B81C49377FB0FE9FF7D3371F5E1B54B
:1008A400B717004003C75704B707080013770702B8
:1008B40019E3B78707007955E378FBEA33079B0010
:1008C400E3FFE7F855B58547E382F9F2DA852D456C
:1008D400053B9389F4FFE38504E6293393F7390054
:1008E40091EB832604800327090093074900E39AC8
:1008F400E6E43E89CE84F1BFB5476396F90013055B
:10090400900BC93135BDB1471305B00AE38BF9FE2D
:1009140099476391F904B7050800B365BB002D45F9
:10092400C53181448D4BA149753963967401832780
:1009340004802320F9008504E39834FF832704808E
:1009440013172B01635507002312F900D5BB23228B
:10095400F900FDB39D476399F90281451305B0047D
:100964004531BD442320090023220900FD599D3946
:1009740093F77400CA9703C70700FD14398D2380C9
:10098400A700E39634FF6DBBA1476392F9046D3968
:100994008144630D0B008D479304C0036308FB007F
:1009A4009304000563048B01930440041375C50785
:1009B400E30895D81945393139390545213126855A
:1009C4000D3909453D314931E31C05D669BB9147D1
:1009D4006399F90013056006F536F53E1305900991
:1009E4000DB7E38F09D4F154A9BB19CD91CD09CE2C
:1009F40081473387F500834607003307F5008507F1
:100A04002300D700E317F6FE828019C991C909CAE9
:100A1400910583A7C5FF11057D16232EF5FEC5BFDD
:100A2400828001C919C62A960505A30FB5FEE31DE8
:100A3400A6FE828081473307F5000307070019E308
:100A44003E8582808507C5BF01112E8626CAAA84E9
:100A5400131506019305F004418122CC06CE32C65B
:100A6400EF1080632A8401C53246A685BD3F2285E6
:100A7400F2406244D24405618280854715C18DC12C
:100A840005C28147B306F5003387F50083C6060027
:100A9400034707006398E6008507E315F6FE8547DC
:100AA4003E8582808147EDBF9307F6FFBE952A9667
:100AB4006313C5008280FD1583C715000505A30FC8
:100AC400F5FEFDB7AA87014581CF09CE3E9685077D
:100AD40003C7F7FF6317B700E39BC7FE0545828092
:100AE4008280014582807971975700009387076D52
:100AF40022D4804306D626D24AD04ECE52CC56CAF1
:100B04005AC85EC662C45DCC37C9C901814B175A45
:100B14000000130A2A6F975400009384646A13092F
:100B2400F937975A0000938A2A64B709C0A8370B8B
:100B340040578357240095E35C44639D0B0017578B
:100B44000000232DF766032CC4002285EF10E0611A
:100B5400628499A823A6FB00FDB783270A00829725
:100B6400838664011C4463DB06063307F540636730
:100B7400E9089757000023A1076083552400034523
:100B8400040097A001E0E78060E05C405844A9CFEE
:100B94001444B6978386640163C5060063E3370192
:100BA400DA971CC4A28B3A8449F4975700009387C0
:100BB400A75B9C4B09476378F706F91717570000A2
:100BC400232CF75AB250225492540259F249624AE1
:100BD400D24A424BB24B224C45618280E377F5F80E
:100BE4003387F9402A9761B763970B009757000042
:100BF40023A6E75C89BF23A6EB00B1B7D85009CF81
:100C040063DF06003385A74083A70A016376F500F6
:100C14009757000023A2A756A28B404471B7E3F371
:100C2400A7FECE97C5B79757000023A7075459BF0F
:100C3400411122C417540000130404561C4006C674
:100C440026C24AC091C782979757000023A607542B
:100C54005C4091C382971C406391071C9757000026
:100C640083C71772858B9DC797570000A38A0770A7
:100C7400175700000347F770954763FDE700EF003F
:100C840050419757000083C7D76FF5178A07A2977B
:100C94009C43829717590000130949728347C9007E
:100CA400918B99C3EF10A0321C4491C3829797543F
:100CB4000000938464509840175600000346D64AB7
:100CC4009757000083C7474A93961700BA9683D66E
:100CD4000600D5CA9757000083C7074963EFC70AC0
:100CE40097570000238207481C40639807129757C0
:100CF400000083C7376991CF9757000083C777688F
:100D040089EB97570000A38F0766974003E0E780BD
:100D140000B8975700009387E74E9C43638F070EF4
:100D2400B707C0A8175700002328F7446D3B97570F
:100D340000009387E748DC53EDC3175700001307FF
:100D4400A742184B9757000083C7D7486367F70C2F
:100D5400175700000347F762954763E0E70C8347A2
:100D6400C900918BDDEB90409756000083C6D63FB7
:100D740063CBD70A2244B24092440249410117A3EB
:100D840001E06700C39D850793F7F70F97560000AE
:100D9400238CF63CE3E6C7F235BF86073E978355BE
:100DA4000700231007009757000023950740975723
:100DB40000009387273E9C43175500000345C53A1E
:100DC40013172500BA979C4382979757000083D73F
:100DD400673E175700000347273993C7F7FF7D8DF8
:100DE4009317170098403E97835707005D8D231093
:100DF400A7009757000083C7273791C78507175760
:100E040000002303F736175700000347E7359757C9
:100E1400000083C77735E375F7ECB240224492446F
:100E24000249410182801397170032970357070044
:100E34006DF7850735BFAD6737C70040BD0723266B
:100E4400F7200F100000975700009387E731C84F31
:100E540083278726BD66BD0693C7F7FF99836A0576
:100E64002326D7205D8D82804111B7170040985FFB
:100E74003AC6945F3247E39CE6FE324541018280E4
:100E840082800327851163000712411122C406C61C
:100E94008347C5008345C5042A8493F7C70F2306F7
:100EA400F500834697000356C700139586016185B4
:100EB40063F1C508635A05060345870093F6F607F0
:100EC400A304D700054693E627006314C50093E600
:100ED40017002306D4005C4389075CC3A30AB4004B
:100EE400032504112E864C430905013683278411FA
:100EF40003465401D44303D7C700B296118FD4C319
:100F04002396E7008947A30DF4000347440397574A
:100F1400000083C7072C6378F7048347C40093E772
:100F240007012306F40081A093E717002306F400C9
:100F340075B79376F60F635D050203458700854513
:100F440013E627006314B50013E617002306C40054
:100F5400A30AD400A30407008547A30DF400832744
:100F640084119C43DDF3B240224401454101828057
:100F740093E717002306F400A30AD400A304070090
:100F8400032504114C4309058D348327841103463A
:100F94005401D44303D7C700B296118FD4C3239608
:100FA400E7008D475DBF0545828097570000938712
:100FB400673B9C43411122C406C6858B2A84C5EF36
:100FC4004165130525F597B002E0E78040B345C5B8
:100FD4008347A5002315F50083270412BDE72320CA
:100FE400A4122322A41285472310F404232005000D
:100FF4008347640154412316F5000347D4002304B6
:10100400E5000547A304E500175700001307073759
:10101400184F1385170215811C437D151375F50FA1
:101024009CC25C43DCC21C479CC65C47DCC61C4BB0
:101034009CCA5C4BDCCA1C4F9CCE5C4FDCCE19CDE9
:101044009386060213070702C1BF8327441288C38D
:10105400835704042322A412850779B79757000005
:1010640083D7473F8507175700002315F73EB24043
:101074002244410182808347C400230904000545BA
:1010840093C747002306F400DDB78347850193F730
:10109400E70FD5EF83479501DDEB03462501834632
:1010A400C50009CA83454503175700000347771253
:1010B40063E7E50013F7060141CF014709C6C18A7A
:1010C4000357651C81C68356A51C369751C3130765
:1010D400C712175500000355A50BB335A7023746B1
:1010E4000F00411113060624814622C426C206C6F7
:1010F4007D543305A702970004E0E78060DA975730
:10110400000083C7770DB384A70097570000938727
:10111400E73303A707098327070963F387003E849E
:10112400184375FB975700009387C70D9C4382971C
:1011340081476364A400B307A440B2402244B3B718
:10114400970093C7170092443E85410182808147EE
:101154003E858280797126D206D622D44AD04ECEDC
:1011640052CC56CA5AC85EC6834735030344751326
:10117400AA843E941374F40F9307400263F6870025
:101184001304B4FD1374F40F03AA841383AAC413C1
:10119400A38B841222865285D685970004E0E780CB
:1011A400A0CA058915E503CBD41201498149337BD3
:1011B4006403930B50024A865285D685970004E057
:1011C400E78080C8058915C5639169031374F90F15
:1011D400238B8412B250225492540259F249624A27
:1011E400D24A424BB24B456182808509E20993D9C8
:1011F40089410509E31179FDE1BF83278509035678
:10120400E503797193D60701BD8EC206C182358E7E
:101214001357764093575640898B058B5D8F9357B0
:101224003640918B5D8F93571640A18B5D8F93173A
:101234001600C18B5D8F9317360093F707025D8FFD
:10124400931756009355860093F707041E065D8F87
:101254001376F60F518F93D7554013D63540118A24
:10126400898BD18F13D67540D18F13D61540218A1F
:10127400D18F13961500418AD18F139635001376BA
:101284000602D18F13965500137606049E05D18F5E
:1012940093F5F50FCD8FA20745465D8F3307C7023F
:1012A40022D42A8426D252CC56CA032A8413832AEF
:1012B400C4135AC806D636974207418393577740DA
:1012C400135557400989858BC98F135537401189A8
:1012D400C98F135517402189C98F131517004189E8
:1012E400C98F1315370013750502C98F13155700DD
:1012F40093558700137505041E07C98F1377F70FDD
:10130400D98F13D5354013D755401189098B498F8F
:1013140013D57540498F13D515402189498F1395ED
:1013240015004189498F1395350013750502498FBE
:1013340013955500137505049E05498F93F5F50F14
:101344004D8F2207D98FB387C7024AD04ECE5EC6CF
:1013540062C4B697C207C18313D7774013D55740E9
:101364000989058B498F13D537401189498F13D5C6
:1013740017402189498F139517004189498F139587
:10138400370013750502498F1395570093D58700CD
:10139400137505049E07498F93F7F70FD98F13D55B
:1013A400354013D755401189098B498F13D57540A2
:1013B400498F13D515402189498F1395150041890B
:1013C400498F1395350013750502498F1395550000
:1013D400137505049E05498F93F5F50F4D8F22076C
:1013E400D98FB387C702130650025285D685B697A4
:1013F400BD8E93940601C18033F6C402137BF60FAD
:10140400970004E0E78040A405890DED8347D412DA
:1014140001498149B3849702130C5002C1804A8662
:101424005285D685970004E0E78000A20589937B66
:10143400F90F11C563863403850993F9F90F05097A
:10144400E31F89FD230B6413B250225492540259B2
:10145400F249624AD24A424BB24B224C45618280E5
:101464005E8BCDB7011122CC604126CA4AC84EC654
:1014740052C406CEAA841D4A130965058549BC4495
:101484006364F400054581A803C7D400834744007E
:10149400631B470503C784026304F7000040C5B714
:1014A4000347540083C75405E31AF7FE1946CA8557
:1014B40013056400EFF06FDCE31235FF0347C4004B
:1014C40083C79402E31CF7FC0357E40083D7A40208
:1014D400E316F7FC0145F2406244D2444249B24962
:1014E400224A05618280E31BF7FA0347540083C74D
:1014F4005405E315F7FA1946CA8513056400EFF09D
:10150400CFD7E31D35F9F9B7011197570000938739
:10151400E7F322CC03A4470B26CA06CE2AC42EC660
:10152400854419E40145F2406244D2440561828055
:101534008347910003471400858B6304F70000443C
:10154400CDB719469305A10013052400EFF0EFD29F
:10155400E31795FE0545C1BF011122CC17540000C5
:10156400130484E318402AC62EC432C206CE3C4B70
:1015740093F7F7F73CCB973003E0E780002E184051
:1015840097560000938686DE3C4B93E707083CCBD6
:101594009C423245A24523A0070003471500034897
:1015A4002500220742084297034805004297034852
:1015B40035006208429798D70347550003486500F1
:1015C40022074208429703484500429703487500A2
:1015D40062084297D8D7034795000348A50022071D
:1015E400420842970348850042970348B5006208C1
:1015F400429798DB0347D5000348E50022074208D9
:1016040042970348C5000345F500429762052A97AF
:10161400D8DB03C7150003C52500220742052A9716
:1016240003C505002A9703C5350062052A9798CF9C
:1016340003C7550003C56500220742052A9703C561
:1016440045002A9703C5750062052A97D8CF03C7BA
:10165400950003C5A500220742052A9703C5850006
:101664002A9703C5B50062052A9798D303C7D50006
:1016740003C5E500220742052A9703C5C50083C5B3
:10168400F5002A97E2052E97D8D3D843759BD8C383
:10169400D84313671700D8C398431367170098C338
:1016A400124698425C43858BD1E71C4F01452300C9
:1016B400F6009C429C4FA183A300F6009C429C4FE1
:1016C400C1832301F6009C429C4FE183A301F600F1
:1016D4009C42D84F2302E600D84F2183A302E600A0
:1016E400D84F41832303E600D84F6183A303E60068
:1016F40098532304E60098532183A304E6009853E7
:1017040041832305E60098536183A305E600D8537B
:101714002306E600D8532183A306E600D853418369
:101724002307E600DC53E183A307F600F24062449A
:10173400056182800100B5B717570000130747C33E
:101744001443411122C49C5E4AC006C6998326C232
:10175400858B3A8417590000130949C1D1CB9C5E8B
:1017640097540000938484C193F7F7F99CDE1757CC
:101774000000034707C193070008631BF700832792
:1017840009009C4393F7070417570000230BF7BE87
:1017940083C7040093F707049DC3975700009387FA
:1017A40067A69C4382979757000023A1A7BE83C7CF
:1017B400040093F7F70B175700002301F7BC83C706
:1017C400440093F707048DE7854717570000A309E2
:1017D400F7BA97570000938727BC9C43096798C7BB
:1017E400130700FC97560000238CE6B8D844F8D3BE
:1017F4001C40985F1183058B09CB985F3D9B98DF54
:10180400054797560000238DE6B6985F1D83058B28
:1018140011CB985F1377F7F798DF854717570000C8
:101824002300F7B683270900D8430583058B19C71E
:10183400D843759BD8C3D843799BD8C3B2402244BC
:101844009244024941018280397106DE16DC1ADABB
:101854001ED82AD62ED432D236D03ACE3ECC42CA64
:1018640046C872C676C47AC27EC0F935F250E252D6
:101874005253C2533255A255125682567247E2470A
:101884005248C248324EA24E124F824F2161730019
:10189400203097570000938727B094439757000050
:1018A4009387C7AD03C70700058B11CB975700007B
:1018B400238807AC97570000A38407AC828003C732
:1018C4001700058B65F7F85271FF83C75700DDB722
:1018D400175800001308C8A9032708001C5F958344
:1018E400858BD1E709C61C5BBD832300F60085CA3E
:1018F40083270800985B46079357670163560700E0
:1019040093E707C0C207C18303970600C207C187D4
:1019140009C7BA970947B3C7E7022390F60085CDF4
:10192400834715008DCB9756000083C686A593F692
:1019340006041387970089478DCA3A950347050023
:10194400854699471376F7066311D60262076187C5
:10195400B947634C0700832708009C5FED838D8B98
:1019640017570000A301F7A281473E85828085476F
:10197400EDBF411122C406C6175400001304C4A1CC
:10198400184049E9AE877453FDFE3E85B2859757EA
:1019940000002386079E973003E0E78000C2975734
:1019A40000009387E79C9C43B70680009843558FBB
:1019B40098C3D857719BD8D797570000A382079C28
:1019C40097570000A38C079A1C40094798C3B7F7A0
:1019D40000E003A707D16D9B23A8E7D003A707D195
:1019E4005D9B23A8E7D073005010144017570000E4
:1019F4001307C79883472700858B89EB83473700F4
:101A0400858BD9C797570000238C0796B240224490
:101A1400410182808D476310F50297570000938738
:101A240027959C43B70680009843558F98C3D85791
:101A3400719BD8D75DBF8547E319F5FAB567BD0734
:101A44005CC70F1000001C400967094698C71307BC
:101A540000F8975600002385E692175700001307F5
:101A640027911443984231830D8B6319C7001307E0
:101A7400E043F8D33D673D07D8C785BF984231831B
:101A84000D8B01E713076019EDB71307E01BD5B7FA
:101A9400FC52ADF3A5BF5D7152DC175A0000130A66
:101AA4002A8D03270A0086C6A2C4A6C2CAC04EDE77
:101AB4001C43975900009389E992175900001309B0
:101AC400A98D93F7F7E793E707081CC383A60900DA
:101AD4003707CEFF7D179C46130680022A84F98FB0
:101AE4009CC683270900130700082800B8CBAE84DE
:101AF40093051008EFE0FFF2973003E0E780E0D5AC
:101B0400973003E0E780E0E283270A009376F41F2E
:101B1400370FFCFF23A40700984B4E88CA8813672D
:101B2400F70398CBF84F130510F8D285137707E025
:101B3400558FF8CF9843F576FD16758F98C3984363
:101B4400B7063300B70204001377F7E798C3984346
:101B54009303401F7D1F1377F7E71367071098C39C
:101B640003A70900930F800285491C47D58F1CC722
:101B7400832709001307900D3400B8CB114901479E
:101B84001353370026938347030013767700B3D7A4
:101B9400C740858BDDCF9C41832E0800239C07041E
:101BA4002390070603AECE02137EDEFF23A6CE03E8
:101BB40083AE0700137EF70793FE0EF833EECE01D3
:101BC40023A0C70103AE4702336E5E0023A2C703FE
:101BD40083AE0800014E23A27E0603DA07066307DC
:101BE4004E0303AE0703038A0600135EFE00620E73
:101BF400135E8E416358CA0103AE0703135EFE00F1
:101C04002380C60103DE0706137EFE0F03AA4E06D9
:101C140063060A0003DA8705E37F49FB03AE470244
:101C2400337EEE0123A2C70383870600635CF400BE
:101C3400034E03003396C9001346F6FF3376C601FC
:101C44002300C3003E8663D3A7002A8613158601AA
:101C5400618505071377F70F8506E313F7F3B6409D
:101C6400264496440649F259625A61618280974635
:101C74000000938666729C42D84713161701635579
:101C84000602984713161701635006027D57B8D70A
:101C9400174700001307474D584F05071746000024
:101CA4002322E64E116798C798470D83058B1DC301
:101CB400174700000347A76C136717001746000077
:101CC400230FE66A130700F817460000230AE66AA2
:101CD400214798C79847058B09CF1747000003474A
:101CE400F7691367170017460000A309E66805475C
:101CF40098C798470983058B09E798470583058B9F
:101D040031CF984717460000130646671745000071
:101D1400130505660983058B6303071018411843EF
:101D240031830D8B75EBAC4B184E93F505020347CD
:101D34001700CDCD79EF13077006D8CF03470600FF
:101D44001367170017460000230AE662114798C775
:101D540018415C57F19B93E717005CD79C42984766
:101D64009316370163D606029746000083C646756C
:101D7400C18A174700001307676DC5CE034747079D
:101D84001367070297460000238CE672056798C71D
:101D940098479316270163D10602174700000347AB
:101DA400275E62076187635707000547974600006F
:101DB4002388E65C096798C798479316070163D69A
:101DC40006029746000083C6B66F858A174700004F
:101DD4001307C767ADCE0347570713672700974616
:101DE4000000A38FE66C216798C7828029D78545B8
:101DF4006315B7001307B00689B789456315B700A3
:101E04001307F0061DBF8D456315B7001307300790
:101E14002DB71307500715B71307600739BF0347DA
:101E240036001367170017460000A30AE654094753
:101E340039BF834647070946BD8A6388C6000347FE
:101E440047078D463D8BE313D7F4114725BF8346DF
:101E54005707918AC9DA034757071367870041B7C1
:101E6400397106DE16DC1ADA1ED82AD62ED432D2FE
:101E740036D03ACE3ECC42CA46C872C676C47AC27E
:101E84007EC0F533F250E2525253C2533255A2553A
:101E9400125682567247E2475248C248324EA24E08
:101EA400124F824F2161730020301747000013073F
:101EB400E74E8346B7019747000083C7F7504C4B62
:101EC400B697FD8B33D7F50097460000A388F64CF0
:101ED40097460000A38AF64E058B15EF17470000BE
:101EE4000347D74EB3F7E7028146014713050002C3
:101EF40033D6E500058A1378F70F19CA6397D7001C
:101F040097470000A38C07498280850693F6F60F55
:101F14000507E31FA7FC8280974700009387872E5D
:101F24009C43011122CC4EC606CE26CA4AC852C4CE
:101F340056C2829797470000938747488047814954
:101F44006305A406BE849747000093876727038729
:101F540067013E8963550706018D13545500974761
:101F6400000083C747459379F501636DF402370A8E
:101F7400C0A8B70A4057153F9C449746000083C643
:101F84008643139756003E9783076901158C63C5F2
:101F940007006363470156979747000023A4E7426D
:101FA400E37BD4FC1604B3693401F24062444E85E9
:101FB400D2444249B249224A924A05618280E37D71
:101FC40085F8B707C0A833848740229579B7974727
:101FD4000000938727239C43411122C406C626C2CE
:101FE4008297974700009387673D80476309A4065B
:101FF400BE84974700009387A71C8387670163D833
:102004000704018D135455009747000083C7A73A6E
:102014006367F404593D98449747000083C7A73980
:102024009396570036971D8C9746000023ACE638EC
:10203400E372F4FE2244B240924417450000034583
:10204400F53581454101173303E06700A3D5E37AF1
:1020540085FAB707C0A833848740229565B7B24094
:102064002244924441018280974700009387873736
:102074009843B75702009387079F8326070913964F
:1020840056006358060083260709139666006344C6
:102094000600FD17FDF3828071C5AA870145E9C5D5
:1020A4008D07C207C183F19BC207C1831307400395
:1020B400636FF702174700001307C7380843174731
:1020C40000001307A73714436398A60217470000BC
:1020D4001307070F185B014541CB4111C20706C620
:1020E4000545DD8D0297B2400145410182801747C5
:1020F40000001307E734D9B70357650035E30357E6
:102104004500636FF704B306F7402146637CD602AB
:1021140003280500938687001D8FAA96611717462A
:1021240000000356C6042392E60023A0060123936D
:10213400060014C12312F500130786FF974600001A
:102144002397E6022313B5009745000083D52502A3
:10215400B387F54017470000231BF7002105828051
:1021640008419DB70145828082800DC197470000D8
:102174009387472D03A30700974700009387072CF5
:1021840083A8070081469A8763E31701828003A826
:102194000700636DF50A636BA80A13878700E3677A
:1021A400E5FE03D66700216705076317E60003C74A
:1021B400819B0507238CE19A974500009385C5FA16
:1021C40003D6470003D765002393070032974207DD
:1021D400418317450000231CE5F8638A670217450D
:1021E40000001305E52508416303F50203D56600E5
:1021F40019ED83D7460023A0060121073E96210648
:102204002392C600974700002393E7F6B6879843C6
:10221400E30E17F797460000938686229442E3075D
:10222400D7F683566700BDF283D6470003564700AE
:102234001843A106B2962392D70098C383D76500AA
:10224400A107174700002314F7F28280BE86C287D5
:1022540025BF0111974700009387471F22CC03A491
:10226400C70B26CA4AC84EC606CEAA84130925003F
:10227400854915C083C7140003473400858B630464
:10228400F700405CFDB71946930544004A85EFE02A
:10229400CFFEE31835FF2285F2406244D24442491E
:1022A400B249056182804111974700009387071A5C
:1022B40022C403A4C70B26C24AC006C69304250041
:1022C400054901E82285B240224492440249410171
:1022D4008280A6851305A40297E003E0E780006CE2
:1022E400E30225FF405CF1BF41119747000093874B
:1022F400E71522C403A4C70B26C24AC006C693042A
:102304002500054901E82285B2402244924402494D
:1023140041018280A6851305A40197E003E0E780CC
:0C232400E067E30225FF405CF1BF000011
:1023300097110020938181B717610020130181CC90
:102340001305400097E5FF1F9385C5CB17060020B6
:10235000130606FE63FAC5008322050023A055007C
:1023600011059105E3EAC5FE17C504001305857044
:10237000970500209385C5FB1386818663FAC50007
:102380008322050023A0550011059105E3EAC5FE4F
:1023900013858186974500209385451D6377B50099
:1023A000232005001105E36DB5FEFD42739002BCCC
:1023B0008D4273904280B72200009382828873A07E
:1023C000023097E2FF1F9382E2C393E232007390E0
:1023D0005230974201009382A274739012347300BA
:1023E00020303D432A876373C3029377F700BDEF24
:1023F000ADE5937606FF3D8ABA960CC34CC30CC775
:102400004CC74107E36BD7FE11E28280B306C3409D
:102410008A069702000096966780A6002307B700F9
:10242000A306B7002306B700A305B7002305B7002E
:10243000A304B7002304B700A303B7002303B70026
:10244000A302B7002302B700A301B7002301B7001E
:10245000A300B7002300B700828093F5F50F939691
:102460008500D58D93960501D58D61B7939627008C
:102470009702000096968682E78086FA9680C117BA
:102480001D8F3E96E374C3F8A5B73367B500FD53BF
:102490000D8B79E7B7877F7F9387F7F710419441DA
:1024A000B372F6003363F600BE92B3E26200639744
:1024B000720C6318D6065041D441B372F6003363F0
:1024C000F600BE92B3E262006398720A631BD60400
:1024D00010459445B372F6003363F600BE92B3E242
:1024E00062006391720A631ED6025045D445B372EE
:1024F000F6003363F600BE92B3E26200639A72089C
:102500006311D60210499449B372F6003363F600A2
:10251000BE92B3E26200639372085105D105E30FE6
:10252000D6F61317060193970601631CF70013579D
:10253000060193D706013305F7409375F50F91E92E
:1025400082804183C1833305F7409375F50F91E194
:1025500082801377F70F93F7F70F3305F7408280E8
:102560000346050083C60500050585056313D600EF
:1025700065FA3305D640828011059105E312D6FE37
:10258000014582802105A105E31CD6FC014582801E
:102590003105B105E316D6FC014582804105C10530
:1025A000E310D6FC01458280014711464148B386BD
:1025B000E5008147B308F50083C808008507C10618
:1025C00023A816FFE398C7FE11071105E31107FFC3
:1025D0008280935785019CC19357054193F7F70F6C
:1025E000DCC19357854093F7F70F1375F50F9CC522
:1025F000C8C582801C414111130705013EC05C41E2
:102600003EC21C453EC45C453EC693972500140857
:10261000B69783A707FF85051105232EF5FE8D8943
:10262000E315E5FE41018280397122DC41661384A5
:1026300041A306DE26DA4AD84ED652D456D25AD014
:102640005ECE93050501A2863708FF007D1683073D
:102650000500034735001105E207D98F0307D5FFB1
:102660009106420733770701D98F0307E5FF220759
:10267000718FD98F23AEF6FEE39BA5FC814991446F
:10268000930A0101176B0400130B8BA5976B0400D1
:10269000938B8BA2130AC00293F734000329040022
:1026A0004844BDE78A85353785450A85A1370A87BD
:1026B0001C43110793F6F70093F7070FDA97B697C5
:1026C00083C70700232EF7FEE394EAFE02459247F4
:1026D0006205C2075D8DB2475D8DA247A2075D8D81
:1026E00093972900DE979C4385093D8D334525014D
:1026F00008C885041104E39144FBF2506254D2549B
:102700004259B259225A925A025BF24B216182809D
:102710003345A90008C8F1BF797122D426D24AD026
:102720004ECE52CC56CA06D62A8A93994500014409
:10273000938A41A313090101C144B3073401D69719
:1027400088438A85793533078A008A871443904302
:1027500091074107B18E2328D7FEE39927FF110483
:10276000E31D94FCB250225492540259F249624A39
:10277000D24A45618280397122DC1304050106DEEC
:1027800022878147C1460C433306F10011070CC272
:102790004C4710083E960CC24C4F10103E960CC28F
:1027A0009107E392D7FE85450A85A9358945080832
:1027B00091358D4508103D3D81474147B306F100F5
:1027C00094421104232ED4FE1408BE96944254C49D
:1027D0001410BE969442910754CCE391E7FEF25058
:1027E00062542161828006059377051089C71375AD
:1027F000F50F1345B5018280411106C6ED37B24091
:102800004101D5B781471148C1483386F500B30669
:10281000F500014703AE06003303E6000507230079
:10282000C301C106E31807FF9107E39017FF8280F9
:1028300093060501176604001306869A130505051D
:10284000138706FF1C43110793F5F70093F7070F53
:10285000B297AE9783C70700232EF7FEE394E6FEF8
:10286000C106E31FD5FC82801C414111FD563EC0CC
:102870005C413EC21C453EC45C453EC68D47B385A7
:10288000B7409307C5001397250010083297032718
:1028900007FFFD1598C36393D5008D451387C7FFC8
:1028A0006314F50041018280BA87F1BF397122DCDF
:1028B0001304050106DE22878147C1460C43330617
:1028C000F10011070CC24C4710083E960CC24C4F49
:1028D00010103E960CC29107E392D7FE85450A85FB
:1028E00061378945080849378D450810B53F81474C
:1028F0004147B306F10094421104232ED4FE14087C
:10290000BE96944254C41410BE969442910754CC7F
:10291000E391E7FEF2506254216182809306050143
:10292000175604001306C67B13050505138706FF1B
:102930001C43110793F5F70093F7070FB297AE9773
:1029400083C70700232EF7FEE394E6FEC106E31FCC
:10295000D5FC8280411122C406C626C285472E843A
:102960006301F50289476318F5002244B24092449E
:102970002E8541018DBD8D47631BF5002E85A53544
:10298000298C2285B2402244924441018280A5478D
:102990006315F5002E858D35DDB7AD47631AF5005B
:1029A0002E85993D8935AA842285353D258DC9BF5F
:1029B000B5476316F5002E858135AA84FDB7B94762
:1029C000E311F5FC2E850D3DAA84313DA98C2285AD
:1029D000193D3344950075B7597186D6A2D4A6D255
:1029E000CAD0CECED2CCD6CADAC8DEC6E2C4E6C2DF
:1029F000930605040A87AA879043C1074107232845
:102A0000C7FE03A647FF232AC7FE03A687FF232C82
:102A1000C7FE03A6C7FF232EC7FEE39FD7FC176997
:102A200004001309E98F130A050193090505832C96
:102A30000900032C4900832B8900032BC900930A4A
:102A40000AFF8A848C406685910A29378C482A843B
:102A5000628509378C50298C5E85ED3D8C58298C18
:102A60005A85CD3D218D23AEAAFE9104E31C5AFD6B
:102A7000410A4109E39D49FBB65026549654065934
:102A8000F649664AD64A464BB64B264C964C65618B
:102A900082806382051493F7F500639E0712157117
:102AA000D6C3AA8A3285A2CDA6CB86CFCAC9CEC745
:102AB000D2C5DAC15EDF62DD66DB6AD96ED73284E9
:102AC000AE84EF20C402C147631EF5002285A93EF3
:102AD0000149130A0106976B0400938B6B84294C00
:102AE00063419902FE406E44DE444E49BE492E4A7F
:102AF0009E4A0E4BFA5B6A5CDA5C4A5DBA5D2D61F8
:102B00008280338B2A010C105A85793C814508104C
:102B100021318549081019350810B1391C10D286A9
:102B20003E8710434107C10623A8C6FE032647FF80
:102B300023AAC6FE032687FF23ACC6FE0326C7FFD3
:102B400023AEC6FEE31FEAFC1757040013074779BC
:102B500003280700832D4700032D8700832CC7001F
:102B60005284138607010C4042853ECE3ACC32CACD
:102B700042C8CD330C482AC66E85E93BB2460C509C
:102B80001104A98E6A8536C6F133B2464C54A98E1B
:102B9000668536C6C133B246F2475246358D88C384
:102BA000910742486247E310F6FC4107B287E39180
:102BB000EBFACE85081085098536E39D89F5081066
:102BC000B13B08104D3EA9450810B936DA8508100A
:102BD0001539410931B78280638D051093F7F500EF
:102BE000639907105171CECFAA893285A2D5A6D399
:102BF00086D7CAD1D2CDD6CBDAC9DEC73284AE846D
:102C0000EF10F46EC1476319F5002285313C01498C
:102C1000138B41A3634D9900BE502E549E540E5900
:102C2000FE496E4ADE4A4E4BBE4B6D618280338A4E
:102C300029018C0052858D3AA9458800F13C138406
:102C400041ACC14A930B00048800DD368800B939D5
:102C50008800593308408A85AD3A48400C08953AB7
:102C600008440C10BD3248440C18A53218018147A5
:102C7000B306F100944241072328D7FE1408BE96FC
:102C80009442232AD7FE1410BE969442232CD7FEDA
:102C90001418BE9694429107232ED7FEE39A57FD4F
:102CA00008011D3B01479C003385E7001C01B3056B
:102CB000F70081473306F5003388F50014420328F6
:102CC00008009107B3C6060114C2E39557FF4107F8
:102CD000E31B77FD4114E31964F78800913E8800F7
:102CE000F136814588000D3CD2858800213E41099E
:102CF00015B782809307F00F6385F60A2D71232A9A
:102D0000911023282111B2842326311113060010BB
:102D10002E89AA89930530020A85232E1110232CAF
:102D200081103684EFF0EFEBA2852685EFF0000FDF
:102D300013178500935785003365F7002310A10012
:102D4000A6852286130531009304340023018100F7
:102D500093F4F40FEF00147893F6F40089C64D0451
:102D6000158C9374F40F1C02A697A6850A85175636
:102D700004001306A660238007F0213B26868A857F
:102D80004E85EF003475230099008320C111032480
:102D9000811183244111032901118329C110156177
:102DA00082808280797122D432844AD04ECE2A89A0
:102DB000AE892285B685175604001306265C26D2F6
:102DC00052CC06D636C6093DB246130A34005285A7
:102DD000A2962380060083440400834714008345A1
:102DE0002400A204DD8CEFF06003639AA402034682
:102DF0002400D2854A852380C900EF10345325452D
:102E0000975504009385C555EFF000050545B25070
:102E1000225492540259F249624A456182802380C9
:102E200009002545230009009755040093850554A2
:102E3000EFF080020145E1BF411106C6EFA0902BE3
:102E4000B240AA86175704001307075A1716002026
:102E5000130606F8975504009385855A11454101DC
:102E60006FF0C015130101D92322912623202127B9
:102E70002326112623248126232E3125232C412588
:102E8000232A512523286125232671250347050080
:102E9000930710042A89AE84E31EF7000347150048
:102EA00093074005E318F700034725009307E00563
:102EB000E312F7002E86AA852545EFF000051306DC
:102EC000D003A6854A85EFF0E01D2A84635A0500E9
:102ED0003546A6854A85EFF0E01C2A846344050840
:102EE0009309D4FF9307100363CE37074E869305EB
:102EF00039002810EF1094439C04BE99176A04000F
:102F0000130A4A84238409DED28A8149594B8325D6
:102F10004A002810EFF0C0120DC18E09D69983D750
:102F200009005547636FF70017570400130747461A
:102F30008A07BA979C43BA9782878509210AE39842
:102F400069FD975504009385257FDDA89385F4FFDF
:102F5000818D13051400C20581460146C1814A9541
:102F6000EF4080738320C1260324812683244126D9
:102F7000032901268329C125032A8125832A412586
:102F8000032B0125832BC124130101278280138683
:102F9000F4FF018E9305140042064182CA95E808A9
:102FA000EFF080381305D105EF1074349315050147
:102FB000C1811305D105EFF0804597550400938535
:102FC00065451305D105EFF0A00719CD975504000D
:102FD0009385C5440545EFE030681725002003457B
:102FE000F590EF70F073BDBF97550400938545448D
:102FF0001305D105EFF0C00419CD97550400938552
:10300000A5430545EFE05065172500200345158EC3
:10301000EF70D07381BF975504009385E542130587
:10302000D105EFF0E0010DC1371700408327C70A33
:10303000A166975504009385A541D58F2326F70AED
:103040002545EFE0706139BF975504009385054130
:103050001305D105EFE0D07E11CD3717004083274F
:10306000870AA166975504009385C53FD58F232411
:10307000F70AF9B7975504009385453F1305D10525
:10308000EFE0107C05C1B716004083A7C60C0567AA
:1030900013070780D98F23A6F60C97550400938554
:1030A000A53D79BF975504009385053E1305D105CD
:1030B000EFE0107905C1B716004083A7860C0567BD
:1030C00013070780D98F23A4F60C97550400938526
:1030D000653CBDB7975504009385C53C1305D105E4
:1030E000EFE0107611CD371700408327870C9755F6
:1030F00004009385E53B93E707402324F70C89B749
:10310000975504009385853B1305D105EFE0507377
:1031100011CD371700408327C70C975504009385BE
:10312000A53A93E707402326F70C19BF97550400EB
:103130009385453A1305D105EFE0907011C9371713
:1031400000408327870C8566D58F2324F70C19BD93
:1031500097550400938585381305D105EFE0506E2F
:1031600011C9371700408327C70C8566D58F2326E2
:10317000F70CCDBB975504009385C5361305D105D3
:10318000EFE0106C11C59717002023A10778D9BB79
:10319000975504009385C5351305D105EFE0506AB6
:1031A00001C5EF8050237DBB9755040093850535FD
:1031B0001305D105EFE0D06801C5EF8050285DB35D
:1031C00097550400938545341305D105EFE050670A
:1031D00001C5EF80204179B397550400938585336D
:1031E0001305D105EFE0D06501C5EFF0901E9DBB42
:1031F00097550400938585321305D105EFE050649F
:1032000001C5EFF03025B9BB975504009385853192
:103210001305D105EFE0D06201C5EFB0B04E99B310
:1032200097550400938585301305D105EFE0506173
:1032300001C5EFB0904D3DB3975504009385852FA0
:103240001305D105EFE0D05F01C5EFB0704C19BB9D
:10325000975504009385C52E1305D105EFE0505E08
:1032600001C5EFE06039FDB9975504009385C52D80
:103270001305D105EFE0D05C01C5EF20013FDDB1C2
:10328000975504009385C52C1305D105EFE0505BDD
:103290002DC513059109EF00D4202A841305510D83
:1032A000AE84EF0014202A8913051111AE89EF00B6
:1032B000541F2A8A1305D114AE8AEF00941E2A8B5C
:1032C000AE8B2A88AE885287D6874A86CE862285DC
:1032D000A685EF2030322AC42EC65AC05EC252885C
:1032E000D6884A87CE872286A6869755040093857E
:1032F00065262545EFE0904CB5B1975504009385C0
:10330000A5271305D105EFE0B05311C5814501454F
:10331000EF20214781B90346D105A547130606FDD5
:103320001376F60FE3E0C7C497170020A388C75CA5
:10333000975504009385C524EFE0504825B11386C6
:10334000F4FF018E130514004206418297650400C4
:103350009385455C4A95EFE05062171400201304F2
:10336000245831C5975504009385C522E808EF100D
:10337000E476E808EF10A477131605014182EC0803
:103380001385817CEFB0400B97550400938545234E
:103390001145EFE0702C83570400414593E7170077
:1033A00017170020231EF752EFF0A06E65BE975549
:1033B00004009385A5211145EFE0102A7D55EFF01B
:1033C000207783570400F99B17170020231AF75022
:1033D00051BE9D3441BE1386F4FF018E13051400C7
:1033E00042064182976504009385C5524A95EFE0F5
:1033F000D058171400201304A44E29C18357040089
:10340000975504009385451DE80893E717001717A3
:1034100000202317F74CEF10646CE808EF10246DC0
:1034200013160501EC0841821385817CEFB0C000C2
:10343000975504009385051C114521B1975504004B
:103440009385051CE808EF106469E808EF10246A0A
:1034500013160501EC0841821385817CEFA0D07D15
:1034600083570400975504009385451BF99B171754
:1034700000202317F746C9B7EF90907997170020DF
:1034800093870746A843EF000459AE862A869755CE
:103490000400938565191145EFE05032E1B4EF70F7
:1034A0007040C9B4176604001306464797550400D8
:1034B00093854518114549B5EFA04047975504003D
:1034C0009385051835F99755040093856518ADB7B0
:1034D0003545EFB05018AA84EF00E4532A86AE8633
:1034E0002545975504009385E517EFE0302D975754
:1034F00004009387E7F18843A6851714002013047E
:1035000064A4EFF0531B2324A426EFA060480325F6
:103510008426EF004450AE862A8697550400938592
:10352000251595BF81451545EF80E056EFA0C03BBE
:103530002A869755040093856516ADBF81451145D0
:10354000EF806055814513059002EF80C05481459E
:103550000D45EF804054EFA080392ACEEFA0E0392E
:10356000F2462A8717160020130686869755040010
:103570009385C5131145EFE07024EDB217170020B5
:10358000035727C2971600209386E6A5171600203A
:10359000130606849755040093858513E1BF85477C
:1035A00017170020230CF7C0EFA0803E97550400AA
:1035B0009385451351B517170020034727C085474A
:1035C0009755040093858512E318F7E6C5B785473C
:1035D00017170020A30FF7C2EFA0803B97550400F8
:1035E0009385851191BD9717002083C797C2975582
:1035F00004009385E510E38107E4CDB79717002019
:103600009387072EC85FEF000441AE862A86975540
:1036100004009385A50F41B5B92605044A943146A7
:10362000814517150020130585B597D0FF1FE7804A
:10363000803F8144930AA400695AB3099440094623
:10364000CE85E80897D0FF1FE780603A33899A005B
:103650000946CA854E8597D0FF1FE7804039094645
:10366000EC084A85F91497D0FF1FE7804038E396AD
:1036700044FD1946A28517150020130545B0EFE05B
:10368000B03D814517150020130565AFD92222866C
:10369000975504009385C5081145EFE030120146A7
:1036A000970500009385652C13056009EF70A063F2
:1036B0006FF05F8B0146A6854A85EF8080206FF012
:1036C0007F8A7971B1472300F1009307170022D454
:1036D000A300F10006D62301C1002A848D4715C737
:1036E00081471386370008101376F60F2A96338524
:1036F000F6000345050085072300A6FE13F6F70F25
:10370000E311E6FE0D079377F70F81460147850623
:1037100013F6F60F6368F6041410BE962380E6FED7
:103720001387170014101377F70F3697B546230049
:10373000D7FE9386270093F6F60F0A862285EF10B0
:10374000D17CDD47631CF500154597650400938522
:103750002585EFE060702285EF103179B250225458
:10376000456182803306D100034606003297137705
:10377000F70F71BF85472A86AE8663E3A7029307DA
:1037800080053307F502938741AE1545BA979847F0
:103790004D8F98C797650400938545816FE01002AF
:1037A0008280411122C406C683C7B1AE2A8481C774
:1037B000AA850145C13783C731B499C7A285224480
:1037C000B240054541017DB7B240224441018280AB
:1037D00085472A86AE8663E5A702930780053307EF
:1037E000F502938741AE93C5F5FF1545BA97984703
:1037F0006D8F98C7975504009385C5176FE0007CBF
:103800008280411122C426C206C683C7B1AE2A8473
:10381000938441AE91CB98449347F5FFAA85F98FE5
:10382000014523A6F1AE6D3783C731B491CFBC50AB
:103830001347F4FFA2852244B2409244F98F23A299
:10384000F1B40545410169B7B240224492444101B7
:10385000828001114EC606CE22CC26CA4AC852C466
:1038600083C9B1AE6384090883C731B47D54B5E719
:103870008549054A13048005B3078A02138441AEC3
:103880002E89AA841306800581453E94228597D00F
:10389000FF1FE78040198547A303F40022851946DE
:1038A000A68597D0FF1FE7808014CA8523032401D3
:1038B0002685EF101171970700209387A768D2978C
:1038C00003C7C72F930760062A846308F700B7452C
:1038D00057009385F5814E85713D2285F240624403
:1038E000D2444249B249224A05618280014A59B70D
:1038F000011119468145280006CE97D0FF1FE780A9
:1039000080121306000B8145138541AE97D0FF1F2F
:10391000E780601119469715002093854586280099
:1039200097D0FF1FE780A01585476308F500814504
:10393000171500201305A584293F19469715002067
:1039400093854584280097D0FF1FE7804013854763
:103950006308F5008145171500201305A582D53DA4
:10396000F24005618280411106C6EF10316FB2400E
:103970001306000B8145138541AE410117D3FF1F8C
:103980006700630A854763E2A70293078005B307D0
:10399000F502138741AE0145B306F70083C67600F2
:1039A00091C6B1073305F7008280014582807971A5
:1039B00022D426D24AD006D64ECE52CC56CA5AC8A7
:1039C0000144970400209384E45713096006EF2014
:1039D000317D636CA400EFD0707C29C18545014521
:1039E000EF3001028545054519A8B387840083C7D8
:1039F000C72F63912703EF30C103854522852254E9
:103A0000B25092540259F249624AD24A424B45613D
:103A10006F20117F05041374F40F55BFEFD0107899
:103A20002A8415E197190020938989EB314A975A26
:103A30000400938AAAEC175B0400130BABEAEF2097
:103A40003176636CA400B250225492540259F24968
:103A5000624AD24A424B45618280228525372A89B3
:103A60002285EF203172AA84630D09063DC99707AC
:103A7000002083C76770B5C7B387470303A6090350
:103A8000832609013307D640B377F7028DE363003D
:103A9000D6022286DA851545EFE04052854522851B
:103AA000EF201176930530022285EF20717A83D7BB
:103AB000440185EF81452285EF20917483D644012E
:103AC000228536C6EF20117B03A70903832709014E
:103AD000B2462286B307F740D6852A871545EFE020
:103AE000E04D05041374F40F99BFFD17C207C1839D
:103AF000239AF400E1D39717002083C7F7E2DDFB98
:103B000075BF397106DE22DC26DA4AD84ED652D489
:103B100056D2EF20F16845C51707002003474772CA
:103B200093076006630DF7081707002003475771D6
:103B30006307F70883C791867547636BF7088507A6
:103B4000A384F1869707002083C70763ADCB138456
:103B500041AE138941B9854497190020938949D80A
:103B6000130AC003975A0400938A8ADF83477400BC
:103B7000B9C783470402638497045C4C03A7090315
:103B80001D8F9707002083C7275FB38747036364B0
:103B9000F7021305002023009402EFF0E0371946E6
:103BA0006C002285EFE0C0667000D6851545230CB9
:103BB0000100EFE0A04013048405E31924FBF25058
:103BC0006254D2544259B259225A925A2161828087
:103BD00097550400938505D61545A3840186EFE02B
:103BE000E03D370510000D05EFF0BFBBA1BF5D71D3
:103BF000CAC0138981868347090052DC56DA858B57
:103C0000416A856A4EDE5AD85ED686C6A2C4A6C26E
:103C10002384F186054B938941AE930B80057D1A71
:103C2000938A0A8003C58186636AAB0C33057503EA
:103C30004E95044599CC8347750081CFEF20714D97
:103C40002A8411ED975504009385C5101545EFE0C2
:103C5000A0208347090085072384F186E1B78347C5
:103C60000500A18BFDD783568500E38446FF03C67C
:103C70008186975504009385250F1545EFE00034A4
:103C80009397C40063DF0708930671001306610071
:103C9000930791003800930551001305A100EFA090
:103CA00030758357A100130740069755040093858C
:103CB000E50DB3F7E70215452306F10083475100F0
:103CC000A306F100834761002307F10083477100D9
:103CD000A307F100834781002308F1008347910087
:103CE000A308F100EFE04017194774001306800A9B
:103CF0008355E40003558400EFF0BF9C83C78186A1
:103D000009476385E70085072384F186B64026448A
:103D100096440649F259625AD25A425BB25B6161DB
:103D2000828093F7140081CF97550400938545074F
:103D30001545EFE0601201477400254655BF93F723
:103D4000240081CF97550400938545071545EFE082
:103D5000A01001477400194661BF9397B40063D85F
:103D60000704EFD0B043175604001306E69709E5A1
:103D7000175604001306C6FD975504009385850564
:103D80001545EFE0A023EFD070412306A100835535
:103D9000E40003558400054774006146EFF07F920C
:103DA000B705100003C58186EFF09FA281BF9397EE
:103DB000840063DF070003C681869755040093855E
:103DC00065031945EFE0801F0147740045460DB7B4
:103DD00093F7041085CB975504009385E5021545AC
:103DE000EFE0800703C58186930780053305F50260
:103DF00050006C004E95EF10000F03474100740017
:103E00000946FDB593F7042085CB975504009385AB
:103E1000E5001545EFE0400403C581869307800562
:103E20003305F50250006C004E95EF10C00B0347B0
:103E3000410074000D466DBD9397940063DD07004B
:103E400097550400938505FF1545EFE0E000014715
:103E50007400494671BD93F7044081CF9755040023
:103E6000938585FE1545EFD0307F014774000546E8
:103E700041B5B3F7540185C797550400938505FEF6
:103E80001545EFD0707D970700209387A70B83C758
:103E90005723054774002306F100114691BD9397FF
:103EA000340163D90702975504009385E5FC154555
:103EB000EFD0907A970700209387C70883D74726CB
:103EC00074001D4613978700A183D98F2316F10034
:103ED000094739BD9397240163D50702975504001C
:103EE000938545FB1545EFD03077970700209387E2
:103EF000670583C74723054774002306F10035464D
:103F0000C5BB9397140163DD0700975504009385A3
:103F1000A5FA1545EFD05074054774003946C9BB62
:103F200093F7440081CF97550400938525FA1545F2
:103F3000EFD090720147740015465DBB93F7840083
:103F400081CF975504009385E5F91545EFD0D070E2
:103F500001477400214669BB9397040163DD0700A4
:103F6000975504009385C5F91545EFD0F06E0547C8
:103F700074004146B5BB9397F40063DB0702975585
:103F80000400938565F91545EFD0106D17070020E3
:103F9000130747FB035767239707002083C7071EB4
:103FA0002307F1002316E10074000D474D4689B345
:103FB0009397E40063DD070097550400938585F728
:103FC0001545EFD0706901477400514615B39397BA
:103FD000D40063DD070097550400938565F7154508
:103FE000EFD0906701477400554619B39397A4002A
:103FF00063DE070097550400938545F71545EFD01C
:10400000B0650147740013060002DDB1C188E38288
:1040100004C497550400938565F72545EFD0D06318
:10402000014774001306700AE1B1130101DF232474
:1040300081202322912023202121AA842E893284C9
:1040400081451306F00F080223261120EFE06FB917
:104050001306700F8145280097D0FF1FE780A09CB2
:10406000930700086363F4089307300863FB870035
:1040700093074008631BF4068567938747C823149A
:10408000F100034491009307E00763F487001304F1
:10409000E00705041374F40F22860C022800EFE0F9
:1040A0002017180493171400BA9714022286975504
:1040B00004009385E5862545238007F0EFD0107036
:1040C000834691003000CA858506268593F6F60F53
:1040D000EF10A1638320C120032481208324412089
:1040E00003290120130101218280F9572304F100E3
:1040F00049BF954763F3C7605971A6D2CAD0CECEE7
:1041000086D6A2D4D2CCD6CADAC8DEC6E2C4E6C20B
:10411000EAC06EDEB2892E89EF20310AAA846301DB
:1041200005141946938541AE97D0FF1FE78020956F
:1041300005446306851419469385C1B3268597D037
:10414000FF1FE780C093631D851093078005B307A9
:10415000F402138A41AE970C0020938CACDE814DA3
:10416000170C0020130CCC77A29C975A0400938A5A
:104170006A82330DFA00938757023E9AEA84330825
:10418000B90103470800B1476317F70C13874D00C7
:104190006358370D93881D00CA9883CB0800138B92
:1041A0003D00B3077B0163D8370BCA9783C607006E
:1041B000B5476392F60A814781463306F800034605
:1041C0001600850793F7F70FB29693F6F60FE3F60E
:1041D000FBFEB307780183C72700639ED7068327BA
:1041E0000C0383C60402DCCC8547639BF6021305EF
:1041F00000403AC642C446C2EFE0105219466C086D
:104200006A85EFE0E0007008974504009385057922
:10421000154523040102EFD0705A324722489248D4
:104220002380040283473800B946638AD73A63E3A0
:10423000F61019476383E72E6364F7080947638B19
:10424000E7206360F704638C071C05476387E71E5C
:104250005E9B937DFB0F850D93FDFD0FE3E13DF329
:10426000B650265496540659F649664AD64A464BE5
:10427000B64B264C964C064DF25D6561828001443A
:10428000E9B511476380E7286371F72203454800C9
:10429000EFE0D33403A60A0083A64A00EFD0836C74
:1042A000EFF03302C8C8EFF003772A86AE861545D3
:1042B000974504009385857BEFD05050914579A2B6
:1042C00025476383E72A6366F7041D476385E7286C
:1042D0002147E39FE7F68347480003455800A207BC
:1042E0005D8DEFE0B32F03A60A0083A64A00EFD04E
:1042F0006367EFF0037D88CCEFF0E3712A86AE862A
:104300001545974504009385E57CEFD0304BA145DA
:1043100035AA2D47638FE72863E6E7283547E399F9
:10432000E7F297550400938525841545EFD0D032E8
:10433000896529AAD5466389D72E63E3F608C54661
:104340006382D73A63E1F6023D476383E72A414738
:10435000E390E7F097550400938545881545EFD025
:10436000B02FA165E5A04D466387C72A93865D00FF
:10437000637AF630990D3308E900B307D900CA9D76
:1043800003C70D0083C607000346080097550400C5
:104390009385058915453EC442C2EFD0304212488C
:1043A000A247B705020003470800A380E40283C7C1
:1043B00007002381F40283C70D00A381F40279A0D2
:1043C000130700026386E72A6367F7026147638980
:1043D000E7286547E39EE7E6854717070020A30F18
:1043E000F7D8EF90E05AEFF000041165EFE0D0321B
:1043F000B7052000CDA21307700A638BE72C1307C3
:10440000800A6385E72413071002E393E7E49755D6
:1044100004009385258B1545EFD0102415BD8347E7
:104420004800034658009745040093856558A20745
:104430005D8E1545EFD0903821BD974504009385DA
:10444000E5581545EFD05021930500402285EFF047
:104450002FB8FDBB034748008547631CF70297450B
:104460000400938525581545EFD0101F0965EFE02E
:10447000B02A1745040013056557EF20200683472F
:104480009C0493050010FD1717070020A30EF748A2
:1044900075BF15459745040093854556EFD0D01B51
:1044A0001745040013050556C9BF03474800854753
:1044B000631EF702974504009385C5551545EFD057
:1044C000B019056513050580EFE0102517450400B8
:1044D0001305C554EF20800083479C0493050020FA
:1044E000FD1717070020A301F7448DB71545974521
:1044F00004009385E553EFD03016174504001305EB
:10450000A553C9BF97450400938505541545EFD0C1
:10451000B01485659385058015BF83474800034522
:104520005800A2075D8DEFE0730B03A60A0083A677
:104530004A00EFD02343EFF0C35888C8EFF0A34DF3
:104540002A86AE861545974504009385A554EFD07D
:10455000F0268945E5BD974504009385A555154589
:10456000EFD0900F8565DDB58347480003455800BF
:10457000A2075D8DEFE0930603A60A0083A64A001A
:10458000EFD0433EEFF0E353C8C4EFF0C3482A86B0
:10459000AE8615459745040093854556EFD0102209
:1045A00085456DB50346480097450400938505573A
:1045B00049B5974504009385E5571545EFD0D009D7
:1045C000974504009385C5581545EFD0F00811654F
:1045D000EFE0901491652285EFF0CF9995B997455A
:1045E00004009385A55A1545EFD010079165B9BD14
:1045F000974504009385455B1545EFD0F005974539
:1046000004009385655C1545EFD010052165EFE04A
:10461000B010A165C9B7974504009385255E15457F
:10462000EFD09003C1651DB5B30DE90003C60D00C1
:10463000974504009385C5611545EFD0301883C7B1
:104640000D00B70504002382F40209B59745040064
:10465000938505621545EFD03000B7050800FDB31E
:1046600097450400938585621545EFD03015CDB68A
:1046700097450400938545631545EFD0E07DB70568
:104680002000E9B303C6080083474800B30DD900F2
:104690007916A38BF4041376F60FEE855285EF009E
:1046A000E44883C6740552872286974504009385A3
:1046B000A5631545EFD0901003C7CC2F9307600674
:1046C0006315F7006E85EFB0605BB7054000BDBBBA
:1046D000974504009385856322861545EFD0100E1B
:1046E000C145ADB3974504009385C564228619453D
:1046F000EFD0D00CB705800091BB8280411122C45D
:1047000021649305048099460146254506C697C055
:10471000FF1FE78020F7930504802244B2409946AA
:104720001386C1862945410117C3FF1F670083F522
:1047300099E10145828075DD011152C403DA0187D8
:1047400026CA93548A008504A204C204C18056C2BA
:10475000B38A4441C20A22CC4AC82E862E842A89B2
:104760009755040093854594254593DA0A014EC672
:1047700006CE9389C186EFD0700463ED8A0883D595
:10478000018793F7F50FB1CF8D6783D501879387A5
:104790000780A2864A86BE95294597C0FF1FE780FD
:1047A00060EE1375F50F29ED83D749001566A297C2
:1047B0002398F18603D7018783D7E1866309F70041
:1047C00063F3E700B297998F13960701418225455D
:1047D000975504009385C58EEFD0407E1375F40F76
:1047E0000DA08D6793870780930600100146BE9544
:1047F000254597C0FF1FE780E0E81375F50F49D501
:104800000145F2406244D2444249B249224A924AA6
:1048100005618280B3079440D297C207C183A18308
:1048200003C74900850793F7F70F9396870011EBAD
:104830009386170093740AF0A206C204C206C180D0
:10484000C18283D7E18663F6F40033879600E3C91B
:10485000E7FA0D6A130A0A800146B385440125452B
:1048600097C0FF1FE78000E21375F50F51F983D55C
:104870000187A2864A86D29505B7411122C41384C6
:10488000C18622858145194606C697C0FF1FE7806D
:1048900080199307B0FA2300F4008D352244B2400A
:1048A000974504009385C578254541016FD0C05ACE
:1048B000A165411199461386C186938505802D45D2
:1048C00006C697C0FF1FE780E0DB03C7C1869307DA
:1048D000B00A6303F7005537B24083D6018703D689
:1048E000E1869745040093856575254541016FD0A4
:1048F000E06C83D741B90145638C071003D561B9DA
:104900006366F50023AA01B8014582803385A7407C
:10491000D1473355F5021375F50F01E5239A01B818
:104920008280130101BD23248142232611422322C8
:10493000914223202143232E3141232C4141232A1C
:10494000514195471374F50F63F3A7001544228670
:1049500097450400938585782545EFD02066014969
:104960008144938981B9514AA14A9377F90F03D5BC
:1049700061B917F7FF1F0347877363E98704D147BE
:104980003304F4022A94239B81B8A147631CF706E1
:10499000A6850808EF50300903D761B983D741B91C
:1049A00005456364F70023AA01B88320C1420324AC
:1049B000814283244142032901428329C141032AC0
:1049C0008141832A4141130101438280B307490396
:1049D0001408AA97CE9733859600631E5701BE85AB
:1049E000EF50F0232317A1008357E1000509BE947F
:1049F000C204C1809DBFAA851306E1003E85EFB0C9
:104A0000002CDDB726860C080145EF80F00A69B757
:104A10008280011106CE22CC26CA4AC84EC652C494
:104A200099E901442285F2406244D2444249B249A4
:104A3000224A05618280AA896DD583D7018703D672
:104A4000E1862E849564638AC7006374F600156757
:104A50003A961D8E93140601C18026869745040060
:104A60009385055A2545EFD06055938714F063561A
:104A7000F4009307F00F63EA9700974504009385CD
:104A8000A5592545EFD0805369BF83D40187B387EB
:104A90008400156A6349FA00A2854E85EFF05FC96C
:104AA000EFF0DFC541B71569330999404209135941
:104AB0000901CA854E85EFF0BFC709E583D7018795
:104AC000E39147F7ED75A695A295C2052398018657
:104AD000C18133852901D9B783D641B981EA974588
:104AE00004009385E55925456FD0003703D661B999
:104AF0004111918E9745040093858559254506C639
:104B0000EFD0C04B138741B98355070083D761B9F4
:104B1000138581B99D8DC2053E95C181DD3DB240B1
:104B200023AA01B841018280411183D741B922C42F
:104B300026C206C6AE971307401FAA842E84635A66
:104B4000F700593F97450400938545512545EFD01F
:104B5000A03083D741B9138581B92286A6853E95B9
:104B6000EFF0431703D641B9229642062244B240E1
:104B700092444182239AC1B8974504009385854F9A
:104B8000254541016FD08043011126CA06CE22CCB3
:104B90004AC84EC652C456C2814459C1D1C183D7F6
:104BA000E18603D40187638D870663F587081D8C32
:104BB00042044180AE892A89228697450400938564
:104BC000A5400145EFD0803FA28463F38900CE84E5
:104BD000C2040D6A83D7E18603D70187C180938A17
:104BE000C186130A0A8063FAE704A6864A86B3855B
:104BF00047012D4597C0FF1FE780C0A883D72A0033
:104C0000A6972397F186EFF07FAF83D6018703D66F
:104C1000E186974504009385653C2545EFD0003A31
:104C2000F240624426854249D244B249224A924A1D
:104C30000561828015673A949DBF15671D8FB38506
:104C4000470163D5E400A6864A8665B79569B389AE
:104C5000F9406D743E94C20993D909012694CE8619
:104C60004A8642042D4597C0FF1FE780A0A14180DE
:104C7000A28633063901D2852D452397018697C038
:104C8000FF1FE78020A083D72A003E9423978186C8
:104C90009DBF397106DE22DC26DA4AD84ED652D4C0
:104CA00056D25AD05ECE62CCE9C9328455CA368C0F
:104CB000E9C6BA8B79C32A89AE8A2300AC00854441
:104CC0008149114B330634416353CB001146137AAB
:104CD000F60F5286B3853A01480002C2EFE0937F97
:104CE000034751008347610003467100834641003A
:104CF0004A97CA974A96050789070D06CA96230759
:104D0000E100A306F100A307D1002306C10078004B
:104D1000814703460700B306F9008507B18E2300DB
:104D2000D70093F7F70F0507E39567FF8357C10097
:104D30000357E100D29933059C00B98F2316F10087
:104D4000B24711462C00910493F9F90F3EC493F435
:104D5000F40FEFE03378E3E789F623809B00054406
:104D60002285F2506254D2544259B259225A925A70
:104D7000025BF24B624C216182800144D5B71D7108
:104D800086CEA2CCA6CACAC8CEC6D2C4D6C2DAC003
:104D90005EDE62DC66DA6AD86ED67DC52E84E9C531
:104DA00032897DC2368CEDC2834D0500AA84814CC8
:104DB000054D9149138A3D00938A1D00138B2D00E8
:104DC000930B00103306A44163D3C90011469377B7
:104DD000F60F3E86B385A40148083EC602CAEFE03E
:104DE000736F8346610103474101034671018347A5
:104DF0005101358F230AE100B18F33C7ED00B3466F
:104E0000DB00A30AF1003346CA00B3C7FA00A30FC0
:104E1000E100A30ED100230EC100230FF10074089E
:104E2000014783C706003386ED0005079387071007
:104E3000918FB3E777038506A38FF6FEE31337FF61
:104E4000F2473305990111462C083ECCEFE09368F8
:104E5000B247910C93FCFC0F3E9D137DFD0FE36365
:104E60008DF623009C0105442285F6406644D64415
:104E70004649B649264A964A064BF25B625CD25CCA
:104E8000425DB25D256182800144F9BF39719307AB
:104E9000400622DC33F4F50226DA13077100B684EB
:104EA000740806DEB377F6023304F402B387C50054
:104EB0003E9493978500A181DD8D93178600218212
:104EC0005D8E2314B1002315C1002C001146D1338F
:104ED00089C483457100680882942285F250625427
:104EE000D25421618280317122DD26DB4AD99307B9
:104EF000110118082A842E89B2849306F100130642
:104F0000E1009305D1001305210106DFEF90504E1B
:104F1000814719473306F40003460600B400BE96E5
:104F20002380C6008507E397E7FE83572101130717
:104F30004006B3F7E7022307F1048347D100A30734
:104F4000F1048347E1002308F1048347F100A3083B
:104F5000F104834701012309F1049307A0FAA3098F
:104F6000F104EFF0B31E7800F418AC00314613756D
:104F7000F50FEFF01FD24C0822851946EFD04029DB
:104F80005008974504009385A51625452300010286
:104F9000EFD0C0020346C1004C08E818EFD040270C
:104FA0008346C1001819500893971600BA97974581
:104FB00004009385A5142545238207F6EFD0000051
:104FC000034801018347F1000347E1008346D10014
:104FD000035621019548974504009385651325459F
:104FE000EFC0D07D0344C100EC184A852286EFE073
:104FF000734EFA50238084006A54DA544A59296166
:1050000082809387011D0547238CE70018411045D6
:10501000544598C30357450090C7D4C71049544915
:105020002392E70090CBD4CB239DB7008280184118
:105030009387011F104598C303574500544590C7F7
:105040002392E70058551049D4C7544998CF974543
:1050500004009385E51B0547254590CBD4CB238ED3
:10506000E7006FC0705F397126DA4AD84ED652D445
:1050700056D25AD006DE22DC62CE66CC2A89EFF008
:1050800013279374F50F8149254BE54A174A04000D
:10509000130A4A0E91ECF25062544E85D254425992
:1050A000B259225A925A025B724CE24C21618280C0
:1050B00003470900930707FD93F7F70F637CFB0095
:1050C0009307F7F993F7F70F63E2FA06930797FA56
:1050D00093F7F70F139487016184FD14230089006F
:1050E0002685EFD0B34F2A86AE8603250A00832596
:1050F0004A0093F4F40F0509EF2011012AC4228518
:105100002EC6EFD0B34D2246B246EFC0D37D2A8CD7
:105110004E85AE8CEFD0B3532A86AE866285E68587
:10512000EFC04311EFD0D345AA89ADB79306F7FB83
:1051300093F6F60F8147E3EFDAF8930797FC49BF40
:10514000411122C406C6830795022A8499C7130514
:105150009502EFE073352385A1188307D41291CB14
:105160001305D412EFE0F333EFE0B3159387811505
:10517000C8D3B240224441018280011126CA93045F
:10518000150022CC974504009385850C2A8426853A
:1051900006CE4AC84EC6EFC0B072631E05109745D2
:1051A00004009385250B2685EFC090716302050EE0
:1051B00085448307D4036386070C13059402EFE04C
:1051C000B32E85491379F50F1305D4036387340F84
:1051D0008947638CF418EFE0332DA386A118631A76
:1051E0003901794681451385F11A23890186EFD06B
:1051F0004F9F8307D40885C31305D408EFE0D32A53
:1052000003C72187930717002389F18693878115A8
:10521000BA97A38BA7048307D40D85C31305D40DB8
:10522000EFE0932803C72187930717002389F186AE
:1052300093878115BA97A38BA7048307D41285C3DC
:105240001305D412EFE0532603C7218793071700F5
:105250002389F18693878115BA97A38BA7048307C7
:10526000D41785C31305D417EFE0132403C7218790
:10527000930717002389F18693878115BA97A38B2B
:10528000A704F2406244D2444249B2490561828097
:1052900097450400938545FC2685EFC07062E319AD
:1052A00005F0268597450400938545FBEFC05061C6
:1052B0008944E31005F08144EDBDEFE0F31E238740
:1052C000A118631A9900794681451385111923891C
:1052D0000186EFD00F918307D40885C31305D40846
:1052E000EFE0931C03C72187930717002389F186FA
:1052F00093878115BA97A38CA7028307D40D85C322
:105300001305D40DEFE0531A03C721879307170045
:105310002389F18693878115BA97A38CA702830707
:10532000D41285C31305D412EFE0131803C72187E5
:10533000930717002389F18693878115BA97A38C69
:10534000A7028307D417E38E07F21305D417EFE003
:10535000B31503C72187930717002389F186938725
:105360008115BA97A38CA70229BFEFE0F313A38797
:10537000A11801BF411122C406C6830795072A84DC
:1053800099C713059507EFE03312A385A11883078A
:10539000D40899C71305D408EFE013112386A11888
:1053A0008307540B91CB1305540BEFE0930FEFE001
:1053B00043719387811588D7B2402244410182808E
:1053C000411122C426C206C6830715058144014443
:1053D00099C703444505130404FD1374F40F8307B0
:1053E000550699C713055506EFE0130C9374F50F96
:1053F0002286A68697450400938545E72545EFC09C
:10540000F03B1374B40F8D47631FF4009D4763FC9A
:10541000970097F7FF1F83C7C74C93E7470017F71D
:10542000FF1F2300F74CB240224492444101828086
:10543000011126CA8146B284014652C456C206CE24
:1054400022CC4AC84EC62A8AAE8AEFC0F32C41CD80
:105450009307E0046386F400930730056395F4082E
:1054600097490400938989DC03A6090083A64900B3
:105470005285D685EFC0334737949800EFD053104C
:10548000130404682A8933758502EFD0531C03A6E0
:10549000090083A64900EFC0E34C974704009387B7
:1054A00067D99043D443EFC0E34B2A8A335589022E
:1054B000AE8AEFD0D3192A86AE865285D685EFB054
:1054C000735713073005AE876395E400B707008074
:1054D000AD8FF2406244D2444249B249224A924AD4
:1054E000BE850561828001458147E5B7011126CA65
:1054F0008146B284014652C456C206CE22CC4AC866
:105500004EC62A8AAE8AEFC0332141CD930750049C
:105510006386F400930770056395F40897490400C7
:105520009389C9D003A6090083A649005285D68570
:10553000EFC0733B37949800EFD0930413040468D2
:105540002A8933758502EFD0931003A6090083A63C
:105550004900EFC02341974704009387A7CD9043AC
:10556000D443EFC023402A8A33558902AE8AEFD054
:10557000130E2A86AE865285D685EFB0B34B13073D
:105580007005AE876395E400B7070080AD8FF240E9
:105590006244D2444249B249224A924ABE850561D8
:1055A000828001458147E5B7135785009357050170
:1055B00013D885009376F50F01111377F70F93F742
:1055C000F70F618593F5F50F1378F80F99C211C3A2
:1055D000B9E3230CD100A30CE100230DF100A30DCE
:1055E000A10003459101834781010347A1012205E1
:1055F000A30E01014207C98F230EB1000345B1017B
:10560000D98F0347D1018345C101620522075D8D12
:10561000D98D0561828032951375F50F13138501BD
:10562000135383415D466357660861463363C30283
:1056300085071376D70F114593F7F70F6305A6007B
:105640002545631AA6007946637FF602050713779E
:10565000F70F85470DA809466312C7041386067D18
:1056600093084006B36816036385080013F53600F7
:1056700011C5130500193366A60219EE7546637449
:10568000F60085470D47230CD100A30CE100230D44
:10569000F100A30D6100B1B77146D5B77D46E37443
:1056A000F6FEB147E314F7FA850693F6F60F854741
:1056B0000547D1BFE35903FC6105FD1713138501AD
:1056C00093F7F70F13538341DDFF7D171377F70F20
:1056D0001146F947E309C7FA1946E306C7FA254612
:1056E000E303C7FA2D46E300C7FA89476316F702BA
:1056F0001386067D93074006B367F60291C793F8B9
:105700003600F547E38108F893070019B367F602FE
:1057100093B71700F10785BFFD4735F7FD1693F6E0
:10572000F60F31478DB78347150003470500011178
:10573000A2075D8F834725008346350006CEC2074A
:10574000D98F034755008345450017E6FF1F130611
:10575000667F03068624E206220733E5F600D98D2C
:10576000EFF09FE4135885001356050193D7850089
:1057700013F7F50F93F7F70F935685011376F60F8E
:105780009375F80F1375F50FEF90A04C97E7FF1F77
:1057900083C7577B05476385E70011476396E7009A
:1057A000F24005616F90605AF24005618280497154
:1057B00023248116138481158307340083C8D115EF
:1057C00003C8C11503C7A11583C6911503C681156A
:1057D00097450400938585AC481023261116232293
:1057E000911623202117232E3115EFF0C3284810DE
:1057F000EFF0E32F18485C48030604033AC03EC2AA
:10580000030814035C44184454109745040093851E
:10581000E5AA3695EFF023264810EFF0432D5C10F3
:105820003E9583076400174604001306A6A689C7A1
:1058300017460400130686A59755040093858580B6
:10584000EFF063234810EFF0832A544C104C5C10A7
:1058500097450400938585A73E95EFF0C321481036
:10586000EFF0E328030634035C103E9597450400EF
:10587000938585A6EFF023204810EFF04327030718
:105880002403AA8448503ACE13848115EFE0A3186C
:1058900072475C10AE862A86974504009385C5A49E
:1058A00033859700EFF0231D4810EFF043245C1080
:1058B00003C6C11897450400938585A43E95EFF073
:1058C000831B4810EFF0A3225C10974504009385DA
:1058D00025A43E95EFF0832013896117A284974990
:1058E00004009389A97503C6740519CA481032CEFD
:1058F000EFF0E31F72465C10CE853E95EFF0A317E4
:105900008504E39224FF4810EFF0631E5C10974576
:105910000400938565A03E95EFF0431C9744040076
:105920009384C4710346940319CA481032CEEFF031
:10593000031C72465C10A6853E95EFF0C313050468
:10594000E31224FF4C102545EFC000518320C116FF
:105950000324811683244116032901168329C115C6
:1059600075618280411122C406C626C28307550193
:105970002A84B9C7A946938707FDB387D70203478F
:105980006501130707FDBA97A38DF114030775018D
:1059900083478501130707FD3307D702938707FD68
:1059A0003E97238EE114830795010347A501938752
:1059B00007FDB387D702130707FDBA97A38EF1142B
:1059C0008307940281CB130710046391E714854782
:1059D000238FF1148307D4039384811599C713058A
:1059E000D403EFE0032C88C4CCC40306140509CA11
:1059F0008844CC442384C118EFF09FA388C4CCC44E
:105A00008307540699C713055406EFE0832988C815
:105A1000CCC80306940709CA8848CC48A384C11897
:105A2000EFF0DFAC88C8CCC88307D40899CF130542
:105A3000D408EFE00327974704009387A782904399
:105A4000D443EFC0436A88CCCCCC8307140A99C7EF
:105A50001305140AEFE04325239CA1168307540B7A
:105A6000B9C7A946938707FDB387D7020347640BDD
:105A7000130707FDBA97238DF1140307740B8347AF
:105A8000840B130707FD3307D702938707FD3E9763
:105A9000A38CE1148307940B0347A40B938707FDA2
:105AA000B387D702130707FDBA97238CF1148385B8
:105AB0003400856703C6C115938707E11307C00348
:105AC0003307E60283C6D115B387F502BA97B697B6
:105AD00023A2F11817F7FF1F130787E0835707006A
