:04C000006F2000525B
:10C0040000000000000000009000002096060020C0
:10C01400A9BDF9F590000020000000000000000018
:10C0240090000020900000200000000000000000AC
:10C03400900000200000000090000020000000009C
:10C04400900000204E02002090000020900000206C
:10C05400900000209000002090000020900000201C
:10C06400900000209000002092000020900000200A
:10C074008A070020900000209000002090000020FB
:10C084009000002026010020BA010020900000202A
:10C0940001A0373700408347470099464111BD8BC3
:10C0A400638CD70231476384E7061147639EE70236
:10C0B400A3030100174600000346C6783737004043
:10C0C400834771006315F6022C001385817997B0BC
:10C0D40001E0E780E07409A88347570093F7F70F5E
:10C0E4002304F1008347810041017300203083471A
:10C0F4007100834687000C08AE97238CD7FE8347D4
:10C104007100850793F7F70FA303F10055BF2800CB
:10C11400973002E0E780202E1375F50FA303A100EA
:10C124000346710055B73747004083474780994617
:10C134004111BD8B638CD70231476384E7061147F5
:10C14400639EE702A3030100174600000346966FAF
:10C1540037470040834771006315F6022C001385AE
:10C16400017C97B001E0E780A06B09A88347578062
:10C1740093F7F70F2304F100834781004101730013
:10C18400203083477100834687800C08AE97238C48
:10C19400D7FE83477100850793F7F70FA303F100D8
:10C1A40055BF2800973002E0E780A0361375F50FDD
:10C1B400A303A1000346710055B7374700408347E6
:10C1C40047C099464111BD8B638CD70231476384C4
:10C1D400E7061147639EE702A30301001756000018
:10C1E4000346268737470040834771006315F602EC
:10C1F4002C001385417D97B001E0E780606209A8B7
:10C20400834757C093F7F70F2304F1008347810056
:10C2140041017300203083477100834687C00C08B6
:10C22400AE97238CD7FE83477100850793F7F70FEA
:10C23400A303F10055BF2800973002E0E780203FB8
:10C244001375F50FA303A1000346710055B74111FF
:10C2540026C4B714004022C603D4C4094204418052
:10C264009317140163DB0700BD450145971002E0F5
:10C27400E780C02F9167239EF4081374041019C833
:10C28400971002E0E780401AB71700401307001028
:10C29400239EE7083244A2444101730020307327EF
:10C2A4000080218B9387C19209CB7327008023A63A
:10C2B400E19298435D9B73100780010001003717DA
:10C2C4000040930670052300D704930680FA2300E8
:10C2D400D704010001008346B70493F6F60DA305C5
:10C2E400D70423000704732600809443A18AD18EC7
:10C2F4007390068023A60192010001009376050243
:10C30400638406180347A700118B25E77327008071
:10C31400218B09CB7327008023A6E19298435D9B70
:10C324007310078001000100371700409306700561
:10C334002300D704930680FA2300D70401000100E8
:10C344008346A70093E646002305D700230007048D
:10C35400F32600809843218B558F7310078023A602
:10C364000192010001001307004B010001007D1739
:10C374006DFF73270080218B09CB7327008023A6D0
:10C38400E19298435D9B7310078001000100371709
:10C394000040930670052300D704930680FA230017
:10C3A400D704010001007D892314A70001000100C6
:10C3B4000100010023000704F32600809843218B29
:10C3C400558F7310078023A6019201000100732783
:10C3D4000080218B09CB7327008023A6E192984328
:10C3E4005D9B73100780010001003717004093061E
:10C3F40070052300D704930680FA2300D7040100B4
:10C40400010001000100B726004013061005A383B4
:10C41400C68023000704F32600809843218B558FA0
:10C424007310078023A60192010001007327008086
:10C43400218B09CB7327008023A6E19298435D9B4F
:10C444007310078001000100371700409306700540
:10C454002300D704930680FA2300D70401000100C7
:10C464008346B70493E60608A305D704230007040C
:10C47400732700809C43A18BD98F7390078023A6D8
:10C48400019201000100828093760504638B0614F7
:10C494000347A700418B25E773270080218B09CB35
:10C4A4007327008023A6E19298435D9B7310078055
:10C4B4000100010037170040930670052300D704DC
:10C4C400930680FA2300D704010001008346A700E5
:10C4D40093E606012305D70023000704F326008012
:10C4E4009843218B558F7310078023A60192010076
:10C4F40001001307007D010001007D176DFF732704
:10C504000080218B09CB7327008023A6E1929843F6
:10C514005D9B7310078001000100371700409306EC
:10C5240070052300D704930680FA2300D704010082
:10C5340001009376F50193E606042314D700010065
:10C5440001000100010023000704F3260080984342
:10C55400218B558F7310078023A6019201000100DF
:10C56400130760046310E50473270080218B09CB53
:10C574007327008023A6E19298435D9B7310078084
:10C584000100010037170040930670052300D7040B
:10C59400930680FA2300D70401000100B726004067
:10C5A4000946B5B573270080218B09CB732700801A
:10C5B40023A6E19298435D9B73100780010001005C
:10C5C40037170040930670052300D704930680FABA
:10C5D4002300D70401000100B726004013062005FC
:10C5E4003DB573270080218B09CB7327008023A6D8
:10C5F400E19298435D9B7310078001000100371797
:10C604000040930670052300D704930680FA2300A4
:10C61400D704010001008356870093E6060C231417
:10C62400D700C5BB4111814601468145114506C667
:10C634008124F3270080A18B9386C19289CBF327B1
:10C64400008023A6F1929C42DD9B73900780010039
:10C654000100B7170040130770052380E704130790
:10C6640080FA2380E7040100010003C7670413670D
:10C6740017002383E70423800704732700809C4268
:10C68400A18BD98F7390078023A60192010001002A
:10C69400B240410182808146014681451145C92A43
:10C6A400F3270080A18B1387C19289CBF3270080E5
:10C6B40023A6F1921C43DD9B7390078001000100C7
:10C6C400B7170040930670052380D704930680FAB9
:10C6D4002380D70401000100FD562396D70223804E
:10C6E4000704F32600801C43A18BD58F7390078029
:10C6F40023A6019201000100F3270080A18B89CBBE
:10C70400F327008023A6F1921C43DD9B73900780DE
:10C7140001000100B7170040930670052380D70479
:10C72400930680FA2380D7040100010083C66704BE
:10C7340093E616002383D70423800704F32600809E
:10C744001C43A18BD58F7390078023A6019201000F
:10C75400010001A0BD473305F50201007D1575FDFB
:10C764008280411122C426C206C6AA8401446317EA
:10C774009400B2402244924441018280050413058E
:10C78400803E4204C13F4180DDB7B7170040130724
:10C7940000032388E7028547174700002326F74450
:10C7A40073002030411106C6A52D97C001E0E78033
:10C7B4008004DDBF2303048015472303E4800100C4
:10C7C4002302A480828083076480E3CE07FE2303D0
:10C7D4000480828083076480E3CE07FE034544809F
:10C7E400828083076480E3CE07FE2302A4808280D4
:10C7F400411126C44AC24EC006C61377F50BAD4795
:10C80400AA892E8995446306F70019456537653F63
:10C814008D444E854537FD59FD1463983401B2406B
:10C82400A2441249824941018280135509011375BA
:10C83400F50F453F2209CDB7011126CC06CEB7042A
:10C84400080051371545BD37713769372AC6A53FEA
:10C8540032459377150089EB136515001375F50FB1
:10C86400F240E24405618280FD14E9FC0145CDBF3C
:10C87400397126DC4ADA4ED852D656D45AD25ED012
:10C8840006DE62CE66CCB7E700E07D5783AA0700D8
:10C8940022C603AA470023A0E71823A2E718B71764
:10C8A4000040130770052380E704130780FA2380F0
:10C8B400E70483C74704930B75FFB684E20793FB31
:10C8C400FB0F8546AA892E8B328937240040E187E5
:10C8D400015763FA76016308D500894613070002FD
:10C8E4006313D5000157D98F93F7F70FB71C004096
:10C8F4002382FC0411472303E4801305F00F5D3DFC
:10C90400094CD135636D7C11B7050700DA9537877B
:10C914000700795563F2E504B3879500636EF70267
:10C92400370B0800A94733EB65016399F90689E4DD
:10C934008144513D26850DA0DA850945553D0509FB
:10C944000345F9FFFD14050B693D81C49377FB0F83
:10C95400FDF7DD3569FD7D55B717004013077005F8
:10C964002380E704130780FA2380E70403C74704FE
:10C97400418B2382E704F250B7E700E023A057116C
:10C9840023A24711E25432445259C259325AA25A8C
:10C99400125B825B724CE24C21618280A5476395F5
:10C9A400F90685691309F00FB3069900B3742B01D6
:10C9B400B6941349F9FFB3749900856B337969010F
:10C9C400416B9387F9FFB3F7270199E363FC3401C3
:10C9D40093D94900C147E3E637FF99BF0569C169A7
:10C9E4007D19D9B71305800D638869011305000209
:10C9F4006384790113051008CA85DD3B353D21DDCB
:10CA04004E99B3843441D9B7DA852D45D533CA94C8
:10CA1400E30099F205097D3BA30FA9FED5BF9387D7
:10CA2400F9FF93F7F70F6361FC0C83C71C0413072A
:10CA34003008631FF70437070800636BEB04B30780
:10CA44009B00B706100063F5D704334BEB0089470E
:10CA54006393F9068980D549E38C04ECDA850945AA
:10CA6400413B11090327C9FF91472320E4800307B1
:10CA74006480E34E07FE23033481FD17EDFBFD14B0
:10CA8400110B81C49377FB0FE9FF7D3371F5E1B599
:10CA9400B717004003C75704B70708001377070206
:10CAA40019E3B78707007955E378FBEA33079B005E
:10CAB400E3FFE7F855B58547E382F9F2DA852D45BA
:10CAC400053B9389F4FFE38504E6293393F73900A2
:10CAD40091EB832604800327090093074900E39A16
:10CAE400E6E43E89CE84F1BFB5476396F9001305A9
:10CAF400900BC93135BDB1471305B00AE38BF9FE7C
:10CB040099476391F904B7050800B365BB002D4547
:10CB1400C53181448D4BA1497539639674018327CE
:10CB240004802320F9008504E39834FF83270480DC
:10CB340013172B01635507002312F900D5BB2322D9
:10CB4400F900FDB39D476399F90281451305B004CB
:10CB54004531BD442320090023220900FD599D3994
:10CB640093F77400CA9703C70700FD14398D238017
:10CB7400A700E39634FF6DBBA1476392F9046D39B6
:10CB84008144630D0B008D479304C0036308FB00CD
:10CB94009304000563048B01930440041375C507D3
:10CBA400E30895D8194539313939054521312685A8
:10CBB4000D3909453D314931E31C05D669BB91471F
:10CBC4006399F90013056006F536F53E13059009DF
:10CBD4000DB7E38F09D4F154A9BB19CD91CD09CE7A
:10CBE40081473387F500834607003307F50085073F
:10CBF4002300D700E317F6FE828019C991C909CA38
:10CC0400910583A7C5FF11057D16232EF5FEC5BF2B
:10CC1400828001C919C62A960505A30FB5FEE31D36
:10CC2400A6FE828081473307F5000307070019E356
:10CC34003E8582808507C5BF01112E8626CAAA8437
:10CC4400131506019305F004418122CC06CE32C6A9
:10CC5400EF1080632A8401C53246A685BD3F228534
:10CC6400F2406244D24405618280854715C18DC17A
:10CC740005C28147B306F5003387F50083C6060075
:10CC8400034707006398E6008507E315F6FE85472A
:10CC94003E8582808147EDBF9307F6FFBE952A96B5
:10CCA4006313C5008280FD1583C715000505A30F16
:10CCB400F5FEFDB7AA87014581CF09CE3E968507CB
:10CCC40003C7F7FF6317B700E39BC7FE05458280E0
:10CCD400828001458280797197670000938787B9C4
:10CCE40022D4804306D626D24AD04ECE52CC56CA3F
:10CCF4005AC85EC662C45DCC37C9C901814B176A84
:10CD04000000130AAABB976400009384E4B61309D5
:10CD1400F937976A0000938AAAB0B709C0A8370BFD
:10CD240040578357240095E35C44639D0B001767C9
:10CD340000002321F7B4032CC4002285EF10E06126
:10CD4400628499A823A6FB00FDB783270A00829773
:10CD5400838664011C4463DB06063307F54063677E
:10CD6400E9089767000023A507AC83552400034511
:10CD74000400979002E0E780A0035C405844A9CFE8
:10CD84001444B6978386640163C5060063E33701E0
:10CD9400DA971CC4A28B3A8449F4976700009387FE
:10CDA40027A89C4B09476378F706F9171767000013
:10CDB4002320F7A8B250225492540259F249624AED
:10CDC400D24A424BB24B224C45618280E377F5F85C
:10CDD4003387F9402A9761B763970B009767000080
:10CDE40023AAE7A889BF23A6EB00B1B7D85009CF7F
:10CDF40063DF06003385A74083A70A016376F50045
:10CE04009767000023A6A7A2A28B404471B7E3F35F
:10CE1400A7FECE97C5B79767000023AB07A059BFFD
:10CE2400411122C417640000130484A21C4006C6E6
:10CE340026C24AC091C782979767000023AA07A019
:10CE44005C4091C382971C406391071C9767000064
:10CE540083C797BE858B9DC797670000A38E07BCC9
:10CE640017670000034777BD954763FDE700EF00B0
:10CE740050419767000083C757BCF5178A07A297EC
:10CE84009C438297176900001309C9BE8347C900F0
:10CE9400918B99C3EF10A0321C4491C3829797647D
:10CEA40000009384E49C984017660000034656975C
:10CEB4009767000083C7C79693961700BA9683D6E0
:10CEC4000600D5CA9767000083C7879563EFC70A32
:10CED40097670000238607941C406398071297679E
:10CEE400000083C7B7B591CF9767000083C7F7B435
:10CEF40089EB97670000A38307B4973004E0E780C9
:10CF040040DB976700009387679B9C43638F070E02
:10CF1400B707C0A817670000232CF7906D3B9767ED
:10CF2400000093876795DC53EDC317670000130770
:10CF3400278F184B9767000083C757956367F70CD3
:10CF440017670000034777AF954763E0E70C834713
:10CF5400C900918BDDEB90409766000083C6568C28
:10CF640063CBD70A2244B240924402494101179349
:10CF740002E0670003C1850793F7F70F9766000087
:10CF84002380F68AE3E6C7F235BF86073E978355CA
:10CF9400070023100700976700002399078C976701
:10CFA40000009387A78A9C431765000003454587C3
:10CFB40013172500BA979C4382979767000083D77D
:10CFC400E78A176700000347A78593C7F7FF7D8D9E
:10CFD4009317170098403E97835707005D8D2310E1
:10CFE400A7009767000083C7A78391C785071767C2
:10CFF40000002307F78217670000034767829767DB
:10D00400000083C7F781E375F7ECB24022449244F1
:10D014000249410182801397170032970357070092
:10D024006DF7850735BFAD6737C70040BD072326B9
:10D03400F7200F100000975700009387677EC84FB2
:10D0440083278726BD66BD0693C7F7FF99836A05C4
:10D054002326D7205D8D82804111B7170040985F49
:10D064003AC6945F3247E39CE6FE32454101828032
:10D0740082800327851163000712411122C406C66A
:10D084008347C5008345C5042A8493F7C70F230645
:10D09400F500834697000356C70013958601618502
:10D0A40063F1C508635A05060345870093F6F6073E
:10D0B400A304D700054693E627006314C50093E64E
:10D0C40017002306D4005C4389075CC3A30AB40099
:10D0D400032504112E864C43090501368327841148
:10D0E40003465401D44303D7C700B296118FD4C367
:10D0F4002396E7008947A30DF40003474403975799
:10D10400000083C787786378F7048347C40093E7F4
:10D1140007012306F40081A093E717002306F40017
:10D1240075B79376F60F635D050203458700854561
:10D1340013E627006314B50013E617002306C400A2
:10D14400A30AD400A30407008547A30DF400832792
:10D1540084119C43DDF3B2402244014541018280A5
:10D1640093E717002306F400A30AD400A3040700DE
:10D17400032504114C4309058D3483278411034688
:10D184005401D44303D7C700B296118FD4C3239656
:10D19400E7008D475DBF0545828097670000938750
:10D1A400E7879C43411122C406C6858B2A84C5EFB8
:10D1B4004165130525F597A003E0E78080D645C5B2
:10D1C4008347A5002315F50083270412BDE7232018
:10D1D400A4122322A41285472310F404232005005B
:10D1E4008347640154412316F5000347D400230404
:10D1F400E5000547A304E5001767000013078783CC
:10D20400184F1385170215811C437D151375F50FEF
:10D214009CC25C43DCC21C479CC65C47DCC61C4BFE
:10D224009CCA5C4BDCCA1C4F9CCE5C4FDCCE19CD37
:10D234009386060213070702C1BF8327441288C3DB
:10D24400835704042322A412850779B79767000043
:10D2540083D7C78B8507176700002319F78AB24065
:10D264002244410182808347C40023090400054508
:10D2740093C747002306F400DDB78347850193F77E
:10D28400E70FD5EF83479501DDEB03462501834680
:10D29400C50009CA83454503175700000347F75ED5
:10D2A40063E7E50013F7060141CF014709C6C18AC8
:10D2B4000357651C81C68356A51C369751C31307B3
:10D2C400C7121755000003552558B335A702374632
:10D2D4000F00411113060624814622C426C206C645
:10D2E4007D543305A70297F004E0E780A0FD97572B
:10D2F400000083C7F759B384A7009767000093879A
:10D30400678003A707098327070963F387003E841F
:10D31400184375FB975700009387475A9C4382979D
:10D3240081476364A400B307A440B2402244B3B766
:10D33400970093C7170092443E854101828081473C
:10D344003E858280797126D206D622D44AD04ECE2A
:10D3540052CC56CA5AC85EC6834735030344751374
:10D36400AA843E941374F40F9307400263F6870073
:10D374001304B4FD1374F40F03AA841383AAC4130F
:10D38400A38B841222865285D68597F004E0E78029
:10D39400E0ED058915E503CBD41201498149337BBE
:10D3A4006403930B50024A865285D68597F004E0B5
:10D3B400E780C0EB058915C5639169031374F90F00
:10D3C400238B8412B250225492540259F249624A75
:10D3D400D24A424BB24B456182808509E20993D916
:10D3E40089410509E31179FDE1BF832785090356C6
:10D3F400E503797193D60701BD8EC206C182358ECD
:10D404001357764093575640898B058B5D8F9357FE
:10D414003640918B5D8F93571640A18B5D8F931788
:10D424001600C18B5D8F9317360093F707025D8F4B
:10D43400931756009355860093F707041E065D8FD5
:10D444001376F60F518F93D7554013D63540118A72
:10D45400898BD18F13D67540D18F13D61540218A6D
:10D46400D18F13961500418AD18F13963500137608
:10D474000602D18F13965500137606049E05D18FAC
:10D4840093F5F50FCD8FA20745465D8F3307C7028D
:10D4940022D42A8426D252CC56CA032A8413832A3D
:10D4A400C4135AC806D63697420741839357774028
:10D4B400135557400989858BC98F135537401189F6
:10D4C400C98F135517402189C98F13151700418936
:10D4D400C98F1315370013750502C98F131557002B
:10D4E40093558700137505041E07C98F1377F70F2B
:10D4F400D98F13D5354013D755401189098B498FDE
:10D5040013D57540498F13D515402189498F13953B
:10D5140015004189498F1395350013750502498F0C
:10D5240013955500137505049E05498F93F5F50F62
:10D534004D8F2207D98FB387C7024AD04ECE5EC61D
:10D5440062C4B697C207C18313D7774013D5574037
:10D554000989058B498F13D537401189498F13D514
:10D5640017402189498F139517004189498F1395D5
:10D57400370013750502498F1395570093D587001B
:10D58400137505049E07498F93F7F70FD98F13D5A9
:10D59400354013D755401189098B498F13D57540F0
:10D5A400498F13D515402189498F13951500418959
:10D5B400498F1395350013750502498F139555004E
:10D5C400137505049E05498F93F5F50F4D8F2207BA
:10D5D400D98FB387C702130650025285D685B697F2
:10D5E400BD8E93940601C18033F6C402137BF60FFB
:10D5F40097F004E0E78080C705890DED8347D412D6
:10D6040001498149B3849702130C5002C1804A86B0
:10D614005285D68597F004E0E78040C50589937B61
:10D62400F90F11C563863403850993F9F90F0509C8
:10D63400E31F89FD230B6413B25022549254025900
:10D64400F249624AD24A424BB24B224C4561828033
:10D654005E8BCDB7011122CC604126CA4AC84EC6A2
:10D6640052C406CEAA841D4A130965058549BC44E3
:10D674006364F400054581A803C7D40083474400CC
:10D68400631B470503C784026304F7000040C5B762
:10D694000347540083C75405E31AF7FE1946CA85A5
:10D6A40013056400EFF06FDCE31235FF0347C40099
:10D6B40083C79402E31CF7FC0357E40083D7A40256
:10D6C400E316F7FC0145F2406244D2444249B249B0
:10D6D400224A05618280E31BF7FA0347540083C79B
:10D6E4005405E315F7FA1946CA8513056400EFF0EB
:10D6F400CFD7E31D35F9F9B7011197570000938788
:10D70400674022CC03A4470B26CA06CE2AC42EC6E1
:10D71400854419E40145F2406244D24405618280A3
:10D724008347910003471400858B6304F70000448A
:10D73400CDB719469305A10013052400EFF0EFD2ED
:10D74400E31795FE0545C1BF011122CC1754000013
:10D754001304043018402AC62EC432C206CE3C4BF1
:10D7640093F7F7F73CCB972004E0E780405118404B
:10D77400975600009386062B3C4B93E707083CCB57
:10D784009C423245A24523A00700034715000348E5
:10D7940025002207420842970348050042970348A0
:10D7A40035006208429798D703475500034865003F
:10D7B40022074208429703484500429703487500F0
:10D7C40062084297D8D7034795000348A50022076B
:10D7D400420842970348850042970348B50062080F
:10D7E400429798DB0347D5000348E5002207420827
:10D7F40042970348C5000345F500429762052A97FE
:10D80400D8DB03C7150003C52500220742052A9764
:10D8140003C505002A9703C5350062052A9798CFEA
:10D8240003C7550003C56500220742052A9703C5AF
:10D8340045002A9703C5750062052A97D8CF03C708
:10D84400950003C5A500220742052A9703C5850054
:10D854002A9703C5B50062052A9798D303C7D50054
:10D8640003C5E500220742052A9703C5C50083C501
:10D87400F5002A97E2052E97D8D3D843759BD8C3D1
:10D88400D84313671700D8C398431367170098C386
:10D89400124698425C43858BD1E71C4F0145230017
:10D8A400F6009C429C4FA183A300F6009C429C4F2F
:10D8B400C1832301F6009C429C4FE183A301F6003F
:10D8C4009C42D84F2302E600D84F2183A302E600EE
:10D8D400D84F41832303E600D84F6183A303E600B6
:10D8E40098532304E60098532183A304E600985335
:10D8F40041832305E60098536183A305E600D853CA
:10D904002306E600D8532183A306E600D8534183B7
:10D914002307E600DC53E183A307F600F2406244E8
:10D92400056182800100B5B7175700001307C70FC0
:10D934001443411122C49C5E4AC006C6998326C280
:10D94400858B3A84175900001309C90DD1CB9C5E0D
:10D95400975400009384040E93F7F7F99CDE17574D
:10D9640000000347870D93070008631BF700832714
:10D9740009009C4393F7070417570000230FF70A85
:10D9840083C7040093F707049DC397570000938748
:10D99400E7F29C4382979757000023A5A70A83C701
:10D9A400040093F7F70B175700002305F70883C704
:10D9B400440093F707048DE7854717570000A30D2C
:10D9C400F706975700009387A7089C43096798C7F1
:10D9D400130700FC975600002380E606D844F8D3CA
:10D9E4001C40985F1183058B09CB985F3D9B98DFA2
:10D9F4000547975600002381E604985F1D83058B35
:10DA040011CB985F1377F7F798DF85471757000016
:10DA14002304F70283270900D8430583058B19C71C
:10DA2400D843759BD8C3D843799BD8C3B24022440A
:10DA34009244024941018280397106DE16DC1ADA09
:10DA44001ED82AD62ED432D236D03ACE3ECC42CAB2
:10DA540046C872C676C47AC27EC0F935F250E25224
:10DA64005253C2533255A255125682567247E24758
:10DA74005248C248324EA24E124F824F2161730067
:10DA84002030975700009387A7FC944397570000D2
:10DA9400938747FA03C70700058B11CB97570000FC
:10DAA400238C07F897570000A38807F8828003C7E0
:10DAB4001700058B65F7F85271FF83C75700DDB770
:10DAC40017580000130848F6032708001C5F9583C5
:10DAD400858BD1E709C61C5BBD832300F60085CA8C
:10DAE40083270800985B460793576701635607002E
:10DAF40093E707C0C207C18303970600C207C18723
:10DB040009C7BA970947B3C7E7022390F60085CD42
:10DB1400834715008DCB9756000083C606F293F613
:10DB240006041387970089478DCA3A950347050071
:10DB3400854699471376F7066311D6026207618713
:10DB4400B947634C0700832708009C5FED838D8BE6
:10DB540017570000A305F7EE81473E85828085476D
:10DB6400EDBF411122C406C617540000130444EE4D
:10DB7400184049E9AE877453FDFE3E85B285975738
:10DB84000000238A07EA972004E0E78040E59757DE
:10DB94000000938767E99C43B70680009843558F3C
:10DBA40098C3D857719BD8D797570000A38607E826
:10DBB40097570000A38007E81C40094798C3B7F7AC
:10DBC40000E003A707D16D9B23A8E7D003A707D1E3
:10DBD4005D9B23A8E7D07300501014401757000032
:10DBE400130747E583472700858B89EB8347370075
:10DBF400858BD9C797570000238007E4B24022449D
:10DC0400410182808D476310F50297570000938786
:10DC1400A7E19C43B70680009843558F98C3D85713
:10DC2400719BD8D75DBF8547E319F5FAB567BD0782
:10DC34005CC70F1000001C400967094698C713070A
:10DC440000F8975600002389E6DE175700001307F3
:10DC5400A7DD1443984231830D8B6319C700130762
:10DC6400E043F8D33D673D07D8C785BF9842318369
:10DC74000D8B01E713076019EDB71307E01BD5B748
:10DC8400FC52ADF3A5BF5D7152DC175A0000130AB4
:10DC9400AAD903270A0086C6A2C4A6C2CAC04EDEF9
:10DCA4001C4397590000938969DF17590000130931
:10DCB40029DA93F7F7E793E707081CC383A609005B
:10DCC4003707CEFF7D179C46130680022A84F98FFE
:10DCD4009CC683270900130700082800B8CBAE842C
:10DCE40093051008EFE0FFF2972004E0E78020F9A5
:10DCF400972004E0E780200683270A009376F41F28
:10DD0400370FFCFF23A40700984B4E88CA8813677B
:10DD1400F70398CBF84F130510F8D285137707E073
:10DD2400558FF8CF9843F576FD16758F98C39843B1
:10DD3400B7063300B70204001377F7E798C3984394
:10DD44009303401F7D1F1377F7E71367071098C3EA
:10DD540003A70900930F800285491C47D58F1CC770
:10DD6400832709001307900D3400B8CB11490147EC
:10DD74001353370026938347030013767700B3D7F2
:10DD8400C740858BDDCF9C41832E0800239C07046C
:10DD94002390070603AECE02137EDEFF23A6CE0336
:10DDA40083AE0700137EF70793FE0EF833EECE0121
:10DDB40023A0C70103AE4702336E5E0023A2C7034C
:10DDC40083AE0800014E23A27E0603DA070663072A
:10DDD4004E0303AE0703038A0600135EFE00620EC1
:10DDE400135E8E416358CA0103AE0703135EFE003F
:10DDF4002380C60103DE0706137EFE0F03AA4E0628
:10DE040063060A0003DA8705E37F49FB03AE470292
:10DE1400337EEE0123A2C70383870600635CF4000C
:10DE2400034E03003396C9001346F6FF3376C6014A
:10DE34002300C3003E8663D3A7002A8613158601F8
:10DE4400618505071377F70F8506E313F7F3B640EB
:10DE5400264496440649F259625A61618280975673
:10DE640000009386E6BE9C42D847131617016355FB
:10DE74000602984713161701635006027D57B8D758
:10DE8400175700001307C799584F05071756000086
:10DE94002326E69A116798C798470D83058B1DC3FF
:10DEA40017570000034727B91367170017560000D8
:10DEB4002303E6B8130700F817560000230EE6B64E
:10DEC400214798C79847058B09CF17570000034788
:10DED40077B61367170017560000A30DE6B405477D
:10DEE40098C798470983058B09E798470583058BED
:10DEF40031CF9847175600001306C6B317550000D4
:10DF0400130585B20983058B630307101841184371
:10DF140031830D8B75EBAC4B184E93F5050203471B
:10DF24001700CDCD79EF13077006D8CF034706004D
:10DF34001367170017560000230EE6AE114798C763
:10DF440018415C57F19B93E717005CD79C429847B4
:10DF54009316370163D606029756000083C6C6C1DE
:10DF6400C18A175700001307E7B9C5CE034747070F
:10DF740013670702975600002380E6C0056798C719
:10DF840098479316270163D10602175700000347E9
:10DF9400A7AA6207618763570700054797560000E1
:10DFA400238CE6A8096798C798479316070163D698
:10DFB40006029756000083C636BC858A17570000B0
:10DFC400130747B4ADCE0347570713672700975687
:10DFD4000000A383E6BA216798C7828029D78545C4
:10DFE4006315B7001307B00689B789456315B700F1
:10DFF4001307F0061DBF8D456315B70013073007DF
:10E004002DB71307500715B71307600739BF034728
:10E0140036001367170017560000A30EE6A0094741
:10E0240039BF834647070946BD8A6388C60003474C
:10E0340047078D463D8BE313D7F4114725BF83462D
:10E044005707918AC9DA034757071367870041B70F
:10E05400397106DE16DC1ADA1ED82AD62ED432D24C
:10E0640036D03ACE3ECC42CA46C872C676C47AC2CC
:10E074007EC0F533F250E2525253C2533255A25588
:10E08400125682567247E2475248C248324EA24E56
:10E09400124F824F2161730020301757000013077D
:10E0A400679B8346B7019757000083C7779D4C4B06
:10E0B400B697FD8B33D7F50097560000A38CF698DE
:10E0C40097560000A38EF69A058B15EF175700009C
:10E0D4000347579BB3F7E702814601471305000244
:10E0E40033D6E500058A1378F70F19CA6397D7006A
:10E0F40097570000A38007978280850693F6F60F52
:10E104000507E31FA7FC8280974700009387077BDE
:10E114009C43011122CC4EC606CE26CA4AC852C41C
:10E1240056C28297975700009387C79480478149C6
:10E134006305A406BE84974700009387E7730387AB
:10E1440067013E8963550706018D1354550097579F
:10E15400000083C7C7919379F501636DF402370A10
:10E16400C0A8B70A4057153F9C449756000083C681
:10E174000690139756003E9783076901158C63C573
:10E1840007006363470156979757000023A8E78E5B
:10E19400E37BD4FC1604B3693401F24062444E8537
:10E1A400D2444249B249224A924A05618280E37DBF
:10E1B40085F8B707C0A833848740229579B7974775
:10E1C40000009387A76F9C43411122C406C626C250
:10E1D4008297975700009387E78980476309A406CD
:10E1E400BE8497470000938727698387670163D8B4
:10E1F4000704018D135455009757000083C72787E0
:10E204006367F404593D98449757000083C72786F1
:10E214009396570036971D8C9756000023A0E686E8
:10E22400E372F4FE2244B2409244175500000345C1
:10E23400758281454101172304E06700E3F8E37A1E
:10E2440085FAB707C0A833848740229565B7B240E2
:10E2540022449244410182809757000093870784A7
:10E264009843B75702009387079F8326070913969D
:10E274005600635806008326070913966600634414
:10E284000600FD17FDF3828071C5AA870145E9C523
:10E294008D07C207C183F19BC207C18313074003E3
:10E2A400636FF70217570000130747850843175792
:10E2B40000001307278414436398A602174700003D
:10E2C4001307875B185B014541CB4111C20706C6A2
:10E2D4000545DD8D0297B240014541018280175703
:10E2E400000013076781D9B70357650035E3035767
:10E2F4004500636FF704B306F7402146637CD602FA
:10E3040003280500938687001D8FAA966117174678
:10E314000000035646512392E60023A006012393EE
:10E32400060014C12312F500130786FF9746000068
:10E33400239BE64E2313B5009745000083D5A54ED5
:10E34400B387F54017470000231FF74C210582804F
:10E3540008419DB70145828082800DC19747000026
:10E364009387C77903A307009747000093878778AB
:10E3740083A8070081469A8763E31701828003A874
:10E384000700636DF50A636BA80A13878700E367C8
:10E39400E5FE03D66700216705076317E60003C798
:10E3A400C19D0507238EE19C974500009385454751
:10E3B40003D6470003D7650023930700329742072B
:10E3C4004183174500002310E546638A6702174519
:10E3D40000001305657208416303F50203D5660066
:10E3E40019ED83D7460023A0060121073E96210696
:10E3F4002392C600974700002397E742B6879843C5
:10E40400E30E17F7974600009386066F9442E307DE
:10E41400D7F683566700BDF283D6470003564700FC
:10E424001843A106B2962392D70098C383D76500F8
:10E43400A107174700002318F73E8280BE86C287D3
:10E4440025BF0111974700009387C76B22CC03A413
:10E45400C70B26CA4AC84EC606CEAA84130925008D
:10E46400854915C083C7140003473400858B6304B2
:10E47400F700405CFDB71946930544004A85EFE078
:10E48400CFFEE31835FF2285F2406244D24442496C
:10E49400B2490561828041119747000093878766DE
:10E4A40022C403A4C70B26C24AC006C6930425008F
:10E4B400054901E82285B2402244924402494101BF
:10E4C4008280A6851305A40297E004E0E780408FCC
:10E4D400E30225FF405CF1BF411197470000938799
:10E4E400676222C403A4C70B26C24AC006C69304AB
:10E4F4002500054901E82285B2402244924402499C
:10E5040041018280A6851305A40197E004E0E78019
:0CE51400208BE30225FF405CF1BF0000FB
:10E520009751FF1F938181B717A1FF1F130181AD81
:10E5300017E5FFFF130545AD9725FF1F938585ACB4
:10E540001746FF1F1306C6FD63FAC50083220500A8
:10E5500023A0550011059105E3EAC5FE1725050026
:10E56000130585999745FF1F938585FB13860187C2
:10E5700063FAC5008322050023A05500110591050B
:10E58000E3EAC5FE138501879785FF1F938585699B
:10E590006377B500232005001105E36DB5FEFD424C
:10E5A000739002BC8D42739042809302800873A0E6
:10E5B00002309722FF1F9382E2A493E2320073900D
:10E5C0005230978201009382029973901234730043
:10E5D00020303D432A876373C3029377F700BDEF72
:10E5E000ADE5937606FF3D8ABA960CC34CC30CC7C3
:10E5F0004CC74107E36BD7FE11E28280B306C340EC
:10E600008A069702000096966780A6002307B70047
:10E61000A306B7002306B700A305B7002305B7007C
:10E62000A304B7002304B700A303B7002303B70074
:10E63000A302B7002302B700A301B7002301B7006C
:10E64000A300B7002300B700828093F5F50F9396DF
:10E650008500D58D93960501D58D61B793962700DA
:10E660009702000096968682E78086FA9680C11708
:10E670001D8F3E96E374C3F8A5B73367B500FD530D
:10E680000D8B79E7B7877F7F9387F7F71041944128
:10E69000B372F6003363F600BE92B3E26200639792
:10E6A000720C6318D6065041D441B372F60033633E
:10E6B000F600BE92B3E262006398720A631BD6044E
:10E6C00010459445B372F6003363F600BE92B3E290
:10E6D00062006391720A631ED6025045D445B3723C
:10E6E000F6003363F600BE92B3E26200639A7208EA
:10E6F0006311D60210499449B372F6003363F600F1
:10E70000BE92B3E26200639372085105D105E30F34
:10E71000D6F61317060193970601631CF7001357EB
:10E72000060193D706013305F7409375F50F91E97C
:10E7300082804183C1833305F7409375F50F91E1E2
:10E7400082801377F70F93F7F70F3305F740828036
:10E750000346050083C60500050585056313D6003D
:10E7600065FA3305D640828011059105E312D6FE85
:10E77000014582802105A105E31CD6FC014582806C
:10E780003105B105E316D6FC014582804105C1057E
:10E79000E310D6FC01458280014711464148B3860B
:10E7A000E5008147B308F50083C808008507C10666
:10E7B00023A816FFE398C7FE11071105E31107FF11
:10E7C0008280935785019CC19357054193F7F70FBA
:10E7D000DCC19357854093F7F70F1375F50F9CC570
:10E7E000C8C582801C414111130705013EC05C4130
:10E7F0003EC21C453EC45C453EC6939725001408A6
:10E80000B69783A707FF85051105232EF5FE8D8991
:10E81000E315E5FE41018280397122DC41661384F3
:10E8200081A506DE26DA4AD84ED652D456D25AD020
:10E830005ECE93050501A2863708FF007D1683078B
:10E840000500034735001105E207D98F0307D5FFFF
:10E850009106420733770701D98F0307E5FF2207A7
:10E86000718FD98F23AEF6FEE39BA5FC81499144BD
:10E87000930A010117AB0400130BCB9B97AB040069
:10E88000938BCB98130AC00293F73400032904003A
:10E890004844BDE78A85353785450A85A1370A870B
:10E8A0001C43110793F6F70093F7070FDA97B69713
:10E8B00083C70700232EF7FEE394EAFE0245924742
:10E8C0006205C2075D8DB2475D8DA247A2075D8DCF
:10E8D00093972900DE979C4385093D8D334525019B
:10E8E00008C885041104E39144FBF2506254D254E9
:10E8F0004259B259225A925A025BF24B21618280EC
:10E900003345A90008C8F1BF797122D426D24AD074
:10E910004ECE52CC56CA06D62A8A93994500014457
:10E92000938A81A513090101C144B3073401D69725
:10E9300088438A85793533078A008A871443904350
:10E9400091074107B18E2328D7FEE39927FF1104D1
:10E95000E31D94FCB250225492540259F249624A87
:10E96000D24A45618280397122DC1304050106DE3A
:10E9700022878147C1460C433306F10011070CC2C0
:10E980004C4710083E960CC24C4F10103E960CC2DD
:10E990009107E392D7FE85450A85A9358945080880
:10E9A00091358D4508103D3D81474147B306F10043
:10E9B00094421104232ED4FE1408BE96944254C4EB
:10E9C0001410BE969442910754CCE391E7FEF250A6
:10E9D00062542161828006059377051089C71375FB
:10E9E000F50F1345B5018280411106C6ED37B240DF
:10E9F0004101D5B781471148C1483386F500B306B8
:10EA0000F500014703AE06003303E60005072300C7
:10EA1000C301C106E31807FF9107E39017FF828047
:10EA20009306050117A604001306C69013050505F5
:10EA3000138706FF1C43110793F5F70093F7070FA1
:10EA4000B297AE9783C70700232EF7FEE394E6FE46
:10EA5000C106E31FD5FC82801C414111FD563EC01A
:10EA60005C413EC21C453EC45C453EC68D47B385F5
:10EA7000B7409307C5001397250010083297032766
:10EA800007FFFD1598C36393D5008D451387C7FF16
:10EA90006314F50041018280BA87F1BF397122DC2D
:10EAA0001304050106DE22878147C1460C43330665
:10EAB000F10011070CC24C4710083E960CC24C4F97
:10EAC00010103E960CC29107E392D7FE85450A8549
:10EAD00061378945080849378D450810B53F81479A
:10EAE0004147B306F10094421104232ED4FE1408CA
:10EAF000BE96944254C41410BE969442910754CCCE
:10EB0000E391E7FEF2506254216182809306050191
:10EB1000179604001306067213050505138706FFF2
:10EB20001C43110793F5F70093F7070FB297AE97C1
:10EB300083C70700232EF7FEE394E6FEC106E31F1A
:10EB4000D5FC8280411122C406C626C285472E8488
:10EB50006301F50289476318F5002244B2409244EC
:10EB60002E8541018DBD8D47631BF5002E85A53592
:10EB7000298C2285B2402244924441018280A547DB
:10EB80006315F5002E858D35DDB7AD47631AF500A9
:10EB90002E85993D8935AA842285353D258DC9BFAD
:10EBA000B5476316F5002E858135AA84FDB7B947B0
:10EBB000E311F5FC2E850D3DAA84313DA98C2285FB
:10EBC000193D3344950075B7597186D6A2D4A6D2A3
:10EBD000CAD0CECED2CCD6CADAC8DEC6E2C4E6C22D
:10EBE000930605040A87AA879043C1074107232893
:10EBF000C7FE03A647FF232AC7FE03A687FF232CD1
:10EC0000C7FE03A6C7FF232EC7FEE39FD7FC17A9A5
:10EC1000040013092986130A050193090505832CAD
:10EC20000900032C4900832B8900032BC900930A98
:10EC30000AFF8A848C406685910A29378C482A8489
:10EC4000628509378C50298C5E85ED3D8C58298C66
:10EC50005A85CD3D218D23AEAAFE9104E31C5AFDB9
:10EC6000410A4109E39D49FBB65026549654065982
:10EC7000F649664AD64A464BB64B264C964C6561D9
:10EC800082806382051493F7F500639E0712157165
:10EC9000D6C3AA8A3285A2CDA6CB86CFCAC9CEC793
:10ECA000D2C5DAC15EDF62DD66DB6AD96ED7328437
:10ECB000AE84EF502439C147631EF5002285A93E7A
:10ECC0000149130A0106979B0400938BAB7A294CE8
:10ECD00063419902FE406E44DE444E49BE492E4ACD
:10ECE0009E4A0E4BFA5B6A5CDA5C4A5DBA5D2D6146
:10ECF0008280338B2A010C105A85793C814508109B
:10ED000021318549081019350810B1391C10D286F7
:10ED10003E8710434107C10623A8C6FE032647FFCE
:10ED200023AAC6FE032687FF23ACC6FE0326C7FF21
:10ED300023AEC6FEE31FEAFC179704001307876F94
:10ED400003280700832D4700032D8700832CC7006D
:10ED50005284138607010C4042853ECE3ACC32CA1B
:10ED600042C8CD330C482AC66E85E93BB2460C50EA
:10ED70001104A98E6A8536C6F133B2464C54A98E69
:10ED8000668536C6C133B246F2475246358D88C3D2
:10ED9000910742486247E310F6FC4107B287E391CE
:10EDA000EBFACE85081085098536E39D89F50810B4
:10EDB000B13B08104D3EA9450810B936DA85081058
:10EDC0001539410931B78280638D051093F7F5003D
:10EDD000639907105171CECFAA893285A2D5A6D3E7
:10EDE00086D7CAD1D2CDD6CBDAC9DEC73284AE84BB
:10EDF000EF504425C1476319F5002285313C014994
:10EE0000138B81A5634D9900BE502E549E540E590C
:10EE1000FE496E4ADE4A4E4BBE4B6D618280338A9C
:10EE200029018C0052858D3AA9458800F13C138454
:10EE300081AEC14A930B00048800DD368800B939E1
:10EE40008800593308408A85AD3A48400C08953A05
:10EE500008440C10BD3248440C18A53218018147F3
:10EE6000B306F100944241072328D7FE1408BE964A
:10EE70009442232AD7FE1410BE969442232CD7FE28
:10EE80001418BE9694429107232ED7FEE39A57FD9D
:10EE900008011D3B01479C003385E7001C01B305B9
:10EEA000F70081473306F5003388F5001442032844
:10EEB00008009107B3C6060114C2E39557FF410746
:10EEC000E31B77FD4114E31964F78800913E880045
:10EED000F136814588000D3CD2858800213E4109EC
:10EEE00015B782809307F00F6385F60A2D71232AE8
:10EEF000911023282111B28423263111130600100A
:10EF00002E89AA89930530020A85232E1110232CFD
:10EF100081103684EFF0EFEBA2852685EF00317487
:10EF200013178500935785003365F7002310A10060
:10EF3000A685228613053100930434002301810045
:10EF400093F4F40FEF40441B93F6F40089C64D048C
:10EF5000158C9374F40F1C02A697A6850A85179644
:10EF600004001306E656238007F0213B26868A8597
:10EF70004E85EF406418230099008320C1110324BB
:10EF8000811183244111032901118329C1101561C5
:10EF900082808280797122D432844AD04ECE2A89EE
:10EFA000AE892285B685179604001306665226D2CE
:10EFB00052CC06D636C6093DB246130A34005285F5
:10EFC000A2962380060083440400834714008345EF
:10EFD0002400A204DD8CEF009168639AA40203462A
:10EFE0002400D2854A852380C900EF508409254535
:10EFF000979504009385054CEF00316A0545B250A2
:10F00000225492540259F249624A45618280238017
:10F010000900254523000900979504009385454A7A
:10F02000EF00B1670145E1BF411106C6EFC0601FA7
:10F03000B240AA8617970400130747501756FF1FC0
:10F04000130606FF979504009385C55011454101AD
:10F050006F007179130101D92322912623202127E2
:10F060002326112623248126232E3125232C4125D6
:10F07000232A5125232861252326712503470500CE
:10F08000930710042A89AE84E31AF7020347150098
:10F0900093074005E314F702034725009307E005B3
:10F0A000E31EF7002E86AA852545EF007169130639
:10F0B000D003A6854A85EF1041012A84635A0500D2
:10F0C0003546A6854A85EF1041002A846344050829
:10F0D0009309D4FF9307100363CE37074E86930539
:10F0E00039002810EF40F4799C04BE99179A040067
:10F0F000130A8A7A238409DED28A8149594B8325EF
:10F100004A002810EF0031760DC18E09D69983D7B9
:10F1100009005547636FF700179704001307873CF2
:10F120008A07BA979C43BA9782878509210AE39890
:10F1300069FD9795040093856575DDA89385F4FFB7
:10F14000818D13051400C20581460146C1814A958F
:10F15000EF5080128320C126032481268324412678
:10F16000032901268329C125032A8125832A4125D4
:10F17000032B0125832BC1241301012782801386D1
:10F18000F4FF018E9305140042064182CA95E808F7
:10F19000EF10E11B1305D105EF40D46A931505016B
:10F1A000C1811305D105EF10E128979504009385DF
:10F1B000A53B1305D105EF00116B19CD9795040000
:10F1C0009385053B0545EF00514D1765FF1F03452E
:10F1D000359DEF90A037BDBF979504009385853A84
:10F1E0001305D105EF00316819CD9795040093857B
:10F1F000E5390545EF00714A1765FF1F0345559A2C
:10F20000EF90803781BF97950400938525391305CA
:10F21000D105EF0051650DC1371700408327C70A9C
:10F22000A166979504009385E537D58F2326F70AC5
:10F230002545EF00914639BF9795040093854537E2
:10F240001305D105EF00316211CD37170040832738
:10F25000870AA1669795040093850536D58F2324E8
:10F26000F70AF9B797950400938585351305D105FD
:10F27000EF00715F05C1B716004083A7C60C056794
:10F2800013070780D98F23A6F60C97950400938562
:10F29000E53379BF97950400938545341305D1056F
:10F2A000EF00715C05C1B716004083A7860C0567A7
:10F2B00013070780D98F23A4F60C97950400938534
:10F2C000A532BDB797950400938505331305D10585
:10F2D000EF00715911CD371700408327870C9795A0
:10F2E00004009385253293E707402324F70C89B760
:10F2F000979504009385C5311305D105EF00B156EC
:10F3000011CD371700408327C70C979504009385CC
:10F31000E53093E707402326F70C19BF97950400C3
:10F32000938585301305D105EF00F15311C93717C7
:10F3300000408327870C8566D58F2324F70C19BDE1
:10F34000979504009385C52E1305D105EF00B151A3
:10F3500011C9371700408327C70C8566D58F232630
:10F36000F70CCDBB979504009385052D1305D105AA
:10F37000EF00714F11C59767FF1F23A50784D9BB05
:10F38000979504009385052C1305D105EF00B14D29
:10F3900001C5EF90303C7DBB979504009385452BCC
:10F3A0001305D105EF00314C01C5EF90F0045DB3BA
:10F3B000979504009385852A1305D105EF00B14A7E
:10F3C00001C5EF90207B79B3979504009385C529FB
:10F3D0001305D105EF00314901C5EF10910B9DBB1D
:10F3E000979504009385C5281305D105EF00B14713
:10F3F00001C5EF103112B9BB979504009385C5275D
:10F400001305D105EF00314601C5EFD0203B99B37C
:10F41000979504009385C5261305D105EF00B144E7
:10F4200001C5EFD0003A3DB3979504009385C525FB
:10F430001305D105EF00314301C5EFD0E03819BB0A
:10F4400097950400938505251305D105EF00B1417B
:10F4500001C5EFF0106DFDB9979504009385052463
:10F460001305D105EF00314001C5EF402175DDB135
:10F4700097950400938505231305D105EF00B13E50
:10F480002DC513059109EF3014442A841305510D3D
:10F49000AE84EF3054432A8913051111AE89EF3041
:10F4A00094422A8A1305D114AE8AEF30D4412A8BB4
:10F4B000AE8B2A88AE885287D6874A86CE8622852A
:10F4C000A685EF30E0082AC42EC65AC05EC2528814
:10F4D000D6884A87CE872286A6869795040093858C
:10F4E000A51C2545EF003130B5B1979504009385F3
:10F4F000E51D1305D105EF00113711C58145014503
:10F50000EF40817D81B90346D105A547130606FD6D
:10F510001376F60FE3E0C7C49757FF1FA38AC768A7
:10F52000979504009385051BEF00F12B25B11386F9
:10F53000F4FF018E130514004206418297B50400C2
:10F540009385859B4A95EF00B1451754FF1F13041F
:10F55000646431C59795040093850519E808EF4068
:10F56000542DE808EF40142E131605014182EC08D3
:10F5700013858179EFC020779795040093858519CD
:10F580001145EF00911183570400414593E717009F
:10F590001757FF1F2310F760EF10415565BE979571
:10F5A00004009385E5171145EF00310F7D55EF10ED
:10F5B000415E83570400F99B1757FF1F231CF75C1C
:10F5C00051BE9D3441BE1386F4FF018E1305140015
:10F5D0004206418297B50400938505924A95EF0053
:10F5E000313C1754FF1F1304E45A29C18357040008
:10F5F0009795040093858513E80893E7170017573C
:10F60000FF1F2319F758EF40D422E808EF40942356
:10F6100013160501EC08418213858179EFC0A06CB7
:10F620009795040093854512114521B197950400E3
:10F6300093854512E808EF40D41FE808EF40942076
:10F6400013160501EC08418213858179EFC0A0698A
:10F65000835704009795040093858511F99B1757EC
:10F66000FF1F2319F752C9B7EFB0C06B9757FF1FA1
:10F6700093874752E843EF30447CAE862A869795BD
:10F6800004009385A50F1145EF00F115E1B4EF904B
:10F690002004C9B4B717004083A7470C17B604006D
:10F6A00013068685139797006356070017B6040064
:10F6B00013060685979504009385050D1145ADB594
:10F6C000EFB0F039979504009385C50C31FD9795FF
:10F6D00004009385250D89BF3545EFD04003AA84EA
:10F6E000EF30A4752A86AE8625459795040093854C
:10F6F000A50CEF00510F979704009387A7E6884366
:10F70000A6851754FF1F1304E4A9EF20143D2324FA
:10F71000A426EFB0103B03258426EF300472AE869A
:10F720002A86979504009385E509B1BF8145154563
:10F73000EF90E070EFB0302E2A8697950400938505
:10F74000250BADBF81451145EF90606F81451305D5
:10F750009002EF90C06E81450D45EF90406EEFB086
:10F76000F02B2ACEEFB0502CF2462A871756FF1FF7
:10F770001306068C97950400938585081145EF00C4
:10F780009106C9BA1757FF1F0357A7C79756FF1F00
:10F79000938666AB1756FF1F13068689979504005C
:10F7A00093854508E1BF85471757FF1F2308F7C614
:10F7B000EFB030319795040093850508B5B517571C
:10F7C000FF1F0347A7C58547979504009385450705
:10F7D000E31CF7E4C5B785471757FF1FA30BF7C80E
:10F7E000EFB0302E979504009385450635BD9757A9
:10F7F000FF1F83C717C8979504009385A505E38568
:10F8000007E2CDB79757FF1F9387C738A843EF305C
:10F81000C462AE862A869795040093856504A5B5D3
:10F82000792105044A94314681451755FF1F130578
:10F8300005BB9710FF1FE780003E8144930AA40098
:10F84000695AB30994400946CE85E8089710FF1F0E
:10F85000E780E03833899A000946CA854E859710BB
:10F86000FF1FE780C0370946EC084A85F914971056
:10F87000FF1FE780C036E39644FD1946A285175561
:10F88000FF1F1305C5B5EF00911F81451755FF1FD9
:10F890001305E5B4A52C228697950400938585FD74
:10F8A0001145EF00417401469705000093856540BE
:10F8B00013056009EF80F0256FF0DF890146A6850A
:10F8C0004A85EF90C03A6FF0FF887971B147230005
:10F8D000F1009307170022D4A300F10006D62301FC
:10F8E000C1002A848D4715C7814713863700081049
:10F8F0001376F60F2A963385F60003450500850733
:10F900002300A6FE13F6F70FE311E6FE0D0793772B
:10F91000F70F81460147850613F6F60F6368F60474
:10F920001410BE962380E6FE138717001410137779
:10F93000F70F3697B5462300D7FE9386270093F638
:10F94000F60F0A862285EF408131DD47631CF50002
:10F95000154597A504009385259DEF000154228548
:10F96000EF40E12DB2502254456182803306D10030
:10F970000346060032971377F70F71BF85472A8633
:10F98000AE8663E3A702930780043307F5029387EB
:10F9900081B01545BA9798474D8F98C797A5040031
:10F9A000938545996F0021648280411122C406C667
:10F9B00083C7F1B02A8481C7AA850145C13783C7AF
:10F9C00071B599C7A2852244B240054541017DB772
:10F9D000B240224441018280411122C406C69737B9
:10F9E000FF1F9387A7EB038507007D54630F8502F4
:10F9F0001375F50FEF8050229737FF1F238087EA9A
:10FA0000138401870306040097A504009385459499
:10FA10001545EF00415D830704006355F000FD17B5
:10FA20002388F186370510004937B24022448547C4
:10FA3000A388F186410182804111FD5706C6173720
:10FA4000FF1F230DF7E4938701870386070097A51F
:10FA50000400938565911545EF00E15837051000C6
:10FA6000A937B240A38801864101828085472A8652
:10FA7000AE8663E5A702930780043307F5029387F8
:10FA800081B093C5F5FF1545BA9798476D8F98C714
:10FA900097950400938505056F00E154828041111C
:10FAA00022C426C206C683C7F1B02A84938481B0DB
:10FAB00091CB98449347F5FFAA85F98F014523A878
:10FAC000F1B06D3783C771B591CFBC481347F4FFD0
:10FAD000A2852244B2409244F98F23ACF1B405458B
:10FAE000410169B7B24022449244410182809307A8
:10FAF00080043305F502938781B03E9583477500F6
:10FB000081C708456D8D82800145828001114EC6F6
:10FB100006CE22CC26CA4AC852C483C9F1B0638A31
:10FB2000090883C771B57D54A5EF8549054A1304BB
:10FB30008004B3078A02138481B02E89AA84130635
:10FB4000800481453E9422859710FF1FE780A00C1A
:10FB50008547A303F40022851946A6859710FF1F49
:10FB6000E780E0079757FF1F9387C702DC5B2303FB
:10FB70002401CA855CCC2685EF40C11C9747FF1F36
:10FB800093874762D29703C7D72F930760062A84CB
:10FB90006308F700B7455F069385F5804E85F93B0E
:10FBA0002285F2406244D2444249B249224A056168
:10FBB0008280014AADBF011122CC13048004B30737
:10FBC0008502138481B026CA06CE4AC84EC6AA84CE
:10FBD0003E948347740095C32A86979504009385C5
:10FBE000A5F31545EF0021407D542285F240624483
:10FBF000D2444249B249056182802E89B2899795E3
:10FC000004009385A5F32A861545EF00C13D2285A2
:10FC10001306800481459710FF1FE780C0FF8547CA
:10FC2000A303F40022851946CA859710FF1FE780B9
:10FC300000FB9757FF1F9387E7F5DC5B2303340135
:10FC40004E865CCCCA852685EF40411C9747FF1F36
:10FC500093874755A69703C7D72F930760062A8433
:10FC6000E305F7F8B7455F069385F58026853933B8
:10FC7000ADBF011119468145280006CE9710FF1F20
:10FC8000E78060F9130600098145138581B097105C
:10FC9000FF1FE78040F81757FF1F0347378285474C
:10FCA0006314F700EF107119F24005618280411171
:10FCB00006C6EF4061218145138581B01306000916
:10FCC0009710FF1FE78020F5B240979504009385B9
:10FCD00025E3154541016F000131854763E2A70225
:10FCE00093078004B307F502138781B00145B3067B
:10FCF000F70083C6760091C6B1073305F70082800E
:10FD000001458280797122D426D24AD006D64ECEC1
:10FD100052CC56CA5AC801449744FF1F9384844862
:10FD200013096006EF40615F636CA400EFF0504779
:10FD300029C185450145EF4041638545054519A821
:10FD4000B387840083C7D72F63912703EF400165F2
:10FD5000854522852254B25092540259F249624A92
:10FD6000D24A424B45616F40416005041374F40F61
:10FD700055BFEFF0F0422A8415E19759FF1F938990
:10FD800069E1314A979A0400938A8ACC179B040050
:10FD9000130B8BCAEF406158636CA400B25022541D
:10FDA00092540259F249624AD24A424B45618280DA
:10FDB000228525372A892285EF406154AA84630E63
:10FDC000090625CD1747FF1F03470761B305470302
:10FDD00003A6490383260901B307D640B3F7B70248
:10FDE00091EF630DD60019CBDA8515452286EF0019
:10FDF000811F930530022285EF40215C83D7840167
:10FE0000A9E39757FF1F83C7B7DDB1E3814522857B
:10FE1000EF40A15583D68401228536C6EF40215C90
:10FE200003A7490383270901B2462286B307F74097
:10FE3000D6852A871545EF00011B05041374F40FBE
:10FE400091BFFD17C207C183239CF400DDDB85450C
:10FE50007DBF797106D622D4EF40214C69C5174782
:10FE6000FF1F0347F76393076006630EF70A174700
:10FE7000FF1F034707636308F70A138481B07C40C0
:10FE8000858BD5E38327C408858BD1EF83C7F1B079
:10FE9000A1C79757FF1F9387E7CF584CDC5B998F1B
:10FEA0001307B012637AF70283474404056593E7AA
:10FEB00017002386F1B4EF10611219466C002285F9
:10FEC000EF0061377000979504009385E5BA1545FA
:10FED000230C0100EF00211183C771B5A9C7975703
:10FEE000FF1F938727CB7850DC5B998F1307B012E5
:10FEF000637BF7028347C408056593E71700238AED
:10FF0000F1B8EF10A10D19466C00138501B5EF0093
:10FF10008132700097950400938505B61545230C32
:10FF20000100EF00410CB2502254456182803971CA
:10FF300006DE22DC26DA4AD84ED652D456D2EF401C
:10FF4000C13D55C11747FF1F0347975593076006EB
:10FF5000630BF7081747FF1F0347A7546305F7080C
:10FF600083C731874D476369F7088507A389F18601
:10FF70009747FF1F83C74746D9EFE13D13840187A9
:10FF8000830704006351F006EFF09021630E050E25
:10FF90009737FF1F9387879003870700FD576314E8
:10FFA000F704014697050000938545A91305A00FA6
:10FFB000EF802036030604009737FF1F2380A78EAB
:10FFC00097950400938585B01545EF00C101EFA01A
:10FFD000F047014689450145EFD0904A8347040028
:10FFE000FD172388F186F2506254D2544259B25917
:10FFF000225A925A2161828097950400938505A91F
:020000021000EC
:100000001545A3890186EFF0107E370510000D0518
:10001000EFF0BF99B1BF138481B0138981B98544D2
:100020009759FF1F938909B7130AC003979A0400D1
:10003000938A8AA883477400B9C383470402638004
:1000400097045C4C03A749031D8F9747FF1F83C785
:10005000A738B38747036364F70213050020230022
:100060009402EF00B17719466C002285EF00A11CC5
:100070007000D6851545230C0100EFF0D0761304EF
:100080008404E31924FBD5BD37051000EFF0FF9180
:10009000A388018623880186B9B75D71CAC086C668
:1000A000A2C4A6C24EDE52DC56DA5AD85ED6174734
:1000B000FF1F0347C73E89471749FF1F1309890ED2
:1000C00063F8E7001747FF1F230BF73CEFB0601FF3
:1000D00083C721871747FF1F0347673CB3F7E70232
:1000E000416A856A938B2187938981B0130B8004C1
:1000F0007D1A938A0A802389F18603C52187974751
:10010000FF1F83C7C7396371F508330565034E9533
:10011000044599CC8347750081CFEF4021172A848D
:1001200011ED97950400938565F61545EFF0F056AF
:1001300083C70B0085072389F186C1B78347050074
:10014000A18BFDD78356C500E38446FF03C62187F4
:10015000979504009385C5F41545EFF0D068939703
:10016000740063D90704979504009385A5F5254588
:10017000EFF0B0520147740013063002835524019A
:100180000355C400EFF06FF483C721871747FF1FA3
:100190000347E7306305F70085072389F186B640FA
:1001A000264496440649F259625AD25A425BB25BDF
:1001B000616182809397C40063D70706930671003C
:1001C0001306610093079100380093055100130551
:1001D000A100EFC0602D8357A1001307400697953B
:1001E0000400938525F0B3F7E70215452306F100D7
:1001F00083475100A306F100834761002307F10004
:1002000083477100A307F100834781002308F100B1
:1002100083479100A308F100EFF0304819477400BC
:100220001306800AA1BF93F7041095C797950400A1
:10023000938585EC1545EFF0504603C521873305BE
:10024000650350006C004E95EF10402F03474100AE
:100250007400094625B793F7042085CB97950400D1
:100260009385C5EA1545EFF0504303C521879307F1
:1002700080043305F50250006C004E95EF10002C01
:100280000347410074000D46D5BD9397B40063DC6D
:100290000704EFF0E07001E923060100179604005F
:1002A000130686DE11A883C711872306F10017867F
:1002B00004001306A658FDD397950400938585E6A0
:1002C0001545EFF05052835524010355C4000547EE
:1002D00074006146EFF06FDFB705100003C521879A
:1002E000EFF0CFF855B593F7140081CF9795040040
:1002F000938545E51545EFF0503A014774002546D2
:10030000B5BD93F7240081CF97950400938545E50B
:100310001545EFF0903801477400194685B593975D
:10032000A40063DE0700979504009385E5E4154576
:10033000EFF0B036014774001306000281B59397C1
:10034000840063DF070003C6218797950400938527
:10035000A5E41945EFF0304901477400454639BD21
:100360009397940063DD070097950400938505E457
:100370001545EFF0903201477400494601B593F7F7
:10038000044081CF97950400938585E31545EFF0F0
:10039000D030014774000546D5B3B3F7540185C387
:1003A00097950400938505E31545EFF0102F8347DB
:1003B0005923054774002306F1001146C1B39397F2
:1003C000340163D5070297950400938565E21545CE
:1003D000EFF0B02C8357492674001D461397870011
:1003E000A183D98F2316F100094749BB93972401B4
:1003F00063D1070297950400938545E11545EFF019
:10040000D02983474923054774002306F100354668
:10041000B5B39397140163DD0700979504009385A6
:1004200025E11545EFF07027054774003946B9B34B
:1004300093F7440081CF979504009385A5E0154577
:10044000EFF0B0250147740015460DBB93F784000B
:1004500081CF97950400938565E01545EFF0F02373
:1004600001477400214619BB9397040163DD07001F
:1004700097950400938545E01545EFF01022054758
:1004800074004146E5B99397F40063D70702979546
:1004900004009385E5DF1545EFF03020035769230D
:1004A0009747FF1F83C787F32307F1002316E10057
:1004B00074000D474D46D9B19397E40063DD070002
:1004C00097950400938585DE1545EFF0101D0147D3
:1004D0007400514665B19397D40063DD070097958A
:1004E0000400938565DE1545EFF0301B014774006D
:1004F000554669B193F7040189CF97950400938518
:1005000065DE2545EFF07019014774001306700A87
:10051000B5B19397640063DE070297950400938555
:10052000A5DD1545EFF070179747FF1F938787C725
:1005300083D7A731835524010355C40009477400AC
:10054000130640022316F100EFF02FB8B7050002A2
:1005500071B393975400E3DD07BC9795040093852E
:1005600025DB1545EFF07013835524010355C400B6
:100570000147740013065002EFF02FB5B7050004D1
:10058000B1BB597186D6A2D4A6D2CAD0CECED2CC17
:10059000D6CADAC8DEC6E2C4E6C2EAC06EDE02CE61
:1005A00002D002D202D402D6954763FFC72632C0DA
:1005B0002E89EF303157AA846308052619469385A2
:1005C00081B09700FF1FE780806A05446306851CA1
:1005D0001946938501B526859700FF1FE78020699E
:1005E0006314852493078004B307F402938981B0D0
:1005F000814D178B0400130B6B56B38CF900938756
:100600008702BE999747FF1F9387C7B9A297E684D1
:100610003EC2330AB90183460A00B147639FF61E02
:100620008247138D4D006351FD20138C1D004A9CA1
:10063000834B0C000247938A3D00B3877A0163DE47
:10064000E71CCA9783C60700B5476398F61C814725
:1006500081463306FA0003461600850793F7F70F25
:10066000B29693F6F60FE3F6FBFEB3077A0183C763
:1006700027006394D71AB307590103C6070097856B
:1006800004009385254E25453EC4EFF0D0159747CD
:10069000FF1F93872750DC5B83C60402DCCC8547B1
:1006A0006395F60213050040EF00511319466C08DC
:1006B0006685EFF050387008978504009385454BA8
:1006C000154523040102EFF01012FC40858B8DC705
:1006D00083C7440419466C08F99B66852382F40499
:1006E000EFF070357008978504009385A54915458E
:1006F00023040102EFF0300F23800402B3075901F5
:1007000083C70700C1466380D74463EEF6121D47D6
:10071000638DE7306367F70C0D476380E726636FEF
:10072000F70605476380E7226370F72083474A0096
:100730006397E7221545978504009385E549EFF017
:10074000C075096519C037054000EF0031091785EC
:1007500004001305E548EF2090119747FF1F83C75A
:10076000F7D591CF9747FF1FA38A07D4EFA0703525
:10077000978504009385C5472545EFF0D006974738
:10078000FF1F83C7F74591C7FD171747FF1FA30931
:10079000F74493050010C1A20144A9B51547638C25
:1007A000E724637FF72283474A0003455A00A207E4
:1007B0005D8DEF10F42403260B0083264B00EF0021
:1007C000A45CEF20447288C8EF2024672A86AE8696
:1007D0001545978504009385A54CEFF0D000894519
:1007E0009DAA2D476388E72C636EF7002547638534
:1007F000E7286375F72403464A009785040093852C
:10080000A5522DAA39476384E730636BF73035472B
:100810006386E72EDE9A93FDFA0F824713871D0049
:10082000937DF70FE3E7FDDEB65026549654065944
:10083000F649664AD64A464BB64B264C964C064D70
:10084000F25D6561828093060002638ED73E63EF9E
:10085000F604D146638CD73063E0F60249476386DD
:10086000E7406376F748978504009385255B154537
:10087000EFF0A062C165C5A06147638AE7346547B0
:100880006388E7365547E397E7F84A9D03460D002E
:10089000978504009385C5621545EFF0C0748347C2
:1008A0000D00B7050400A383F40275A0930640026F
:1008B0006384D72A63E3F60213072002638DE744BB
:1008C000637DF73897850400938505792286154561
:1008D000EFF06071B7050001BDA89306700A638E42
:1008E000D73E9306800A638AD72C93065002E3937F
:1008F000D7F213875D00330CE9004A9D83460C0054
:1009000003460D00978504009385C5551545EFF006
:10091000806D83470D00B7050004A382F40283476E
:100920000C002383F40205A883474A0003465A00BB
:100930009785040093850527A2075D8E1545EFF086
:10094000806AC9BD97850400938585271545EFF01A
:10095000C054930500402285EFF04F9165BD978507
:1009600004009385652A1545EFF020531785040090
:100970001305052AEF20A06F19B503474A008547E4
:100980006314F70415459785040093856529EFF0F6
:10099000C0503705800001E4056513050580EF00B0
:1009A000E1631785040013052528EF20406C974765
:1009B000FF1F83C7F72291C7FD171747FF1FA3012A
:1009C000F7229305002041BF1545978504009385C4
:1009D000E526EFF0804C178504001305A526F1B736
:1009E00097850400938505271545EFF0004B856535
:1009F000938505808DB703454A00EF1074000326E8
:100A00000B0083264B00EF002438EF20C44DC8C8EC
:100A1000EF20A4422A86AE8615459785040093856B
:100A2000A525EFF0405C91453DB79785040093857F
:100A300025291545EFF06046856531BF83474A009B
:100A400003455A00A2075D8DEF10847B03260B003F
:100A500083264B00EF004433EF20E44888CCEF209E
:100A6000C43D2A86AE8615459785040093854527A3
:100A7000EFF06057A145C5B583474A0003455A00CA
:100A8000A2075D8DEF10C47703260B0083264B0071
:100A9000EF00842FEF202445C8C4EF20043A2A86B3
:100AA000AE8615459785040093850526EFF0A05383
:100AB000854555B597850400938585281545EFF044
:100AC000C03D97850400938565291545EFF0E03C0E
:100AD00091652285EFF0AF8111E937052000EF0025
:100AE000E14F91652285EFE07FE92DB39785040002
:100AF000938545281545EFF0403AE5B79785040002
:100B0000938585281545EFF040398965A9B5978506
:100B100004009385A5291545EFF02038916525BD82
:100B2000978504009385452A1545EFF00037978592
:100B300004009385652B1545EFF020362165EF0005
:100B4000E149A16545B7978504009385252B154597
:100B5000EFF0A034A16501B5978504009385452E7B
:100B60001545EFF08033B7050002F5B33308A9014E
:100B700013876D00138D5D004A9D330CE900034619
:100B8000080003470C0083460D00978504009385F9
:100B90002530154542C4EFF000452248B705020054
:100BA00083470800A380F40283470D002381F402E9
:100BB00083470C00A381F40279BB978504009385D9
:100BC00025321545EFF0602DB705080069B397850C
:100BD00004009385A5321545EFF0E0409387018727
:100BE00083870700E348F0C285472388F1861DB15B
:100BF000B70520002285EFE09FEF15ED97850400F3
:100C0000938585311545EFF04029154597850400FA
:100C100093858532EFF0602885471737FF1FA30FB4
:100C2000F77AEFA0006AEF0051211165EF00013B58
:100C3000B705200045BD978504009385A53115456E
:100C4000EFF0A025F5B7978504009385253215456B
:100C5000EFF0A024B7052000FDB997850400938527
:100C6000A5321545EFF0602375B603460C008547A5
:100C7000B305A90179161376F60F631AF60483C635
:100C8000050088489305000013D64600BD8A32C689
:100C900036C4EF10B40FA246324697850400938500
:100CA000E53009C597850400938505314E85EF3001
:100CB000E431A3880402978504009385A530CE868D
:100CC00022861545EFF02032B705400069B14E8508
:100CD0009700FF1FE780A0F0F9BF97850400938578
:100CE000E52F22861545EFF00030C145ADB197855F
:100CF00004009385253122861945EFF0C02EEFE0E0
:100D00001FFB124793076006A30EF72EEFA0605B50
:100D1000B705800089B19785040093856530154536
:100D20002286EFF0402CB70500012285EFE03FDC82
:100D300001E937051000EF00612AB70500015DB336
:100D400097850400938505301545EFF00015F5B73C
:100D5000411122C42164930504809946014625452A
:100D600006C69700FF1FE780E0B093050480224489
:100D7000B240994613864187294541011703FF1F59
:100D8000670043AF99E10145828075DD011152C4CE
:100D900003DA818726CA93548A008504A204C20418
:100DA000C18056C2B38A4441C20A22CC4AC82E86A8
:100DB0002E842A89978504009385856A254593DAD0
:100DC0000A014EC606CE93894187EFF0C02163ED3C
:100DD0008A0883D5818793F7F50FB1CF8D6783D5C7
:100DE000818793870780A2864A86BE95294597000A
:100DF000FF1FE78020A81375F50F29ED83D7490061
:100E00001566A297239CF18603D7818783D76187D4
:100E10006309F70063F3E700B297998F1396070110
:100E2000418225459785040093850565EFF0A01B59
:100E30001375F40F0DA08D6793870780930600103C
:100E40000146BE9525459700FF1FE780A0A21375B8
:100E5000F50F49D50145F2406244D2444249B249B6
:100E6000224A924A05618280B3079440D297C20712
:100E7000C183A18303C74900850793F7F70F9396B2
:100E8000870011EB9386170093740AF0A206C20440
:100E9000C206C180C18283D7618763F6F4003387BD
:100EA0009600E3C9E7FA0D6A130A0A800146B38582
:100EB000440125459700FF1FE780C09B1375F50F80
:100EC00051F983D58187A2864A86D29505B741110B
:100ED00022C41384418722858145194606C697009E
:100EE000FF1FE78040D39307B0FA2300F4008D354D
:100EF0002244B240978504009385054F2545410162
:100F00006FE0B079A16541119946138641879385B9
:100F100005802D4506C69700FF1FE780A09503C7F3
:100F200041879307B00A6303F7005537B24083D671
:100F3000818703D66187978504009385A54B254556
:100F400041016FF0400A83D781B90145638C0710D6
:100F500003D5A1B96366F50023AC01B801458280D1
:100F60003385A740D1473355F5021375F50F01E5D9
:100F7000239C01B88280130101BD232481422326D2
:100F800011422322914223202143232E3141232C3D
:100F90004141232A514195471374F50F63F3A7008C
:100FA00015442286978504009385C54E2545EFF0AC
:100FB0008003014981449389C1B9514AA14A937779
:100FC000F90F03D5A1B91737FF1F0347473463E96A
:100FD0008704D1473304F4022A94239D81B8A147A2
:100FE000631CF706A6850808EF60700603D7A1B951
:100FF00083D781B905456364F70023AC01B883202A
:10100000C1420324814283244142032901428329AE
:10101000C141032A8141832A414113010143828056
:10102000B30749031408AA97CE9733859600631E29
:101030005701BE85EF6030212317A1008357E100DF
:101040000509BE94C204C1809DBFAA851306E100B4
:101050003E85EFC0C051DDB726860C080145EF90F4
:10106000D03569B78280011106CE22CC26CA4AC883
:101070004EC652C499E901442285F2406244D244EA
:101080004249B249224A05618280AA896DD583D737
:10109000818703D661872E849564638AC700637451
:1010A000F60015673A961D8E93140601C1802686B8
:1010B00097850400938545302545EFE0D0729387EE
:1010C00014F06356F4009307F00F63EA97009785D6
:1010D00004009385E52F2545EFE0F07069BF83D4C8
:1010E0008187B3878400156A6349FA00A2854E851B
:1010F000EFF05FC9EFF0DFC541B7156933099940DB
:10110000420913590901CA854E85EFF0BFC709E5A9
:1011100083D78187E39147F7ED75A695A295C20520
:10112000239C0186C18133852901D9B783D681B932
:1011300081EA978504009385253025456FE0F055B9
:1011400003D6A1B94111918E978504009385C52FCF
:10115000254506C6EFE03069138781B9835507003E
:1011600083D7A1B91385C1B99D8DC2053E95C181B3
:10117000DD3DB24023AC01B841018280411183D7EB
:1011800081B922C426C206C6AE9713070020AA84DE
:101190002E84635AF700593F97850400938585276D
:1011A0002545EFE0904F83D781B91385C1B92286D9
:1011B000A6853E95EF10547403D681B92296420657
:1011C0002244B24092444182239CC1B897850400D6
:1011D0009385C525254541016FE0F060011126CAC0
:1011E00006CE22CC4AC84EC652C456C2814459C10A
:1011F000D1C183D7618703D48187638D870663F567
:1012000087081D8C42044180AE892A8922869785F1
:1012100004009385E5160145EFE0F05CA28463F3DA
:101220008900CE84C2040D6A83D7618703D7818782
:10123000C180938A4187130A0A8063FAE704A6866D
:101240004A86B38547012D4597F0FE1FE7808062EF
:1012500083D72A00A697239BF186EFF07FAF83D632
:10126000818703D66187978504009385A51225455C
:10127000EFE07057F240624426854249D244B249B9
:10128000224A924A0561828015673A949DBF15678C
:101290001D8FB385470163D5E400A6864A8665B7EE
:1012A0009569B389F9406D743E94C20993D90901D7
:1012B0002694CE864A8642042D4597F0FE1FE7808D
:1012C000605B4180A28633063901D2852D45239B80
:1012D000018697F0FE1FE780E05983D72A003E94ED
:1012E000239B81869DBF397106DE22DC26DA4AD82F
:1012F0004ED652D456D25AD05ECE62CCE9C9328490
:1013000055CA368CE9C6BA8B79C32A89AE8A2300BE
:10131000AC0085448149114B330634416353CB0003
:101320001146137AF60F5286B3853A01480002C27D
:10133000EF10945C0347510083476100034671003E
:10134000834641004A97CA974A96050789070D06C2
:10135000CA962307E100A306F100A307D1002306E4
:10136000C1007800814703460700B306F9008507EE
:10137000B18E2300D70093F7F70F0507E39567FFBA
:101380008357C1000357E100D29933059C00B98F00
:101390002316F100B24711462C00910493F9F90F7E
:1013A0003EC493F4F40FEF103455E3E789F623803D
:1013B0009B0005442285F2506254D2544259B259DE
:1013C000225A925A025BF24B624C216182800144A4
:1013D000D5B71D7186CEA2CCA6CACAC8CEC6D2C405
:1013E000D6C2DAC05EDE62DC66DA6AD86ED67DC549
:1013F0002E84E9C532897DC2368CEDC2834D05004D
:10140000AA84814C054D9149138A3D00938A1D00A1
:10141000138B2D00930B00103306A44163D3C90036
:1014200011469377F60F3E86B385A40148083EC661
:1014300002CAEF10744C8346610103474101034621
:10144000710183475101358F230AE100B18F33C702
:10145000ED00B346DB00A30AF1003346CA00B3C770
:10146000FA00A30FE100A30ED100230EC100230F49
:10147000F1007408014783C706003386ED000507B5
:1014800093870710918FB3E777038506A38FF6FE46
:10149000E31337FFF2473305990111462C083ECC80
:1014A000EF109445B247910C93FCFC0F3E9D137DC9
:1014B000FD0FE3638DF623009C0105442285F64071
:1014C0006644D6444649B649264A964A064BF25BDC
:1014D000625CD25C425DB25D256182800144F9BFED
:1014E00039719307400622DC33F4F50226DA13073C
:1014F0007100B684740806DEB377F6023304F40292
:10150000B387C5003E9493978500A181DD8D931725
:10151000860021825D8E2314B1002315C1002C00AA
:101520001146EFF05FDC89C483457100680882943E
:101530002285F2506254D25421618280317122DDC1
:1015400026DB4AD99307110118082A842E89B28410
:101550009306F1001306E1009305D1001305210164
:1015600006DFEFA07074814719473306F400034685
:101570000600B400BE962380C6008507E397E7FE09
:101580008357210113074006B3F7E7022307F1044D
:101590008347D100A307F1048347E1002308F10446
:1015A0008347F100A308F104834701012309F104F3
:1015B0009307A0FAA309F104EF20B40E7800F41801
:1015C000AC0031461375F50FEFF0FFD14C082285C2
:1015D0001946EFE050465008978504009385C5EC06
:1015E000254523000102EFE010200346C1004C080E
:1015F000E818EFE050448346C1001819500893974B
:101600001600BA97978504009385C5EA254523827D
:1016100007F6EFE0501D034801018347F10003473F
:10162000E1008346D10003562101954897850400C7
:10163000938585E92545EFE0101B0344C100EC18B4
:101640004A852286EF10542BFA50238084006A5476
:10165000DA544A592961828097850400938545EAC6
:10166000130510026F70A07D7971AA85680006D6F7
:1016700002C602C802CA02CC02CEEF20941B6C0044
:1016800013058004EF70A07BB250456182807971B0
:10169000AA85680006D602C602C802CA02CC02CEDB
:1016A000EF2034196C0013054002EF704079B250FE
:1016B000456182801D71A2CCA6CACAC83284AA84A0
:1016C0002E89130620038145680886CE36C6EFC0F2
:1016D0005FF0B2462287268697850400938585E6CB
:1016E0006808EF20B40E6C0813052002EF70207517
:1016F000A285130620024A85EF706057A2862686CF
:1017000097850400938505E51945EFE0D00DF64077
:101710006644D6444649256182805D71A2C4A6C252
:10172000CAC02A842E89B28481451306200368002A
:1017300086C6EFC01FEA2687CA86228697850400E0
:10174000938545DC6800EF2074086C0013053002B7
:10175000EF70E06E4A87A6862286978504009385FF
:1017600065DB1945EFE03008B6402644964406494B
:10177000616182809387011E0547238CE700184131
:101780001045544598C30357450090C7D4C7104926
:1017900054492392E70090CBD4CB239DB70082809D
:1017A000184193870120104598C3035745005445BD
:1017B00090C72392E70058551049D4C7544998CF91
:1017C00097850400938545E70547254590CBD4CB05
:1017D000238EE7006FE0606C397126DA4AD84ED666
:1017E00052D456D25AD006DE22DC62CE66CC2A898A
:1017F000EF2054059374F50F8149254BE54A178A6C
:101800000400130AAAD991ECF25062544E85D254C6
:101810004259B259225A925A025B724CE24C2161EF
:10182000828003470900930707FD93F7F70F637C56
:10183000FB009307F7F993F7F70F63E2FA069307B4
:1018400097FA93F7F70F139487016184FD1423002F
:1018500089002685EF00D41A2A86AE8603250A0061
:1018600083254A0093F4F40F0509EF50214C2AC454
:1018700022852EC6EF00D4182246B246EFF0F34878
:101880002A8C4E85AE8CEF00D41E2A86AE866285E9
:10189000E685EFE0735CEF00F410AA89ADB793061C
:1018A000F7FB93F6F60F8147E3EFDAF8930797FC1F
:1018B00049BF411122C406C6830795022A8499C7ED
:1018C00013059502EF109400238DA1188307D412FD
:1018D00091CB1305D412EF10047FEF10C4609387EF
:1018E0008116C8D3B240224441018280011126CA28
:1018F0009304150022CC978504009385E5D72A84AC
:10190000268506CE4AC84EC6EFE0E07D631E051070
:1019100097850400938585D62685EFE0C07C630219
:10192000050E85448307D4036386070C13059402D0
:10193000EF10C47985491379F50F1305D403638734
:10194000340F8947638CF418EF104478A38EA118E4
:10195000631A3901794681451385F11B238D018670
:10196000EFC03FC78307D40885C31305D408EF1021
:10197000E47503C7A18793071700238DF18693872A
:101980008116BA97A38BA7048307D40D85C31305CB
:10199000D40DEF10A47303C7A18793071700238DFD
:1019A000F18693878116BA97A38BA7048307D41275
:1019B00085C31305D412EF10647103C7A187930781
:1019C0001700238DF18693878116BA97A38BA704FE
:1019D0008307D41785C31305D417EF10246F03C7EB
:1019E000A18793071700238DF18693878116BA97F5
:1019F000A38BA704F2406244D2444249B249056134
:101A00008280978504009385A5C72685EFE0A06DA9
:101A1000E31905F02685978504009385A5C6EFE0B8
:101A2000806C8944E31005F08144EDBDEF10046A39
:101A3000238FA118631A9900794681451385111ADD
:101A4000238D0186EFC0FFB88307D40885C3130533
:101A5000D408EF10A46703C7A18793071700238D4D
:101A6000F18693878116BA97A38CA7028307D40DBA
:101A700085C31305D40DEF10646503C7A1879307D1
:101A80001700238DF18693878116BA97A38CA7023E
:101A90008307D41285C31305D412EF10246303C740
:101AA000A18793071700238DF18693878116BA9734
:101AB000A38CA7028307D417E38E07F21305D4176C
:101AC000EF10C46003C7A18793071700238DF18629
