:040000006F2000333A
:100004000000000000000000900000201A050020FD
:10001400A9BDF9F5940000200000000000000000D4
:10002400960000209800002000000000000000005E
:100034009A000020000000009C0000200000000046
:100044009E0000201603002066030020A400002068
:10005400A6000020A8000020AA000020AC00002078
:10006400AE000020B0000020C60000205A0100208D
:1000740096050020B8000020BA000020BC00002033
:10008400BE000020EE01002082020020C4000020F7
:1000940001A001A001A001A001A001A001A001A054
:1000A40001A001A001A001A001A001A001A001A044
:1000B40001A001A001A001A001A001A001A001A034
:1000C40001A001A001A037370040834747009946AB
:1000D4004111BD8B638CD70231476384E706114716
:1000E400639EE702A3030100174600000346863D12
:1000F40037370040834771006315F6022C001385DF
:10010400017797E000E0E780208209A88347570041
:1001140093F7F70F2304F100834781004101730033
:10012400203083477100834687000C08AE97238CE8
:10013400D7FE83477100850793F7F70FA303F100F8
:1001440055BF2800974001E0E780002E1375F50F96
:10015400A303A1000346710055B737370040834716
:10016400474099464111BD8B638CD7023147638464
:10017400E7061147639EE702A30301001746000048
:100184000346663437370040834771006315F6022F
:100194002C001385417897D000E0E780E07809A827
:1001A4008347574093F7F70F2304F10083478100F7
:1001B40041017300203083477100834687400C0857
:1001C400AE97238CD7FE83477100850793F7F70F0B
:1001D400A303F10055BF2800974001E0E780803673
:1001E4001375F50FA303A1000346710055B73747F4
:1001F40000408347478099464111BD8B638CD702E9
:1002040031476384E7061147639EE702A3030100B5
:10021400174600000346162B3747004083477100FA
:100224006315F6022C001385817997D000E0E780EE
:10023400A06F09A88347578093F7F70F2304F100B1
:100244008347810041017300203083477100834656
:1002540087800C08AE97238CD7FE834771008507EF
:1002640093F7F70FA303F10055BF2800974001E06F
:10027400E780003F1375F50FA303A1000346710047
:1002840055B737470040834747C099464111BD8B56
:10029400638CD70231476384E7061147639EE70204
:1002A400A3030100174600000346A6423747004057
:1002B400834771006315F6022C001385C17A97D029
:1002C40000E0E780606609A8834757C093F7F70FFB
:1002D4002304F100834781004101730020308347E8
:1002E4007100834687C00C08AE97238CD7FE8347E2
:1002F4007100850793F7F70FA303F10055BF28009A
:10030400974001E0E78080471375F50FA303A10030
:100314000346710055B7411126C4B714004022C6E4
:1003240003D4C409420441809317140163DB07001A
:10033400BD450145972001E0E78040549167239E25
:10034400F4081374041019C8972001E0E780604290
:10035400B717004013070010239EE7083244A24455
:1003640041017300203073002030B717004093061A
:1003740070052380D704130780FA2380E704010063
:10038400010003C6B7041376F60DA385C7042380C2
:100394000704137605024DC203C6A700118A1DE2A5
:1003A4002380D7042380E7040100010003C7A700CA
:1003B400136747002385E7009307004B0100010002
:1003C400FD17EDFFB7170040930670052380D7048F
:1003D400130780FA2380E704010001007D89239438
:1003E400A70001000100010001002380070423800D
:1003F400D7042380E704010001000100010037272E
:10040400004093061005A303D78023800704B71781
:100414000040130770052380E704130780FA238044
:10042400E7040100010003C7B70413670708A385A5
:10043400E7042380070482801376050441C603C6BB
:10044400A700418A1DE22380D7042380E70401002A
:10045400010003C7A700136707012385E70093077B
:10046400007D01000100FD17EDFFB7170040930662
:1004740070052380D704130780FA2380E704010062
:1004840001001376F501136606042394C7000100E6
:10049400010001000100238007042380D704130610
:1004A40060042380E7046318C500010001003727B6
:1004B4000040894689BF01000100372700409306A8
:1004C400200591B72380D7042380E70401000100AD
:1004D40003D787001367070C2394E7000DBF41116E
:1004E400814601468145114506C6492AB717004091
:1004F400130770052380E704130780FA2380E704B9
:100504000100010003C76704136717002383E7048E
:1005140023800704B240410182808146014681451F
:100524001145A92AB7170040930670052380D70404
:10053400130780FA2380E704010001007D56239607
:10054400C7022380D7042380E7040100010003C706
:100554006704136717002383E7042380070401A0BB
:10056400BD473305F50201007D1575FD82804111FB
:1005740022C426C206C6AA84014463179400B2406A
:10058400224492444101828005041305803E4204C2
:10059400C13F4180DDB7B71700401307000323882C
:1005A400E7028547174700002324F728730020300B
:1005B400411106C6A52D97E000E0E780003BDDBFB2
:1005C4002303048015472303E48001002302A4804D
:1005D400828083076480E3CE07FE23030480828045
:1005E40083076480E3CE07FE03454480828083074B
:1005F4006480E3CE07FE2302A4808280411126C4D6
:100604004AC24EC006C61377F50BAD47AA892E8998
:1006140095446306F70019456537653F8D444E855B
:100624004537FD59FD1463983401B240A244124980
:10063400824941018280135509011375F50F453F25
:100644002209CDB7011126CC06CEB70408005137D4
:100654001545BD37713769372AC6A53F32459377AB
:10066400150089EB136515001375F50FF240E2448C
:1006740005618280FD14E9FC0145CDBF397126DC9A
:100684004ADA4ED852D656D45AD25ED006DE62CE5C
:1006940066CCB7E700E07D5783AA070022C603AA09
:1006A400470023A0E71823A2E718B7170040130751
:1006B40070052380E704130780FA2380E70483C7C7
:1006C4004704930B75FFB684E20793FBFB0F854643
:1006D400AA892E8B328937240040E187015763FAB7
:1006E40076016308D5008946130700026313D50019
:1006F4000157D98F93F7F70FB71C00402382FC04EE
:1007040011472303E4801305F00F5D3D094CD135F7
:10071400636D7C11B7050700DA95378707007955B3
:1007240063F2E504B3879500636EF702370B0800A4
:10073400A94733EB65016399F90689E48144513D86
:1007440026850DA0DA850945553D05090345F9FFC0
:10075400FD14050B693D81C49377FB0FFDF7DD356F
:1007640069FD7D55B7170040130770052380E70422
:10077400130780FA2380E70403C74704418B2382CD
:10078400E704F250B7E700E023A0571123A2471172
:10079400E25432445259C259325AA25A125B825B11
:1007A400724CE24C21618280A5476395F906856904
:1007B4001309F00FB3069900B3742B01B6941349CF
:1007C400F9FFB3749900856B33796901416B9387A1
:1007D400F9FFB3F7270199E363FC340193D9490086
:1007E400C147E3E637FF99BF0569C1697D19D9B7E8
:1007F4001305800D63886901130500026384790180
:1008040013051008CA85DD3B353D21DD4E99B384BF
:100814003441D9B7DA852D45D533CA94E30099F22A
:1008240005097D3BA30FA9FED5BF9387F9FF93F775
:10083400F70F6361FC0C83C71C0413073008631FA4
:10084400F70437070800636BEB04B3079B00B70694
:10085400100063F5D704334BEB0089476393F90623
:100864008980D549E38C04ECDA850945413B1109BB
:100874000327C9FF91472320E48003076480E34EE4
:1008840007FE23033481FD17EDFBFD14110B81C416
:100894009377FB0FE9FF7D3371F5E1B5B71700409E
:1008A40003C75704B70708001377070219E3B7878C
:1008B40007007955E378FBEA33079B00E3FFE7F889
:1008C40055B58547E382F9F2DA852D45053B9389D1
:1008D400F4FFE38504E6293393F7390091EB83268B
:1008E40004800327090093074900E39AE6E43E895C
:1008F400CE84F1BFB5476396F9001305900BC93157
:1009040035BDB1471305B00AE38BF9FE99476391EE
:10091400F904B7050800B365BB002D45C531814412
:100924008D4BA14975396396740183270480232074
:10093400F9008504E39834FF8327048013172B01FF
:10094400635507002312F900D5BB2322F900FDB338
:100954009D476399F90281451305B0044531BD44AF
:100964002320090023220900FD599D3993F77400BF
:10097400CA9703C70700FD14398D2380A700E396A7
:1009840034FF6DBBA1476392F9046D398144630D53
:100994000B008D479304C0036308FB009304000518
:1009A40063048B01930440041375C507E30895D8C9
:1009B4001945393139390545213126850D3909451E
:1009C4003D314931E31C05D669BB91476399F90070
:1009D40013056006F536F53E130590090DB7E38F50
:1009E40009D4F154A9BB19CD91CD09CE81473387E0
:1009F400F500834607003307F50085072300D70079
:100A0400E317F6FE828019C991C909CA910583A723
:100A1400C5FF11057D16232EF5FEC5BF828001C9D1
:100A240019C62A960505A30FB5FEE31DA6FE82800E
:100A340081473307F5000307070019E33E858280E9
:100A44008507C5BF01112E8626CAAA84131506017F
:100A54009305F004418122CC06CE32C6EF108063A8
:100A64002A8401C53246A685BD3F2285F2406244F0
:100A7400D24405618280854715C18DC105C2814775
:100A8400B306F5003387F50083C606000347070065
:100A94006398E6008507E315F6FE85473E85828068
:100AA4008147EDBF9307F6FFBE952A966313C500F1
:100AB4008280FD1583C715000505A30FF5FEFDB75C
:100AC400AA87014581CF09CE3E96850703C7F7FF64
:100AD4006317B700E39BC7FE05458280828001450A
:100AE40082807971975700009387475D22D48043B1
:100AF40006D626D24AD04ECE52CC56CA5AC85EC664
:100B040062C45DCC37C9C901814B175A0000130A6E
:100B14006A5F975400009384A45A1309F937975ACB
:100B24000000938A6A54B709C0A8370B405783570B
:100B3400240095E35C44639D0B0017570000232FAA
:100B4400F756032CC4002285EF10E061628499A853
:100B540023A6FB00FDB783270A00829783866401DE
:100B64001C4463DB06063307F5406367E9089757BF
:100B7400000023A3075083552400034504009790E5
:100B840001E0E78060FE5C405844A9CF1444B69766
:100B94008386640163C5060063E33701DA971CC4E6
:100BA400A28B3A8449F4975700009387E74B9C4BF8
:100BB40009476378F706F91717570000232EF74AF9
:100BC400B250225492540259F249624AD24A424BD8
:100BD400B24B224C45618280E377F5F83387F940C4
:100BE4002A9761B763970B009757000023A8E74C37
:100BF40089BF23A6EB00B1B7D85009CF63DF060045
:100C04003385A74083A70A016376F5009757000050
:100C140023A4A746A28B404471B7E3F3A7FECE9763
:100C2400C5B79757000023A9074459BF411122C4EF
:100C340017540000130444461C4006C626C24AC08A
:100C440091C782979757000023A807445C4091C33B
:100C540082971C406391071C9757000083C7576213
:100C6400858B9DC797570000A38C0760175700001A
:100C740003473761954763FDE700EF0050419757FD
:100C8400000083C71760F5178A07A2979C438297D1
:100C940017590000130989628347C900918B99C3CE
:100CA400EF10A0321C4491C38297975400009384A0
:100CB400A4409840175600000346163B975700007F
:100CC40083C7873A93961700BA9683D60600D5CA87
:100CD4009757000083C7473963EFC70A9757000047
:100CE400238407381C40639807129757000083C772
:100CF400775991CF9757000083C7B75889EB975717
:100D04000000A3810758973003E0E780C0D09757CD
:100D140000009387273F9C43638F070EB707C0A843
:100D240017570000232AF7346D3B97570000938729
:100D34002739DC53EDC3175700001307E732184B6C
:100D44009757000083C717396367F70C17570000DC
:100D540003473753954763E0E70C8347C900918BFA
:100D6400DDEB90409756000083C6163063CBD70A5C
:100D74002244B240924402494101179301E06700C2
:100D8400C3BB850793F7F70F97560000238EF62C05
:100D9400E3E6C7F235BF86073E9783550700231065
:100DA4000700975700002397073097570000938751
:100DB400672E9C43175500000345052B1317250088
:100DC400BA979C4382979757000083D7A72E17574B
:100DD40000000347672993C7F7FF7D8D931717001A
:100DE40098403E97835707005D8D2310A7009757BF
:100DF400000083C7672791C785071757000023059D
:100E0400F72617570000034727269757000083C784
:100E1400B725E375F7ECB2402244924402494101FC
:100E24008280139717003297035707006DF78507E1
:100E340035BFAD6737C70040BD072326F7200F1025
:100E440000009757000093872722C84F83278726DF
:100E5400BD66BD0693C7F7FF99836A052326D7208D
:100E64005D8D82804111B7170040985F3AC6945F48
:100E74003247E39CE6FE32454101828082800327AB
:100E8400851163000712411122C406C68347C500B9
:100E94008345C5042A8493F7C70F2306F5008346C8
:100EA40097000356C70013958601618563F1C50851
:100EB400635A05060345870093F6F607A304D70093
:100EC400054693E627006314C50093E6170023063E
:100ED400D4005C4389075CC3A30AB400032504114E
:100EE4002E864C4309050136832784110346540199
:100EF400D44303D7C700B296118FD4C32396E70017
:100F04008947A30DF400034744039757000083C7A0
:100F1400471C6378F7048347C40093E7070123065B
:100F2400F40081A093E717002306F40075B79376C5
:100F3400F60F635D050203458700854513E6270028
:100F44006314B50013E617002306C400A30AD400F3
:100F5400A30407008547A30DF400832784119C4351
:100F6400DDF3B240224401454101828093E717003A
:100F74002306F400A30AD400A304070003250411E4
:100F84004C4309058D348327841103465401D4430B
:100F940003D7C700B296118FD4C32396E7008D47B9
:100FA4005DBF05458280975700009387A72B9C431C
:100FB400411122C406C6858B2A84C5EF41651305F9
:100FC40025F597A002E0E78000CC45C58347A5003E
:100FD4002315F50083270412BDE72320A41223223E
:100FE400A41285472310F4042320050083476401D9
:100FF40054412316F5000347D4002304E5000547B4
:10100400A304E5001757000013074727184F13855B
:10101400170215811C437D151375F50F9CC25C43A3
:10102400DCC21C479CC65C47DCC61C4B9CCA5C4BA0
:10103400DCCA1C4F9CCE5C4FDCCE19CD93860602D5
:1010440013070702C1BF8327441288C383570404CC
:101054002322A412850779B79757000083D7872FD7
:101064008507175700002317F72EB2402244410189
:1010740082808347C40023090400054593C74700C1
:101084002306F400DDB78347850193F7E70FD5EF17
:1010940083479501DDEB034625018346C50009CA54
:1010A40083454503175700000347B70263E7E5008C
:1010B40013F7060141CF014709C6C18A0357651CCE
:1010C40081C68356A51C369751C31307C7121755FB
:1010D40000000355E5FBB335A70237460F00411165
:1010E40013060624814622C426C206C67D5433054F
:1010F400A70297F003E0E78060E99757000083C7F1
:10110400B7FDB384A700975700009387272403A74C
:1011140007098327070963F387003E84184375FB97
:1011240097570000938707FE9C4382978147636427
:10113400A400B307A440B2402244B3B7970093C7B6
:10114400170092443E854101828081473E8582801A
:10115400797126D206D622D44AD04ECE52CC56CA63
:101164005AC85EC68347350303447513AA843E9464
:101174001374F40F9307400263F687001304B4FD5D
:101184001374F40F03AA841383AAC413A38B8412C5
:1011940022865285D68597F003E0E780A0D9058999
:1011A40015E503CBD41201498149337B6403930BC6
:1011B40050024A865285D68597F003E0E78080D7AF
:1011C400058915C5639169031374F90F238B841280
:1011D400B250225492540259F249624AD24A424BC2
:1011E400B24B456182808509E20993D98941050999
:1011F400E31179FDE1BF832785090356E50379717E
:1012040093D60701BD8EC206C182358E1357764030
:1012140093575640898B058B5D8F93573640918B3E
:101224005D8F93571640A18B5D8F93171600C18B6A
:101234005D8F9317360093F707025D8F931756005F
:101244009355860093F707041E065D8F1376F60FF9
:10125400518F93D7554013D63540118A898BD18F3E
:1012640013D67540D18F13D61540218AD18F13968A
:101274001500418AD18F1396350013760602D18F5B
:1012840013965500137606049E05D18F93F5F50F3A
:10129400CD8FA20745465D8F3307C70222D42A8427
:1012A40026D252CC56CA032A8413832AC4135AC89A
:1012B40006D63697420741839357774013555740D4
:1012C4000989858BC98F135537401189C98F1355E7
:1012D40017402189C98F131517004189C98F131528
:1012E400370013750502C98F1315570093558700EE
:1012F400137505041E07C98F1377F70FD98F13D5FC
:10130400354013D755401189098B498F13D5754042
:10131400498F13D515402189498F139515004189AB
:10132400498F1395350013750502498F13955500A0
:10133400137505049E05498F93F5F50F4D8F22070C
:10134400D98FB387C7024AD04ECE5EC662C4B69761
:10135400C207C18313D7774013D557400989058B3A
:10136400498F13D537401189498F13D517402189E7
:10137400498F139517004189498F139537001375C9
:101384000502498F1395570093D5870013750504FB
:101394009E07498F93F7F70FD98F13D5354013D78D
:1013A40055401189098B498F13D57540498F13D541
:1013B40015402189498F139515004189498F13954B
:1013C400350013750502498F1395550013750504EF
:1013D4009E05498F93F5F50F4D8F2207D98FB3875B
:1013E400C702130650025285D685B697BD8E9394D4
:1013F4000601C18033F6C402137BF60F97F003E0B5
:10140400E78040B305890DED8347D4120149814932
:10141400B3849702130C5002C1804A865285D68544
:1014240097F003E0E78000B10589937BF90F11C5BC
:1014340063863403850993F9F90F0509E31F89FDD0
:10144400230B6413B250225492540259F249624A53
:10145400D24A424BB24B224C456182805E8BCDB75F
:10146400011122CC604126CA4AC84EC652C406CED7
:10147400AA841D4A130965058549BC446364F400C4
:10148400054581A803C7D40083474400631B47056F
:1014940003C784026304F7000040C5B70347540040
:1014A40083C75405E31AF7FE1946CA851305640079
:1014B400EFF06FDCE31235FF0347C40083C79402E7
:1014C400E31CF7FC0357E40083D7A402E316F7FCFC
:1014D4000145F2406244D2444249B249224A05617C
:1014E4008280E31BF7FA0347540083C75405E315CE
:1014F400F7FA1946CA8513056400EFF0CFD7E31D48
:1015040035F9F9B7011197570000938727E422CCE6
:1015140003A4470B26CA06CE2AC42EC6854419E462
:101524000145F2406244D2440561828083479100C0
:1015340003471400858B6304F7000044CDB71946B4
:101544009305A10013052400EFF0EFD2E31795FEF5
:101554000545C1BF011122CC175400001304C4D3A4
:1015640018402AC62EC432C206CE3C4B93F7F7F776
:101574003CCB972003E0E780C04618409756000014
:101584009386C6CE3C4B93E707083CCB9C4232453E
:10159400A24523A00700034715000348250022079E
:1015A4004208429703480500429703483500620801
:1015B400429798D70347550003486500220742081D
:1015C40042970348450042970348750062084297D2
:1015D400D8D7034795000348A5002207420842973D
:1015E4000348850042970348B5006208429798DB98
:1015F4000347D5000348E500220742084297034801
:10160400C5000345F500429762052A97D8DB03C756
:10161400150003C52500220742052A9703C50500C6
:101624002A9703C5350062052A9798CF03C755004A
:1016340003C56500220742052A9703C545002A977A
:1016440003C5750062052A97D8CF03C7950003C563
:10165400A500220742052A9703C585002A9703C5DA
:10166400B50062052A9798D303C7D50003C5E500E2
:10167400220742052A9703C5C50083C5F5002A97AA
:10168400E2052E97D8D3D843759BD8C3D8431367A4
:101694001700D8C398431367170098C3124698429B
:1016A4005C43858BD1E71C4F01452300F6009C4227
:1016B4009C4FA183A300F6009C429C4FC18323014D
:1016C400F6009C429C4FE183A301F6009C42D84F54
:1016D4002302E600D84F2183A302E600D84F4183BA
:1016E4002303E600D84F6183A303E6009853230441
:1016F400E60098532183A304E6009853418323050D
:10170400E60098536183A305E600D8532306E60058
:10171400D8532183A306E600D85341832307E60068
:10172400DC53E183A307F600F24062440561828042
:101734000100B5B717570000130787B314434111CD
:1017440022C49C5E4AC006C6998326C2858B3A840D
:1017540017590000130989B1D1CB9C5E975400003E
:101764009384C4B193F7F7F99CDE1757000003473D
:1017740047B193070008631BF700832709009C43C4
:1017840093F7070417570000230DF7AE83C704002F
:1017940093F707049DC3975700009387A7969C432C
:1017A40082979757000023A3A7AE83C7040093F73B
:1017B400F70B175700002303F7AC83C7440093F7D4
:1017C40007048DE7854717570000A30BF7AA97571F
:1017D4000000938767AC9C43096798C7130700FC14
:1017E40097560000238EE6A8D844F8D31C40985F8F
:1017F4001183058B09CB985F3D9B98DF054797566E
:101804000000238FE6A6985F1D83058B11CB985F9C
:101814001377F7F798DF8547175700002302F7A6D9
:1018240083270900D8430583058B19C7D843759BC3
:10183400D8C3D843799BD8C3B240224492440249C6
:1018440041018280397106DE16DC1ADA1ED82AD6E6
:101854002ED432D236D03ACE3ECC42CA46C872C614
:1018640076C47AC27EC0F935F250E2525253C25362
:101874003255A255125682567247E2475248C24820
:10188400324EA24E124F824F21617300203097577F
:101894000000938767A09443975700009387079E9F
:1018A40003C70700058B11CB97570000238A079CB9
:1018B40097570000A386079C828003C71700058BF7
:1018C40065F7F85271FF83C75700DDB7175800005A
:1018D4001308089A032708001C5F9583858BD1E7BA
:1018E40009C61C5BBD832300F60085CA8327080054
:1018F400985B4607935767016356070093E707C051
:10190400C207C18303970600C207C18709C7BA97F4
:101914000947B3C7E7022390F60085CD8347150036
:101924008DCB9756000083C6C69593F6060413879D
:10193400970089478DCA3A9503470500854699471C
:101944001376F7066311D60262076187B947634CC1
:101954000700832708009C5FED838D8B17570000D9
:10196400A303F79281473E8582808547EDBF4111ED
:1019740022C406C61754000013040492184049E90F
:10198400AE877453FDFE3E85B285975700002388C9
:10199400078E972003E0E780C0DA9757000093870B
:1019A400278D9C43B70680009843558F98C3D8571A
:1019B400719BD8D797570000A384078C97570000D2
:1019C400A38E078A1C40094798C3B7F700E003A712
:1019D40007D16D9B23A8E7D003A707D15D9B23A85C
:1019E400E7D07300501014401757000013070789FD
:1019F40083472700858B89EB83473700858BD9C7BD
:101A040097570000238E0786B2402244410182800A
:101A14008D476310F50297570000938767859C43B1
:101A2400B70680009843558F98C3D857719BD8D771
:101A34005DBF8547E319F5FAB567BD075CC70F10AD
:101A440000001C400967094698C7130700F8975619
:101A540000002387E68217570000130767811443A9
:101A6400984231830D8B6319C7001307E043F8D301
:101A74003D673D07D8C785BF984231830D8B01E789
:101A840013076019EDB71307E01BD5B7FC52ADF38C
:101A9400A5BF5D7152DC174A0000130A6A7D032753
:101AA4000A0086C6A2C4A6C2CAC04EDE1C43975909
:101AB400000093892983174900001309E97D93F7EE
:101AC400F7E793E707081CC383A609003707CEFF8F
:101AD4007D179C46130680022A84F98F9CC68327AF
:101AE4000900130700082800B8CBAE84930510083A
:101AF400EFE0FFF2972003E0E780A0EE972003E0F9
:101B0400E780A0FB83270A009376F41F370FFCFFBE
:101B140023A40700984B4E88CA881367F70398CB11
:101B2400F84F130510F8D285137707E0558FF8CFD7
:101B34009843F576FD16758F98C39843B70633001E
:101B4400B70204001377F7E798C398439303401F41
:101B54007D1F1377F7E71367071098C303A70900DE
:101B6400930F800285491C47D58F1CC78327090022
:101B74001307900D3400B8CB1149014713533700B4
:101B840026938347030013767700B3D7C740858B2A
:101B9400DDCF9C41832E0800239C07042390070675
:101BA40003AECE02137EDEFF23A6CE0383AE070070
:101BB400137EF70793FE0EF833EECE0123A0C70180
:101BC40003AE4702336E5E0023A2C70383AE080050
:101BD400014E23A27E0603DA070663074E0303AE13
:101BE4000703038A0600135EFE00620E135E8E4135
:101BF4006358CA0103AE0703135EFE002380C601C7
:101C040003DE0706137EFE0F03AA4E0663060A00D0
:101C140003DA8705E37F49FB03AE4702337EEE0117
:101C240023A2C70383870600635CF400034E03000A
:101C34003396C9001346F6FF3376C6012300C3006A
:101C44003E8663D3A7002A8613158601618505079E
:101C54001377F70F8506E313F7F3B640264496444B
:101C64000649F259625A6161828097460000938660
:101C7400A6629C42D847131617016355060298477B
:101C840013161701635006027D57B8D71747000093
:101C94001307873D584F0507174600002324E63EE7
:101CA400116798C798470D83058B1DC3174700001C
:101CB4000347E75C13671700174600002301E65C3F
:101CC400130700F817460000230CE65A214798C76B
:101CD4009847058B09CF174700000347375A136706
:101CE400170017460000A30BE658054798C7984706
:101CF4000983058B09E798470583058B31CF9847FE
:101D0400174600001306865717450000130545566D
:101D14000983058B630307101841184331830D8B26
:101D240075EBAC4B184E93F5050203471700CDCD68
:101D340079EF13077006D8CF03470600136717001F
:101D440017460000230CE652114798C718415C5708
:101D5400F19B93E717005CD79C4298479316370191
:101D640063D606029746000083C68665C18A174774
:101D740000001307A75DC5CE034747071367070293
:101D840097460000238EE662056798C79847931626
:101D9400270163D10602174700000347674E620715
:101DA400618763570700054797460000238AE64C7E
:101DB400096798C798479316070163D606029746A2
:101DC400000083C6F65F858A17470000130707588B
:101DD400ADCE034757071367270097460000A3813A
:101DE400E65E216798C7828029D785456315B700C9
:101DF4001307B00689B789456315B7001307F006C2
:101E04001DBF8D456315B700130730072DB71307A2
:101E1400500715B71307600739BF03473600136728
:101E2400170017460000A30CE644094739BF834650
:101E340047070946BD8A6388C600034747078D469E
:101E44003D8BE313D7F4114725BF83465707918A87
:101E5400C9DA034757071367870041B7397106DEAC
:101E640016DC1ADA1ED82AD62ED432D236D03ACE7E
:101E74003ECC42CA46C872C676C47AC27EC0F53326
:101E8400F250E2525253C2533255A2551256825660
:101E94007247E2475248C248324EA24E124F824F16
:101EA400216173002030174700001307273F834642
:101EB400B7019747000083C737414C4BB697FD8B5A
:101EC40033D7F50097460000A38AF63C97460000F6
:101ED400A38CF63E058B15EF174700000347173F09
:101EE400B3F7E702814601471305000233D6E50044
:101EF400058A1378F70F19CA6397D700974700002C
:101F0400A38E07398280850693F6F60F0507E31F33
:101F1400A7FC8280974700009387C71E9C4301114A
:101F240022CC4EC606CE26CA4AC852C456C282978E
:101F34009747000093878738804781496305A40643
:101F4400BE84974700009387A717038767013E89DC
:101F540063550706018D135455009747000083C746
:101F640087359379F501636DF402370AC0A8B70A7F
:101F74004057153F9C449746000083C6C6331397C9
:101F840056003E9783076901158C63C50700636398
:101F9400470156979747000023A6E732E37BD4FC1A
:101FA4001604B3693401F24062444E85D244424976
:101FB400B249224A924A05618280E37D85F8B707D7
:101FC400C0A833848740229579B797470000938748
:101FD40067139C43411122C406C626C282979747C1
:101FE40000009387A72D80476309A406BE84974702
:101FF40000009387E70C8387670163D80704018D8A
:10200400135455009747000083C7E72A6367F40415
:10201400593D98449747000083C7E7299396570092
:1020240036971D8C9746000023AEE628E372F4FE33
:102034002244B240924417450000034535268145A9
:102044004101172303E0670063EEE37A85FAB707DB
:10205400C0A833848740229565B7B2402244924495
:1020640041018280974700009387C7279843B75759
:1020740002009387079F8326070913965600635827
:102084000600832607091396660063440600FD17BD
:10209400FDF3828071C5AA870145E9C58D07C20792
:1020A400C183F19BC207C18313074003636FF70227
:1020B40017470000130707290843174700001307B1
:1020C400E72714436398A60217470000130747FF46
:1020D400185B014541CB4111C20706C60545DD8D9C
:1020E4000297B2400145410182801747000013075F
:1020F4002725D9B70357650035E303574500636FB8
:10210400F704B306F7402146637CD6020328050092
:10211400938687001D8FAA96611717460000035601
:1021240006F52392E60023A006012393060014C1BA
:102134002312F500130786FF974600002399E6F261
:102144002313B5009745000083D565F2B387F540A6
:1021540017470000231DF7F02105828008419DB731
:102164000145828082800DC1974700009387871DB7
:1021740003A30700974700009387471C83A8070021
:1021840081469A8763E31701828003A80700636D81
:10219400F50A636BA80A13878700E367E5FE03D695
:1021A4006700216705076317E60003C7019C05075D
:1021B4002380E19C97450000938505EB03D64700F7
:1021C40003D76500239307003297420741831745DD
:1021D4000000231EE5E8638A670217450000130523
:1021E400251608416303F50203D5660019ED83D76C
:1021F400460023A0060121073E9621062392C6002D
:10220400974700002395E7E6B6879843E30E17F750
:10221400974600009386C6129442E307D7F6835686
:102224006700BDF283D64700035647001843A10652
:10223400B2962392D70098C383D76500A1071747A6
:1022440000002316F7E28280BE86C28725BF0111F3
:10225400974700009387870F22CC03A4C70B26CA95
:102264004AC84EC606CEAA8413092500854915C05E
:1022740083C7140003473400858B6304F700405C74
:10228400FDB71946930544004A85EFE0CFFEE318F5
:1022940035FF2285F2406244D2444249B249056185
:1022A40082804111974700009387470A22C403A400
:1022B400C70B26C24AC006C693042500054901E897
:1022C4002285B24022449244024941018280A6857B
:1022D4001305A40297D003E0E780007BE30225FF07
:1022E400405CF1BF4111974700009387270622C441
:1022F40003A4C70B26C24AC006C693042500054999
:1023040001E82285B240224492440249410182807C
:10231400A6851305A40197D003E0E780E076E302E5
:0823240025FF405CF1BF000041
:1023300097110020938101B717610020130181CC10
:102340001305400097E5FF1F9385C5CB17060020B6
:102350001306C6FD63FAC5008322050023A05500BD
:1023600011059105E3EAC5FE17B504001305052D17
:1023700097050020938585FB1386018763FAC500C6
:102380008322050023A0550011059105E3EAC5FE4F
:1023900013850187974500209385450D6377B50028
:1023A000232005001105E36DB5FEFD42739002BCCC
:1023B0008D4273904280B72200009382828873A07E
:1023C000023097E2FF1F9382E2C393E232007390E0
:1023D00052309742010093826292739012347300DC
:1023E00020303D432A876373C3029377F700BDEF24
:1023F000ADE5937606FF3D8ABA960CC34CC30CC775
:102400004CC74107E36BD7FE11E28280B306C3409D
:102410008A069702000096966780A6002307B700F9
:10242000A306B7002306B700A305B7002305B7002E
:10243000A304B7002304B700A303B7002303B70026
:10244000A302B7002302B700A301B7002301B7001E
:10245000A300B7002300B700828093F5F50F939691
:102460008500D58D93960501D58D61B7939627008C
:102470009702000096968682E78086FA9680C117BA
:102480001D8F3E96E374C3F8A5B73367B500FD53BF
:102490000D8B79E7B7877F7F9387F7F710419441DA
:1024A000B372F6003363F600BE92B3E26200639744
:1024B000720C6318D6065041D441B372F6003363F0
:1024C000F600BE92B3E262006398720A631BD60400
:1024D00010459445B372F6003363F600BE92B3E242
:1024E00062006391720A631ED6025045D445B372EE
:1024F000F6003363F600BE92B3E26200639A72089C
:102500006311D60210499449B372F6003363F600A2
:10251000BE92B3E26200639372085105D105E30FE6
:10252000D6F61317060193970601631CF70013579D
:10253000060193D706013305F7409375F50F91E92E
:1025400082804183C1833305F7409375F50F91E194
:1025500082801377F70F93F7F70F3305F7408280E8
:102560000346050083C60500050585056313D600EF
:1025700065FA3305D640828011059105E312D6FE37
:10258000014582802105A105E31CD6FC014582801E
:102590003105B105E316D6FC014582804105C10530
:1025A000E310D6FC01458280014711464148B386BD
:1025B000E5008147B308F50083C808008507C10618
:1025C00023A816FFE398C7FE11071105E31107FFC3
:1025D0008280935785019CC19357054193F7F70F6C
:1025E000DCC19357854093F7F70F1375F50F9CC522
:1025F000C8C582801C414111130705013EC05C41E2
:102600003EC21C453EC45C453EC693972500140857
:10261000B69783A707FF85051105232EF5FE8D8943
:10262000E315E5FE41018280397122DC41661384A5
:10263000C1A306DE26DA4AD84ED652D456D25AD094
:102640005ECE93050501A2863708FF007D1683073D
:102650000500034735001105E207D98F0307D5FFB1
:102660009106420733770701D98F0307E5FF220759
:10267000718FD98F23AEF6FEE39BA5FC814991446F
:10268000930A0101175B0400130B4BB4975B040022
:10269000938B4BB1130AC00293F734000329040053
:1026A0004844BDE78A85353785450A85A1370A87BD
:1026B0001C43110793F6F70093F7070FDA97B697C5
:1026C00083C70700232EF7FEE394EAFE02459247F4
:1026D0006205C2075D8DB2475D8DA247A2075D8D81
:1026E00093972900DE979C4385093D8D334525014D
:1026F00008C885041104E39144FBF2506254D2549B
:102700004259B259225A925A025BF24B216182809D
:102710003345A90008C8F1BF797122D426D24AD026
:102720004ECE52CC56CA06D62A8A93994500014409
:10273000938AC1A313090101C144B3073401D69799
:1027400088438A85793533078A008A871443904302
:1027500091074107B18E2328D7FEE39927FF110483
:10276000E31D94FCB250225492540259F249624A39
:10277000D24A45618280397122DC1304050106DEEC
:1027800022878147C1460C433306F10011070CC272
:102790004C4710083E960CC24C4F10103E960CC28F
:1027A0009107E392D7FE85450A85A9358945080832
:1027B00091358D4508103D3D81474147B306F100F5
:1027C00094421104232ED4FE1408BE96944254C49D
:1027D0001410BE969442910754CCE391E7FEF25058
:1027E00062542161828006059377051089C71375AD
:1027F000F50F1345B5018280411106C6ED37B24091
:102800004101D5B781471148C1483386F500B30669
:10281000F500014703AE06003303E6000507230079
:10282000C301C106E31807FF9107E39017FF8280F9
:102830009306050117560400130646A9130505055E
:10284000138706FF1C43110793F5F70093F7070F53
:10285000B297AE9783C70700232EF7FEE394E6FEF8
:10286000C106E31FD5FC82801C414111FD563EC0CC
:102870005C413EC21C453EC45C453EC68D47B385A7
:10288000B7409307C5001397250010083297032718
:1028900007FFFD1598C36393D5008D451387C7FFC8
:1028A0006314F50041018280BA87F1BF397122DCDF
:1028B0001304050106DE22878147C1460C43330617
:1028C000F10011070CC24C4710083E960CC24C4F49
:1028D00010103E960CC29107E392D7FE85450A85FB
:1028E00061378945080849378D450810B53F81474C
:1028F0004147B306F10094421104232ED4FE14087C
:10290000BE96944254C41410BE969442910754CC7F
:10291000E391E7FEF2506254216182809306050143
:10292000175604001306868A13050505138706FF4C
:102930001C43110793F5F70093F7070FB297AE9773
:1029400083C70700232EF7FEE394E6FEC106E31FCC
:10295000D5FC8280411122C406C626C285472E843A
:102960006301F50289476318F5002244B24092449E
:102970002E8541018DBD8D47631BF5002E85A53544
:10298000298C2285B2402244924441018280A5478D
:102990006315F5002E858D35DDB7AD47631AF5005B
:1029A0002E85993D8935AA842285353D258DC9BF5F
:1029B000B5476316F5002E858135AA84FDB7B94762
:1029C000E311F5FC2E850D3DAA84313DA98C2285AD
:1029D000193D3344950075B7597186D6A2D4A6D255
:1029E000CAD0CECED2CCD6CADAC8DEC6E2C4E6C2DF
:1029F000930605040A87AA879043C1074107232845
:102A0000C7FE03A647FF232AC7FE03A687FF232C82
:102A1000C7FE03A6C7FF232EC7FEE39FD7FC1759A7
:102A200004001309A99E130A050193090505832CC7
:102A30000900032C4900832B8900032BC900930A4A
:102A40000AFF8A848C406685910A29378C482A843B
:102A5000628509378C50298C5E85ED3D8C58298C18
:102A60005A85CD3D218D23AEAAFE9104E31C5AFD6B
:102A7000410A4109E39D49FBB65026549654065934
:102A8000F649664AD64A464BB64B264C964C65618B
:102A900082806382051493F7F500639E0712157117
:102AA000D6C3AA8A3285A2CDA6CB86CFCAC9CEC745
:102AB000D2C5DAC15EDF62DD66DB6AD96ED73284E9
:102AC000AE84EF108411C147631EF5002285A93E34
:102AD0000149130A0106975B0400938B2B93294C41
:102AE00063419902FE406E44DE444E49BE492E4A7F
:102AF0009E4A0E4BFA5B6A5CDA5C4A5DBA5D2D61F8
:102B00008280338B2A010C105A85793C814508104C
:102B100021318549081019350810B1391C10D286A9
:102B20003E8710434107C10623A8C6FE032647FF80
:102B300023AAC6FE032687FF23ACC6FE0326C7FFD3
:102B400023AEC6FEE31FEAFC1757040013070788ED
:102B500003280700832D4700032D8700832CC7001F
:102B60005284138607010C4042853ECE3ACC32CACD
:102B700042C8CD330C482AC66E85E93BB2460C509C
:102B80001104A98E6A8536C6F133B2464C54A98E1B
:102B9000668536C6C133B246F2475246358D88C384
:102BA000910742486247E310F6FC4107B287E39180
:102BB000EBFACE85081085098536E39D89F5081066
:102BC000B13B08104D3EA9450810B936DA8508100A
:102BD0001539410931B78280638D051093F7F500EF
:102BE000639907105171CECFAA893285A2D5A6D399
:102BF00086D7CAD1D2CDD6CBDAC9DEC73284AE846D
:102C0000EF00B47DC1476319F5002285313C0149CD
:102C1000138BC1A3634D9900BE502E549E540E5980
:102C2000FE496E4ADE4A4E4BBE4B6D618280338A4E
:102C300029018C0052858D3AA9458800F13C138406
:102C4000C1ACC14A930B00048800DD368800B93955
:102C50008800593308408A85AD3A48400C08953AB7
:102C600008440C10BD3248440C18A53218018147A5
:102C7000B306F100944241072328D7FE1408BE96FC
:102C80009442232AD7FE1410BE969442232CD7FEDA
:102C90001418BE9694429107232ED7FEE39A57FD4F
:102CA00008011D3B01479C003385E7001C01B3056B
:102CB000F70081473306F5003388F50014420328F6
:102CC00008009107B3C6060114C2E39557FF4107F8
:102CD000E31B77FD4114E31964F78800913E8800F7
:102CE000F136814588000D3CD2858800213E41099E
:102CF00015B782809307F00F6385F60A2D71232A9A
:102D0000911023282111B2842326311113060010BB
:102D10002E89AA89930530020A85232E1110232CAF
:102D200081103684EFF0EFEBA2852685EFE0806519
:102D300013178500935785003365F7002310A10012
:102D4000A6852286130531009304340023018100F7
:102D500093F4F40FEF00C40693F6F40089C64D0413
:102D6000158C9374F40F1C02A697A6850A85174646
:102D700004001306666F238007F0213B26868A85B0
:102D80004E85EF00E403230099008320C111032442
:102D9000811183244111032901118329C110156177
:102DA00082808280797122D432844AD04ECE2A89A0
:102DB000AE892285B685174604001306E66A26D238
:102DC00052CC06D636C6093DB246130A34005285A7
:102DD000A2962380060083440400834714008345A1
:102DE0002400A204DD8CEFE0E059639AA4020346BC
:102DF0002400D2854A852380C900EF00F46125456F
:102E00009745040093858564EFE0805B0545B250EB
:102E1000225492540259F249624A456182802380C9
:102E20000900254523000900974504009385C562E4
:102E3000EFE000590145E1BF411106C6EFA0A058DF
:102E4000B240AA86174704001307C7681716002068
:102E5000130606EB9745040093854569114541012A
:102E60006FE0C06A130101D9232291262320212774
:102E70002326112623248126232E3125232C412588
:102E8000232A512523286125232671250347050080
:102E9000930710042A89AE84E31BF7020347150049
:102EA00093074005E315F702034725009307E00564
:102EB000E31FF7002E86AA852545EFE0C05A1306CA
:102EC000D003A6854A85EFE0A0722A84635A0500E4
:102ED0003546A6854A85EFE0A0712A84634405083B
:102EE0009309D4FF9307100363CE37074E869305EB
:102EF00039002810EF0054529C04BE99175A040060
:102F0000130A8A93238409DED28A8149594B832587
:102F10004A002810EFE080670DC18E09D69983D74B
:102F200009005547636FF70017470400130707555B
:102F30008A07BA979C43BA9782878509210AE39842
:102F400069FD975504009385658EDDA89385F4FF90
:102F5000818D13051400C20581460146C1814A9541
:102F6000EF4040528320C12603248126832441263A
:102F7000032901268329C125032A8125832A412586
:102F8000032B0125832BC124130101278280138683
:102F9000F4FF018E9305140042064182CA95E808A9
:102FA000EFE0500D1305D105EF00344393150501F3
:102FB000C1811305D105EFE0501A974504009385B0
:102FC00025541305D105EFE0605C19CD9745040049
:102FD000938585530545EFE0A03E17250020034566
:102FE000F580EF70F02DBDBF974504009385055324
:102FF0001305D105EFE0805919CD9745040093855D
:1030000065520545EFE0C03B171500200345157ECE
:10301000EF70D02D81BF974504009385A55113050E
:10302000D105EFE0A0560DC1371700408327C70A2E
:10303000A1669745040093856550D58F2326F70A2E
:103040002545EFE0E03739BF974504009385C54F2C
:103050001305D105EFE0805311CD371700408327CA
:10306000870AA166974504009385854ED58F232452
:10307000F70AF9B7974504009385054E1305D10566
:10308000EFE0C05005C1B716004083A7C60C056726
:1030900013070780D98F23A6F60C97450400938564
:1030A000654C79BF974504009385C54C1305D10540
:1030B000EFE0C04D05C1B716004083A7860C056739
:1030C00013070780D98F23A4F60C97450400938536
:1030D000254BBDB7974504009385854B1305D10556
:1030E000EFE0C04A974504009385454B31F9974579
:1030F00004009385654B1305D105EFE02049974502
:1031000004009385254B0DFD974504009385454BA1
:103110001305D105EFE0804711C937170040832719
:10312000870C8566D58F2324F70C2DBD97450400A9
:10313000938585491305D105EFE0404511C937173F
:1031400000408327C70C8566D58F2326F70C19BD51
:10315000974504009385C5471305D105EFE000436B
:1031600011C59717002023A3076AEDBB97450400FC
:103170009385C5461305D105EFE0404101C5EF80B9
:10318000A03FCDB397450400938505461305D105AF
:10319000EFE0C03F01C5EF70B07AE9B39745040096
:1031A000938545451305D105EFE0403E01C5EF800D
:1031B00060344DBB97450400938585441305D105C4
:1031C000EFE0C03C01C5EFF0200569BB9745040066
:1031D000938585431305D105EFE0403B01C5EFF032
:1031E000C00B49B397450400938585421305D1056B
:1031F000EFE0C03901C5EFB0A073ADB3974504004F
:10320000938585411305D105EFE0403801C5EFB046
:10321000807289BB97450400938585401305D105CD
:10322000EFE0C03601C5EFB060712DBB97450400DB
:103230009385C53F1305D105EFE0403501C5EFD0BB
:1032400030120DB3974504009385C53E1305D10593
:10325000EFE0C03301C5EF10D14E29B3974504000C
:103260009385C53D1305D105EFE0403201C5EF1050
:103270001112CDB9974504009385C53C1305D105BE
:10328000EFE0C0302DC513059109EFF053302A84CB
:103290001305510DAE84EFF0932F2A8913051111F8
:1032A000AE89EFF0D32E2A8A1305D114AE8AEFF03F
:1032B000132E2A8BAE8B2A88AE885287D6874A86F1
:1032C000CE862285A685EF2010162AC42EC65AC0A7
:1032D0005EC25288D6884A87CE872286A6869745C0
:1032E0000400938565362545EFE04022A5B9974552
:1032F00004009385A5371305D105EFE0202901CD02
:103300009717002083D7C74D0567D98F171700205F
:103310002318F74C81B9974504009385653513054B
:10332000D105EFE0A02609C9FD7717170020035744
:10333000274BFD17F98FD9BF0346D105A5471306C3
:1033400006FD1376F60FE3EFC7C097170020A3879B
:10335000C74A974504009385E531EFE0201B19B17A
:103360001386F4FF018E130514004206418297551F
:103370000400938565544A95EFE0E034171400206B
:103380001304044631C5974504009385E52FE808EA
:10339000EF009403E808EF0054041316050141827E
:1033A000EC0813850177EFA0B02B974504009385B7
:1033B00065301145EFE0C00083570400414593E7B5
:1033C000170017170020231DF740EFE0704159BE8A
:1033D000974504009385C52E1145EFD0707E7D552D
:1033E000EFE0B04583570400F99B0DB7B1349DBEA3
:1033F0001386F4FF018E130514004206418297558F
:1034000004009385654B4A95EFE0E02B17140020EC
:103410001304043D29C18357040097450400938594
:10342000E52AE80893E7170017170020231AF73A50
:10343000EF008479E808EF00447A13160501EC08E0
:10344000418213850177EFA0B02197450400938551
:10345000A5291145FDB6974504009385A529E808DF
:10346000EF008476E808EF00447713160501EC08B6
:10347000418213850177EFA0B01E83570400974562
:1034800004009385E528F99B17170020231AF734C9
:10349000C9B7EF9010259717002093876734A8438A
:1034A000EFF02366AE862A869745040093850527AC
:1034B0001145EFE0A0057DB4EF70C07865B41756F4
:1034C00004001306E63F974504009385E525114562
:1034D00069B5EF90D072974504009385A52535F91D
:1034E0009745040093850526ADB73545EFB06039A3
:1034F000AA84EFF003612A86AE862545974504002D
:1035000093858525EFE0800097470400938707FFA8
:103510008843A685171400201304C495EFE0732890
:10352000232AA422EF90107803254423EFF0635D53
:10353000AE862A86974504009385C52295BF8145AE
:103540001545EF703065EF9050672A869745040067
:1035500093850524ADBF81451145EF70B06381456A
:1035600013059002EF70106381450D45EF70906276
:10357000EF9010652ACEEF907065F2462A87170605
:1035800000201306E67797450400938565211145D1
:10359000EFD0D077C1BA17170020035767B097163E
:1035A00000209386469717060020130666759745F8
:1035B000040093852521E1BF854717170020230DBF
:1035C000F7AEEF90306E974504009385E52051B536
:1035D00017170020034747AE85479745040093859A
:1035E0002520E318F7E6C5B7854717170020A30085
:1035F000F7B2EF90306B974504009385251F91BD7E
:103600009717002083C7B7B0974504009385851EA0
:10361000E38107E4CDB7971700209387671CC85F45
:10362000EFF0234EAE862A86974504009385451D0C
:1036300041B5152E05044A943146814517150020E1
:103640001305C5A397D0FF1FE780A03D8144930ACF
:10365000A400695AB30994400946CE85E80897D07A
:10366000FF1FE780803833899A000946CA854E8556
:1036700097D0FF1FE78060370946EC084A85F914A8
:1036800097D0FF1FE7806036E39644FD1946A28578
:10369000171500201305859EEFE0C0108145171512
:1036A00000201305A59DD922228697450400938505
:1036B00065161145EFD0906501469705000093858A
:1036C000C52A13056009EF70001C6FF0BF89014621
:1036D000A6854A85EF70302E6FF0DF887971B1478B
:1036E0002300F1009307170022D4A300F10006D6AF
:1036F0002301C1002A848D4715C7814713863700EF
:1037000008101376F60F2A963385F6000345050058
:1037100085072300A6FE13F6F70FE311E6FE0D075B
:103720009377F70F81460147850613F6F60F636816
:10373000F6041410BE962380E6FE138717001410BB
:103740001377F70F3697B5462300D7FE93862700E9
:1037500093F6F60F0A862285EF109108DD47631C69
:10376000F50015459755040093858583EFD05045A6
:103770002285EF10F104B250225445618280330655
:10378000D1000346060032971377F70F71BF8547C4
:103790002A86AE8663E3A702930780023307F50209
:1037A0009387C1AE1545BA9798474D8F98C79745EF
:1037B00004009385A57F6FD070558280411122C48B
:1037C00006C683C731AF2A8481C7AA850145C137A0
:1037D00083C7B1B199C7A2852244B24005454101D2
:1037E0007DB7B24022444101828085472A86AE8659
:1037F00063E5A702930780023307F5029387C1AE02
:1038000093C5F5FF1545BA9798476D8F98C79745AB
:1038100004009385251F6FD0704F8280411122C410
:1038200026C206C683C731AF2A849384C1AE91CB2A
:1038300098449347F5FFAA85F98F014523AAF1AE75
:103840006D3783C7B1B191CF9C581347F4FFA28560
:103850002244B2409244F98F23AEF1B005454101B4
:1038600069B7B240224492444101828001114EC6A0
:1038700006CE22CC26CA4AC883C931AF638809065E
:1038800083C7B1B17D54B9EB8549054493078002E4
:10389000B307F4021384C1AE2E89AA8413068002F2
:1038A00081453E94228597D0FF1FE780801785478A
:1038B000A303F40022851946A68597D0FF1FE78051
:1038C000C012CA85230324012685EF10E178B7458D
:1038D00017002A849385F5804E85553D2285F24058
:1038E0006244D2444249B24905618280014479BFB1
:1038F000011119468145280006CE97D0FF1FE780A9
:1039000040121306000581451385C1AE97D0FF1FF5
:10391000E780201119469705002093852576280019
:1039200097D0FF1FE780601585476308F500814544
:103930001705002013058574153F194697050020CB
:1039400093852574280097D0FF1FE78000138547D3
:103950006308F50081451705002013058572393786
:10396000F24005618280411106C6EF100177B24036
:103970001306000581451385C1AE410117D3FF1F12
:103980006700230A854763E2A70293078002B30713
:10399000F5021387C1AE0145B306F70083C6760072
:1039A00091C6B1073305F7008280014582807971A5
:1039B00006D622D426D24AD04ECEEFD0A0540DC582
:1039C00085450145EF20A12B05458545EF20212B9D
:1039D000054523990186239A0186B25022549254B8
:1039E0000259F24945618280EFD0C0512A8439EDF5
:1039F000971400209384C4DE7949EF20412263604C
:103A0000A4080145EF20012D6301050E83D721870E
:103A1000138717002399E1861307300B6376F700AD
:103A200081450145EF20A1250545EF20A12A69C167
:103A300083D7418713871700239AE1861307300B3A
:103A40006376F70081450545EF20612303D6218782
:103A500083D64187014532C636C4EF20A1272AC24A
:103A60000545EF2021271247A2463246AA879745EF
:103A70000400938565F62545EFD05029B9BF22850E
:103A800011379707002083C7075FAA8981CBB387C7
:103A9000270398581449158F6377F700971700206C
:103AA00083C797D895CF85452285EF20411D1707FD
:103AB00000200347475C33072703945883A7090175
:103AC000B387F640B3F7E70289E781C619E4239983
:103AD000018605041374F40F0DB7239A0186D5BF30
:103AE00081452285EF20A119EDB7239901862DBFCD
:103AF000239A0186A1BF397106DE22DC26DA4AD874
:103B00004ED652D456D283C711877547636BF708D8
:103B10008507A388F1869707002083C7C755ADCBDB
:103B20001384C1AE1389C1B38544971900209389CA
:103B300029CB130AC003974A0400938A6AEB834790
:103B40007400B9C783470402638497045C4C03A7DD
:103B500009031D8F9707002083C7E751B3874703E9
:103B60006364F7021305002023009402EFE0500283
:103B700019466C002285EFD0703E7000D685154541
:103B8000230C0100EFD0901813048402E31924FBE6
:103B9000F2506254D2544259B259225A925A216177
:103BA0008280370510000D05A3880186EFF01FC144
:103BB0009DB739714AD8138901878347090052D4C8
:103BC00056D2858B416A856A4ED65AD006DE22DCF3
:103BD00026DA2388F186054B9389C1AE7D1A938A34
:103BE0000A8003C50187636CAB0C93078002330521
:103BF000F5024E95044599CC8347750081CFEF10AF
:103C0000F17A2A8411ED974504009385A516154590
:103C1000EFD0007B8347090085072388F186D1B761
:103C200083470500A18BFDD78356A500E38446FF9B
:103C300003C6018797450400938505151545EFD008
:103C4000F00C9397C40063DE070893067100130617
:103C50006100930791003800930551001305A100FE
:103C6000EFA0D01B8357A10013074006974504001F
:103C70009385C513B3F7E70215452306F100834783
:103C80005100A306F100834761002307F100834739
:103C90007100A307F100834781002308F1008347E7
:103CA0009100A308F100EFD0A0711947740013062A
:103CB000800A835504010355A400EFF03FA283C797
:103CC000018709476385E70085072388F186F2505D
:103CD0006254D2544259B259225A925A025B21611B
:103CE000828093F7140081CF974504009385450D9A
:103CF0001545EFD0E06C0147740025465DBF93F792
:103D0000240081CF974504009385450D1545EFD0DC
:103D1000206B01477400194669BF9397B40063D8BC
:103D20000704EFD0201E17460400130626AB09E552
:103D3000174604001306C603974504009385850BB8
:103D40002545EFD0A07CEFD0E01B2306A1008355D2
:103D500004010355A400054774006146EFF01F9865
:103D6000B705100003C50187EFF03FA889BF93F79F
:103D7000041085CB974504009385C5091545EFD000
:103D8000206403C50187930780023305F5025000C4
:103D90006C004E95EF0050780347410074000946CF
:103DA00009BF93F7042085CB974504009385C50789
:103DB0001545EFD0E06003C5018793078002330506
:103DC000F50250006C004E95EF001075034741005E
:103DD00074000D46F9BD93F7044081CF9745040068
:103DE000938505061545EFD0A05D01477400054693
:103DF000C9B5B3F7540185C7974504009385850578
:103E00001545EFD0E05B970700209387A70683C78F
:103E10003720054774002306F100114659BD9397DA
:103E2000340163D90702974504009385650415455D
:103E3000EFD00059970700209387C70383D7072344
:103E400074001D4613978700A183D98F2316F100B4
:103E5000094785B59397240163D507029745040068
:103E60009385C5021545EFD0A0559707002093878D
:103E7000670083C72720054774002306F1003546F5
:103E80000DBD9397140163DD0700974504009385EA
:103E900025021545EFD0C05205477400394611BDC3
:103EA00093F7440081CF974504009385A5011545FC
:103EB000EFD00051014774001546E5BB93F784002D
:103EC00081CF97450400938565011545EFD0404F9C
:103ED000014774002146F1BB9397040163DD07009D
:103EE00097450400938545011545EFD0604D054782
:103EF000740041467DBB9397F40063DB070297454E
:103F000004009385E5001545EFD0804B170700208E
:103F1000130747F6035747209707002083C7E71585
:103F20002307F1002316E10074000D474D4651B3FD
:103F30009397E40063DD070097450400938505FF30
:103F40001545EFD0E0470147740051469DB3939764
:103F5000D40063DD0700974504009385E5FE154511
:103F6000EFD00046014774005546A1B39397A400D3
:103F700063DE0700974504009385C5FE2545EFD015
:103F80002044054774001306000225B3939794005C
:103F9000E3D207C8974504009385C5FE2545EFD0B9
:103FA0002042835504010355A40001477400130601
:103FB0001002EFF0AFF2B9B9954763F9C7565971DE
:103FC000A6D2CAD0CECE86D6A2D4D2CCD6CADAC891
:103FD000DEC6E2C4E6C2EAC06EDEB2892E89EF1008
:103FE000B145AA846303051219469385C1AE97D0E3
:103FF000FF1FE78080A80544630885121946938552
:1040000041B1268597D0FF1FE78020A7631F850E4B
:10401000130A8002B3074403138AC1AE0147314D2E
:10402000B54C170C0020130CAC7B974A0400938A04
:104030006A9F3E9AD284B30DE90083C70D00639155
:10404000A70D130847006352380D83CB1D00130BD7
:104050003700B3077B0163D5370BCA9783C70700C7
:104060006390970B81470146B385FD0083C515001A
:10407000850793F7F70F2E961376F60FE3F6FBFE00
:10408000B3877D0183C72700639CC70683270C0382
:1040900003C60402DCCC85476319F6021305004011
:1040A00042C63AC4EFE0C02E19466C085285EFD0E4
:1040B000E06A7008974504009385459715452304E9
:1040C0000102EFD0A044324822472380040283C774
:1040D0003D002D466385C732636CF60A1547638C35
:1040E000E7226366F7060947638FE7166360F70404
:1040F000638007140547638BE7145E9B1377FB0F00
:1041000005071377F70FE36837F3B6502654965434
:104110000659F649664AD64A464BB64B264C964C4B
:10412000064DF25D656182800144DDB50D47638710
:10413000E7181147E393E7FC974504009385C59979
:104140001545EFD0E02785659385058009AA2147AD
:10415000638BE7226361F70219476388E71E1D47F7
:10416000E39DE7F8974504009385C59D1545EFD07D
:1041700020258565EDA025476385E7242947E39E33
:10418000E7F603C64D0097450400938525A25DA878
:1041900051466381C72E6364F6043D476380E72A76
:1041A0006360F702638397293947E398E7F49745FB
:1041B00004009385A5A61545EFD08020916545A004
:1041C00041476380E72A4D47E399E7F297450400AA
:1041D0009385C5AB1545EFD0A01EC16549A06547C5
:1041E000638DE7306360F7025547638CE72C6147C6
:1041F000E395E7F097450400938545B22545EFD058
:10420000E030E5BD130710026388E7301307800A2A
:10421000638BE72C13070002E391E7EE9745040058
:10422000938585B12545EFD0A019B705200005A8D5
:1042300083C74D0003C65D00974504009385458004
:10424000A2075D8E1545EFD0602C45BD9745040053
:104250009385C5801545EFD0A016930500402285B3
:10426000EFF0AFD859BD03C74D008547631CF70277
:1042700097450400938505801545EFD060140965C6
:10428000EFE00011173504001305457FEF202008EB
:1042900083479C0493050010FD1717070020A30512
:1042A000F75875BF1545973504009385257EEFD0E7
:1042B0002011173504001305E57DC9BF03C74D0064
:1042C0008547631EF702973504009385A57D154544
:1042D000EFD0000F056513050580EFE0600B173583
:1042E00004001305A57CEF20800283479C049305FE
:1042F0000020FD1717070020A308F7528DB71545BA
:10430000973504009385C57BEFD0800B17350400EB
:104310001305857BC9BF03C54D00EFD0F33A03A653
:104320000A0083A64A00EFC0A372EFE05308C8C892
:10433000EFE0237D2A86AE861545973504009385E8
:10434000E57BEFD0A01C914519BF83C74D0003C585
:104350005D00A2075D8DEFD0333703A60A0083A668
:104360004A00EFC0E36EEFE0930488C8EFE06379A2
:104370002A86AE861545973504009385A57AEFD039
:10438000E0188945E9BD83C74D0003C55D00A2075C
:104390005D8DEFD0733303A60A0083A64A00EFC0F9
:1043A000236BEFE0D30088CCEFE0A3752A86AE86BE
:1043B0001545973504009385E57AEFD02015A14582
:1043C00079BD83C74D0003C55D00A2075D8DEFD0A9
:1043D000B32F03A60A0083A64A00EFC06367EFE08D
:1043E000037DC8C4EFE0E3712A86AE861545973594
:1043F00004009385A579EFD0601185458DB597357B
:1044000004009385257C1545EFC0907B973504000B
:104410009385057D1545EFC0B07A1165EFD05077D3
:1044200091652285EFF0AFB6C9B997350400938541
:10443000A57C1545EFC0D078896515B59735040082
:104440009385857F1545EFC0B07797450400938528
:10445000A5801545EFC0D0762165EFD07073A165BA
:10446000C9B797450400938565801545EFC0507521
:10447000A165F5B39307570019074A98CA97B30D7A
:10448000E90003C70D0083C60700034608009745EF
:1044900004009385E58115453EC642C4EFD0000770
:1044A0002248B247B705020003470800A380E40290
:1044B00083C707002381F40283C70D00A381F402A0
:1044C00079BBB30D090103C60D0097450400938520
:1044D00025811545EFD0800383C70D00B705040083
:1044E0002382F402ADBB9745040093856581154591
:1044F000EFC0106DB70508009DB385471707002072
:10450000A30DF7B6EF80107AEFE060431165EFD0AE
:104510003068B705200031B797450400938545837F
:104520002545EFC0F069B705400015BB82804111F9
:1045300022C421649305048099460146254506C698
:1045400097C0FF1FE780C013930504802244B24048
:104550009946138681872945410117C3FF1F6700CC
:10456000231299E10145828075DD011152C403DAFD
:10457000C18726CA93548A008504A204C204C1805C
:1045800056C2B38A4441C20A22CC4AC82E862E841F
:104590002A8997450400938525B1254593DA0A01B8
:1045A0004EC606CE93898187EFC0507663ED8A08A8
:1045B00083D5C18793F7F50FB1CF8D6783D5C187B9
:1045C00093870780A2864A86BE95294597C0FF1F1C
:1045D000E780000B1375F50F29ED83D749001566A9
:1045E000A297239EF18603D7C18783D7A18763094A
:1045F000F70063F3E700B297998F139607014182A2
:104600002545974504009385A5ABEFC03070137521
:10461000F40F0DA08D679387078093060010014665
:10462000BE95254597C0FF1FE78080051375F50FE0
:1046300049D50145F2406244D2444249B249224A36
:10464000924A05618280B3079440D297C207C18322
:10465000A18303C74900850793F7F70F9396870057
:1046600011EB9386170093740AF0A206C204C206E7
:10467000C180C18283D7A18763F6F4003387960097
:10468000E3C9E7FA0D6A130A0A800146B3854401BB
:10469000254597C0FF1FE780A0FE1375F50F51F960
:1046A00083D5C187A2864A86D29505B7411122C417
:1046B0001384818722858145194606C697C0FF1F4E
:1046C000E78020369307B0FA2300F4008D352244AA
:1046D000B240974504009385A595254541016FC0DB
:1046E000304EA165411199461386818793850580D7
:1046F0002D4506C697C0FF1FE78080F803C7818756
:104700009307B00A6303F7005537B24083D6C187D9
:1047100003D6A1879745040093854592254541011D
:104720006FC0D05E83D7C1B30145638C071003D53A
:10473000E1B36366F50023AE01B2014582803385A3
:10474000A740D1473355F5021375F50F01E5239EB8
:1047500001B28280130101BD23248142232611422C
:104760002322914223202143232E3141232C4141F6
:10477000232A514195471374F50F63F3A70015449D
:10478000228697450400938565952545EFC010580E
:1047900001498144938901B4514AA14A9377F90FA1
:1047A00003D5E1B3170700200347678363E9870454
:1047B000D1473304F4022A94239F81B2A147631C9A
:1047C000F706A6850808EF50006003D7E1B383D74A
:1047D000C1B305456364F70023AE01B28320C14233
:1047E0000324814283244142032901428329C14198
:1047F000032A8141832A4141130101438280B30787
:1048000049031408AA97CE9733859600631E570173
:10481000BE85EF50C07A2317A1008357E100050938
:10482000BE94C204C1809DBFAA851306E1003E85E7
:10483000EFA0B052DDB726860C080145EF80E054AA
:1048400069B78280011106CE22CC26CA4AC84EC65C
:1048500052C499E901442285F2406244D24442495B
:10486000B249224A05618280AA896DD583D7C18762
:1048700003D6A1872E849564638AC7006374F6000B
:1048800015673A961D8E93140601C18026869735CA
:1048900004009385E5762545EFC05047938714F0D3
:1048A0006356F4009307F00F63EA9700973504000E
:1048B000938585762545EFC0704569BF83D4C18750
:1048C000B3878400156A6349FA00A2854E85EFF02C
:1048D0005FC9EFF0DFC541B7156933099940420957
:1048E00013590901CA854E85EFF0BFC709E583D783
:1048F000C187E39147F7ED75A695A295C205239E62
:104900000186C18133852901D9B783D6C1B381EA34
:10491000973504009385C57625456FC0702A03D668
:10492000E1B34111918E9735040093856576254555
:1049300006C6EFC0B03D1387C1B38355070083D7C8
:10494000E1B3138501B49D8DC2053E95C181DD3D66
:10495000B24023AE01B241018280411183D7C1B37D
:1049600022C426C206C6AE971307401FAA842E840F
:10497000635AF700593F973504009385256E254506
:10498000EFC0102483D7C1B3138501B42286A68556
:104990003E95EFE0E34203D6C1B32296420622449D
:1049A000B24092444182239EC1B297350400938560
:1049B000656C254541016FC07035011126CA06CED0
:1049C00022CC4AC84EC652C456C2814459C1D1C134
:1049D00083D7A18703D4C187638D870663F58708D2
:1049E0001D8C42044180AE892A89228697350400B5
:1049F0009385855D0145EFC07031A28463F3890022
:104A0000CE84C2040D6A83D7A18703D7C187C18032
:104A1000938A8187130A0A8063FAE704A6864A8686
:104A2000B38547012D4597C0FF1FE78060C583D739
:104A30002A00A697239DF186EFF07FAF83D6C1872A
:104A400003D6A18797350400938545592545EFC0C6
:104A5000F02BF240624426854249D244B249224AB0
:104A6000924A0561828015673A949DBF15671D8F34
:104A7000B385470163D5E400A6864A8665B7956984
:104A8000B389F9406D743E94C20993D90901269403
:104A9000CE864A8642042D4597C0FF1FE78040BE60
:104AA0004180A28633063901D2852D45239D01869A
:104AB00097C0FF1FE780C0BC83D72A003E94239D88
:104AC00081869DBF397106DE22DC26DA4AD84ED6B1
:104AD00052D456D25AD05ECE62CCE9C9328455CA7D
:104AE000368CE9C6BA8B79C32A89AE8A2300AC001A
:104AF00085448149114B330634416353CB00114641
:104B0000137AF60F5286B3853A01480002C2EFE0ED
:104B1000232B0347510083476100034671008346FE
:104B200041004A97CA974A96050789070D06CA9613
:104B30002307E100A306F100A307D1002306C1006B
:104B40007800814703460700B306F9008507B18E58
:104B50002300D70093F7F70F0507E39567FF835707
:104B6000C1000357E100D29933059C00B98F231689
:104B7000F100B24711462C00910493F9F90F3EC49D
:104B800093F4F40FEFE0C323E3E789F623809B005F
:104B900005442285F2506254D2544259B259225AE5
:104BA000925A025BF24B624C216182800144D5B77C
:104BB0001D7186CEA2CCA6CACAC8CEC6D2C4D6C2E1
:104BC000DAC05EDE62DC66DA6AD86ED67DC52E8417
:104BD000E9C532897DC2368CEDC2834D0500AA84B9
:104BE000814C054D9149138A3D00938A1D00138B1A
:104BF0002D00930B00103306A44163D3C900114666
:104C00009377F60F3E86B385A40148083EC602CAD4
:104C1000EFE0031B83466101034741010346710135
:104C200083475101358F230AE100B18F33C7ED006F
:104C3000B346DB00A30AF1003346CA00B3C7FA004B
:104C4000A30FE100A30ED100230EC100230FF1003A
:104C50007408014783C706003386ED000507938774
:104C60000710918FB3E777038506A38FF6FEE31352
:104C700037FFF2473305990111462C083ECCEFE08F
:104C80002314B247910C93FCFC0F3E9D137DFD0F46
:104C9000E3638DF623009C0105442285F6406644BB
:104CA000D6444649B649264A964A064BF25B625CB0
:104CB000D25C425DB25D256182800144F9BF3971E9
:104CC0009307400622DC33F4F50226DA130771005D
:104CD000B684740806DEB377F6023304F402B387B1
:104CE000C5003E9493978500A181DD8D93178600C2
:104CF00021825D8E2314B1002315C1002C001146C2
:104D0000D13389C483457100680882942285F250AA
:104D10006254D25421618280317122DD26DB4AD96E
:104D20009307110118082A842E89B2849306F10092
:104D30001306E1009305D1001305210106DFEF9072
:104D4000F00D814719473306F40003460600B4000E
:104D5000BE962380C6008507E397E7FE83572101AF
:104D600013074006B3F7E7022307F1048347D10096
:104D7000A307F1048347E1002308F1048347F1000E
:104D8000A308F104834701012309F1049307A0FA62
:104D9000A309F104EFE0534A7800F418AC0031465F
:104DA0001375F50FEFF01FD24C0822851946EFC09E
:104DB000F01A500897350400938585332545230064
:104DC0000102EFC0A0740346C1004C08E818EFC010
:104DD000F0188346C1001819500893971600BA9727
:104DE00097350400938585312545238207F6EFC06A
:104DF000E071034801018347F1000347E100834666
:104E0000D10003562101954897350400938545301C
:104E10002545EFC0A06F0344C100EC184A852286E7
:104E2000EFD0137AFA50238084006A54DA544A5936
:104E300029618280938781170547238CE7001841F9
:104E40001045544598C30357450090C7D4C710492F
:104E500054492392E70090CBD4CB239DB7008280A6
:104E6000184193878119104598C30357450054454D
:104E700090C72392E70058551049D4C7544998CF9A
:104E8000973504009385C5380547254590CBD4CB8D
:104E9000238EE7006FC0C052397126DA4AD84ED649
:104EA00052D456D25AD006DE22DC62CE66CC2A8993
:104EB000EFE0B3529374F50F8149254BE54A173A59
:104EC0000400130A2A2B91ECF25062544E85D254FE
:104ED0004259B259225A925A025B724CE24C2161F9
:104EE000828003470900930707FD93F7F70F637C60
:104EF000FB009307F7F993F7F70F63E2FA069307BE
:104F000097FA93F7F70F139487016184FD14230038
:104F100089002685EFC0537B2A86AE8603250A00CA
:104F200083254A0093F4F40F0509EF10B13B2AC41E
:104F300022852EC6EFC053792246B246EFC06329C0
:104F40002A8C4E85AE8CEFC0537F2A86AE86628552
:104F5000E685EFB0E33CEFC07371AA89ADB7930665
:104F6000F7FB93F6F60F8147E3EFDAF8930797FC28
:104F700049BF411122C406C6830795022A8499C7F6
:104F800013059502EFD013612389A1128307D41270
:104F900091CB1305D412EFD0935FEFD05341938799
:104FA0000110C8D3B240224441018280011126CAB7
:104FB0009304150022CC97350400938565292A8433
:104FC000268506CE4AC84EC6EFC04064631E051053
:104FD00097350400938505282685EFC0206363027A
:104FE000050E85448307D4036386070C13059402DA
:104FF000EFD0535A85491379F50F1305D40363870E
:10500000340F8947638CF418EFD0D358A38AA112C8
:10501000631A39017946814513857115238F0186FD
:10502000EFD02FBC8307D40885C31305D408EFD075
:10503000735603C7E18793071700238FF186938781
:105040000110BA97A38BA7048307D40D85C313055A
:10505000D40DEFD0335403C7E18793071700238F94
:10506000F18693870110BA97A38BA7048307D41204
:1050700085C31305D412EFD0F35103C7E18793071B
:105080001700238FF18693870110BA97A38BA7048B
:105090008307D41785C31305D417EFD0B34F03C7C5
:1050A000E18793071700238FF18693870110BA9742
:1050B000A38BA704F2406244D2444249B24905613D
:1050C000828097350400938525192685EFC000540A
:1050D000E31905F026859735040093852518EFC060
:1050E000E0528944E31005F08144EDBDEFD0934ACE
:1050F000238BA112631A9900794681451385911378
:10510000238F0186EFD0EFAD8307D40885C3130545
:10511000D408EFD0334803C7E18793071700238FE4
:10512000F18693870110BA97A38CA7028307D40D49
:1051300085C31305D40DEFD0F34503C7E18793076B
:105140001700238FF18693870110BA97A38CA702CB
:105150008307D41285C31305D412EFD0B34303C71A
:10516000E18793071700238FF18693870110BA9781
:10517000A38CA7028307D417E38E07F21305D41775
:10518000EFD0534103C7E18793071700238FF186C0
:1051900093870110BA97A38CA70229BFEFD0933F42
:1051A000A38BA11201BF411122C406C68307950734
:1051B0002A8499C713059507EFD0D33DA389A1127F
:1051C0008307D40899C71305D408EFD0B33C238ACA
:1051D000A1128307540B91CB1305540BEFD0333B33
:1051E000EFD0F31C9387011088D7B24022444101CD
:1051F0008280411122C426C206C683071505814458
:10520000014499C703444505130404FD1374F40FC6
:105210008307550699C713055506EFD0B337937426
:10522000F50F2286A686973504009385250425452B
:10523000EFC0C02D1374B40F8D47631FF4009D475A
:1052400063FC970097F7FF1F83C7A75993E74700B1
:1052500017F7FF1F2307F758B24022449244410139
:105260008280011126CA8146B284014652C456C2C8
:1052700006CE22CC4AC84EC62A8AAE8AEFB09358D0
:1052800041CD9307E0046386F400930730056395EE
:10529000F40897390400938969F903A6090083A6E5
:1052A00049005285D685EFB0D37237949800EFC08D
:1052B000F33B130404682A8933758502EFC0F34772
:1052C00003A6090083A64900EFB08378973704004E
:1052D000938747F69043D443EFB083772A8A3355B8
:1052E0008902AE8AEFC073452A86AE865285D6857E
:1052F000EFB0030313073005AE876395E400B707EB
:105300000080AD8FF2406244D2444249B249224A01
:10531000924ABE850561828001458147E5B701114A
:1053200026CA8146B284014652C456C206CE22CC59
:105330004AC84EC62A8AAE8AEFB0D34C41CD9307F5
:1053400050046386F400930770056395F408973959
:1053500004009389A9ED03A6090083A6490052859C
:10536000D685EFB0136737949800EFC0333013043D
:1053700004682A8933758502EFC0333C03A609000F
:1053800083A64900EFB0C36C97370400938787EA80
:105390009043D443EFB0C36B2A8A33558902AE8A57
:1053A000EFC0B3392A86AE865285D685EFA05377F3
:1053B00013077005AE876395E400B7070080AD8FD3
:1053C000F2406244D2444249B249224A924ABE85DE
:1053D0000561828001458147E5B7135785009357E2
:1053E000050113D885009376F50F01111377F70F98
:1053F00093F7F70F618593F5F50F1378F80F99C2BE
:1054000011C3B9E3230CD100A30CE100230DF1007B
:10541000A30DA10003459101834781010347A10129
:105420002205A30E01014207C98F230EB1000345D7
:10543000B101D98F0347D1018345C101620522071C
:105440005D8DD98D0561828032951375F50F13132B
:105450008501135383415D46635766086146336394
:10546000C30285071376D70F114593F7F70F63052E
:10547000A6002545631AA6007946637FF602050754
:105480001377F70F85470DA809466312C7041386E3
:10549000067D93084006B36816036385080013F57C
:1054A000360011C5130500193366A60219EE7546BC
:1054B0006374F60085470D47230CD100A30CE1006F
:1054C000230DF100A30D6100B1B77146D5B77D463C
:1054D000E374F6FEB147E314F7FA850693F6F60F88
:1054E00085470547D1BFE35903FC6105FD17131339
:1054F000850193F7F70F13538341DDFF7D17137772
:10550000F70F1146F947E309C7FA1946E306C7FA48
:105510002546E303C7FA2D46E300C7FA8947631619
:10552000F7021386067D93074006B367F60291C71C
:1055300093F83600F547E38108F893070019B3673D
:10554000F60293B71700F10785BFFD4735F7FD1643
:1055500093F6F60F31478DB78347150003470500D3
:105560000111A2075D8F834725008346350006CED3
:10557000C207D98F034755008345450017F6FF1F23
:105580001306468F03066621E206220733E5F6007E
:10559000D98DEFF09FE4135885001356050193D77A
:1055A000850013F7F50F93F7F70F935685011376E0
:1055B000F60F9375F80F1375F50FEF90400C97F7F2
:1055C000FF1F83C7378B05476385E7001147639645
:1055D000E700F24005616F90001AF2400561828099
:1055E000497123248116138401108307340083C872
:1055F000511003C8411003C7211083C6111003C600
:10560000011097350400938565C9481023261116AB
:105610002322911623202117232E3115EFE0635406
:105620004810EFE0835B18485C48030604033AC067
:105630003EC2030814035C44184454109735040018
:105640009385C5C73695EFE0C3514810EFE0E358A6
:105650005C103E958307640017360400130686C36A
:1056600089C717360400130666C297450400938560
:105670006596EFE0034F4810EFE02356544C104C72
:105680005C1097350400938565C43E95EFE0634D4B
:105690004810EFE08354030634035C103E959735C1
:1056A0000400938565C3EFE0C34B4810EFE0E3527D
:1056B00003072403AA8448503ACE13840110EFD084
:1056C000434472475C10AE862A8697350400938562
:1056D000A5C133859700EFE0C3484810EFE0E34FE2
:1056E0005C1003C6411397350400938565C13E9550
:1056F000EFE023474810EFE0434E5C10973504007D
:10570000938505C13E95EFE0234C1389E111A284F6
:10571000974904009389898B03C6740519CA4810F8
:1057200032CEEFE0834B72465C10CE853E95EFE0C3
:1057300043438504E39224FF4810EFE0034A5C10E2
:1057400097350400938545BD3E95EFE0E3479744C8
:1057500004009384A4870346940319CA481032CEE8
:10576000EFE0A34772465C10A6853E95EFE0633FED
:105770000504E31224FF4C102545EFB0704483204C
:10578000C116032481168324411603290116832997
:10579000C11575618280411122C406C626C28307E5
:1057A00055012A84B9C7A946938707FDB387D70255
:1057B00003476501130707FDBA97A381F11003079B
:1057C000750183478501130707FD3307D7029387C8
:1057D00007FD3E972382E110830795010347A5014A
:1057E000938707FDB387D702130707FDBA97A382F4
:1057F000F1108307940281CB130710046391E7141F
:1058000085472383F1108307D4039384011099C73C
:105810001305D403EFD0A35788C4CCC403061405E2
:1058200009CA8844CC442388C112EFF09FA388C4DE
:10583000CCC48307540699C713055406EFD02355EB
:1058400088C8CCC80306940709CA8848CC48A388EE
:10585000C112EFF0DFAC88C8CCC88307D40899CF59
:105860001305D408EFD0A352973704009387879F7E
:105870009043D443EFB0F31588CCCCCC8307140A03
:1058800099C71305140AEFD0E3502390A1128307A0
:10589000540BB9C7A946938707FDB387D7020347BF
:1058A000640B130707FDBA972381F1100307740BEC
:1058B0008347840B130707FD3307D702938707FD40
:1058C0003E97A380E1108307940B0347A40B9387B3
:1058D00007FDB387D702130707FDBA972380F1109E
:1058E00083853400856703C64110938707E113075A
:1058F000C0033307E60283C65110B387F502BA9797
:10590000B69723A6F11217F7FF1F130767ED83570A
:1059100007003A8413F5870039E1038564000547E1
:10592000631FE50203C7211011EF8844CC440146F0
:105930008146EFB0236D05E923830110B9A02383CD
:105940000110D1B5FDD175D2EDD293E78700138553
:10595000011017F7FF1F2315F7E8EFF0FFBF83874C
:105960006400E1F7D1BF8848CC4801468146EFB0DA
:10597000636979D183C72110E1D31306800793852A
:10598000011013858108EFD0A34303C581D39D4740
:1059900005053365F5021306800793850110238CF6
:1059A000A1D2930780073305F502938701D43E9572
:1059B000EFD00341EFF0DFC21C582244B2409244C2
:1059C00017F7FF1F232AF7E4130680078145138585
:1059D000011041016FC0FFA00171232C811E232AF9
:1059E000911E1306101E2A84AE8468008145232E62
:1059F000111E2328211FEFC0DF9E814581470147EB
:105A000001465148CD485D436341960899C123063C
:105A1000F1001306A002A6852285EFB0703D8347F2
:105A2000C10051473386A440B387E70293051500B0
:105A300078007D16A29585073305F700EFD043382F
:105A40001306A002A685228503491400EFB0503A40
:105A5000894763C4A7080345C100D1473305F50250
:105A60007C0005053E95EFF02FC3631DA904194680
:105A7000972504009385857C1305D100EFB0B044D1
:105A80002DC56800EFF03FD135A8B306C40003C5AB
:105A90000600930665FD93F6D60F91EA850793F706
:105AA000F70F6361F302854501470506B1BFB38671
:105AB0000703130E011FF296BA96A38EA6E0050700
:105AC000E3D5E8FE8320C11F0324811F8324411FE7
:105AD0000329011F1301012082803307F4000347CB
